:020000040800F2
:10000000000003205D060008F5230008F723000820
:10001000F9230008FB230008FD230008000000006E
:10002000000000000000000000000000718D0008CA
:10003000FF23000800000000018E000889860008E8
:10004000AD060008AD060008AD060008AD060008C4
:10005000AD060008AD060008AD060008AD060008B4
:10006000AD060008AD060008AD060008AD060008A4
:10007000AD060008AD060008AD060008AD06000894
:10008000AD060008AD060008AD060008AD06000884
:10009000AD060008AD060008AD060008AD06000874
:1000A000AD060008AD060008AD060008AD06000864
:1000B000AD060008AD060008AD060008AD06000854
:1000C000AD060008AD060008AD060008AD06000844
:1000D000AD060008AD060008AD060008AD06000834
:1000E000AD060008AD060008AD060008AD06000824
:1000F000AD060008AD060008AD060008AD06000814
:10010000AD060008AD060008AD060008AD06000803
:10011000AD060008AD06000801240008AD06000881
:10012000AD060008AD060008AD060008AD060008E3
:10013000AD060008AD060008AD060008AD060008D3
:10014000AD060008AD060008AD060008AD060008C3
:10015000AD060008AD060008AD060008AD060008B3
:10016000AD060008AD060008AD060008AD060008A3
:10017000AD060008AD060008AD060008000000004E
:10018000AD060008AD060008AD060008AD06000883
:10019000AD060008AD060008AD060008AD06000873
:0C01A0000D240008AD060008192400081A
:1001B00010B5054C237833B9044B13B10448AFF3A1
:1001C00000800123237010BD800300200000000088
:1001D000AC5E020808B5034B1BB103490348AFF3FB
:1001E000008008BD0000000084030020AC5E02080F
:1001F00001F0FF01102A2BDB10F0070F08D010F8D8
:10020000013B013A8B422DD010F0070F42B3F6D1DB
:10021000F0B441EA012141EA014122F007047FF0F4
:1002200000070023F0E80256083C85EA010586EA4B
:10023000010685FA47F5A3FA87F586FA47F6A5FA87
:1002400087F68EB9EED1F0BC01F0FF0102F0070293
:1002500032B110F8013B013A83EA010313B1F8D13E
:100260000020704701387047002D06BF354603381F
:10027000073815F0010F07D1013015F4807F02BF58
:10028000013015F4C03F0130F0BC0138704700BFA9
:100290007BB972B90029BEBF00204FF0004106E0D3
:1002A00008BF00281CBF6FF000414FF0FF3000F086
:1002B000D3B9ADF1080C6DE904CE002909DB002BA0
:1002C0001ADB00F04DF8DDF804E0DDE9022304B0AC
:1002D0007047404261EB4101002B1BDB00F040F80E
:1002E000DDF804E0DDE9022304B0404261EB4101A6
:1002F000524263EB43037047524263EB430300F007
:100300002FF8DDF804E0DDE9022304B0404261EBA0
:1003100041017047524263EB430300F021F8DDF8DE
:1003200004E0DDE9022304B0524263EB430370476B
:1003300053B94AB9002908BF00281CBF4FF0FF314C
:100340004FF0FF3000F088B9ADF1080C6DE904CE34
:1003500000F006F8DDF804E0DDE9022304B07047A0
:100360002DE9F047089D8E4604468846002B4AD169
:100370008A42174662D9B2FA82F64EB1C6F120031C
:1003800001FA06F820FA03F3B74043EA0808B4403C
:100390004FEA174E1FFA87FCB8FBFEF1230C0EFB49
:1003A000118843EA084301FB0CF29A4209D9FB1871
:1003B00001F1FF3080F0EA809A4240F2E780023992
:1003C0003B449A1AA3B2B2FBFEF00EFB102243EAA2
:1003D000024300FB0CFC9C4509D9FB1800F1FF32DD
:1003E00080F0D6809C4540F2D3803B44023840EAFE
:1003F0000140A3EB0C0300211DB1F3400022C5E92D
:100400000032BDE8F0878B4205D90DB1C5E9000186
:1004100000210846F5E7B3FA83F1002946D1734578
:1004200002D3824200F20581841A6EEB030201209E
:100430009046002DE5D0C5E90048E2E7002A00F02B
:100440009080B2FA82F6002E40F0A4808A1A030C43
:100450004FEA174E80B2BCB20121B2FBFEFC0EFB8C
:100460001C2243EA024304FB0CF29A4207D9FB1810
:100470000CF1FF3802D29A4200F2E080C4469B1A87
:10048000B3FBFEF20EFB123340EA034302FB04F41B
:100490009C4207D9FB1802F1FF3002D29C4200F2C5
:1004A000CA8002461B1B42EA0C40A5E7C1F12006A8
:1004B0008B4022FA06F71F430EFA01F420FA06F3E6
:1004C0002EFA06FE4FEA1749234300FA01F81FFAF5
:1004D00087FCBEFBF9F01C0C09FB10EE44EA0E444D
:1004E00000FB0CFEA64502FA01F209D93C1900F105
:1004F000FF3A80F09C80A64540F2998002383C4447
:10050000A4EB0E041FFA83FEB4FBF9F309FB1344BA
:100510004EEA044403FB0CFCA44508D93C1903F142
:10052000FF3E80F08280A4457FD9023B3C4443EAF1
:100530000040A4EB0C04A0FB02EC64457346E146CA
:1005400062D35FD05DB1B8EB030264EB090404FA37
:1005500006F622FA01F31E43CC40C5E900640021EF
:100560004FE7B1FBF2FC010C41EA0E4180B240EAD8
:1005700001423B4638463C46B846BE462026B1FBC3
:10058000F7F1A2EB080241EA0C4166E7014618E7E1
:1005900010462CE7C6F120022EFA02F3B740B14014
:1005A00020FA02F24FEA174E0A43B3FBFEF8BCB240
:1005B0000EFB1833110C41EA034108FB04F9B0406B
:1005C00089454FEA104380B23ED9791808F1FF3CC3
:1005D00001D289451FD8A1EB0901B1FBFEF909FB46
:1005E00004F80EFB191192B242EA0142424529D2A7
:1005F000BA1809F1FF31C4D24245C2D2A9F10201B1
:100600003A44BEE7F0459DD2BEEB02036CEB070C0B
:100610000138E14696E7A7EB09094944A8F1020C25
:10062000B1FBFEF909FB04F8DBE773467FE75046B0
:1006300066E70846FDE63B44023A33E7ACF1020CBC
:100640003B441CE749469CE7A1EB0901C446B1FBCA
:10065000FEF909FB04F8C4E7704700BFDFF834D0A7
:10066000002103E00C4B5B58435004310B480C4B0A
:1006700042189A42F6D30B4A02E0002342F8043BA8
:10068000094B9A42F9D305F01FFB24F0A1FE01F0BB
:1006900091F870470000032048E915080000002089
:1006A0006401002080030020D03C0120FEE7704759
:1006B00008B500F0B9FDBDE8084000F03DBD00F010
:1006C000B5BD704710B50421044623F095FC2046C3
:1006D00010BD000038B50C4B0C4C18800C4B822020
:1006E00019806368984740F6110398420AD1094D72
:1006F00023682C60822098472B688220DB6898470B
:10070000002038BD0120FCE7A60300204C0000209B
:10071000A4030020A80300204FF4A071F020FFF7ED
:10072000D9BF0000F7B5394D2B6804461B698220FC
:100730009847208000284ED02B680DF106025B6997
:1007400001A982209847324B1B78002B4BD0BDF873
:10075000062040F674639A423FD9ADF80630BDF8E2
:1007600006209B1A9BB20A2B42D90B22B3FBF2F351
:10077000284A1288934201D9013A93B2BDF8042065
:10078000254840F6B8318A4234D8C2F571620E323B
:10079000016892B20F25B2FBF5F2204D2D88AA42D6
:1007A00084BF05F1FF35AAB28A4215468EB22AD916
:1007B000921B91B21A4E3768BB42BAB28CBF9A1ADA
:1007C000D21A92B211440529C4BF05603360036890
:1007D00063803368A38003B0F0BDB32A9CBFB4220A
:1007E000ADF80620BBE7BDF80630A3F5B473B9E752
:1007F0000023C3E7C2F56D62083292B20E2A016887
:10080000C8D800252A46891A89B2D3E7A803002050
:100810008C1E0020A4030020A0030020A6030020BB
:100820009C03002037B568460D461446FFF77AFF53
:10083000BDF8000030B1BDF802302B60BDF80430C7
:100840002360012003B030BD032821D8DFE800F089
:10085000020B12190F4B1A68B2FA82F252090421E4
:100860000D4805F0C5BC0B4B5A68B2FA82F252092A
:100870000821F5E7074B9A68B2FA82F25209102173
:10088000EEE7044BDA68B2FA82F252092021E7E778
:10089000704700BFAC03002000100240032821D89D
:1008A000DFE800F0020B12190F4B1A68003A18BF6C
:1008B000012204210D4805F09BBC0B4B5A68003AFD
:1008C00018BF01220821F5E7074B9A68003A18BFC4
:1008D00001221021EEE7044BDA68003A18BF01222A
:1008E0002021E7E7704700BFAC0300200010024062
:1008F00003280DD8DFE800F00206080A04210548A5
:1009000005F07BBC0821FAE71021F8E72021F6E783
:10091000704700BF0010024008B5032811D8DFE877
:1009200000F0020A0C0E0421074805F05BFC431E90
:100930005842584108BD0821F6E71021F4E720216C
:10094000F2E70020F3E700BF0010024070B5084D49
:1009500000240126E0B2FFF7DFFF18B12B68012B5E
:1009600018BF2E600134052C05F10405F2D170BDCD
:10097000AC030020012380F8781080F879307047AC
:100980007047002070470000034B4164003918BFD6
:1009900001211970704700BF8F2F01207047002080
:1009A0007047836B0BB10846184770474FF6FF70CE
:1009B0007047406803689B691847704770477047E5
:1009C0007047704710B5044600F046FD23680349A0
:1009D000D3F890302046BDE810401847000000D002
:1009E00008B503680446D3F8843098472368204646
:1009F000DB6F984700F0ECF8236820465B6F984760
:100A0000292001F0BDF900F0E3F8236820465B6F70
:100A10009847F8E710B504460AF0A2FF236820467D
:100A2000D3F8BC30BDE81040184700F0F9BC00F026
:100A3000FDBC00F02FBD00F0CFBC00F03FBD00F0CA
:100A400047BD00F0D3BC0AF0B9B910B58421044603
:100A500023F0D2FA204610BD10B590F8341090F86B
:100A600078400C4B8C421A7809D03AB90A4A0B49A3
:100A70001488088810800C8001221A7010BD002A8A
:100A8000FCD0054A05491488088810800C80002293
:100A9000F3E700BF882F0120842F0120862F01203B
:100AA00070B50D46194635B9094B0A4A0A4840F255
:100AB000FF2124F0DDF9C0E90F52084B003A18BFBE
:100AC00001221A700368BDE87040D3F890301847CF
:100AD0001C5F0208545F0208A25F02088E2F0120EB
:100AE00008B5094B1B888B4203D8084B1B889342DF
:100AF00005D9074B074A0848A32124F0B9F9074B49
:100B00001980074B1A8008BD842F0120862F0120F1
:100B1000E75F02084A600208A25F02088A2F0120EC
:100B20008C2F0120034690F87A0018B158680368AA
:100B30001B68184770470000012108B500220846CD
:100B400007F02CFE0A4B186028B90A4B0A4A2821E4
:100B50000A4824F08DF900220421012007F0BDFE8F
:100B6000074B186018B9074B034A2C21F0E708BD62
:100B7000C00300208D600208D660020805610208EB
:100B8000BC03002068610208024B4FF0FF31186877
:100B900007F04EBEC0030020014B186807F074BE7A
:100BA000C0030020024B0021186807F041BE00BFBF
:100BB000C0030020FFF7F0BF03480449006800238A
:100BC0001A4607F0C5BE00BFBC0300200400002089
:100BD00013B5084C00231A4601A9206807F0E9FE66
:100BE00020684FF0FF33002201A907F0E2FE02B0B7
:100BF00010BD00BFBC03002003685B6C18470120D8
:100C0000704703689B6A1847FEE740F2EF30704771
:100C1000054B0360054B4FF08062C3F88820BFF39B
:100C20004F8FBFF36F8F70471C70020800E100E028
:100C300010B504464FF45A61FFF7EAFF204623F04F
:100C4000DBF9204610BD000082B0002301930E4B5B
:100C50001A6B42F400021A631A6B02F4000201924A
:100C6000019A1A6942F400021A611A6922F4000218
:100C70001A61064B064A1A61064A5A61064B4FF042
:100C800080629A6002B07047003802407C200020E9
:100C9000E90E0008090C000800E100E008B50A2888
:100CA00009D8DFE800F006100E0808080810101038
:100CB0001000022008BD054B054A0648902124F08B
:100CC000D7F80020F6E70120F4E700BFAA61020888
:100CD000C56102081062020838B50C46887FFFF72C
:100CE000DDFFA58AE28A164B2169586342EA054274
:100CF0005A64628BD963521B1A642568082D0ED181
:100D00009A611A615862207F0E4A42EA0062DA61F3
:100D1000E2681A620C4A5961D9601A6038BD002233
:100D2000D8611A61E1680A0A480902F4784200F4BD
:100D3000FC600243C1F3C4010A439A63034AECE72F
:100D400000B002400900010001230200012303005A
:100D500008B50B280BD8DFE800F00612100A0A0AC3
:100D60000A0808080808022008BD0520FCE7054B12
:100D7000054A06486F2124F07BF80020F4E70120A3
:100D8000F2E700BFAA61020871620208106202085D
:100D90002DE9F04191F81D800C464046FFF7D8FF41
:100DA000A77F05463846FFF7D3FF06463846FFF7CC
:100DB00075FFA18A628B444B521A1A649A61228B86
:100DC000521A1A61E28A586342EA01425A6421695E
:100DD0006268D963DA602068802828D0227F0FD823
:100DE000202867D0402865D004281AD0364B45EA21
:100DF000026545F40035B845DD6161D0334A44E011
:100E0000B0F5807F04D0B0F5007FEFD1304800E02E
:100E1000304840EA0262DA61E2681A625E62596151
:100E200032E045EA026242F40032DA61F6E7A06895
:100E3000021DDA62227F45EA026545F40035DD6174
:100E40005E625961017841B1012921D0224B234AC8
:100E500023484FF48D7124F00BF8DA69418822F4AD
:100E60007F42013922F0100242EA0122DA610121B7
:100E7000154BDA6942F02002DA61DA699206FCD495
:100E800010229A600029B9D0164A1A60BDE8F08194
:100E9000B2F1FF01DA69408822F47F4200F1FF30AD
:100EA00022F0100242EA002242F0100218BF012193
:100EB000DA61DDE745EA0262034B42F40032B4E74F
:100EC00042F20132E1E700BF00B00240012301001D
:100ED000090002000A000200BB620208D562020893
:100EE0001062020801230200024B1B685868036865
:100EF0005B691847902F012070B5044625460A4BC0
:100F00000C30002660602672667245F8203B602235
:100F100029460AF07BFE04F55A63EE6024359D42B3
:100F2000FBD1204670BD00BF1C700208034B1A683D
:100F3000D207FCD423229A60704700BF00B0024061
:100F40007047000030B50F4C2568ED07FCD4232511
:100F50000904A56041F001010225FF2B656361646E
:100F6000E0630AD00849656241EA0363E361074B25
:100F700022626061E060236030BDE561039BA36392
:100F8000034BF8E700B00240090001000100020035
:100F90000100030030B50E4C2568ED07FCD4232575
:100FA0001204A56042F001020225FF2B6563626412
:100FB000E063E16008D01B0643F00213E361054BD8
:100FC00065626061236030BD034BE3610123F9E793
:100FD00000B0024001000200020002FF30B50B4CDD
:100FE0002568ED07FCD4232512041B06A56043F4F5
:100FF0000033022542F0010265636264E063E16050
:10100000E361034B65626061236030BD00B0024064
:1010100001000200012070474020704700EB811062
:101020000830704700EB811008307047012070478E
:1010300040F64C10704740F64C1303FB010008309B
:10104000704740F64C1303FB010008307047012045
:1010500070471020704700EB01100830704700EB1C
:10106000011008307047084601F078BD10B5034BF9
:101070000360044609F0F7FB204610BDD470020857
:1010800010B50446FFF7F2FF2046482122F0B4FFD6
:10109000204610BD10B5034B0360044609F0E3FB86
:1010A000204610BDA070020810B50446FFF7F2FFFD
:1010B000204640F6541122F09FFF204610BD00004C
:1010C00010B5034B0360044609F0CDFB204610BD6C
:1010D0006C70020810B50446FFF7F2FF2046182195
:1010E00022F08AFF204610BD10B5084B036004466D
:1010F00000F51860FFF7BAFF04F12C00FFF7CAFFF4
:1011000004F11400FFF7DCFF204610BD087102084F
:1011100008B50248FFF7E8FF08BD00BF9C12002099
:1011200010B50446FFF7E0FF204640F6283122F0D4
:1011300063FF204610BD00002DE9F34101F0ECF9FA
:10114000054601F0EDF900240146234628462246D3
:10115000009413F09FFE274B274A1A60204603F0A5
:101160006BFB264D264B274A27489A6013F0FAFD61
:101170002B68BFF35B8FDB0735D4284622F03EFF98
:1011800088B3224C224B236004F6CC1604F11400E1
:1011900004F12C0804F518676060C4F80880E76063
:1011A000266109F061FB1B4B6361404609F05CFB63
:1011B000194BE362384609F057FB184BC4F88039E5
:1011C00004F6C81003F050FD224604F6C81130465C
:1011D00003F08EFC304601F0C1FC114823F066FE9E
:1011E000284622F017FF0F4802B0BDE8F041FFF794
:1011F000E9BB00BFF42F0120480400209812002012
:10120000680400204C040020080000209C120020EC
:10121000087102086C700208A0700208D4700208FD
:1012200011110008C4030020704700000148FFF7B7
:10123000D7BB00BFC403002070B5264E264C274DF7
:10124000274B23603046FFF757FE284618F028FF4B
:10125000244810F0B3FE244B2448DC6000224FF4F5
:101260008071C3E9121222491A86C3E91A12214970
:1012700083F85820C3E91E011F49C3F880101F4995
:101280001F480B60F021C3E90422C3E90622C3E929
:101290000822C3E90A22C3E90E22C3E91022C3E9E6
:1012A0001422C3E917225A6683F870205A67C3E9EB
:1012B000016501801348018013484FF4A07101803B
:1012C0001248018012490A70012283F83420114A21
:1012D0001A6070BDF40400209412002068040020FD
:1012E0000C5F02084C040020C40300200000010130
:1012F00001000001000450001A001400902F01208A
:10130000842F01208A2F0120862F01208C2F01207D
:10131000882F0120306F02080148FFF779BC00BF19
:10132000F40400200020704781807047C18070471E
:10133000018170474181704770477047704770471F
:10134000704710B4C4880368121B84885B6D091B46
:1013500012B25DF8044B09B218474FF6FF73838150
:101360004FF0FF3303621368C361106070470020C1
:1013700070478B88838001207047704780F8261063
:10138000704790F82600704710B50022B1F9084068
:10139000B1F90A10028042808480C18010BD002211
:1013A000028042808280C28070470177704780ED62
:1013B000080A704780F82410704780F8251070479D
:1013C00001207047983070478C30704784307047E8
:1013D0007047704770470000034B902283F85A23F0
:1013E00083F85823704700BF00E100E0094A0A492A
:1013F000D3680A48C3F30A03013B9BB20B8011690F
:10140000C1F30A01013901801364536B43F00103F6
:101410005363704700680140C61D0020C41D0020B2
:10142000014BD3F8AC00704700680140024B012229
:10143000C3F8AC105A6270470068014010B52C2107
:10144000044622F0D9FD204610BD10B5BC2104464B
:1014500022F0D2FD204610BD70B5044609F003FD10
:1014600023689D6E0FF03EFB01462046A847236887
:10147000054AD3F88C502046AC460023BDE87040A6
:10148000A2F51631604700BF00B004D009F0D2BC0D
:1014900009F0DCBC09F098BC09F007BE90F82520E3
:1014A00012B103685B691847704790F825201AB19C
:1014B00090F8242002B1186070470000034B4FF0F1
:1014C00080629A604FF080729A60704700E100E09D
:1014D000084B4FF08062C3F88820BFF34F8FBFF3F3
:1014E0006F8F4FF08072C3F88820BFF34F8FBFF328
:1014F0006F8F704700E100E070B50023124E8380CB
:10150000124B0360336893F8582005460AB1D86C33
:1015100000B998680368DB6A98473368B0FA80F4CA
:10152000D86C640930B10368DB6A9847002808BFAB
:1015300044F001042CB9064B064A07482C2123F03D
:1015400097FC284670BD00BF902F01201C71020837
:101550001363020871630208AA63020870B5254E7E
:101560003568BFF35B8F15F0010540D1304622F09E
:1015700045FD00283BD0204C204B256104F1340070
:10158000C4E90035C4E90255E584A562A58510F0DB
:10159000FAFF04F158000BF0EFFF194BA36520464A
:1015A000184B40F8843BFFF7A7FF174BC4F8843073
:1015B0002433C4F88C304FF4C803C4E92835002321
:1015C000C4F8AC30C4F8B030C4F8B430C4F8B830A3
:1015D0000E480F4BC4F89050C4F89C50C4F8A85063
:1015E000C4F8983023F062FC304622F013FD024824
:1015F00070BD00BFC81D0020CC1D0020B07B0208BC
:101600003C710208B4710208647B0208D51300081B
:10161000447B020838B5184C23685BB3174B184A53
:101620001B6C11888B4216D1164B198805F0E8FB0C
:10163000236893F86A200025013283F86A2083F832
:101640007C50FFF7B9FA20680AF08AF92846BDE80D
:101650003840FFF7F9B805F0D3FB2468236820462B
:101660001B6A9847012384F87C300020BDE838408D
:10167000FFF714B938BD00BF902F0120006801406A
:10168000C61D0020C41D002007B5064BADF806009E
:101690001B68054801220DF1060106F09DF903B013
:1016A0005DF804FB0C000020181F002007B5184D42
:1016B000184E1748042104F095FD044670B9012323
:1016C0004FF4005128468DF8073004F096FD30683D
:1016D000234622460DF1070107F03AF90C4808218C
:1016E00004F080FD044670B902234FF400512846EF
:1016F0008DF8073004F081FD3068234622460DF155
:10170000070107F025F9642007F03CF8D1E700BF96
:1017100000180240901E002030B595B01022002124
:101720000AA823F0ACFD1422002103A823F0A7FD92
:1017300000241E4B01941A6C42F080521A641B6CF8
:1017400003F080530193019B194B02941A6842F4F1
:1017500040421A601B6803F4404302930122029B3B
:101760004FF48033CDE9082302254FF4800308218C
:10177000CDE90E534FF4B473CDE9101308A8042338
:101780001393129505F094FB05F058FB0F23CDE958
:1017900003354FF4A0504FF48053CDE906030521E3
:1017A00003A8059405F060FD15B030BD0038024077
:1017B000007000402DE980489DB004F093FAFFF7D7
:1017C000ABFF142200210FA823F059FD0024C84BC1
:1017D00000941A6BC748C84DDFF8548342F01002DA
:1017E0001A631A6B02F010020092009A01941A6BAD
:1017F00042F020021A631A6B02F020020192019A51
:1018000002941A6B42F080021A631A6B02F0800293
:101810000292029A03941A6B42F004021A631A6B42
:1018200002F004020392039A04941A6B42F001023C
:101830001A631A6B02F001020492049A05941A6B5F
:1018400042F002021A631A6B02F002020592059A34
:1018500006941A6B42F040021A631A6B02F04002BF
:101860000692069A07941A6B42F008021A631B6BE1
:1018700003F00803224607933C21079B04F0B8FCC1
:101880009E480122022104F0B3FC22469B48042119
:1018900004F0AEFC22469A484FF4405104F0A8FCF4
:1018A000224698484FF4C04104F0A2FC01263C2394
:1018B000CDE90F368F48119403230FA90227129305
:1018C00004F0ACFB8D480FA9CDE90F76CDE91144AA
:1018D00004F0A4FB042389480FA9CDE90F36CDE914
:1018E000114704F09BFB884811940FA9CDE90F64C0
:1018F00004F094FB4FF4405381480FA9CDE90F3613
:10190000CDE9114704F08AFB0C237E4811960FA9FC
:10191000CDE90F3404F082FB0FA94FF4C04379489E
:10192000CDE90F36CDE9114404F078FB7748784BC8
:10193000036004F069FADFF8FCE1764B2C62C5E93C
:1019400000E328464FF48043C5E90434C5E9024466
:10195000C5E9064404F05AFE1021284605F09EF819
:10196000214628466C4D05F0B8F84FF48273C5E95E
:1019700000834FF400791823C5E9069328460A230B
:10198000C5E90244C5E90444C5E90844AC62EB6218
:1019900005F0C6FF8F232246394658488DF82C3073
:1019A0008DF83C4004F024FC32464FF47A730BA9C6
:1019B000284606F011F84FF47A7332460FA92846EC
:1019C00006F0B6F9324639464C48544D04F010FC46
:1019D0009DF83C30D32B04BF514B1E70514B012658
:1019E000C5E900364FF0100A40230024C5E904A3DE
:1019F0004FF4C073C5E906344FF40063C5E90834F9
:101A00004FF4005302274FF00409AB624FF0030B71
:101A100007230FA92846CDE90F73CDE911934FF0A5
:101A20000808C5E90249CDE913B7159705F05CFE32
:101A30004FF6FF720BA92846CDE90C8608940B9649
:101A40000E9405F071FE304604F078F94FF6FF72FF
:101A50000BA92846CDE90B78CDE90D6405F064FEAD
:101A60004FF6FF720BA92846CDE90BB8CDE90D94CE
:101A700005F05AFE4FF40C730893089B0E934FF633
:101A8000FF720BA92846CDE90B980D9605F04CFE88
:101A900040F26A51284605F065FE342221460FA81F
:101AA00023F0EDFB204D214B2C61C5E900340923C7
:101AB000C5E905361D23C5E9073B40F20D1240F28A
:101AC0004313C5E9092340F2171140F24713284692
:101AD000C5E90B13C5E90244AC8685F8364005F02C
:101AE00097F8FF21F022CDE914144FF4806023E031
:101AF0000038024000100240282000200008024068
:101B0000000C02400018024000000240BC200020EF
:101B100000300240A0860100181F00209C1E0020FB
:101B20008C1E0020400100A0801F002000680140A2
:101B300000500140005C004005214FF4A073CDE946
:101B40001601CDE910240FA9CDE9184228462246F6
:101B5000CDE912373E4D1A930F94ADF86C408DF8D5
:101B60006E4005F020F93B4B2B601B6898472B68B3
:101B7000394DDB689847394B2846C5E90034C5E93B
:101B80000274C5E90A47C5E90C4404F04DF9314631
:101B9000284604F0FFF93248324B036005F058FD47
:101BA000524621460BA8304D304F23F068FB1C22D3
:101BB00021460FA8CDE9094423F061FB5323C5E971
:101BC000007328464FF4FA73C5E90334AC60AC6186
:101BD00006F0FEFA4FF480530BA928460B9306F04B
:101BE000E1FB284606F020FB09A92846CDE9094477
:101BF00006F072FC4FF0600CFA2322460FA928462B
:101C0000CDE90FC31194139406F06AFB284600F047
:101C10000BFBFEF74DFDFEF74AFD06F043FD144AAF
:101C20003146404606F059FE124B134A18602146D1
:101C3000124806F063FD124B124A18602146124802
:101C400006F05CFD114B186006F03EFDFEE700BF9C
:101C5000881E0020140000207C20002000B00240DC
:101C6000701F002000080650D01E00200004004015
:101C7000F8710208901E002034720208AD160008A8
:101C8000981E002010720208BF060008941E002053
:101C9000704770477FB5094B8DF817201B6802937A
:101CA0000DF117020123009201930A4601460448F0
:101CB00004F054FD07B05DF804FB00BF10000020E5
:101CC000282000207FB500238DF81730084B1B68B3
:101CD00002930A4601230DF1170100910193014679
:101CE000044804F0CBFD9DF8170007B05DF804FB35
:101CF00010000020282000201FB5084C2468009206
:101D0000CDE901340A4601230146054804F0B6FD39
:101D1000003818BF012004B010BD00BF1000002023
:101D20002820002004F00AB810B5064C00222046F6
:101D3000042104F05DFA20460122BDE81040042190
:101D400004F056BA0008024038B50B4D0446012293
:101D50000A484FF4005104F04BFA002204212846AF
:101D600004F046FA2046FFF78FFC28460122BDE822
:101D70003840042104F03CBA00080240000C024044
:101D800038B50B4D044600220A484FF4005104F0C8
:101D90002FFA00220421284604F02AFA2046FFF7F1
:101DA00073FC28460122BDE83840042104F020BA23
:101DB00000080240000C0240F7B5144E144F0546CF
:101DC0000C4630460022042104F012FA00224FF49F
:101DD0000051384604F00CFA2846FFF755FC0D4B2D
:101DE0000D481B68224601A905F0A2FF38460122D2
:101DF0004FF40051019C04F0FBF93046012204210C
:101E000004F0F6F9204603B0F0BD00BF0008024020
:101E1000000C02400C000020181F002003F08EBFB1
:101E20000268034B9A4201D103F076BF704700BFAE
:101E3000001000407047000082B00E4B002200925C
:101E4000596C41F480415964596C01F4804100910E
:101E500000990192196C41F0805119641B6C03F0D8
:101E600080530193019B0F216FF0010002B003F03A
:101E70008BBF00BF003802400268094B9A4282B013
:101E80000BD100230193074B1A6B42F480521A6363
:101E90001B6B03F480530193019B02B0704700BF9A
:101EA000003002400038024007B50F4B02689A42EA
:101EB00016D10022A3F5F0430192196B41F4000101
:101EC00019631B6B03F40003019305215A20019B46
:101ED00003F05AFF5A2003B05DF804EB03F086BF0D
:101EE00003B05DF804FB00BF00B002402DE9F043F1
:101EF000044689B01422002103A823F0C0F9226807
:101F0000244B9A4243D1244C244800250095236B4E
:101F100043F004032363236B03F004030093009B4B
:101F20000195236B43F001032363236B03F001034B
:101F30000193019B4FF012094FF400734FF0010819
:101F40000327042603A9CDE90339CDE905870796C0
:101F500004F064F84FF480731148079603A9CDE9A3
:101F60000339CDE9058704F059F80295236C43F451
:101F700000032364236C03F400030293029B236A8F
:101F800043F400032362236A23F40003236209B0AD
:101F9000BDE8F083005C00400038024000080240C9
:101FA00000000240F0B599B004461422002107A8B1
:101FB00023F065F930220DEB0200002123F05FF9D8
:101FC00022685E4B9A4240F0B78008230C93C023EE
:101FD0001093042312930CA84FF40033159305F0CB
:101FE0000BFA08B1FFF726FF554B56480024009422
:101FF0005A6C42F080625A645A6C02F0806200921D
:10200000009A01941A6B42F020021A631A6B02F0D4
:1020100020020192019A02941A6B42F001021A63A3
:102020001A6B02F001020292029A03941A6B42F0B8
:1020300002021A631A6B02F002020392039A0494DA
:102040001A6B42F040021A631A6B02F040020492CB
:10205000049A05941A6B42F004021A631A6B02F098
:1020600004020592059A06941A6B42F008021A635C
:102070001B6B03F00803069302250E26069B0B96A6
:102080004FF4806307A9CDE90735CDE9094503F091
:10209000C5FF41F658032C480B9607A9CDE9073533
:1020A0000927CDE9094503F0B9FF032327480B971A
:1020B00007A9CDE90735CDE9094503F0AFFF4FF496
:1020C000706322480B9607A9CDE90735CDE909458C
:1020D00003F0A4FF4FF40C631D480B9607A9CDE94C
:1020E0000735CDE9094503F099FFC02319480B9640
:1020F00007A9CDE90735CDE9094503F08FFF08238E
:1021000015480B9607A9CDE90735CDE9094503F038
:1021100085FF4FF4A0530E480B9707A9CDE907356B
:10212000CDE9094503F07AFF58202246052103F046
:102130002BFE582003F05AFE19B0F0BD0068014094
:102140000038024000140240000002400004024037
:102150000018024000080240000C02400268094BCF
:102160009A4282B00BD100230193074B5A6B42F085
:1021700040025A635B6B03F040030193019B02B082
:10218000704700BF000806500038024010B50446F2
:1021900088B01422002103A823F071F82268144BA0
:1021A0009A4223D103F56843002101915A6C1148EA
:1021B00042F480125A645A6C02F480120192019A1D
:1021C00002911A6B42F020021A631B6B03F020038A
:1021D0000293029B4FF4607202230321CDE9032393
:1021E0000523CDE9061303A903F018FF08B010BDBD
:1021F00000500140001402400268094B9A4282B02C
:102200000BD100230193074B1A6C42F002021A64AF
:102210001B6C03F002030193019B02B0704700BFE7
:10222000000400400038024010B5044686B0142275
:10223000002101A823F023F822680D4B9A4214D103
:10224000002300930B4B0C481A6B42F002021A63F6
:102250001B6B03F002030093009B1022022301A9D1
:10226000CDE90123059303F0D9FE06B010BD00BFF0
:102270000004004000380240000402402DE9F04113
:1022800086B0002303932B4B1C68002C4FD14FF0DA
:102290000108C3F80080284B00949A6B274842EA53
:1022A00008029A639B6B03EA080300930227032644
:1022B0000C25009B01A94FF63F03CDE90137CDE97D
:1022C000046503F0ABFE1E48059501A9CDE9018721
:1022D000CDE9034603F0A2FE48F2331319480595F1
:1022E00001A9CDE90137CDE9034603F097FE4FF68A
:1022F00083731548059501A9CDE90137CDE903465A
:1023000003F08CFE4CF203731048059501A9CDE94A
:102310000137CDE9034603F081FE60230C480595A3
:1023200001A9CDE90137CDE9034603F077FE06B0F8
:10233000BDE8F081C42000200038024000140240B3
:10234000000802400018024000100240000C024049
:102350000004024070B588B000230293204B1A6C31
:1023600042F010021A641B6C03F01003029305463E
:1023700001A903A8029B05F021F8069B4BBB05F0C1
:102380000DF8184E184B336040F2E733F360174BEB
:10239000B0FBF3F3013B7360304600233361B3605D
:1023A000B36105F015FF044680B9304605F0E4FD41
:1023B000044658B9362003F019FD0F2D0DD82246DA
:1023C0002946362003F0E0FC094B1D60204608B08A
:1023D00070BD04F0E3FF4000D3E70124F6E700BF3F
:1023E00000380240C82000200010004040420F008A
:1023F0007C0000207047FEE7FEE7FEE7FEE770473F
:10240000014805F0F8BD00BFC8200020014804F0D5
:102410006DBC00BF801F0020014803F031BD00BF2C
:102420007C2000200120704708B522F0CBFF162346
:1024300003604FF0FF3008BD08B522F0C3FF16233C
:102440000360FEE770B50D4614460E46731B9C42B2
:1024500001DC204670BDAFF3008006F8010BF5E704
:1024600070B50D4614460E46731B9C4201DC204697
:1024700070BD16F8010BAFF30080F5E74FF0FF30A9
:1024800070474FF400534B600020704701207047A5
:10249000002070470A4A116808B5034609B909497E
:1024A00011601068694603448B4206D922F08AFF06
:1024B0000C2303604FF0FF3008BD1360FCE700BF42
:1024C00010210020D03C0120704708B5062919D8FA
:1024D000DFE801F00414080C1014140002F0F8F9FD
:1024E000006808BD02F0F4F98068FAE702F0F0F93C
:1024F000C068F6E702F0ECF90069F2E702F0E8F9EB
:102500004068EEE70020ECE710B50421044621F016
:1025100073FD204610BD0000004870476C72020831
:102520001720704713B5002451B1036801948DF84A
:10253000034001AA9C680DF10303A04702B010BD3F
:102540000846FBE7C0897047008A7047C08870471B
:1025500080887047807A00F07F007047807AC009D9
:1025600070470020704700009FED010A704700BFD0
:1025700000000000704710B50821044621F03CFD22
:10258000204610BD7047704700F598730868496889
:1025900003C370477047704741607047704770478A
:1025A000064BC0F84C310023C0F8503100F5A2733F
:1025B000C0F84801C0F84031704700BF1D30000826
:1025C000012303727047704770477047704738B5F2
:1025D000054640680368DB699847044604B938BD7E
:1025E000A188AB89C91A236820461B6B09B298479A
:1025F000A469F3E738B5054640680368DB69984786
:10260000044604B938BDE188AB89C91A236820465D
:102610005B6B09B29847A469F3E738B50546406893
:102620000368DB699847044604B938BDA188AB89C3
:10263000C91A236820461B6B09B29847A469F3E7BF
:1026400010B4C26841685410034601EB6200D2071F
:1026500048BF0A599B685DF8044B48BFD3581847D8
:102660000346406830B19A681AB9D86800F0010092
:1026700070470120704710B50C21044621F0BCFCC6
:10268000204610BD10B51021044621F0B5FC2046AF
:1026900010BD10B51021044621F0AEFC204610BD3F
:1026A00010B51021044621F0A7FC204610BD10B53E
:1026B0001021044621F0A0FC204610BD10B54FF4B7
:1026C000AE71044621F098FC204610BD10B50EF006
:1026D00009FA0368BDE81040DB6B184710B50EF02F
:1026E00001FA0368BDE810405B6B184710B50EF0A7
:1026F000F9F90368BDE810405B6B184710B50EF0A0
:10270000F1F90368BDE810405B6B184737B5054623
:10271000807A6B7A0130C0B29842A87205D9012341
:102720002B720023AB7203B030BDB5F90C20B5F9A4
:102730000E40002110F090FBC30707D500284FF68C
:10274000FF73C8BF012313FA80F000B2AB7AE881AF
:10275000041B012BA4B206D1174B1B781BB10EF042
:10276000C1F90EF0C5F9154A00231288ADF8023000
:10277000EB891A445B42ADF80430114BADF80020F0
:102780001B88ADF806300EF0ADF9036802AA12E915
:1027900006001B6C984768680368DB699847054624
:1027A000002DC0D0A9882B68214428461B6B09B294
:1027B0009847AD69F4E700BF8E2F0120842F0120D8
:1027C000862F012037B50546807A6B7A0130C0B27A
:1027D0009842A87205D901232B720023AB7203B073
:1027E00030BDB5F90C20B5F90E40002110F034FBD6
:1027F000C30707D500284FF6FF73C8BF012313FA9C
:1028000080F000B2AB7AE881041B012BA4B206D1A0
:10281000134B1B781BB10EF065F90EF069F900231C
:102820000093EB89ADF804300E4B1B88ADF80630F1
:102830000EF058F9036802AA12E906001B6C9847CB
:1028400068680368DB6998470546002DC7D0A988EA
:102850002B68214428461B6B09B29847AD69F4E701
:102860008E2F0120862F012037B50546807A6B7A9E
:102870000130C0B29842A87205D901232B720023FF
:10288000AB7203B030BDB5F90C20B5F90E40002194
:1028900010F0E2FAC30707D500284FF6FF73C8BF50
:1028A000012313FA80F000B2AB7AE881041B012BFC
:1028B000A4B206D1174B1B781BB10EF013F90EF022
:1028C00017F9154A00231288ADF80030EB891A4435
:1028D000ADF80220114A5B421288ADF80420ADF831
:1028E00006300EF0FFF8036802AA12E906001B6C1E
:1028F000984768680368DB6998470546002DC0D093
:10290000E9882B68214428465B6B09B29847AD697A
:10291000F4E700BF8E2F0120862F0120842F012095
:1029200010B50446D0F8400158B10368DB689847F9
:1029300038B1D4F8400103689B6898470023C4F875
:10294000403110BD2DE9F14FD0E9556A0746B06816
:1029500003681B6A9847B0F5887F05D2484B494AFF
:10296000A321494822F084FA706803681B6A9847DB
:102970000F2803D8454B434AA421F2E7F0680368C7
:102980001B6A98470F2803D8414B3E4AA521E8E728
:102990000EF0A8F8DFF8049104300EF0F0F8D9F842
:1029A000000010B10368DB689847D9F8000010B147
:1029B00003681B689847DFF8E880D8F8000010B17A
:1029C00003685B699847D7F83C0110B103685B68FE
:1029D0009847D8F8000010B103681B689847D7F8EB
:1029E0003C0110B103689B689847F06803680021B8
:1029F0005B6A9847274B03604FF4A0530381264B33
:102A00001B884FF0000B80F80AB05B420446C0F808
:102A100004B0A0F80EB08381B068036859465B6AC1
:102A20009847054602F014F97068036859465B6AD6
:102A300098472946064602F0E9F8331DC7F83C617D
:102A4000C9F80040C8F80050CAF800302B68C6F832
:102A500008A02846DB68EE639847336830461B6859
:102A600098472146284610F0F1F9236820461B6953
:102A7000984723685B69204601B0BDE8F04F1847CE
:102A80002A640208B86402089A650208E16502082F
:102A90008466020804750208862F0120D82F0120C1
:102AA000D42F01202DE9F0411D460368BDF91870AF
:102AB0001B6B0446164698472368314620465B6BDD
:102AC00098472368294620469B6B984723683946D8
:102AD0002046DB6BBDE8F04118470000044B1B6843
:102AE00093F858200AB1D86C00B99868704700BFB5
:102AF000902F0120F8B5174604460E460EF0DCF87C
:102B0000124B1C60124B2360124B0025C4E9513557
:102B1000114BC4E953551868036801219B68C4E947
:102B20004F55C4E955769847284601F085FEFFF7D2
:102B3000D5FF19F05EF9FFF7D1FF19F0D5F9FFF7CE
:102B4000CDFF19F0DDF92046F8BD00BFE42F0120CC
:102B50006874020850740208902F0120064BC0F8D8
:102B60004C310023C0F8503100F5A273C0F8480181
:102B7000C0F84031704700BF1D300008064BC0F858
:102B80004C310023C0F8503100F5A273C0F8480161
:102B9000C0F84031704700BFC12E0008064BC0F896
:102BA0004C310023C0F8503100F5A273C0F8480141
:102BB000C0F84031704700BF45290008064BC0F8F7
:102BC0004C310023C0F8503100F5A273C0F8480121
:102BD000C0F84031704700BF6D310008064BC0F8A7
:102BE0004C310023C0F8503100F5A273C0F8480101
:102BF000C0F84031704700BF6D2D0008064BC0F88B
:102C00004C310023C0F8503100F5A273C0F84801E0
:102C1000C0F84031704700BF252C000803685B6A8C
:102C2000184700002DE9F14FD0E9556A0746B06812
:102C300003681B6A9847DB2805D8444B444AA32104
:102C4000444822F015F9706803681B6A98470F28FA
:102C500003D8414B3E4AA421F2E7F06803681B6A9F
:102C600098470B2803D83D4B394AA521E8E70DF0DA
:102C700039FFDFF8F09004300DF081FFD9F8000043
:102C800010B10368DB689847D9F8000010B10368F9
:102C90001B689847DFF8D080D8F8000010B10368AF
:102CA0005B699847D7F83C0110B103685B689847A7
:102CB000D8F8000010B103681B689847D7F83C01AA
:102CC00010B103689B689847F0680021FFF7A6FFE2
:102CD0004FF0000B224BC0F804B0044680F808B057
:102CE0000360B068036859465B6A9847054602F07E
:102CF0003FFD7068036859465B6A98472946064657
:102D000002F016FD331DC7F83C61C9F80040C8F851
:102D10000050CAF800302B68C6F808A02846DB68C7
:102D2000EE639847336830461B689847214628462B
:102D300010F08CF8236820461B69984723685B696C
:102D4000204601B0BDE8F04F184700BF2A640208D2
:102D5000276702089A650208E1650208846602088E
:102D6000BC740208D82F0120D42F01202DE9F14F87
:102D7000D0E9556A0746B06803681B6A9847DB28A4
:102D800005D8444B444AA321444822F071F87068A6
:102D900003681B6A98470F2803D8414B3E4AA42179
:102DA000F2E7F06803681B6A98470B2803D83D4B8D
:102DB000394AA521E8E70DF095FEDFF8F0900430E0
:102DC0000DF0DDFED9F8000010B10368DB6898470C
:102DD000D9F8000010B103681B689847DFF8D0806D
:102DE000D8F8000010B103685B699847D7F83C0138
:102DF00010B103685B689847D8F8000010B1036809
:102E00001B689847D7F83C0110B103689B68984746
:102E1000F0680021FFF702FF4FF0000B224BC0F8D3
:102E200004B0044680F808B00360B06803685946EF
:102E30005B6A9847054601F093FE7068036859463F
:102E40005B6A98472946064601F06AFE331DC7F8BB
:102E50003C61C9F80040C8F80050CAF800302B683F
:102E6000C6F808A02846DB68EE639847336830460A
:102E70001B689847214628460FF0E8FF2368204644
:102E80001B69984723685B69204601B0BDE8F04F95
:102E9000184700BF2A640208F96702089A65020809
:102EA000E165020884660208BC740208D82F01207C
:102EB000D42F012003685B6A184703685B6A1847D0
:102EC0002DE9F14FD0E9556A0746B06803681B6ADF
:102ED0009847B0F5AE7F05D2474B484AA3214848F2
:102EE00021F0C6FF706803681B6A98470F2803D853
:102EF000444B424AA421F2E7F06803681B6A9847F2
:102F00000F2803D8404B3D4AA521E8E70DF0EAFD24
:102F1000DFF8009104300DF032FED9F8000010B156
:102F20000368DB689847D9F8000010B103681B6894
:102F30009847DFF8E480D8F8000010B103685B69B7
:102F40009847D7F83C0110B103685B689847D8F8F8
:102F5000000010B103681B689847D7F83C0110B116
:102F600003689B689847F068036800215B6A98478C
:102F7000264B03604FF4A0530381254B4FF0000B09
:102F80001B8880F80AB0044683815946C0F804B013
:102F9000A0F80EB0B068FFF78DFF054601F01CFEEB
:102FA00059467068FFF789FF2946064601F0F2FD91
:102FB000331DC7F83C61C9F80040C8F80050CAF892
:102FC00000302B68C6F808A02846DB68EE639847F7
:102FD000336830461B689847214628460FF036FF75
:102FE000236820461B69984723685B69204601B027
:102FF000BDE8F04F184700BF2A640208CD680208F8
:103000009A650208E165020884660208E074020815
:10301000842F0120D82F0120D42F01202DE9F14F3A
:10302000D0E9556A0746B06803681B6A9847B0F54F
:10303000AE7F05D2424B434AA321434821F018FFFB
:10304000706803681B6A98470F2803D83F4B3D4AB6
:10305000A421F2E7F06803681B6A98470B2803D89D
:103060003B4B384AA521E8E70DF03CFDDFF8E8903E
:1030700004300DF084FDD9F8000010B10368DB685E
:103080009847D9F8000010B103681B689847DFF82B
:10309000CC80D8F8000010B103685B699847D7F876
:1030A0003C0110B103685B689847D8F8000010B184
:1030B00003681B689847D7F83C0110B103689B6808
:1030C0009847F0680021FFF7A9FD4FF0000B214B56
:1030D000036004465946C0F804B080F808B0B068F0
:1030E000FFF7E8FE054601F077FD59467068FFF7E7
:1030F000E4FE2946064601F04DFD331DC7F83C614C
:10310000C9F80040C8F80050CAF800302B68C6F86B
:1031100008A02846DB68EE639847336830461B6892
:103120009847214628460FF091FE236820461B69E8
:10313000984723685B69204601B0BDE8F04F184707
:103140002A640208B86902089A650208E165020863
:1031500084660208BC740208D82F0120D42F0120F5
:1031600003685B6A184703685B6A18472DE9F14FEB
:10317000D0E9556A0746B06803681B6A984740F66D
:103180004B13984205D8484B484AA321484821F0A0
:103190006FFE706803681B6A98470F2803D8454B79
:1031A000424AA421F2E7F06803681B6A98470F2897
:1031B00003D8414B3D4AA521E8E70DF093FCDFF829
:1031C000049104300DF0DBFCD9F8000010B1036865
:1031D000DB689847D9F8000010B103681B6898476E
:1031E000DFF8E480D8F8000010B103685B69984705
:1031F000D7F83C0110B103685B689847D8F8000025
:1032000010B103681B689847D7F83C0110B10368F8
:103210009B689847F068036800215B6A9847274BD2
:1032200003604FF4A0530381254B1B884FF0000B24
:103230005B4280F80AB0044683815946C0F804B066
:10324000A0F80EB0B068FFF78BFF054601F022FE34
:1032500059467068FFF787FF2946064601F016FDBC
:10326000331DC7F83C61C9F80040C8F80050CAF8DF
:1032700000302B68C6F808A02846DB68EE63984744
:10328000336830461B689847214628460FF0DEFD1C
:10329000236820461B69984723685B69204601B074
:1032A000BDE8F04F184700BF2A640208906A020880
:1032B0009A650208E165020884660208287502081A
:1032C000842F0120D82F0120D42F01207047704770
:1032D00070477047704770477047704730B4C26896
:1032E00044685510034604EB6200D20748BF625998
:1032F0009B6830BC48BFD35818470346406830B17C
:103300009A681AB9D86800F0010070470120704728
:1033100010B51021044620F06FFE204610BD10B5F8
:10332000DC21044620F068FE204610BD983088421B
:1033300008B505D10DF0D6FBBDE80840FFF71EBC6F
:1033400008BD70B5036804461B6B15469847236893
:10335000294620465B6BBDE8704018470022C0E953
:103360000122C0E90322C0E90522C0E907224FF487
:1033700080728284014A0260704700BF4C75020867
:103380002DE9F3470446264600250FF0B3FB484BD2
:10339000E56346F8403B4FF0260A52462946304640
:1033A00021F06DFF3046FFF7D9FF04F16C07414B68
:1033B00023644FF0FF084FF6FF795246294684F800
:1033C0006680A5663846ADF8049021F058FF38466F
:1033D000FFF7C4FF384BE366BDF80430A4F8923021
:1033E00084F8948001A904F1980838460AF083FB18
:1033F00052462946404621F042FF4046FFF7AEFFC5
:10340000012384F8BC302D4BC4F898302C4BA4F821
:10341000C690C4E933342B4BA4F8C8902A46C4E9BB
:10342000353584F8CA9029463046C4F8C05084F82F
:10343000C450FFF786FF3046F021FDF779FF304694
:103440004FF4A071FDF776FF04F104094FF07F43BC
:10345000A3663146484607F01BFA2A4629463846F5
:10346000FFF76FFF032301A93846ADF804300AF0D7
:1034700042FB3946484607F00BFA4046DE22182147
:10348000FFF75FFF0D2301AA69464046ADF8003003
:10349000ADF804300AF0F6F904F1CC034846C4F85C
:1034A000C030414607F0F4F9204602B0BDE8F0878D
:1034B000CC750208747C0208507D0208DC7C02088E
:1034C000B47502082D330008406A7047806A70475F
:1034D00070478A880B8810B5D20A4C88C1699BB2A4
:1034E00051F8220043EA0443184410BD10B50446C5
:1034F000BAB1107B68B1537BD27A1B0203F4E0634C
:103500001A43236A03EB82031A888A4202D193F991
:10351000020010BD05D8013880B204330028F3D171
:10352000F7E70020F5E710B52C21044620F064FDF4
:10353000204610BD30B58BB00446BDF860500895EC
:10354000BDF85C5007959DF8505006959DF84C507D
:1035500005959DF8485004959DF8445003959DF8B5
:10356000405002959DF83C500195BDF838500095AB
:103570000FF0C6F8064B2360159BE361169B236290
:10358000199B63621A9BA36220460BB030BD00BF3B
:103590000076020830B5036885B06D460181D3F826
:1035A0008430014604462846984795E807003C3495
:1035B00084E8070005B030BD30B5036885B06D46BE
:1035C0004181D3F88430014604462846984795E85F
:1035D00007003C3484E8070005B030BD00220280BB
:1035E00042808280C280704780F83610704770B584
:1035F000036804461B6B15469847236829462046F6
:103600005B6EBDE87040184700207047806C7047C3
:10361000704770477047704730B4C26844685510AF
:10362000034604EB6200D20748BF62599B6830BC76
:1036300048BFD35818470346406830B19A681AB952
:10364000D86800F0010070470120704710B54C2188
:10365000044620F0D1FC204610BD10B510210446D0
:1036600020F0CAFC204610BD10B54FF4AE710446E0
:1036700020F0C2FC204610BD08B5FDF70FFF08BDC5
:10368000036870B55E6B124B1B6804468DB22BB994
:10369000104B114A6C21114821F0EAFB1049828D30
:1036A0000988914203D80F4B0B4A6D21F3E713F8B9
:1036B00012200D4B1B6853F8220003681B6B9847C0
:1036C000291A3346204609B2BDE87040184700BFAA
:1036D000E82F0120756B0208B76B0208F26B020835
:1036E000EC2F0120396C0208F02F012038B500F1D1
:1036F0009803994204460D4603D10DF0F3F9FFF704
:103700005DFACC34A54205D10DF0ECF9BDE83840A6
:10371000FFF744BA38BD00224FF0FF31C0E9002165
:103720008260704710B526220446002121F0A7FDD3
:103730002046FFF713FE0023A36284F82C300123F8
:1037400084F82430044B23604FF6FF7384F8323042
:10375000E3852386204610BDDC7C02082DE9F04F6E
:1037600004468BB0A04600250FF0C4F96E4BE5630C
:1037700048F8403B4FF026094A462946404621F08A
:103780007EFD4046FFF7EAFD04F16C07FF26674B1C
:1037900023644A464FF0FF33294684F86660A566E5
:1037A0003846ADF8203021F06AFD3846FFF7D6FDE7
:1037B0005F4BE366BDF82030A4F8923008A904F10D
:1037C000980B84F8946038460AF095F904F1CC0A15
:1037D000584604F58076FFF7A5FF5046FFF7A2FF95
:1037E0004A462946304621F04AFD3046FFF7B6FDED
:1037F000504BC4F828314FF47F03C4F834314E4B9A
:10380000C4F800314FF0FF33C4E950354B4BC4F8D6
:103810003051C4E953344A4BA4F83851C4E9553502
:103820004FF0FF324FF4A073A4F82C21C4F83C51A0
:10383000C4F848512A46009329464046F023FFF732
:1038400031F904F104094FF07F43A366414648462D
:1038500007F01EF82A4629463846FFF772FD052371
:1038600008A93846ADF820300AF045F939464846EF
:1038700007F00EF8584640F219121821FFF761FDC3
:1038800004F5A677122308AA07A95846ADF81C30FC
:10389000ADF8203009F0F6FF59464846C4F8C0702C
:1038A00006F0F6FF504640F21D12CD21FFF749FD0C
:1038B000072308AA07A95046ADF81C30ADF8203000
:1038C00009F0E0FF51464846C4F8F47006F0E0FF06
:1038D0000F2300931D2230462D236321FFF7E2F8CA
:1038E000184BC4F83031D4F80031A4F8345102AD8B
:1038F00031462846D3F88430984795E8070004F508
:103900009E7383E807000B4B089308A90D233046EC
:10391000ADF8243009F058FF4846314606F0B8FFAC
:1039200020460BB0BDE8F08F10770208747C0208C7
:10393000507D02084074020868760208F876020892
:10394000ED360008E4FDFFFF70477047704730B464
:10395000C26844685510034604EB6200D20748BFB2
:1039600062599B6830BC48BFD3581847034640682B
:1039700030B19A681AB9D86800F001007047012088
:10398000704710B51021044620F036FB204610BDCC
:1039900010B54FF48871044620F02EFB204610BD70
:1039A00038B500F19803994204460D4603D10DF055
:1039B00099F8FFF703F9CC34A54205D10DF092F840
:1039C000BDE83840FFF7DAB838BD00002DE9F3470D
:1039D0000446264600250FF08DF84B4BE56346F86C
:1039E000403B4FF026094A462946304621F047FC25
:1039F0003046FFF7B3FC04F16C074FF0FF08434B70
:103A000023644A464FF6FF73294684F86680A5660C
:103A10003846ADF8043021F032FC3846FFF79EFC02
:103A20003B4BE366BDF80430A4F8923001A904F1E1
:103A3000980A84F8948038460AF05DF804F1CC09BD
:103A40005046FFF76FFE4846FFF76CFE314BC4E966
:103A50004034314B2A46C4E9423529463046FFF707
:103A600070FC3046F021FDF763FC30464FF4A07146
:103A7000FDF760FC04F104084FF07F43A366314674
:103A8000404606F005FF2A4629463846FFF759FC0E
:103A9000082301A93846ADF804300AF02CF839465D
:103AA000404606F0F5FE504637223321FFF749FC29
:103AB00004F58076132301AA69465046ADF800301C
:103AC000ADF8043009F0DEFE51464046C4F8C0604F
:103AD00006F0DEFE48464FF48C720C21FFF731FCF5
:103AE00001AA69464846ADF80050ADF8045009F007
:103AF000C9FE4046C4F8F460494606F0C9FE2046B7
:103B000002B0BDE8F08700BF5C770208747C020851
:103B1000507D020844770208A139000870477047B9
:103B200010B540F2C471044620F066FA204610BD7C
:103B300038B5262204460D46002121F0A0FB204680
:103B4000FFF70CFC064B23602B88E384FF23204601
:103B500084F82830294609F0CEFF204638BD00BF42
:103B6000507D020810B526220446002121F087FB73
:103B70002046FFF7F3FB0A4BA3624FF6FF73A385C2
:103B80004FF47F020023C4E90C32064A22602387E7
:103B90004FF0FF32C4E91023E363A364204610BD55
:103BA00040740208687602082DE9F04F0446ABB075
:103BB00026464FF0000B0EF09DFFD64BC4F83CB0EC
:103BC00046F8403B26225946304621F058FB304605
:103BD000FFF7C4FBD04B236404F16C0AFF234FF6BC
:103BE000FF7584F8663028A95046C4F868B0ADF86F
:103BF000A050FFF79DFF04F1980304F1C408184694
:103C000028A904F1F0070893ADF8A050FFF790FF42
:103C100028A94046ADF8A050FFF78AFF28A93846EA
:103C2000ADF8A050FFF784FF04F58E7328A918465D
:103C30000993ADF8A050FFF77BFF04F5A47328A902
:103C400018460A93ADF8A050FFF772FF04F5BA7357
:103C500028A918460B93ADF8A050FFF769FF04F5AB
:103C6000D07328A918460C93ADF8A050FFF760FF59
:103C700004F5E67328A918460D93ADF8A050FFF798
:103C800057FF04F5FC7318460393FFF76BFF04F529
:103C9000117304F5247918460493FFF763FF48462F
:103CA000FFF760FF04F5377328A918460E93ADF8A7
:103CB000A050FFF73DFF04F5427328A918460F9363
:103CC000ADF8A050FFF734FF04F54D7328A918464E
:103CD0001093ADF8A050FFF72BFF04F5587328A9F7
:103CE00018461193ADF8A050FFF722FF04F5637357
:103CF00028A918461293ADF8A050FFF719FF04F554
:103D00006E7328A918461393ADF8A050FFF710FF63
:103D100004F5797328A918461493ADF8A050FFF75D
:103D200007FF04F5826328A918461593ADF8A05043
:103D3000FFF7FEFE04F23C4328A918461693ADF89F
:103D4000A050FFF7F5FE04F58D6328A918461793D8
:103D5000ADF8A050FFF7ECFE04F2944328A91846F2
:103D60001893ADF8A050FFF7E3FE04F5986328A977
:103D700018461993ADF8A050FFF7DAFE04F2EC43B1
:103D800028A918461A93ADF8A050FFF7D1FE04F504
:103D9000A36328A918461B93ADF8A050FFF7C8FEEF
:103DA00004F2445328A918461C93ADF8A050FFF71D
:103DB000BFFE04F5AE6328A918461D93ADF8A050C8
:103DC000FFF7B6FE04F29C5328A918461E93ADF8DF
:103DD000A050FFF7ADFE04F5B96328A918461F935C
:103DE000ADF8A050FFF7A4FE04F2F45328A918463A
:103DF0002093ADF8A050FFF79BFE04F5C46328A9FB
:103E000018462193ADF8A050FFF792FE04F24C63E0
:103E100028A918462293ADF8A050FFF789FE04F5B3
:103E2000CF6328A918462393ADF8A050FFF780FE72
:103E300004F2A46318460593FFF794FE04F5DE63CD
:103E400018460693FFF78EFE04F23C73184607935C
:103E5000FFF788FE4FF4A0735A4630460093594648
:103E6000F023251DFEF71EFE4FF07F43A36631466B
:103E7000284606F00DFDF02250465946FFF761FA3C
:103E80001126504628A9ADF8A06009F034FE51462D
:103E9000284606F0FDFC4FF4867208986FF0070183
:103EA000FFF74FFA0898ADF8A06028A909F023FEA3
:103EB0000899284606F0ECFC5A4640465946FFF75A
:103EC00040FA4FF00F0A404628A9ADF8A0A009F02B
:103ED00012FE4146284606F0DBFC4FF49672384647
:103EE0002D21FFF72EFA4FF00608384628A9ADF825
:103EF000A08009F000FE3946284606F0C9FC4FF4C0
:103F0000967209984321FFF71CFA0998ADF8A08032
:103F100028A903E090770208747C020809F0EBFD01
:103F20000999284606F0B4FC4FF496720A98592174
:103F3000FFF707FA0A98ADF8A08028A909F0DBFD81
:103F40000A99DFF8CC83284606F0A2FCEB220B98F6
:103F50006421FFF7F6F914270B98ADF8A07028A993
:103F600009F0C9FD0B99284606F092FCEB220C984B
:103F7000BE21FFF7E6F90C98ADF8A07028A909F06A
:103F8000BAFD0C99284606F083FCEB220D980A2115
:103F9000FFF7D7F90D98ADF8A07028A909F0ABFD8F
:103FA0000D99284606F074FCF0220398CDF800A085
:103FB0002D230A21FEF776FDD4F8F8310399D3F8C2
:103FC0008430C4F8288224AF3846A4F82CB298472D
:103FD00097E8070004F50D7383E80700CB4B0398BF
:103FE00028934FF0080228A9ADF8A42009F0ECFBB3
:103FF0000399284606F04CFCF0220498CDF800A066
:104000002D236221FEF74EFDD4F844320499D3F8F3
:104010008430C4F874823846A4F878B2984797E898
:10402000070004F5207383E80700B84B0498289331
:1040300028A90923ADF8A43009F0C6FB0499284645
:1040400006F026FCF02248462D23BB21CDF800A027
:10405000FEF728FDD4F89032C4F8C08249463846AD
:10406000D3F88430A4F8C4B2984797E8070004F561
:10407000337383E807004FF00A08A44B289348469F
:1040800028A9ADF8A48009F09FFB4946284606F010
:10409000FFFBE6220E98DFF87C925946FFF751F9B4
:1040A0000E98ADF8A08028A909F025FD0E992846A4
:1040B00006F0EEFBB6220F985146FFF742F90F9833
:1040C000ADF8A06028A909F016FD0F99284606F062
:1040D000DFFBB62210983421FFF733F90E23109836
:1040E000ADF8A03028A909F006FD1099284606F081
:1040F000CFFB63221198D2211027FFF722F91198E4
:10410000ADF8A07028A909F0F6FC1199284606F030
:10411000BFFB632212988221FFF713F91298ADF8C2
:10412000A07028A909F0E7FC1299284606F0B0FB18
:10413000632213983221FFF704F91398ADF8A070A9
:1041400028A909F0D8FC1399284606F0A1FB4322C0
:104150001498AA21FFF7F5F81498ADF8A07028A9D3
:1041600009F0C9FC1499284606F092FB43221598E1
:104170005A21FFF7E6F81598ADF8A07028A909F0C4
:10418000BAFC1599284606F083FB4322169841464F
:10419000FFF7D7F81698ADF8A07028A909F0ABFC86
:1041A0001699284606F074FB23221798D221FFF7B0
:1041B000C8F81798ADF8A07028A909F09CFC1799C9
:1041C000284606F065FB232218988221FFF7B9F8EC
:1041D0001898ADF8A07028A909F08DFC1899284608
:1041E00006F056FB232219983221FFF7AAF81998F6
:1041F000ADF8A07028A909F07EFC1999284606F0B0
:1042000047FB23221A9841460126FFF79AF81A988D
:10421000ADF8A06028A909F06EFC1A99284606F0AE
:1042200037FB23221B985A21FFF78BF81B98ADF818
:10423000A06028A909F05FFC1B99284606F028FB1E
:1042400023221C98AA21FFF77CF81C98ADF8A060E7
:1042500028A909F050FC1C99284606F019FB4322B6
:104260001D983221FFF76DF81D98ADF8A06028A9C0
:1042700009F041FC1D99284606F00AFB43221E98CE
:104280008221FFF75EF81E98ADF8A06028A909F01A
:1042900032FC1E99284606F0FBFA43221F98D221D1
:1042A000FFF74FF81F98ADF8A06028A909F023FC8C
:1042B0001F99284606F0ECFA632220984146FFF742
:1042C00040F82098ADF8A06028A909F014FC2099C6
:1042D000284606F0DDFA632221985A21FFF731F8CB
:1042E0002198ADF8A06028A909F005FC219928467D
:1042F00006F0CEFA63222298AA21FFF722F822982C
:10430000ADF8A06028A909F0F6FB05E040740208AA
:104310005480FFFFE82F01202299284606F0B8FAC2
:1043200040F2051223986921FFF70BF81523239813
:10433000ADF8A03028A909F0DEFB2399284606F045
:10434000A7FA059852463946FEF7FBFF584BC4F8CA
:10435000D4364FF0FF33C4F8E43604F5F163039329
:10436000D9F80030A4F8D8B6C4F8E0B6C4F8E8B676
:104370002BB9504B504A6021504820F079FD504BEA
:104380001B88062B03D84F4B4B4A6121F4E74E4F55
:104390000621386800F08CFA4C4A034641460398DF
:1043A00010F0D2FC039B0598C4F8EC3609F0ECF948
:1043B000474B0598289328A90723ADF8A43009F0A6
:1043C00003FA0599284606F063FA52460698C92171
:1043D000FEF7B7FF3F4BC4F82037D9F80030A4F8F8
:1043E00024B74FF0FF32C4F82CB7C4F83027C4F814
:1043F00034B704F29C7A002BBBD0314A1388042BCB
:10440000C1D90421386800F053FA304A03464146C6
:10441000504610F099FC0698C4F838A709F0B4F992
:104420002B4B0698289328A90523ADF8A43009F052
:10443000CBF90699284606F02BFA8721079808221F
:10444000FEF77FFF244BC4F86C37D9F80030A4F88E
:1044500070B74FF0FF31C4F878B7C4F87C17C4F8D0
:1044600080B704F5F66A002B83D0154A1388002B19
:1044700089D05946386800F01BFA144A0346414671
:10448000504610F061FC0798C4F884A709F07CF945
:104490000F4B0798289328A9ADF8A46009F094F968
:1044A0002846079906F0F4F920462BB0BDE8F08FB6
:1044B000F5FDFFFF756B0208776C0208F26B0208CE
:1044C000EC2F0120396C0208F42F0120C26C020885
:1044D00040740208E8FAFFFFEDFAFFFF70470000A2
:1044E00030B5164D2C6814F001048FB0BFF35B8F0C
:1044F00020D128461FF082FDE0B13F230993104BE5
:104500000893104B104911480A940122CDE9064343
:104510000423CDE9033212230093CDE90B44CDE906
:1045200001440594FFF706F8094820F0BFFC28462F
:104530001FF070FD05480FB030BD00BF14210020F2
:104540008C970208A09702082496020818210020E0
:10455000DD4400087047000030B5164D2C6814F09B
:1045600001048FB0BFF35B8F21D128461FF046FDB9
:10457000E8B13F230993104B0893104B10491148A1
:104580000A94CDE9064301220423CDE903320E2328
:1045900000930B22CDE90B44CDE901440594FEF7CD
:1045A000C9FF094820F082FC28461FF033FD05486A
:1045B0000FB030BD4421002090970208A497020854
:1045C0003496020848210020554500087047000035
:1045D00030B5164D2C6814F001048FB0BFF35B8F1B
:1045E00020D128461FF00AFDE0B13F230993104B6C
:1045F0000893104B079304220123CDE90543CDE92D
:104600000242CDE900330C4904931A46CDE90B442C
:104610000A480A94FEF78EFF094820F047FC284616
:104620001FF0F8FC05480FB030BD00BF742100201A
:1046300094970208A8970208D096020878210020D3
:10464000CD4500087047000030B5164D2C6814F0B9
:1046500001048FB0BFF35B8F20D128461FF0CEFC42
:10466000E0B13F230993104B0893104B10491148B8
:104670000A940122CDE906430423CDE90332142331
:104680000093CDE90B44CDE901440594FEF752FFB8
:10469000094820F00BFC28461FF0BCFC05480FB071
:1046A00030BD00BFA421002098970208AC970208F3
:1046B000E0960208A8210020454600087047000047
:1046C00030B5174D2C6814F001048FB0BFF35B8F29
:1046D00022D128461FF092FCF0B13F230993114BE1
:1046E0000893114B114912480A94CDE9064301225F
:1046F0000423CDE90332282300930B222923CDE99B
:104700000B44CDE901440594FEF714FF094820F05D
:10471000CDFB28461FF07EFC05480FB030BD00BF22
:10472000D42100209C970208B0970208F096020856
:10473000D8210020BD4600080020704700207047A7
:104740000EB403B503AB002153F8042B01930DF015
:1047500079FA02B05DF804EB03B070470CB407B50A
:1047600004AB53F8042B01930DF06CFA03B05DF821
:1047700004EB02B07047000010B504460EF014FCC4
:10478000E38E04EB43035884636C5BB3238F2BB934
:10479000174B184AC521184820F06AFB10B3204671
:1047A0000FF029FD238F012B03D8144B144ACB2182
:1047B000F1E7E28E531C9BB2092B194688BFA3F187
:1047C0000A0104EB410140F63F10498C814209D1B6
:1047D0000A2B04EB420228BF002304EB4303508C56
:1047E000588451842046BDE810400FF007BC00BF3C
:1047F000C56C0208CE6C0208796D0208C36D020810
:10480000D16D020810B504460FF0BFFB2046BDE88D
:1048100010400EF0C4BB10B586B002AC84E80600B0
:104820001A460AAB05930193099B00932146089B06
:104830000BF0DEFC06B010BD38B518BB124B1348A8
:104840001C681349B4B122682244026062682244A1
:104850000A60A26814440F4B00221A8000F038F856
:10486000054600F033F80C4B1C600C4B1D600C4BE4
:10487000188007E00B4B03600B4B0B600B4B1C6865
:10488000002CE8D138BD00BF1022002008220020F3
:10489000042200200C220020E82F0120F02F01200C
:1048A000EC2F0120EC970208B49702080098020848
:1048B000044B1B6853F82100034B1B6803EB4000BB
:1048C000704700BF04220020082200200E207047FD
:1048D000004870471422002010B5FFF779FE074CFE
:1048E0002060FFF7B1FE6060FFF7EAFEA060FFF70F
:1048F00033FEE060FFF7F4FD206110BD14220020BC
:1049000010B5002404600C6014601C6010BD70477A
:104910007047704730B4C26844685510034604EBD2
:104920006200D20748BF62599B6830BC48BFD35869
:1049300018470346406830B19A681AB9D86800F041
:10494000010070470120704710B5102104461FF088
:1049500053FB204610BD10B5DC2104461FF04CFB74
:10496000204610BD9830884208B505D10CF0BAF841
:10497000BDE80840FEF7F2B808BD00002DE9F34796
:104980000446264600250EF0B5F8494BE56346F887
:10499000403B4FF0260A52462946304620F06FFC35
:1049A0003046FEF7DBFC04F16C07424B23644FF00A
:1049B000FF084FF6FF795246294684F86680A566BF
:1049C0003846ADF8049020F05AFC3846FEF7C6FC95
:1049D000394BE366BDF80430A4F8923084F8948033
:1049E00001A904F19808384609F085F8524629468D
:1049F000404620F044FC4046FEF7B0FC012384F81A
:104A0000BC302E4BC4F898302D4BA4F8C690C4E9A6
:104A100033342C4BA4F8C8902A46C4E9353584F8C1
:104A2000CA9029463046C4F8C05084F8C450FEF7F6
:104A300088FC3046F021FCF77BFC30464FF4A07137
:104A4000FCF778FC04F104094FF07F43A36631467C
:104A5000484605F01DFF2A4629463846FEF771FCF8
:104A6000162301A93846ADF8043009F044F8394658
:104A7000484605F00DFF4046BC221821FEF761FCB8
:104A800004230DEB030269464046ADF80030ADF853
:104A9000043008F0F7FE04F1CC034846C4F8C030F7
:104AA000414605F0F5FE204602B0BDE8F08700BFA4
:104AB000DC770208747C0208507D0208DC7C020866
:104AC000C477020865490008704710B54FF4AE710D
:104AD00004461FF091FA204610BD10B50446D0F8E8
:104AE000580100F0C4F82046BDE810400CF0A4B80E
:104AF00010B50446FDF7FEFF014B2360204610BDB4
:104B000010780208704704387047704710B51021BC
:104B100004461FF071FA204610BDA0F10400F5E72D
:104B200000228260024A026018324260C16070470F
:104B3000647802087047000010B5034B0360044618
:104B4000FEF7CAFB204610BD8C78020810B504465B
:104B5000FFF7F2FF2046DC211FF04EFA204610BD81
:104B600010B50446FEF70CFC014B2360204610BD37
:104B70008C780208FEF7B1BB704704387047704765
:104B800010B5102104461FF037FA204610BDA0F1E1
:104B90000400F5E700228260024A02601832426097
:104BA000C1607047C07802087047000010B5034B21
:104BB00003600446FEF72EFD204610BDE87802088B
:104BC00010B50446FFF7F2FF20464FF4AE711FF018
:104BD00013FA204610BD000010B50446FEF7BEFDD6
:104BE000014B2360204610BDE8780208FEF713BD94
:104BF000704704387047704710B5102104461FF005
:104C0000FBF9204610BDA0F10400F5E70022826008
:104C1000024A026018324260C16070471C79020883
:104C20007047000010B5034B03600446FEF78DFE8D
:104C3000204610BD4479020810B50446FFF7F2FF84
:104C400020464FF488711FF0D7F9204610BD0000B0
:104C500010B50446FEF7BAFE014B2360204610BD96
:104C600044790208FEF772BE002202607047704766
:104C7000704704387047704710B5102104461FF084
:104C8000BBF9204610BDA0F10400F5E700228260C8
:104C9000024A026018324260C160704778790208A7
:104CA0007047000010B5034B03600446FEF736FF63
:104CB000204610BDA079020810B50446FFF7F2FFA8
:104CC000204640F64C111FF097F9204610BD90F891
:104CD0000C397BB1D0F81439D0F818291344002BC3
:104CE000C0F81439A0F83A33BEBF002380F8593316
:104CF00080F80C39704710B588680C681368204438
:104D0000984210DB906803449C420CDC4868C968F8
:104D100053680144994206DBD26813449842CCBFE1
:104D20000020012010BD0020FCE7D0F83039002B16
:104D3000D4BF00220122012B80F81521D4BF00220C
:104D40000122022BD4BF0023012380F8412180F8E7
:104D50006D317047022910B41FD8421892F83439C7
:104D6000DBB100EB8104D4F82439013B002BC4F8FB
:104D7000243908DC0023012982F8343907D00229BC
:104D800008D080F8F1315DF8044BFFF7CEBF80F812
:104D9000C531F8E780F89931F5E75DF8044B7047C5
:104DA000B0F98036F0B5B0F97C5603EBD37305EB60
:104DB000630500F6D30700F2FC7300216FF0004694
:104DC0004FF0FF3017F8012F7AB11A68B2F90820B6
:104DD00002EBD2749A6C02EB6402521B002AB8BF39
:104DE0005242B242BCBF164608460131122903F1B5
:104DF0000403E7D1F0BDD0F81C39002BC8BF03F184
:104E0000FF3310B5C8BFC0F81C3990F837390446D5
:104E10002BB390F80C3913BBD0F81C39002B1EDCD7
:104E2000FFF7BEFF01301AD0B4F98036B4F97C1612
:104E3000B4F97E26C4F8142903EBD37301EB6301A4
:104E4000C4F8101904F54D7009B2FEF77AFA01237F
:104E500084F8593384F80C390223C4F81C3910BD86
:104E600082B00A4BC0F8383900230193084B5A6BC3
:104E700042F040025A635B6B03F040030193019BD5
:104E800000F6381002B002F0E3BB00BF0008065085
:104E90000038024010B50446FEF786FE1F4B236023
:104EA0000223C4F8E838002384F8F038C4F8F43852
:104EB00084F8F838C4F8FC38C4F80039C4F8083964
:104EC00084F80C39A4F84839C4F81039C4F81439F6
:104ED000C4F81C39C4F8203906230122C4F8243947
:104EE000C4F82839C4F82C3903230A2184F8E628A9
:104EF00084F84A29C4F830396FF009024FF00133C1
:104F00002046C4F8EC18C4F80419C4F81829C4F8E9
:104F10003439FFF7A5FF204610BD00BFA079020875
:104F200007B5002301A900F63810019302F0A8FB91
:104F3000019803B05DF804FB10B5002392B000F6B1
:104F4000D3021C4612F8011F29B112A901EB8401FA
:104F5000013441F8483C0133122BF3D164B1FFF71F
:104F6000DFFFB0FBF4F303FB140012AB03EB800094
:104F700050F8480C12B010BD4FF0FF30FAE7F8B50A
:104F8000D0F8083990F8F858002BC8BF03F1FF3368
:104F90000446C8BFC0F80839B5BBD0F80839002BA3
:104FA00032DC00F54277012623E02046FFF7C4FFFC
:104FB000431C1DD004EB8000D0F8FC27D0F8441827
:104FC000B2F90830B2F90A2003EBD37301EB6301A5
:104FD000C4F8FC18D0F88C381A44C4F8002909B277
:104FE00012B23846FEF7ADF984F82D6384F8F868FC
:104FF0000135D4F8F8379D42D7DB94F84A290523C8
:10500000B3FBF2F3C4F80839F8BD08B5002380F803
:105010002D3380F8593380F8F83880F80C390BF0CC
:1050200061FDBDE80840FDF7D9BD90F8373910B5EE
:105030000446D3B1D0F83039013B002BC0F83039E9
:105040000EDC90F80C29002380F8373980F89D3663
:105050001AB180F8593380F80C392046FFF7D5FF94
:105060002046BDE81040FFF760BE10BDF0B590F8D7
:10507000F8388DB00446002B3BD0D0F8FC380493B0
:10508000D0F800390593B0F910330693B0F9123314
:10509000079300F5E673019300F5D073029300F5D2
:1050A000BA73039300F63316002501AF16F8013FDB
:1050B0000BB357F8253093F82520E2B1B3F904205B
:1050C0000892B3F906200992B3F908200A92B3F9BD
:1050D0000A300B9308AA04A92046FFF70CFE50B132
:1050E00029462046FFF736FE002384F82D3384F846
:1050F000F8380DB0F0BD0135032DD7D194F837390C
:10510000002BF6D094F89D36002BF2D0B4F97C3603
:105110000893B4F97E360993B4F980360A9308AA45
:10512000B4F982360B9304A92046FFF7E4FD00286A
:10513000DFD02046FFF779FF002384F82D3384F871
:10514000F838D6E708B5002380F82D3380F85933B6
:1051500080F8F83880F80C390BF0C4FCBDE8084042
:10516000FDF74CBD13B504461448002300681A46E9
:105170000DF1070103F01DFC50B994F837393BB12C
:105180009DF80730B4F97C26012B03D0022B0FD0F9
:1051900002B010BDA2F10A0323EAE3739342F7D0F1
:1051A000A4F87C36C4F82039201D0CF052FEEFE73D
:1051B00002F10A03D22BA8BFD223EFE7901E0020F2
:1051C0002DE9F74F04460026FEF7A9FC04F2CC7047
:1051D000654AC4F8C46733460A21C4F8EC060FF0E8
:1051E000B3FD04F2A4600CF034FE04F5FC60D4F8C6
:1051F000C8375D4AC4F838070A210FF0A5FD01251C
:1052000004F5DE6004F5F6670CF023FE2B46564AE3
:10521000C4F8F4570A21C4F8F85784F84A593846B4
:105220000FF092FDC4F8847704F23C700CF011FE8C
:1052300004F59863C4F8FC3704F2EC43C4F8003872
:1052400004F29443C4F8043804F5A363C4F808389E
:1052500004F58D63C4F80C3804F24453C4F81038D4
:1052600004F23C43C4F8143804F5AE63C4F81838AB
:1052700004F58263C4F81C3804F29C53C4F8203847
:1052800004F57973C4F8243804F5B963C4F82838F0
:1052900004F56E73C4F82C3804F2F453C4F83038B3
:1052A00004F56373C4F8343804F5C463C4F83838BB
:1052B00004F55873C4F83C3804F24C63C4F8403821
:1052C00004F5FF6A4FF0140904F6D3030FFA89F2CC
:1052D00003EB060BD0461427C8F84C70C8F894901E
:1052E00058F8040F019339B200922337FEF729F8DA
:1052F000D8F80010E62F81F82550DDE900230BF8DF
:10530000015FE9D10636122E0AF1180A09F12809BF
:10531000DCD1002384F82D3384F8F83884F859332D
:1053200084F80C39B4F97C36C4F820390323C4F866
:105330002439C4F82839C4F82C39C4F830394FF06E
:1053400001332046C4F8343984F8F15184F8C5514A
:1053500084F8995184F89D56FFF7E7FC201D03B0AF
:10536000BDE8F04F0CF075BDA36E0208D0F8C4374D
:10537000254A0B4410B50A210446C0F8C43700F290
:10538000CC700FF0E1FC04F2A4600CF062FDD4F8E4
:10539000C437D4F8C82793420BDD1B4AC4F8C8377A
:1053A0000A2104F5FC600FF0CFFC04F5DE600CF080
:1053B00050FD0522D4F8C43793FBF2F3D4F8F42758
:1053C00001339A421FDA052B1DDC94F84A29D4F8E0
:1053D000F817C4F8F4370132D2B284F84A290131FF
:1053E0000132C4F8F817C4F8E828C4F8EC2804F52A
:1053F000F660054A0A210FF0A7FC04F23C70BDE8F4
:1054000010400CF026BD10BDA36E020890F8F828DD
:105410009AB1D0F80029D0F804190A44B2F5A07F57
:10542000C0F80029A0F80E2307DD002280F82D2304
:1054300080F8F8280121FFF799BF7047112910B5AE
:1054400004461BD8421892F8D438BBB100EB810156
:10545000002382F8D438D1F8FC27012182F82530C6
:10546000FFF784FF04F6D30304F6E50213F8011FE7
:1054700021B99342FAD194F8373903B910BD2046C7
:10548000BDE81040FFF75EBEF0B590F80C398DB066
:1054900004468BB3D0F810390493D0F8143905932F
:1054A000B0F93C330693B0F93E33079300F6D307C7
:1054B00000F2FC75002617F8013FFBB12B6893F84A
:1054C0002520DAB1AA6C0892D5F890200992B3F998
:1054D00008200A92B3F90A300B9308AA04A92046BF
:1054E000FFF709FC50B131462046FFF7A7FF002324
:1054F00084F8593384F80C390DB0F0BD0136122E02
:1055000005F10405D7D104F5E673019304F5D073D2
:10551000029304F5BA73039304F63316002501AF22
:1055200016F8013F03B357F8253093F82520DAB178
:10553000B3F904200892B3F906200992B3F90820C0
:105540000A92B3F90A300B9308AA04A92046FFF780
:10555000D2FB48B129462046FFF7FCFB002384F824
:10556000593384F80C39C7E70135032DD8D1C3E787
:105570002DE9F84FB0F8483901339BB20322B3FB51
:10558000F2F202EB4202A0F848399B1A9BB20446A1
:105590000BB1FFF7E7FDB4F848390A22B3FBF2F18B
:1055A00002FB11339BB2002B40F0918094F8F088FD
:1055B00004F6D306B8F1000F36D0D4F8F43801332E
:1055C000C4F8F43804F2FC7104F6E505324612F82A
:1055D000010F30B10F6897F8250080F0010087F8BF
:1055E0002500AA4201F10401F1D1042B17DD04F5D5
:1055F000FF62002306F8013F52F8041FAE4281F813
:105600002530F7D184F8F03884F82D3384F8F83851
:1056100084F8593384F80C392046FFF7F6FC201D36
:10562000BDE8F84F0CF015BC374604F6440504F607
:105630008C0BB2461AF8019FB9F1000F18D094F8FC
:10564000E6282968D4F8E83802B95B4255F8480CD6
:105650001944036829601B6B09B298472A68002A1D
:1056600007DD55F8483CB3F908301344EF2B00DC54
:10567000C14604355D452CD104F6E508B9F1000FAB
:1056800029D12046FFF77BFC2046FFF7B4FB2046DC
:10569000FFF7BCFE2046FFF71AFBFFF7E7FC2046AA
:1056A000FFF7F2FE04F2FC7317F8012F62B31A68D9
:1056B000D3F89010B2F90A200A44B4F9E2128A42EF
:1056C00022DB012384F8F0380023C4F8F438BDE865
:1056D000F88FC846AEE794F8E63883F0010384F803
:1056E000E63816F8013F53B1D4F8EC38296855F87C
:1056F000900C1944036829605B6B09B298474645D2
:1057000005F10405EDD1BCE7474503F10403CBD116
:1057100085E7704704387047704710B5102104467C
:105720001EF06AFC204610BDA0F10400F5E7000061
:1057300000228260024A026018324260C1607047F3
:10574000D47902087047000010B5034B036004468B
:10575000FFF7DEF8204610BDFC79020810B50446BC
:10576000FFF7F2FF2046DC211EF046FC204610BD6C
:1057700010B50446FFF702F9014B2360204610BD27
:10578000FC790208FFF7C5B8F02070474FF4A0700D
:1057900070472920FCF7F4BA2820FCF7F1BA08B5C5
:1057A000FCF7C2FACA20FCF7EBFAC320FCF7CCFAEC
:1057B0000820FCF7C9FA5020FCF7C6FACF20FCF706
:1057C000DFFA0020FCF7C0FAC120FCF7BDFA302058
:1057D000FCF7BAFAED20FCF7D3FA6420FCF7B4FA30
:1057E0000320FCF7B1FA1220FCF7AEFA8120FCF797
:1057F000ABFAE820FCF7C4FA8520FCF7A5FA0020F4
:10580000FCF7A2FA7820FCF79FFACB20FCF7B8FA55
:105810003920FCF799FA2C20FCF796FA0020FCF7C7
:1058200093FA3420FCF790FA0220FCF78DFAF72067
:10583000FCF7A6FA2020FCF787FAEA20FCF7A0FA8A
:105840000020FCF781FA0020FCF77EFAB120FCF77B
:1058500097FA0020FCF778FA1B20FCF775FAB620BF
:10586000FCF78EFA0A20FCF76FFAA220FCF76CFA1C
:10587000C020FCF785FA1020FCF766FAC120FCF77F
:105880007FFA1020FCF760FAC520FCF779FA452072
:10589000FCF75AFA1520FCF757FAC720FCF770FA04
:1058A0009020FCF751FA3620FCF76AFAC820FCF782
:1058B0004BFAF220FCF764FA0020FCF745FAB0201E
:1058C000FCF75EFAC220FCF73FFAB620FCF758FA64
:1058D0000A20FCF739FAA720FCF736FA2720FCF754
:1058E00033FA0420FCF730FA2A20FCF749FA0020AA
:1058F000FCF72AFA0020FCF727FA0020FCF724FA2C
:10590000EF20FCF721FA2B20FCF73AFA0020FCF7F5
:105910001BFA0020FCF718FA0120FCF715FA3F20CB
:10592000FCF712FAF620FCF72BFA0120FCF70CFA30
:105930000020FCF709FA0620FCF706FA2C20FCF7F9
:105940001FFAC820FCF76AFA2620FCF719FA012092
:10595000FCF7FAF9E020FCF713FA0F20FCF7F4F952
:105960002920FCF7F1F92420FCF7EEF90C20FCF7D4
:10597000EBF90E20FCF7E8F90920FCF7E5F94E20D9
:10598000FCF7E2F97820FCF7DFF93C20FCF7DCF9C2
:105990000920FCF7D9F91320FCF7D6F90520FCF70C
:1059A000D3F91720FCF7D0F91120FCF7CDF900202E
:1059B000FCF7CAF9E120FCF7E3F90020FCF7C4F991
:1059C0001620FCF7C1F91B20FCF7BEF90420FCF7F8
:1059D000BBF91120FCF7B8F90720FCF7B5F9312025
:1059E000FCF7B2F93320FCF7AFF94220FCF7ACF931
:1059F0000520FCF7A9F90C20FCF7A6F90A20FCF712
:105A0000A3F92820FCF7A0F92F20FCF79DF90F201F
:105A1000FCF79AF91120FCF7B3F9C820FCF7FEF95E
:105A20002920FCF7ADF9BDE808402C20FCF7A8B907
:105A300008B5FCF779F90321D320FCF7BDF980B252
:105A400008BD10B5C4B2022203212046FCF722F99A
:105A50000A20FCF767F9204600220321FCF71AF917
:105A6000BDE810400220FCF75DB938B50446E4B249
:105A7000FCF70EF900212046FCF724F90121054628
:105A80002046FCF71FF940EA052080B238BD10B56A
:105A9000C4B240212046FCF715F9030607D54C2176
:105AA0002046FCF70FF9003818BF012010BD012275
:105AB0004B212046FCF7EEF8204600224B21FCF754
:105AC000E9F80020F2E773B50423C4B20E46154688
:105AD000D7210DEB03022046FCF70EF9019B1BBA00
