:020000040800F2
:10000000000003205D060008F5230008F723000820
:10001000F9230008FB230008FD230008000000006E
:1000200000000000000000000000000061870008E0
:10003000FF23000800000000F18700087980000815
:10004000AD060008AD060008AD060008AD060008C4
:10005000AD060008AD060008AD060008AD060008B4
:10006000AD060008AD060008AD060008AD060008A4
:10007000AD060008AD060008AD060008AD06000894
:10008000AD060008AD060008AD060008AD06000884
:10009000AD060008AD060008AD060008AD06000874
:1000A000AD060008AD060008AD060008AD06000864
:1000B000AD060008AD060008AD060008AD06000854
:1000C000AD060008AD060008AD060008AD06000844
:1000D000AD060008AD060008AD060008AD06000834
:1000E000AD060008AD060008AD060008AD06000824
:1000F000AD060008AD060008AD060008AD06000814
:10010000AD060008AD060008AD060008AD06000803
:10011000AD060008AD06000801240008AD06000881
:10012000AD060008AD060008AD060008AD060008E3
:10013000AD060008AD060008AD060008AD060008D3
:10014000AD060008AD060008AD060008AD060008C3
:10015000AD060008AD060008AD060008AD060008B3
:10016000AD060008AD060008AD060008AD060008A3
:10017000AD060008AD060008AD060008000000004E
:10018000AD060008AD060008AD060008AD06000883
:10019000AD060008AD060008AD060008AD06000873
:0C01A0000D240008AD060008192400081A
:1001B00010B5054C237833B9044B13B10448AFF3A1
:1001C00000800123237010BD800300200000000088
:1001D0008442020808B5034B1BB103490348AFF33F
:1001E000008008BD00000000840300208442020853
:1001F00001F0FF01102A2BDB10F0070F08D010F8D8
:10020000013B013A8B422DD010F0070F42B3F6D1DB
:10021000F0B441EA012141EA014122F007047FF0F4
:1002200000070023F0E80256083C85EA010586EA4B
:10023000010685FA47F5A3FA87F586FA47F6A5FA87
:1002400087F68EB9EED1F0BC01F0FF0102F0070293
:1002500032B110F8013B013A83EA010313B1F8D13E
:100260000020704701387047002D06BF354603381F
:10027000073815F0010F07D1013015F4807F02BF58
:10028000013015F4C03F0130F0BC0138704700BFA9
:100290007BB972B90029BEBF00204FF0004106E0D3
:1002A00008BF00281CBF6FF000414FF0FF3000F086
:1002B000D3B9ADF1080C6DE904CE002909DB002BA0
:1002C0001ADB00F04DF8DDF804E0DDE9022304B0AC
:1002D0007047404261EB4101002B1BDB00F040F80E
:1002E000DDF804E0DDE9022304B0404261EB4101A6
:1002F000524263EB43037047524263EB430300F007
:100300002FF8DDF804E0DDE9022304B0404261EBA0
:1003100041017047524263EB430300F021F8DDF8DE
:1003200004E0DDE9022304B0524263EB430370476B
:1003300053B94AB9002908BF00281CBF4FF0FF314C
:100340004FF0FF3000F088B9ADF1080C6DE904CE34
:1003500000F006F8DDF804E0DDE9022304B07047A0
:100360002DE9F047089D8E4604468846002B4AD169
:100370008A42174662D9B2FA82F64EB1C6F120031C
:1003800001FA06F820FA03F3B74043EA0808B4403C
:100390004FEA174E1FFA87FCB8FBFEF1230C0EFB49
:1003A000118843EA084301FB0CF29A4209D9FB1871
:1003B00001F1FF3080F0EA809A4240F2E780023992
:1003C0003B449A1AA3B2B2FBFEF00EFB102243EAA2
:1003D000024300FB0CFC9C4509D9FB1800F1FF32DD
:1003E00080F0D6809C4540F2D3803B44023840EAFE
:1003F0000140A3EB0C0300211DB1F3400022C5E92D
:100400000032BDE8F0878B4205D90DB1C5E9000186
:1004100000210846F5E7B3FA83F1002946D1734578
:1004200002D3824200F20581841A6EEB030201209E
:100430009046002DE5D0C5E90048E2E7002A00F02B
:100440009080B2FA82F6002E40F0A4808A1A030C43
:100450004FEA174E80B2BCB20121B2FBFEFC0EFB8C
:100460001C2243EA024304FB0CF29A4207D9FB1810
:100470000CF1FF3802D29A4200F2E080C4469B1A87
:10048000B3FBFEF20EFB123340EA034302FB04F41B
:100490009C4207D9FB1802F1FF3002D29C4200F2C5
:1004A000CA8002461B1B42EA0C40A5E7C1F12006A8
:1004B0008B4022FA06F71F430EFA01F420FA06F3E6
:1004C0002EFA06FE4FEA1749234300FA01F81FFAF5
:1004D00087FCBEFBF9F01C0C09FB10EE44EA0E444D
:1004E00000FB0CFEA64502FA01F209D93C1900F105
:1004F000FF3A80F09C80A64540F2998002383C4447
:10050000A4EB0E041FFA83FEB4FBF9F309FB1344BA
:100510004EEA044403FB0CFCA44508D93C1903F142
:10052000FF3E80F08280A4457FD9023B3C4443EAF1
:100530000040A4EB0C04A0FB02EC64457346E146CA
:1005400062D35FD05DB1B8EB030264EB090404FA37
:1005500006F622FA01F31E43CC40C5E900640021EF
:100560004FE7B1FBF2FC010C41EA0E4180B240EAD8
:1005700001423B4638463C46B846BE462026B1FBC3
:10058000F7F1A2EB080241EA0C4166E7014618E7E1
:1005900010462CE7C6F120022EFA02F3B740B14014
:1005A00020FA02F24FEA174E0A43B3FBFEF8BCB240
:1005B0000EFB1833110C41EA034108FB04F9B0406B
:1005C00089454FEA104380B23ED9791808F1FF3CC3
:1005D00001D289451FD8A1EB0901B1FBFEF909FB46
:1005E00004F80EFB191192B242EA0142424529D2A7
:1005F000BA1809F1FF31C4D24245C2D2A9F10201B1
:100600003A44BEE7F0459DD2BEEB02036CEB070C0B
:100610000138E14696E7A7EB09094944A8F1020C25
:10062000B1FBFEF909FB04F8DBE773467FE75046B0
:1006300066E70846FDE63B44023A33E7ACF1020CBC
:100640003B441CE749469CE7A1EB0901C446B1FBCA
:10065000FEF909FB04F8C4E7704700BFDFF834D0A7
:10066000002103E00C4B5B58435004310B480C4B0A
:1006700042189A42F6D30B4A02E0002342F8043BA8
:10068000094B9A42F9D305F017F823F08DF801F0E1
:1006900091F8704700000320146413080000002044
:1006A0006401002080030020D03B0120FEE770475A
:1006B00008B500F0B9FDBDE8084000F03DBD00F010
:1006C000B5BD704710B50421044621F081FE2046D7
:1006D00010BD000038B50C4B0C4C18800C4B822020
:1006E00019806368984740F6110398420AD1094D72
:1006F00023682C60822098472B688220DB6898470B
:10070000002038BD0120FCE7A60300204C0000209B
:10071000A4030020A80300204FF4A071F020FFF7ED
:10072000D9BF0000F7B5394D2B6804461B698220FC
:100730009847208000284ED02B680DF106025B6997
:1007400001A982209847324B1B78002B4BD0BDF873
:10075000062040F674639A423FD9ADF80630BDF8E2
:1007600006209B1A9BB20A2B42D90B22B3FBF2F351
:10077000284A1288934201D9013A93B2BDF8042065
:10078000254840F6B8318A4234D8C2F571620E323B
:10079000016892B20F25B2FBF5F2204D2D88AA42D6
:1007A00084BF05F1FF35AAB28A4215468EB22AD916
:1007B000921B91B21A4E3768BB42BAB28CBF9A1ADA
:1007C000D21A92B211440529C4BF05603360036890
:1007D00063803368A38003B0F0BDB32A9CBFB4220A
:1007E000ADF80620BBE7BDF80630A3F5B473B9E752
:1007F0000023C3E7C2F56D62083292B20E2A016887
:10080000C8D800252A46891A89B2D3E7A803002050
:10081000C01D0020A4030020A0030020A603002088
:100820009C03002037B568460D461446FFF77AFF53
:10083000BDF8000030B1BDF802302B60BDF80430C7
:100840002360012003B030BD032821D8DFE800F089
:10085000020B12190F4B1A68B2FA82F252090421E4
:100860000D4805F0BDB90B4B5A68B2FA82F2520935
:100870000821F5E7074B9A68B2FA82F25209102173
:10088000EEE7044BDA68B2FA82F252092021E7E778
:10089000704700BFAC03002000100240032821D89D
:1008A000DFE800F0020B12190F4B1A68003A18BF6C
:1008B000012204210D4805F093B90B4B5A68003A08
:1008C00018BF01220821F5E7074B9A68003A18BFC4
:1008D00001221021EEE7044BDA68003A18BF01222A
:1008E0002021E7E7704700BFAC0300200010024062
:1008F00003280DD8DFE800F00206080A04210548A5
:1009000005F073B90821FAE71021F8E72021F6E78E
:10091000704700BF0010024008B5032811D8DFE877
:1009200000F0020A0C0E0421074805F053F9431E9B
:100930005842584108BD0821F6E71021F4E720216C
:10094000F2E70020F3E700BF0010024070B5084D49
:1009500000240126E0B2FFF7DFFF18B12B68012B5E
:1009600018BF2E600134052C05F10405F2D170BDCD
:10097000AC030020012380F8781080F879307047AC
:100980007047002070470000034B4164003918BFD6
:1009900001211970704700BF8F2E01207047002081
:1009A0007047836B0BB10846184770474FF6FF70CE
:1009B0007047406803689B691847704770477047E5
:1009C0007047704710B5044600F046FD23680349A0
:1009D000D3F890302046BDE810401847000000D002
:1009E00008B503680446D3F8843098472368204646
:1009F000DB6F984700F0ECF8236820465B6F984760
:100A0000292001F0BDF900F0E3F8236820465B6F70
:100A10009847F8E710B504460AF09AFC2368204688
:100A2000D3F8BC30BDE81040184700F0F9BC00F026
:100A3000FDBC00F02FBD00F0CFBC00F03FBD00F0CA
:100A400047BD00F0D3BC09F0B1BE10B58421044607
:100A500021F0BEFC204610BD10B590F8341090F87F
:100A600078400C4B8C421A7809D03AB90A4A0B49A3
:100A70001488088810800C8001221A7010BD002A8A
:100A8000FCD0054A05491488088810800C80002293
:100A9000F3E700BF882E0120842E0120862E01203E
:100AA00070B50D46194635B9094B0A4A0A4840F255
:100AB000FF2122F0C9FBC0E90F52084B003A18BFD2
:100AC00001221A700368BDE87040D3F890301847CF
:100AD000F44202082C4302087A4302088E2E0120B9
:100AE00008B5094B1B888B4203D8084B1B889342DF
:100AF00005D9074B074A0848A32122F0A5FB074B5D
:100B00001980074B1A8008BD842E0120862E0120F3
:100B1000BF430208224402087A4302088A2E0120B9
:100B20008C2E0120034690F87A0018B158680368AB
:100B30001B68184770470000012108B500220846CD
:100B400007F024FB0A4B186028B90A4B0A4A2821EF
:100B50000A4822F079FB00220421012007F0B5FBAE
:100B6000074B186018B9074B034A2C21F0E708BD62
:100B7000C003002065440208AE440208DD440208B8
:100B8000BC03002040450208024B4FF0FF311868BB
:100B900007F046BBC0030020014B186807F06CBB90
:100BA000C0030020024B0021186807F039BB00BFCA
:100BB000C0030020FFF7F0BF03480449006800238A
:100BC0001A4607F0BDBB00BFBC0300200400002094
:100BD00013B5084C00231A4601A9206807F0E1FB71
:100BE00020684FF0FF33002201A907F0DAFB02B0C2
:100BF00010BD00BFBC03002003685B6C18470120D8
:100C0000704703689B6A1847FEE740F2EF30704771
:100C1000054B0360054B4FF08062C3F88820BFF39B
:100C20004F8FBFF36F8F7047E052020800E100E082
:100C300010B504464FF45A61FFF7EAFF204621F051
:100C4000C7FB204610BD000082B0002301930E4B6D
:100C50001A6B42F400021A631A6B02F4000201924A
:100C6000019A1A6942F400021A611A6922F4000218
:100C70001A61064B064A1A61064A5A61064B4FF042
:100C800080629A6002B0704700380240B01F0020B6
:100C9000E90E0008090C000800E100E008B50A2888
:100CA00009D8DFE800F006100E0808080810101038
:100CB0001000022008BD054B054A0648902122F08D
:100CC000C3FA0020F6E70120F4E700BF82450208DE
:100CD0009D450208E845020838B50C46887FFFF7B5
:100CE000DDFFA58AE28A164B2169586342EA054274
:100CF0005A64628BD963521B1A642568082D0ED181
:100D00009A611A615862207F0E4A42EA0062DA61F3
:100D1000E2681A620C4A5961D9601A6038BD002233
:100D2000D8611A61E1680A0A480902F4784200F4BD
:100D3000FC600243C1F3C4010A439A63034AECE72F
:100D400000B002400900010001230200012303005A
:100D500008B50B280BD8DFE800F00612100A0A0AC3
:100D60000A0808080808022008BD0520FCE7054B12
:100D7000054A06486F2122F067FA0020F4E70120B7
:100D8000F2E700BF8245020849460208E84502082A
:100D90002DE9F04191F81D800C464046FFF7D8FF41
:100DA000A77F05463846FFF7D3FF06463846FFF7CC
:100DB00075FFA18A628B444B521A1A649A61228B86
:100DC000521A1A61E28A586342EA01425A6421695E
:100DD0006268D963DA602068802828D0227F0FD823
:100DE000202867D0402865D004281AD0364B45EA21
:100DF000026545F40035B845DD6161D0334A44E011
:100E0000B0F5807F04D0B0F5007FEFD1304800E02E
:100E1000304840EA0262DA61E2681A625E62596151
:100E200032E045EA026242F40032DA61F6E7A06895
:100E3000021DDA62227F45EA026545F40035DD6174
:100E40005E625961017841B1012921D0224B234AC8
:100E500023484FF48D7122F0F7F9DA69418822F4C2
:100E60007F42013922F0100242EA0122DA610121B7
:100E7000154BDA6942F02002DA61DA699206FCD495
:100E800010229A600029B9D0164A1A60BDE8F08194
:100E9000B2F1FF01DA69408822F47F4200F1FF30AD
:100EA00022F0100242EA002242F0100218BF012193
:100EB000DA61DDE745EA0262034B42F40032B4E74F
:100EC00042F20132E1E700BF00B00240012301001D
:100ED000090002000A00020093460208AD4602081B
:100EE000E845020801230200024B1B6858680368AA
:100EF0005B691847902E012070B5044625460A4BC1
:100F00000C30002660602672667245F8203B602235
:100F100029460AF073FB04F55A63EE6024359D42BE
:100F2000FBD1204670BD00BFE0520208034B1A6897
:100F3000D207FCD423229A60704700BF00B0024061
:100F40007047000030B50F4C2568ED07FCD4232511
:100F50000904A56041F001010225FF2B656361646E
:100F6000E0630AD00849656241EA0363E361074B25
:100F700022626061E060236030BDE561039BA36392
:100F8000034BF8E700B00240090001000100020035
:100F90000100030030B50E4C2568ED07FCD4232575
:100FA0001204A56042F001020225FF2B6563626412
:100FB000E063E16008D01B0643F00213E361054BD8
:100FC00065626061236030BD034BE3610123F9E793
:100FD00000B0024001000200020002FF30B50B4CDD
:100FE0002568ED07FCD4232512041B06A56043F4F5
:100FF0000033022542F0010265636264E063E16050
:10100000E361034B65626061236030BD00B0024064
:1010100001000200012070474020704700EB811062
:101020000830704700EB811008307047012070478E
:101030004FF4086070474FF4086303FB0100083069
:1010400070474FF4086303FB01000830704701202C
:1010500070471020704700EB01100830704700EB1C
:10106000011008307047084601F05ABF10B5034B15
:101070000360044609F0EFF8204610BD98530208BB
:1010800010B50446FFF7F2FF2046482121F0A0F9F1
:10109000204610BD10B5034B0360044609F0DBF891
:1010A000204610BD6453020810B50446FFF7F2FF56
:1010B000204640F6880121F08BF9204610BD000043
:1010C00010B5034B0360044609F0C5F8204610BD77
:1010D0003053020810B50446FFF7F2FF20461821EE
:1010E00021F076F9204610BD10B5084B0360044688
:1010F00000F6B400FFF7BAFF04F12C00FFF7CAFFB7
:1011000004F11400FFF7DCFF204610BDCC530208A9
:1011100008B50248FFF7E8FF08BD00BF9C12002099
:1011200010B50446FFF7E0FF204640F65C2121F0B1
:101130004FF9204610BD00002DE9F34101F0E6F91A
:10114000054601F0E7F900240146234628462246D9
:10115000009412F08BF8274B274A1A60204603F0C0
:1011600057FA264D264B274A27489A6011F0E6FF8A
:101170002B68BFF35B8FDB0735D4284621F02AF9B3
:1011800088B3224C224B236004F5106604F114004E
:1011900004F12C0804F6B4076060C4F80880E76026
:1011A000266109F059F81B4B6361404609F054F879
:1011B000194BE362384609F04FF8184BC4F8B438BD
:1011C00004F6FC0003F05EFB224604F6FC01304608
:1011D00003F09CFA304601F0A3FE114822F052F8C9
:1011E000284621F003F90F4802B0BDE8F041FFF7AF
:1011F000E9BB00BFF42E0120480400209812002013
:10120000680400204C040020080000209C120020EC
:10121000CC53020830530208645302089853020862
:1012200011110008C4030020704700000148FFF7B7
:10123000D7BB00BFC403002070B5264E264C274DF7
:10124000274B23603046FFF757FE284617F014F966
:10125000244810F07DF8244B2448DC6000224FF431
:101260008071C3E9121222491A86C3E91A12214970
:1012700083F85820C3E91E011F49C3F880101F4995
:101280001F480B60F021C3E90422C3E90622C3E929
:101290000822C3E90A22C3E90E22C3E91022C3E9E6
:1012A0001422C3E917225A6683F870205A67C3E9EB
:1012B000016501801348018013484FF4A07101803B
:1012C0001248018012490A70012283F83420114A21
:1012D0001A6070BDF40400209412002068040020FD
:1012E000E44202084C040020C40300200000010175
:1012F00001000001000450001A001400902E01208B
:10130000842E01208A2E0120862E01208C2E012081
:10131000882E0120F45102080148FFF779BC00BF74
:10132000F40400200020704781807047C18070471E
:10133000018170474181704770477047704770471F
:10134000704710B4C4880368121B84885B6D091B46
:1013500012B25DF8044B09B218474FF6FF73838150
:101360004FF0FF3303621368C361106070470020C1
:1013700070478B88838001207047704780F8261063
:10138000704790F82600704710B50022B1F9084068
:10139000B1F90A10028042808480C18010BD002211
:1013A000028042808280C28070470177704780ED62
:1013B000080A704780F82410704780F8251070479D
:1013C00001207047983070478C30704784307047E8
:1013D0007047704770470000034B902283F85A23F0
:1013E00083F85823704700BF00E100E0094A0A492A
:1013F000D3680A48C3F30A03013B9BB20B8011690F
:10140000C1F30A01013901801364536B43F00103F6
:101410005363704700680140FA1C0020F81C00204C
:10142000014BD3F8AC00704700680140024B012229
:10143000C3F8AC105A6270470068014010B52C2107
:10144000044620F0C5FF204610BD10B5BC2104465F
:1014500020F0BEFF204610BD70B5044609F0FBF930
:1014600023689D6E0EF0E4FC01462046A8472368E1
:10147000054AD3F88C502046AC460023BDE87040A6
:10148000A2F51631604700BF00B004D009F0CAB918
:1014900009F0D4B909F090B909F0FFBA90F8252005
:1014A00012B103685B691847704790F825201AB19C
:1014B00090F8242002B1186070470000034B4FF0F1
:1014C00080629A604FF080729A60704700E100E09D
:1014D000084B4FF08062C3F88820BFF34F8FBFF3F3
:1014E0006F8F4FF08072C3F88820BFF34F8FBFF328
:1014F0006F8F704700E100E070B50023124E8380CB
:10150000124B0360336893F8582005460AB1D86C33
:1015100000B998680368DB6A98473368B0FA80F4CA
:10152000D86C640930B10368DB6A9847002808BFAB
:1015300044F001042CB9064B064A07482C2121F03F
:1015400083FE284670BD00BF902E0120E0530208A4
:10155000EB460208494702088247020870B5254E4B
:101560003568BFF35B8F15F0010540D1304620F0A0
:1015700031FF00283BD0204C204B256104F1340082
:10158000C4E90035C4E90255E584A562A58510F0DB
:10159000C4F904F158000BF0E7FC194BA365204691
:1015A000184B40F8843BFFF7A7FF174BC4F8843073
:1015B0002433C4F88C304FF4C803C4E92835002321
:1015C000C4F8AC30C4F8B030C4F8B430C4F8B830A3
:1015D0000E480F4BC4F89050C4F89C50C4F8A85063
:1015E000C4F8983021F04EFE304620F0FFFE02484D
:1015F00070BD00BFFC1C0020001D0020DC5D020847
:101600000054020878540208905D0208D5130008BF
:10161000705D020838B5184C23685BB3174B184A45
:101620001B6C11888B4216D1164B198805F0E0F817
:10163000236893F86A200025013283F86A2083F832
:101640007C50FFF7B9FA206809F082FE2846BDE811
:101650003840FFF7F9B805F0CBF824682368204636
:101660001B6A9847012384F87C300020BDE838408D
:10167000FFF714B938BD00BF902E0120006801406B
:10168000FA1C0020F81C002007B5064BADF8060038
:101690001B68054801220DF1060105F095FE03B017
:1016A0005DF804FB0C0000204C1E002007B5184D0F
:1016B000184E1748042104F08DFA044670B901232E
:1016C0004FF4005128468DF8073004F08EFA306848
:1016D000234622460DF1070106F032FE0C48082190
:1016E00004F078FA044670B902234FF400512846FA
:1016F0008DF8073004F079FA3068234622460DF160
:10170000070106F01DFE642006F034FDD1E700BF9E
:1017100000180240C41D002030B595B010220021F1
:101720000AA821F098FF1422002103A821F093FFBA
:1017300000241E4B01941A6C42F080521A641B6CF8
:1017400003F080530193019B194B02941A6842F4F1
:1017500040421A601B6803F4404302930122029B3B
:101760004FF48033CDE9082302254FF4800308218C
:10177000CDE90E534FF4B473CDE9101308A8042338
:101780001393129505F08CF805F050F80F23CDE96E
:1017900003354FF4A0504FF48053CDE906030521E3
:1017A00003A8059405F058FA15B030BD0038024082
:1017B000007000402DE980489DB003F08BFFFFF7DB
:1017C000ABFF142200210FA821F045FF0024C84BD5
:1017D00000941A6BC748C84DDFF8548342F01002DA
:1017E0001A631A6B02F010020092009A01941A6BAD
:1017F00042F020021A631A6B02F020020192019A51
:1018000002941A6B42F080021A631A6B02F0800293
:101810000292029A03941A6B42F004021A631A6B42
:1018200002F004020392039A04941A6B42F001023C
:101830001A631A6B02F001020492049A05941A6B5F
:1018400042F002021A631A6B02F002020592059A34
:1018500006941A6B42F040021A631A6B02F04002BF
:101860000692069A07941A6B42F008021A631B6BE1
:1018700003F00803224607933C21079B04F0B0F9CC
:101880009E480122022104F0ABF922469B48042124
:1018900004F0A6F922469A484FF4405104F0A0F90A
:1018A000224698484FF4C04104F09AF901263C239F
:1018B000CDE90F368F48119403230FA90227129305
:1018C00004F0A4F88D480FA9CDE90F76CDE91144B5
:1018D00004F09CF8042389480FA9CDE90F36CDE91F
:1018E000114704F093F8884811940FA9CDE90F64CB
:1018F00004F08CF84FF4405381480FA9CDE90F361E
:10190000CDE9114704F082F80C237E4811960FA907
:10191000CDE90F3404F07AF80FA94FF4C0437948A9
:10192000CDE90F36CDE9114404F070F87748784BD3
:10193000036003F061FFDFF8FCE1764B2C62C5E940
:1019400000E328464FF48043C5E90434C5E9024466
:10195000C5E9064404F052FB1021284604F096FD28
:10196000214628466C4D04F0B0FD4FF48273C5E962
:1019700000834FF400791823C5E9069328460A230B
:10198000C5E90244C5E90444C5E90844AC62EB6218
:1019900005F0BEFC8F232246394658488DF82C307E
:1019A0008DF83C4004F01CF932464FF47A730BA9D1
:1019B000284605F009FD4FF47A7332460FA92846F0
:1019C00005F0AEFE324639464C48544D04F008F955
:1019D0009DF83C30D32B04BF514B1E70514B012658
:1019E000C5E900364FF0100A40230024C5E904A3DE
:1019F0004FF4C073C5E906344FF40063C5E90834F9
:101A00004FF4005302274FF00409AB624FF0030B71
:101A100007230FA92846CDE90F73CDE911934FF0A5
:101A20000808C5E90249CDE913B7159705F054FB3D
:101A30004FF6FF720BA92846CDE90C8608940B9649
:101A40000E9405F069FB304603F070FE4FF6FF720E
:101A50000BA92846CDE90B78CDE90D6405F05CFBB8
:101A60004FF6FF720BA92846CDE90BB8CDE90D94CE
:101A700005F052FB4FF40C730893089B0E934FF63E
:101A8000FF720BA92846CDE90B980D9605F044FB93
:101A900040F26A51284605F05DFB342221460FA82A
:101AA00021F0D9FD204D214B2C61C5E900340923DB
:101AB000C5E905361D23C5E9073B40F20D1240F28A
:101AC0004313C5E9092340F2171140F24713284692
:101AD000C5E90B13C5E90244AC8685F8364004F02D
:101AE0008FFDFF21F022CDE914144FF4806023E034
:101AF00000380240001002405C1F00200008024035
:101B0000000C02400018024000000240F01F0020BC
:101B100000300240A08601004C1E0020D01D002095
:101B2000C01D0020400100A0B41E0020006801403C
:101B300000500140005C004005214FF4A073CDE946
:101B40001601CDE910240FA9CDE9184228462246F6
:101B5000CDE912373E4D1A930F94ADF86C408DF8D5
:101B60006E4004F018FE3B4B2B601B6898472B68B7
:101B7000394DDB689847394B2846C5E90034C5E93B
:101B80000274C5E90A47C5E90C4403F045FE314635
:101B9000284603F0F7FE3248324B036005F050FA56
:101BA000524621460BA8304D304F21F054FD1C22E7
:101BB00021460FA8CDE9094421F04DFD5323C5E985
:101BC000007328464FF4FA73C5E90334AC60AC6186
:101BD00005F0F6FF4FF480530BA928460B9306F04F
:101BE000D9F8284606F018F809A92846CDE909448D
:101BF00006F06AF94FF0600CFA2322460FA9284636
:101C0000CDE90FC31194139406F062F8284600F052
:101C10000BFBFEF74DFDFEF74AFD06F03BFA144ABA
:101C20003146404606F051FB124B134A18602146DC
:101C3000124806F05BFA124B124A1860214612480D
:101C400006F054FA114B186006F036FAFEE700BFB2
:101C5000BC1D002014000020B01F002000B0024076
:101C6000A41E002000080650041E002000040040AE
:101C7000BC540208C41D0020F8540208AD16000828
:101C8000CC1D0020D4540208BF060008C81D002047
:101C9000704770477FB5094B8DF817201B6802937A
:101CA0000DF117020123009201930A4601460448F0
:101CB00004F04CFA07B05DF804FB00BF10000020F0
:101CC0005C1F00207FB500238DF81730084B1B6880
:101CD00002930A4601230DF1170100910193014679
:101CE000044804F0C3FA9DF8170007B05DF804FB40
:101CF000100000205C1F00201FB5084C24680092D3
:101D0000CDE901340A4601230146054804F0AEFA44
:101D1000003818BF012004B010BD00BF1000002023
:101D20005C1F002003F002BD10B5064C00222046C7
:101D3000042103F055FF20460122BDE81040042194
:101D400003F04EBF0008024038B50B4D0446012297
:101D50000A484FF4005103F043FF002204212846B3
:101D600003F03EFF2046FFF78FFC28460122BDE826
:101D70003840042103F034BF00080240000C024048
:101D800038B50B4D044600220A484FF4005103F0C9
:101D900027FF00220421284603F022FF2046FFF7F8
:101DA00073FC28460122BDE83840042103F018BF27
:101DB00000080240000C0240F7B5144E144F0546CF
:101DC0000C4630460022042103F00AFF00224FF4A3
:101DD0000051384603F004FF2846FFF755FC0D4B31
:101DE0000D481B68224601A905F09AFC38460122DD
:101DF0004FF40051019C03F0F3FE30460122042110
:101E000003F0EEFE204603B0F0BD00BF0008024024
:101E1000000C02400C0000204C1E002003F086BC89
:101E20000268034B9A4201D103F06EBC704700BFB9
:101E3000001000407047000082B00E4B002200925C
:101E4000596C41F480415964596C01F4804100910E
:101E500000990192196C41F0805119641B6C03F0D8
:101E600080530193019B0F216FF0010002B003F03A
:101E700083BC00BF003802400268094B9A4282B01E
:101E80000BD100230193074B1A6B42F480521A6363
:101E90001B6B03F480530193019B02B0704700BF9A
:101EA000003002400038024007B50F4B02689A42EA
:101EB00016D10022A3F5F0430192196B41F4000101
:101EC00019631B6B03F40003019305215A20019B46
:101ED00003F052FC5A2003B05DF804EB03F07EBC23
:101EE00003B05DF804FB00BF00B002402DE9F043F1
:101EF000044689B01422002103A821F0ACFB22681B
:101F0000244B9A4243D1244C244800250095236B4E
:101F100043F004032363236B03F004030093009B4B
:101F20000195236B43F001032363236B03F001034B
:101F30000193019B4FF012094FF400734FF0010819
:101F40000327042603A9CDE90339CDE905870796C0
:101F500003F05CFD4FF480731148079603A9CDE9A7
:101F60000339CDE9058703F051FD0295236C43F455
:101F700000032364236C03F400030293029B236A8F
:101F800043F400032362236A23F40003236209B0AD
:101F9000BDE8F083005C00400038024000080240C9
:101FA00000000240F0B599B004461422002107A8B1
:101FB00021F051FB30220DEB0200002121F04BFB00
:101FC00022685E4B9A4240F0B78008230C93C023EE
:101FD0001093042312930CA84FF40033159304F0CC
:101FE00003FF08B1FFF726FF554B56480024009425
:101FF0005A6C42F080625A645A6C02F0806200921D
:10200000009A01941A6B42F020021A631A6B02F0D4
:1020100020020192019A02941A6B42F001021A63A3
:102020001A6B02F001020292029A03941A6B42F0B8
:1020300002021A631A6B02F002020392039A0494DA
:102040001A6B42F040021A631A6B02F040020492CB
:10205000049A05941A6B42F004021A631A6B02F098
:1020600004020592059A06941A6B42F008021A635C
:102070001B6B03F00803069302250E26069B0B96A6
:102080004FF4806307A9CDE90735CDE9094503F091
:10209000BDFC41F658032C480B9607A9CDE907353E
:1020A0000927CDE9094503F0B1FC032327480B9725
:1020B00007A9CDE90735CDE9094503F0A7FC4FF4A1
:1020C000706322480B9607A9CDE90735CDE909458C
:1020D00003F09CFC4FF40C631D480B9607A9CDE957
:1020E0000735CDE9094503F091FCC02319480B964B
:1020F00007A9CDE90735CDE9094503F087FC082399
:1021000015480B9607A9CDE90735CDE9094503F038
:102110007DFC4FF4A0530E480B9707A9CDE9073576
:10212000CDE9094503F072FC58202246052103F051
:1021300023FB582003F052FB19B0F0BD00680140AA
:102140000038024000140240000002400004024037
:102150000018024000080240000C02400268094BCF
:102160009A4282B00BD100230193074B5A6B42F085
:1021700040025A635B6B03F040030193019B02B082
:10218000704700BF000806500038024010B50446F2
:1021900088B01422002103A821F05DFA2268144BB4
:1021A0009A4223D103F56843002101915A6C1148EA
:1021B00042F480125A645A6C02F480120192019A1D
:1021C00002911A6B42F020021A631B6B03F020038A
:1021D0000293029B4FF4607202230321CDE9032393
:1021E0000523CDE9061303A903F010FC08B010BDC8
:1021F00000500140001402400268094B9A4282B02C
:102200000BD100230193074B1A6C42F002021A64AF
:102210001B6C03F002030193019B02B0704700BFE7
:10222000000400400038024010B5044686B0142275
:10223000002101A821F00FFA22680D4B9A4214D117
:10224000002300930B4B0C481A6B42F002021A63F6
:102250001B6B03F002030093009B1022022301A9D1
:10226000CDE90123059303F0D1FB06B010BD00BFFB
:102270000004004000380240000402402DE9F04113
:1022800086B0002303932B4B1C68002C4FD14FF0DA
:102290000108C3F80080284B00949A6B274842EA53
:1022A00008029A639B6B03EA080300930227032644
:1022B0000C25009B01A94FF63F03CDE90137CDE97D
:1022C000046503F0A3FB1E48059501A9CDE901872C
:1022D000CDE9034603F09AFB48F2331319480595FC
:1022E00001A9CDE90137CDE9034603F08FFB4FF695
:1022F00083731548059501A9CDE90137CDE903465A
:1023000003F084FB4CF203731048059501A9CDE955
:102310000137CDE9034603F079FB60230C480595AE
:1023200001A9CDE90137CDE9034603F06FFB06B003
:10233000BDE8F081F81F0020003802400014024080
:10234000000802400018024000100240000C024049
:102350000004024070B588B000230293204B1A6C31
:1023600042F010021A641B6C03F01003029305463E
:1023700001A903A8029B04F019FD069B4BBB04F0C6
:1023800005FD184E184B336040F2E733F360174BEE
:10239000B0FBF3F3013B7360304600233361B3605D
:1023A000B36105F00DFC044680B9304605F0DCFA57
:1023B000044658B9362003F011FA0F2D0DD82246E5
:1023C0002946362003F0D8F9094B1D60204608B095
:1023D00070BD04F0DBFC4000D3E70124F6E700BF4A
:1023E00000380240FC1F00200010004040420F0057
:1023F0007C0000207047FEE7FEE7FEE7FEE770473F
:10240000014805F0F0BA00BFFC1F0020014804F0AD
:1024100065B900BFB41E0020014803F029BA00BF0F
:10242000B01F00200120704708B521F0B7F916232E
:1024300003604FF0FF3008BD08B521F0AFF9162357
:102440000360FEE770B50D4614460E46731B9C42B2
:1024500001DC204670BDAFF3008006F8010BF5E704
:1024600070B50D4614460E46731B9C4201DC204697
:1024700070BD16F8010BAFF30080F5E74FF0FF30A9
:1024800070474FF400534B600020704701207047A5
:10249000002070470A4A116808B5034609B909497E
:1024A00011601068694603448B4206D921F076F921
:1024B0000C2303604FF0FF3008BD1360FCE700BF42
:1024C00044200020D03B0120704710B50421044671
:1024D0001FF07EFF204610BD08B5032913D8DFE8A2
:1024E00001F002060A0E02F0DFF8006808BD02F0F3
:1024F000DBF84068FAE702F0D7F88068F6E702F008
:10250000D3F8C068F2E70020F0E700000048704709
:10251000305502081620704713B5002451B10368E6
:1025200001948DF8034001AA9C680DF10303A047B4
:1025300002B010BD0846FBE7C0897047008A7047AB
:10254000C088704780887047807A00F07F007047AD
:10255000807AC00970470020704700009FED010A93
:10256000704700BF00000000704710B50821044606
:102570001FF02EFF204610BD7047704700F598737E
:102580000868496803C370477047704741607047E7
:1025900070477047064BC0F84C310023C0F85031EB
:1025A00000F5A273C0F84801C0F84031704700BF81
:1025B0002931000801230372704770477047704744
:1025C0007047704738B5054640680368DB6998472F
:1025D000044604B938BDA188AB89C91A23682046CE
:1025E0001B6B09B29847A469F3E738B50546406804
:1025F0000368DB699847044604B938BDE188AB89B4
:10260000C91A236820465B6B09B29847A469F3E7AF
:1026100038B5054640680368DB699847044604B945
:1026200038BDA188AB89C91A236820461B6B09B243
:102630009847A469F3E710B4C26841685410034690
:1026400001EB6200D20748BF0A599B685DF8044B52
:1026500048BFD35818470346406830B19A681AB942
:10266000D86800F0010070470120704710B50C21B8
:1026700004461FF0ADFE204610BD10B510210446E3
:102680001FF0A6FE204610BD10B5102104461FF015
:102690009FFE204610BD10B5102104461FF098FE85
:1026A000204610BD10B5102104461FF091FE2046B3
:1026B00010BD10B54FF4AE7104461FF089FE2046E0
:1026C00010BD10B5402104461FF082FE204610BD0B
:1026D00010B50DF0ADFB0368BDE81040DB6B18478B
:1026E00010B50DF0A5FB0368BDE810405B6B184703
:1026F00010B50DF09DFB0368BDE810405B6B1847FB
:1027000010B50DF095FB0368BDE810405B6B1847F2
:1027100037B50546807A6B7A0130C0B29842A8720C
:1027200005D901232B720023AB7203B030BDB5F97C
:102730000C20B5F90E4000210FF058FDC30707D556
:1027400000284FF6FF73C8BF012313FA80F000B2D0
:10275000AB7AE881041B012BA4B206D1174B1B787E
:102760001BB10DF065FB0DF069FB154A00231288C3
:10277000ADF80230EB891A445B42ADF80430114BDE
:10278000ADF800201B88ADF806300DF051FB036852
:1027900002AA12E906001B6C984768680368DB69A7
:1027A00098470546002DC0D0A9882B6821442846AB
:1027B0001B6B09B29847AD69F4E700BF8E2E01206C
:1027C000842E0120862E012037B50546807A6B7A4B
:1027D0000130C0B29842A87205D901232B720023A0
:1027E000AB7203B030BDB5F90C20B5F90E40002135
:1027F0000FF0FCFCC30707D500284FF6FF73C8BFD6
:10280000012313FA80F000B2AB7AE881041B012B9C
:10281000A4B206D1134B1B781BB10DF009FB0DF0D0
:102820000DFB00230093EB89ADF804300E4B1B88A1
:10283000ADF806300DF0FCFA036802AA12E90600B2
:102840001B6C984768680368DB6998470546002D4C
:10285000C7D0A9882B68214428461B6B09B298472A
:10286000AD69F4E78E2E0120862E012037B505468E
:10287000807A6B7A0130C0B29842A87205D90123E0
:102880002B720023AB7203B030BDB5F90C20B5F943
:102890000E4000210FF0AAFCC30707D500284FF611
:1028A000FF73C8BF012313FA80F000B2AB7AE8814E
:1028B000041B012BA4B206D1174B1B781BB10DF0E2
:1028C000B7FA0DF0BBFA154A00231288ADF80030B4
:1028D000EB891A44ADF80220114A5B421288ADF828
:1028E0000420ADF806300DF0A3FA036802AA12E93D
:1028F00006001B6C984768680368DB6998470546C3
:10290000002DC0D0E9882B68214428465B6B09B2B2
:102910009847AD69F4E700BF8E2E0120862E012076
:10292000842E0120054B1B7801462BB1406818B15D
:1029300003680C315B6E1847704700BF8F2E012073
:10294000037A70B50546BBB940680368DB699847F0
:1029500004463CB96868036805F10C011B6EBDE8CC
:1029600070401847A1886B8FC91A236820461B6BDB
:1029700009B29847A469ECE770BD10B50446D0F8D9
:10298000400158B10368DB68984738B1D4F840017A
:1029900003689B6898470023C4F8403110BD70B5A8
:1029A000044690F8390094F838300130C0B29842AB
:1029B00084F8390005D901232372002384F83930C3
:1029C00070BDB4F93A2000210FF010FCC30706D502
:1029D00000284FF6FF73C8BF0123184400B2238AB2
:1029E000C01AA08760680368DB69984705462DB95F
:1029F00060680368BDE870405B691847A988A38FC9
:102A000019442B6828461B6B09B29847AD69EEE75D
:102A10002DE9F14FD0E9556A0746B06803681B6A93
:102A20009847DB2805D8494B494AA321494820F05B
:102A30000BFC706803681B6A98470F2803D8464B45
:102A4000434AA421F2E7F06803681B6A98470F28FD
:102A500003D8424B3E4AA521E8E70DF0E9F9DFF83B
:102A6000089104300DF031FAD9F8000010B1036874
:102A7000DB689847D9F8000010B103681B689847D5
:102A8000DFF8E880D8F8000010B103685B69984768
:102A9000D7F83C0110B103685B689847D8F800008C
:102AA00010B103681B689847D7F83C0110B1036860
:102AB0009B689847F068036800215B6A9847284B39
:102AC00003604FF4A0530381264B1B884FF0000B8B
:102AD00080F80AB05B420446C0F804B0A0F80EB01B
:102AE0008381B068036859465B6A9847054601F0E0
:102AF000BDFE7068036859465B6A984729460646DA
:102B000001F094FE331DC7F83C61C9F80040C8F8D5
:102B10000050CAF800302B68C6F808A02846DB68C9
:102B2000EE639847336830461B689847214628462D
:102B30000FF056FB236820461B69984723685B69A2
:102B4000204601B0BDE8F04F184700BF0248020818
:102B50009048020871490208B84902085B4A020815
:102B6000FC570208842E0120D82E0120D42E0120EB
:102B70002DE9F14FD0E9556A0746B06803681B6A32
:102B80009847B0F5887F05D2484B494AA321494868
:102B900020F05AFB706803681B6A98470F2803D817
:102BA000454B434AA421F2E7F06803681B6A984743
:102BB0000F2803D8414B3E4AA521E8E70DF038F92C
:102BC000DFF8049104300DF080F9D9F8000010B15D
:102BD0000368DB689847D9F8000010B103681B68E8
:102BE0009847DFF8E880D8F8000010B103685B6907
:102BF0009847D7F83C0110B103685B689847D8F84C
:102C0000000010B103681B689847D7F83C0110B169
:102C100003689B689847F068036800215B6A9847DF
:102C2000274B03604FF4A0530381264B1B884FF0C2
:102C3000000B80F80AB05B420446C0F804B0A0F86C
:102C40000EB08381B068036859465B6A98470546B1
:102C500001F0D2FD7068036859465B6A98472946BF
:102C6000064601F0A7FD331DC7F83C61C9F80040D6
:102C7000C8F80050CAF800302B68C6F808A02846EB
:102C8000DB68EE639847336830461B6898472146F7
:102C900028460FF0A5FA236820461B699847236849
:102CA0005B69204601B0BDE8F04F184702480208B2
:102CB000FE4A020871490208B84902085B4A020844
:102CC000D8570208862E0120D82E0120D42E0120AC
:102CD0002DE9F0411D460368BDF918701B6B0446D1
:102CE000164698472368314620465B6B9847236811
:102CF000294620469B6B9847236839462046DB6B64
:102D0000BDE8F041184700002DE9F74FD0E9556ABA
:102D10000746B06803681B6A9847B0F5086F05D28C
:102D2000544B554AA321554820F08EFA7068036829
:102D30001B6A98470F2803D8514B4F4AA421F2E74A
:102D4000F06803681B6A98473F2803D84D4B4A4AEE
:102D5000A521E8E70DF06CF8DFF8389104300DF0AC
:102D6000B4F8D9F8000010B10368DB689847D9F8C7
:102D7000000010B103681B689847DFF81C81D8F881
:102D8000000010B103685B699847D7F83C0110B1A7
:102D900003685B689847D8F8000010B103681B68A7
:102DA0009847D7F83C0110B103689B689847F068D2
:102DB000036800215B6A984705460022324B426057
:102DC000027245F80C3B044628460AF075F91423B4
:102DD00023872E4B1B780022A287002B35D101239D
:102DE0002372B068036800215B6A9847054601F0CA
:102DF00073FF7068036800215B6A9847294606469E
:102E000001F052FD331DC7F83C61C9F80040C8F815
:102E10000050CAF800302B68C6F808A02846DB68C6
:102E2000EE639847336830461B689847214628462A
:102E30000FF0D6F9236820461B69984723685B6921
:102E4000204603B0BDE8F04F1847114BDFF84CB0F7
:102E5000B3F900300093BBF9003011462846FFF764
:102E600037FF28460AF0A3F8BBF800305B426387BF
:102E7000B7E700BF02480208E04B020871490208A8
:102E8000B84902085B4A0208905702088F2E0120B9
:102E9000862E0120D82E0120D42E0120842E012040
:102EA000044B1B6893F858200AB1D86C00B9986895
:102EB000704700BF902E0120F8B5174604460E4615
:102EC0000DF0A0F8124B1C60124B2360124B002532
:102ED000C4E95135114BC4E9535518680368012101
:102EE0009B68C4E94F55C4E955769847284601F0D8
:102EF0008FFBFFF7D5FF17F068F9FFF7D1FF17F049
:102F0000DFF9FFF7CDFF17F0E7F92046F8BD00BF66
:102F1000E42E01201857020800570208902E0120C5
:102F2000064BC0F84C310023C0F8503100F5A273B5
:102F3000C0F84801C0F84031704700BF293100088F
:102F4000064BC0F84C310023C0F8503100F5A27395
:102F5000C0F84801C0F84031704700BFCD2F0008CD
:102F6000064BC0F84C310023C0F8503100F5A27375
:102F7000C0F84801C0F84031704700BF712B00080D
:102F8000064BC0F84C310023C0F8503100F5A27355
:102F9000C0F84801C0F84031704700BF092D000853
:102FA000064BC0F84C310023C0F8503100F5A27335
:102FB000C0F84801C0F84031704700BF112A00082E
:102FC00003685B6A184703685B6A18472DE9F14F8D
:102FD000D0E9556A0746B06803681B6A9847B0F5A0
:102FE000AE7F05D2474B484AA321484820F02CF930
:102FF000706803681B6A98470F2803D8444B424AFD
:10300000A421F2E7F06803681B6A98470F2803D8E9
:10301000404B3D4AA521E8E70CF00AFFDFF800919C
:1030200004300CF052FFD9F8000010B10368DB68DF
:103030009847D9F8000010B103681B689847DFF87B
:10304000E480D8F8000010B103685B699847D7F8AE
:103050003C0110B103685B689847D8F8000010B1D4
:1030600003681B689847D7F83C0110B103689B6858
:103070009847F068036800215B6A9847264B036015
:103080004FF4A0530381254B4FF0000B1B8880F8B1
:103090000AB0044683815946C0F804B0A0F80EB0C7
:1030A000B068FFF78DFF054601F06AFB594670686E
:1030B000FFF789FF2946064601F040FB331DC7F89C
:1030C0003C61C9F80040C8F80050CAF800302B68CD
:1030D000C6F808A02846DB68EE6398473368304698
:1030E0001B689847214628460FF07AF82368204647
:1030F0001B69984723685B69204601B0BDE8F04F23
:10310000184700BF02480208C54C0208714902086E
:10311000B84902085B4A0208B4570208842E01200D
:10312000D82E0120D42E01202DE9F14FD0E9556A87
:103130000746B06803681B6A9847B0F5AE7F05D2B2
:10314000434B444AA321444820F07EF8706803684A
:103150001B6A98470F2803D8404B3E4AA421F2E748
:10316000F06803681B6A98470B2803D83C4B394A20
:10317000A521E8E70CF05CFEDFF8EC9004300CF0E1
:10318000A4FED9F8000010B10368DB689847D9F8AD
:10319000000010B103681B689847DFF8D080D8F8AA
:1031A000000010B103685B699847D7F83C0110B183
:1031B00003685B689847D8F8000010B103681B6883
:1031C0009847D7F83C0110B103689B689847F068AE
:1031D000036800215B6A98474FF0000B214B0360A6
:1031E00004465946C0F804B080F808B0B068FFF74C
:1031F000E7FE054601F0C4FA59467068FFF7E3FEA2
:103200002946064601F09AFA331DC7F83C61C9F811
:103210000040C8F80050CAF800302B68C6F808A073
:103220002846DB68EE639847336830461B6898474A
:10323000214628460EF0D4FF236820461B69984794
:1032400023685B69204601B0BDE8F04F184700BF16
:1032500002480208B04D020871490208B849020844
:103260005B4A02086C570208D82E0120D42E012098
:103270007047704770477047704770B503680446E1
:103280001B6B154698472368294620465B6BBDE8B3
:10329000704018470022C0E90122C0E90322C0E9BA
:1032A0000522C0E907224FF480728284014A02603D
:1032B000704700BF20580208406A7047806A704714
:1032C00070478A880B8810B5D20A4C88C1699BB2B6
:1032D00051F8220043EA0443184410BD10B50446D7
:1032E000BAB1107B68B1537BD27A1B0203F4E0635E
:1032F0001A43236A03EB82031A888A4202D193F9A4
:10330000020010BD05D8013880B204330028F3D183
:10331000F7E70020F5E710B52C2104461FF058F818
:10332000204610BD30B58BB00446BDF860500895FE
:10333000BDF85C5007959DF8505006959DF84C508F
:1033400005959DF8485004959DF8445003959DF8C7
:10335000405002959DF83C500195BDF838500095BD
:103360000EF098FB064B2360159BE361169B2362CE
:10337000199B63621A9BA36220460BB030BD00BF4D
:103380008858020830B5036885B06D460181D3F8CE
:103390008430014604462846984795E807003C34A7
:1033A00084E8070005B030BD30B5036885B06D46D0
:1033B0004181D3F88430014604462846984795E871
:1033C00007003C3484E8070005B030BD00220280CD
:1033D00042808280C280704780F83610704770B596
:1033E000036804461B6B1546984723682946204608
:1033F0005B6EBDE87040184700207047806C7047D6
:10340000704770477047704730B4C26844685510C1
:10341000034604EB6200D20748BF62599B6830BC88
:1034200048BFD35818470346406830B19A681AB964
:10343000D86800F0010070470120704710B54C219A
:1034400004461EF0C5FF204610BD10B510210446ED
:103450001EF0BEFF204610BD10B54FF4AE710446FD
:103460001EF0B6FF204610BD08B5FEF717F808BDE0
:10347000036870B55E6B124B1B6804468DB22BB9A6
:10348000104B114A6C2111481FF0DEFE1049828D4D
:103490000988914203D80F4B0B4A6D21F3E713F8CB
:1034A00012200D4B1B6853F8220003681B6B9847D2
:1034B000291A3346204609B2BDE87040184700BFBC
:1034C000E82E0120884E0208CA4E0208054F020865
:1034D000EC2E01204C4F0208F02E012038B500F1EF
:1034E0009803994204460D4603D10CF0A1FCFFF766
:1034F00057FDCC34A54205D10CF09AFCBDE838400C
:10350000FFF72EBD38BD00224FF0FF31C0E900218A
:103510008260704710B526220446002120F09BF8F7
:103520002046FFF7B7FE0023A36284F82C30012366
:1035300084F82430044B23604FF6FF7384F8323054
:10354000E3852386204610BD785F02082DE9F04F01
:1035500004468BB0A04600250EF096FC6E4BE5634A
:1035600048F8403B4FF026094A462946404620F09D
:1035700072F84046FFF78EFE04F16C07FF26674B9A
:1035800023644A464FF0FF33294684F86660A566F7
:103590003846ADF8203020F05EF83846FFF77AFE66
:1035A0005F4BE366BDF82030A4F8923008A904F11F
:1035B000980B84F8946038460AF03FF804F1CC0A7E
:1035C000584604F58076FFF7A5FF5046FFF7A2FFA7
:1035D0004A462946304620F03EF83046FFF75AFE6C
:1035E000504BC4F828314FF47F03C4F834314E4BAC
:1035F000C4F800314FF0FF33C4E950354B4BC4F8E9
:103600003051C4E953344A4BA4F83851C4E9553514
:103610004FF0FF324FF4A073A4F82C21C4F83C51B2
:10362000C4F848512A46009329464046F023FFF744
:103630004FFB04F104094FF07F43A366414648461F
:1036400006F01EFE2A4629463846FFF716FE4FF0C2
:10365000050808A93846ADF8208009F0EEFF394684
:10366000484606F00DFE584640F219121821FFF7A1
:1036700004FE04F5A677122308AA07A95846ADF858
:103680001C30ADF8203009F09FFE59464846C4F87A
:10369000C07006F0F5FD504640F21D12CD21FFF737
:1036A000ECFD072308AA07A95046ADF81C30ADF879
:1036B000203009F089FE51464846C4F8F47006F0FF
:1036C000DFFD0F2300931D2230462D236321FFF7DA
:1036D000FFFA184BC4F83031D4F80031A4F8345153
:1036E00002AD31462846D3F88430984795E8070064
:1036F00004F59E7383E807000A4B089308A9304637
:10370000ADF8248009F002FE4846314606F0B8FDC7
:1037100020460BB0BDE8F08F98590208105F0208F0
:10372000EC5F0208F0560208F058020880590208BF
:10373000DD340008E4FDFFFF70477047704730B488
:10374000C26844685510034604EB6200D20748BFC4
:1037500062599B6830BC48BFD3581847034640683D
:1037600030B19A681AB9D86800F00100704701209A
:10377000704710B5102104461EF02AFE204610BDE9
:1037800010B54FF4887104461EF022FE204610BD8D
:1037900038B500F19803994204460D4603D10CF068
:1037A00047FBFFF7FDFBCC34A54205D10CF040FBF5
:1037B000BDE83840FFF7C4BB38BD00002DE9F34732
:1037C0000446264600250EF05FFB4B4BE56346F8AA
:1037D000403B4FF026094A46294630461FF03BFF42
:1037E0003046FFF757FD04F16C074FF0FF08434BDD
:1037F00023644A464FF6FF73294684F86680A5661F
:103800003846ADF804301FF026FF3846FFF742FD7A
:103810003B4BE366BDF80430A4F8923001A904F1F3
:10382000980A84F89480384609F007FF04F1CC091F
:103830005046FFF76FFE4846FFF76CFE314BC4E978
:103840004034314B2A46C4E9423529463046FFF719
:1038500014FD3046F021FDF76BFD30464FF4A071AA
:10386000FDF768FD04F104084FF07F43A36631467D
:10387000404606F005FD2A4629463846FFF7FDFC7E
:10388000082301A93846ADF8043009F0D6FE3946C0
:10389000404606F0F5FC504637223321FFF7EDFC99
:1038A00004F58076132301AA69465046ADF800302E
:1038B000ADF8043009F088FD51464046C4F8C060B8
:1038C00006F0DEFC48464FF48C720C21FFF7D5FC65
:1038D00001AA69464846ADF80050ADF8045009F019
:1038E00073FD4046C4F8F460494606F0C9FC204622
:1038F00002B0BDE8F08700BFE4590208105F02087B
:10390000EC5F0208CC5902089137000870477047F5
:10391000704730B4C26844685510034604EB620037
:10392000D20748BF62599B6830BC48BFD35818477C
:103930000346406830B19A681AB9D86800F00100AF
:1039400070470120704710B5102104461EF040FD5D
:10395000204610BD10B5DC2104461EF039FD20467E
:1039600010BD9830884208B505D10CF061FABDE869
:103970000840FFF705BB08BD2DE9F347044626467E
:1039800000250EF081FA484BE56346F8403B4FF0C6
:10399000260A5246294630461FF05DFE3046FFF7A4
:1039A00079FC04F16C07414B23644FF0FF084FF69C
:1039B000FF795246294684F86680A5663846ADF8F8
:1039C00004901FF048FE3846FFF764FC384BE3666E
:1039D000BDF80430A4F8923084F8948001A904F171
:1039E0009808384609F029FE5246294640461FF0FD
:1039F00032FE4046FFF74EFC012384F8BC302D4BCD
:103A0000C4F898302C4BA4F8C690C4E933342B4B3F
:103A1000A4F8C8902A46C4E9353584F8CA902946E6
:103A20003046C4F8C05084F8C450FFF726FC304636
:103A3000F021FDF77DFC30464FF4A071FDF77AFCD4
:103A400004F104094FF07F43A3663146484606F06F
:103A500017FC2A4629463846FFF70FFC092301A91F
:103A60003846ADF8043009F0E8FD3946484606F01E
:103A700007FC4046D7225F21FFF7FFFB0C2301AA7A
:103A800069464046ADF80030ADF8043009F09CFCC2
:103A900004F1CC034846C4F8C030414606F0F0FBC0
:103AA000204602B0BDE8F087305A0208105F0208D5
:103AB000EC5F0208785F0208185A020863390008B0
:103AC0007047704710B54FF4E66104461EF080FC65
:103AD000204610BD38B5262204460D4600211FF0B1
:103AE000BAFD2046FFF7D6FB064B23602B88E38404
:103AF000FF23204684F82830294609F09EFD204601
:103B000038BD00BFEC5F020810B526220446002134
:103B10001FF0A1FD2046FFF7BDFB0A4BA3624FF645
:103B2000FF73A3854FF47F020023C4E90C32064AD9
:103B3000226023874FF0FF32C4E91023E363A364BC
:103B4000204610BDF0560208F05802082DE9F04F4B
:103B50000446A9B0274600260EF096F9D54BE66339
:103B600047F8403B2622314638461FF074FD384660
:103B7000FFF790FBD04B236404F16C0BFF234FF64F
:103B8000FF7584F8663026A9A6665846ADF89850A9
:103B9000FFF7A0FF04F1980304F1C409184626A911
:103BA00004F1F0080593ADF89850FFF793FF26A9AC
:103BB0004846ADF89850FFF78DFF26A94046ADF86E
:103BC0009850FFF787FF04F58E7326A918460693D1
:103BD000ADF89850FFF77EFF04F5A47326A91846A8
:103BE0000793ADF89850FFF775FF04F5BA7304F525
:103BF000D07A26A918460893ADF89850FFF76AFFC7
:103C00005046FFF781FF04F5F67318460393FFF75C
:103C10007BFF04F50E7318460493FFF775FF04F558
:103C2000217326A918460993ADF89850FFF752FF63
:103C300004F52C7326A918460A93ADF89850FFF79F
:103C400049FF04F5377326A918460B93ADF8985031
:103C5000FFF740FF04F5427326A918460C93ADF810
:103C60009850FFF737FF04F54D7326A918460D93BA
:103C7000ADF89850FFF72EFF04F5587326A91846A3
:103C80000E93ADF89850FFF725FF04F5637326A94E
:103C900018460F93ADF89850FFF71CFF04F56E73AC
:103CA00026A918461093ADF89850FFF713FF04F5B6
:103CB000797326A918461193ADF89850FFF70AFFBB
:103CC00004F5826326A918461293ADF89850FFF7C1
:103CD00001FF04F23C4326A918461393ADF898500F
:103CE000FFF7F8FE04F58D6326A918461493ADF886
:103CF0009850FFF7EFFE04F2944326A91846159357
:103D0000ADF89850FFF7E6FE04F5986326A918462B
:103D10001693ADF89850FFF7DDFE04F2EC4326A9A8
:103D200018461793ADF89850FFF7D4FE04F5A36337
:103D300026A918461893ADF89850FFF7CBFE04F269
:103D4000445326A918461993ADF89850FFF7C2FEC0
:103D500004F5AE6326A918461A93ADF89850FFF7FC
:103D6000B9FE04F29C5326A918461B93ADF898504F
:103D7000FFF7B0FE04F5B96326A918461C93ADF809
:103D80009850FFF7A7FE04F2F45326A918461D9396
:103D9000ADF89850FFF79EFE04F5C46326A91846B7
:103DA0001E93ADF89850FFF795FE04F24C63184649
:103DB0001F93FFF7A9FE04F5D36318462093FFF77E
:103DC000A3FE04F2E46318462193FFF79DFE4FF42F
:103DD000A0733246009331463846F023251DFEF786
:103DE00077FF4FF07F43A3663946284606F048FA2E
:103DF000324631465846FFF740FA4FF00F0326A9E6
:103E00005846ADF8983009F018FC5946284606F097
:103E100037FA4FF4967205982D21FFF72EFA0627F0
:103E20000598ADF8987026A909F007FC0599284671
:103E300006F026FA4FF4967248464321FFF71DFA22
:103E400026A94846ADF8987009F0F7FB4946284680
:103E500006F016FA4FF4967240465921FFF70DFA14
:103E600026A94046ADF8987009F0E7FB4146284680
:103E700006F006FAEB220698DFF84090DFF8408063
:103E80006421FFF7FAF94FF0140B0698ADF898B0DB
:103E900026A909F0D2FB0699284606F0F1F9EB2293
:103EA0000798BE21FFF7E9F90798ADF898B026A961
:103EB00008E000BF645A0208105F02085480FFFF48
:103EC000F056020809F0B9FB0799284606F0D8F920
:103ED000EB2208980A21FFF7D0F90898ADF898B0BE
:103EE00026A909F0AAFB0899284606F0C9F90F236C
:103EF0000093F02250462D230A21FEF7E9FED4F864
:103F0000A031C4F8D09122AF51463846D3F884305E
:103F1000A4F8D461984797E8070004F5EE7383E8A6
:103F2000070026A95046CDF89880ADF89C6009F0AE
:103F3000EDF95146284606F0A3F90F2303980093A4
:103F4000F0222D236221FEF7C3FED4F8EC31039951
:103F5000C4F81C923846D3F88430A4F820629847FD
:103F600097E8070004F50A734FF0010A83E8070099
:103F70000398CDF8988026A9ADF89CA009F0C6F961
:103F80000399284606F07CF90F2304980093F02249
:103F90002D23BB21FEF79CFED4F838320499C4F8D7
:103FA00068923846D3F88430A4F86C62984797E852
:103FB000070004F51D7383E8070002230498ADF899
:103FC0009C3026A9CDF8988009F0A0F904992846DC
:103FD00006F056F9E62209983146FFF74EF94FF000
:103FE0000A090998ADF8989026A909F026FB0999C5
:103FF000284606F045F9B6220A980F21FFF73DF949
:1040000011230A98ADF8983026A909F016FB0A99F1
:10401000284606F035F9B6220B983421FFF72DF922
:104020000E230B98ADF8983026A909F006FB0B99E2
:10403000284606F025F963220C98D2211027FFF7B5
:104040001CF90C98ADF8987026A909F0F6FA0C99AD
:10405000284606F015F963220D988221FFF70DF925
:104060000D98ADF8987026A909F0E7FA0D99284641
:1040700006F006F963220E983221FFF7FEF80E983B
:10408000ADF8987026A909F0D8FA0E99284606F0DE
:10409000F7F843220F98AA21FFF7EFF80F98ADF831
:1040A000987026A909F0C9FA0F99284606F0E8F891
:1040B000432210985A21FFF7E0F81098ADF8987055
:1040C00026A909F0BAFA1099284606F0D9F8432231
:1040D00011984946FFF7D1F81198ADF8987026A9C4
:1040E00009F0ABFA1199284606F0CAF82322129873
:1040F000D221FFF7C2F81298ADF8987026A909F0FE
:104100009CFA1299284606F0BBF8232213988221C4
:10411000FFF7B3F81398ADF8987026A909F08DFA57
:104120001399284606F0ACF8232214983221FFF7A1
:10413000A4F81498ADF8987026A909F07EFA14999D
:10414000284606F09DF8232215984946FFF795F872
:104150001598ADF898A026A909F06FFA1599284688
:1041600006F08EF8232216985A21FFF786F8169843
:10417000ADF898A026A909F060FA1699284606F02D
:104180007FF823221798AA21FFF777F81798ADF840
:1041900098A026A909F051FA1799284606F070F858
:1041A000432218983221FFF768F81898ADF898A0C4
:1041B00026A909F042FA1899284606F061F8432228
:1041C00019988221FFF759F81998ADF898A026A9F7
:1041D00009F033FA1999284606F052F843221A9842
:1041E000D221FFF74AF81A98ADF898A026A909F04D
:1041F00024FA1A99284606F043F863221B98494688
:10420000FFF73BF81B98ADF898A026A909F015FA1E
:104210001B99284606F034F863221C985A21FFF7B0
:104220002CF81C98ADF898A026A909F006FA1C995C
:10423000284606F025F863221D98AA21FFF71DF8ED
:104240001D98ADF898A026A909F0F7F91D99284600
:1042500006F016F840F205121E986921FFF70DF8D6
:1042600015231E98ADF8983026A909F0E6F91E9995
:10427000284606F005F80F235A464FF0FF371F98DF
:104280000093A9F226292D230721FEF721FD0523FE
:104290001F98C4F87C9626A9A4F88066C4F888669E
:1042A000C4F88C76C4F89066ADF89C30CDF8988050
:1042B00009F02CF81F99284605F0E2FF0F235A4613
:1042C00020980093BE212D23FEF702FD2098C4F80C
:1042D000C89626A94FF00409A4F8CC66C4F8D466A1
:1042E000C4F8D876C4F8DC66CDF89880ADF89C9018
:1042F00009F00CF82099284605F0C2FF4A4621989B
:104300008621FEF7BAFF0E4B2198C4F8143726A970
:104310000323A4F81867C4F82067C4F82477C4F806
:104320002867ADF89C30CDF8988008F0EFFF28465C
:10433000219905F0A5FF204629B0BDE8F08F00BF08
:10434000E6FDFFFF7047000030B5164D2C6814F0F5
:1043500001048FB0BFF35B8F20D128461EF03AF8DE
:10436000E0B13F230993104B0893104B07930423AC
:104370000122CDE902431223CDE905420C49049202
:104380000093CDE90B440B480A940194FEF7CAFF51
:1043900009481EF077FF28461EF028F805480FB0A0
:1043A00030BD00BF48200020A06A0208B06A0208A1
:1043B000606A02084C200020454300087047000056
:1043C00030B5164D2C6814F001048FB0BFF35B8F2D
:1043D00020D128461DF0FEFFE0B13F230993104B8A
:1043E0000893104B104911480A940122CDE9064365
:1043F0000423CDE903320A230093CDE90B44CDE930
:1044000001440594FEF78EFF09481EF03BFF284645
:104410001DF0ECFF05480FB030BD00BF7820002034
:10442000A46A0208B46A0208706A02087C200020AC
:10443000BD4300087047000030B5164D2C6814F0DD
:1044400001048FB0BFF35B8F20D128461DF0C2FF5F
:10445000E0B13F230993104B0893104B10491148CA
:104460000A940122CDE906430423CDE90332142343
:104470000093CDE90B44CDE901440594FEF752FFCA
:1044800009481EF0FFFE28461DF0B0FF05480FB09A
:1044900030BD00BFA8200020A86A0208B86A020840
:1044A000806A0208AC2000203544000870470000F4
:1044B00030B5164D2C6814F001048FB0BFF35B8F3C
:1044C00020D128461DF086FFE0B13F230993104B11
:1044D0000893104B104911480A940122CDE9064374
:1044E0000423CDE9033228230093CDE90B44CDE921
:1044F00001440594FEF716FF09481EF0C3FE284646
:104500001DF074FF05480FB030BD00BFD82000205B
:10451000AC6A0208BC6A0208906A0208DC2000202B
:10452000AD44000800207047002070470EB403B56A
:1045300003AB002153F8042B01930CF029FD02B0CA
:104540005DF804EB03B070470CB407B504AB53F847
:10455000042B01930CF01CFD03B05DF804EB02B0DA
:1045600070470000436C10B5044673B3038F2BB93A
:10457000184B194AC52119481EF066FEC38E00EB80
:1045800043035B8C0BB30EF09EFB238F012B03D8F0
:10459000134B144ACB21EEE7E28E531C9BB2092B3E
:1045A000194688BFA3F10A0104EB410140F63F1010
:1045B000498C814209D10A2B04EB420228BF002317
:1045C00004EB4303508C588451842046BDE81040CE
:1045D0000EF07CBA8A4F0208934F02083E50020840
:1045E00088500208965002080EF037BA10B586B00F
:1045F00002AC84E806001A460AAB05930193099BB6
:1046000000932146089B0AF0B1FF06B010BD0000E0
:1046100038B518BB124B13481C681349B4B1226853
:1046200022440260626822440A60A26814440F4B6C
:1046300000221A8000F038F8054600F033F80C4BE1
:104640001C600C4B1D600C4B188007E00B4B03608B
:104650000B4B0B600B4B1C68002CE8D138BD00BF26
:10466000142100200C21002008210020102100200E
:10467000E82E0120F02E0120EC2E0120D86A02083D
:10468000C06A0208DC6A0208044B1B6853F8210068
:10469000034B1B6803EB4000704700BF082100205C
:1046A0000C21002006207047004870471821002088
:1046B00010B5FFF7C1FE064C2060FFF7F9FE606001
:1046C000FFF77EFEA060FFF73FFEE06010BD00BF79
:1046D0001821002010B5002404600C6014601C60D8
:1046E00010BD704710B54FF4AE7104461DF070FE5A
:1046F000204610BD10B50446D0F8580100F0C5F8AA
:104700002046BDE810400BF03DBC000010B504464B
:10471000FEF7D2FB014B2360204610BD985A0208D9
:10472000704704387047704710B5102104461DF0DB
:104730004FFE204610BDA0F10400F5E70022826084
:10474000024A026018324260C1607047EC5A0208A7
:104750007047000010B5034B03600446FEF752FE9D
:10476000204610BD145B020810B50446FFF7F2FFA7
:1047700020464FF4AE711DF02BFE204610BD000008
:1047800010B50446FEF7E2FE014B2360204610BD43
:10479000145B0208FEF737BE704704387047704755
:1047A00010B5102104461DF013FE204610BDA0F1E7
:1047B0000400F5E700228260024A0260183242607B
:1047C000C1607047485B02087047000010B5034B9A
:1047D00003600446FEF7B1FF204610BD705B02087F
:1047E00010B50446FFF7F2FF20464FF488711DF024
:1047F000EFFD204610BD000010B50446FEF7DEFFB9
:10480000014B2360204610BD705B0208FEF796BF87
:10481000704704387047704710B5102104461DF0EA
:10482000D7FD204610BDA0F10400F5E7002282600C
:10483000024A026018324260C1607047A45B0208FD
:104840007047000010B5034B03600446FFF75FF8A4
:10485000204610BDCC5B020810B50446FFF7F2FFFE
:104860002046DC211DF0B4FD204610BD10B50446E5
:10487000FFF782F8014B2360204610BDCC5B020895
:10488000FFF746B80022026070477047704704384F
:104890007047704710B5102104461DF099FD204661
:1048A00010BDA0F10400F5E700228260024A026018
:1048B00018324260C1607047005C02087047000017
:1048C00010B5034B03600446FFF7FAF8204610BD0D
:1048D000285C020810B50446FFF7F2FF20464FF4AB
:1048E00008611DF075FD204610BD90F82C3883B18D
:1048F000D0F83438D0F838281344B3F5A07FC0F886
:104900003438A0F8B632C2BF002380F8D53280F820
:104910002C38704790F840387BB1D0F84838D0F840
:104920004C281344002BC0F84838A0F8E232BEBF30
:10493000002380F8013380F84038704710B588684C
:104940000C6813682044984210DB906803449C4232
:104950000CDC4868C96853680144994206DBD26898
:1049600013449842CCBF0020012010BD0020FCE77A
:1049700011290CD8421892F8083843B101F5E671B4
:10498000002382F8083850F8212082F8253070473B
:10499000D0F86438002BD4BF00220122012B80F80C
:1049A000BD20D4BF00220122022BD4BF002301234B
:1049B00080F8E92080F815317047022910B41FD81B
:1049C000421892F86838DBB100EB8104D4F858380B
:1049D000013B002BC4F8583808DC0023012982F879
:1049E000683807D0022908D080F899315DF8044B67
:1049F000FFF7CEBF80F86D31F8E780F84131F5E779
:104A00005DF8044B7047F0B590F840388DB004461F
:104A10008BB3D0F844380493D0F848380593B0F9F4
:104A2000E4320693B0F9E632079300F6070700F583
:104A3000E665002617F8013FFBB12B6893F82520A7
:104A4000DAB1AA6C0892D5F890200992B3F908203F
:104A50000A92B3F90A300B9308AA04A92046FFF77B
:104A60006DFF50B131462046FFF782FF002380F8EA
:104A7000013380F840380DB0F0BD0136122E05F13B
:104A80000405D7D104F5BA73019304F5A473029316
:104A900004F58E73039304F66706002501AF16F83C
:104AA000013FDBB157F8253093F82520B2B1B3F9B7
:104AB00004200892B3F906200992B3F908200A925B
:104AC000B3F90A300B9308AA04A92046FFF736FF72
:104AD00020B129462046FFF770FFC7E70135032DB7
:104AE000DDD1C8E790F86B38A3B1D0F86438013B4A
:104AF000002BC0F864380BDC90F84028002380F8C5
:104B00006B3880F845361AB180F8013380F84038A8
:104B1000FFF73EBF7047F0B590F82C388DB00446D3
:104B2000002B3BD0D0F830380493D0F834380593BC
:104B3000B0F9B8320693B0F9BA32079300F5BA73F8
:104B4000019300F5A473029300F58E73039300F6AE
:104B50006706002501AF16F8013F0BB357F8253063
:104B600093F82520E2B1B3F904200892B3F90620A6
:104B70000992B3F908200A92B3F90A300B9308AAF4
:104B800004A92046FFF7DAFE50B129462046FFF778
:104B900014FF002380F8D53280F82C380DB0F0BD1A
:104BA0000135032DD7D194F86B38002BF6D094F84B
:104BB0004536002BF2D0B4F924360893B4F92636E2
:104BC0000993B4F928360A9308AAB4F92A360B9344
:104BD00004A92046FFF7B2FE0028DFD02046FFF7E9
:104BE00081FFD6E7B0F92836F0B5B0F9245603EBCB
:104BF000D37305EB630500F6070700F5E6630021B4
:104C00006FF000464FF0FF3017F8012F7AB11A68A5
:104C1000B2F9082002EBD2749A6C02EB6402521BC8
:104C2000002AB8BF5242B242BCBF16460846013104
:104C3000122903F10403E7D1F0BDD0F85038002B5E
:104C4000C8BF03F1FF3310B5C8BFC0F8503890F8A3
:104C50006B3804462BB390F8403813BBD0F850386B
:104C6000002B1EDCFFF7BEFF01301AD0B4F9283646
:104C7000B4F92416B4F92626C4F8482803EBD373F4
:104C800001EB6301C4F8441804F5377009B2FEF76C
:104C9000F4FA012384F8013384F840380323C4F87C
:104CA000503810BD82B00A4BC0F86C380023019315
:104CB000084B5A6B42F040025A635B6B03F04003AF
:104CC0000193019B00F66C0002B002F0B9B900BF7D
:104CD000000806500038024010B50446FEF736FFC3
:104CE0001F4B23600223C4F81C3800230A2184F8D8
:104CF0002438C4F8283884F82C38C4F83038C4F87C
:104D00003438C4F83C3884F84038A4F87C38C4F807
:104D10004438C4F84838C4F85038C4F85438062326
:104D20000122C4F82018C4F83818C4F858386FF0B5
:104D30000901C4F85C38C4F86038C4F864384FF02E
:104D40000133204684F81A2884F87E28C4F84C18C9
:104D5000C4F8683884F86C28FFF7A4FF204610BD1B
:104D6000285C020807B5002301A900F66C00019336
:104D700002F07EF9019803B05DF804FB10B5002342
:104D800092B000F607021C4612F8011F29B112A9C1
:104D900001EB8401013441F8483C0133122BF3D17B
:104DA00064B1FFF7DFFFB0FBF4F303FB140012ABB9
:104DB00003EB800050F8480C12B010BD4FF0FF30EC
:104DC000FAE7D0F83C38002BC8BF03F1FF3310B529
:104DD000C8BFC0F83C3890F82C38044653BBD0F814
:104DE0003C38002B26DCFFF7C9FF431C22D004EB24
:104DF0008000D0F83027D0F87817B2F90830B2F92F
:104E00000A2003EBD37301EB6301C4F83018D0F828
:104E1000C0371A44C4F8342809B212B204F52C7011
:104E2000FEF72BFA012384F8D53284F82C380523B9
:104E3000C4F83C3810BD2DE9F74F0446FEF741FE9B
:104E400004F58D63C4F8303704F29443C4F8343762
:104E500004F23C43C4F8383704F59863C4F83C378F
:104E600004F58263C4F8403704F2EC43C4F84437D5
:104E700004F57973C4F8483704F5A363C4F84C37D4
:104E800004F56E73C4F8503704F24453C4F8543731
:104E900004F56373C4F8583704F5AE63C4F85C379F
:104EA00004F55873C4F8603704F29C53C4F86437AF
:104EB00004F54D73C4F8683704F5B963C4F86C376A
:104EC00004F54273C4F8703704F2F453C4F874372D
:104ED00004F22C7A4FF014094FF0000804F607038F
:104EE00001250FFA89F203EB080B57461426FE64DE
:104EF000C7F8949057F8040F019331B2009223360B
:104F0000FEF7BBF93968E62E81F82550DDE900236C
:104F10000BF8015FEBD108F10608B8F1120F0AF1A6
:104F2000180A09F12809DCD1002384F8D53284F865
:104F30002C3884F8013384F84038B4F92436C4F8A6
:104F400054380323C4F85838C4F85C38C4F86038BF
:104F5000C4F864384FF001332046C4F8683884F848
:104F6000995184F86D5184F8415184F84556FFF702
:104F70000FFD201D03B0BDE8F04F0CF033B9000069
:104F800013B504461448002300681A460DF10701C2
:104F900003F007FA50B994F86B383BB19DF807302D
:104FA000B4F92426012B03D0022B0FD002B010BD80
:104FB000A2F10A0323EAE3739342F7D0A4F824365C
:104FC000C4F85438201D0CF00DF9EFE702F10A0384
:104FD000D22BA8BFD223EFE7C41D00202DE9F84F44
:104FE000B0F87C3801339BB20322B3FBF2F202EB40
:104FF0004202A0F87C389B1A9BB204460BB1FFF723
:10500000BFFFB4F87C380F22B3FBF2F2C2EB0212FE
:105010009B1A9BB2002B40F08D8094F8248804F6F4
:105020000706B8F1000F33D0D4F828380133C4F89C
:10503000283804F5E66104F61905324612F8010F26
:1050400030B10F6897F8250080F0010087F825003F
:10505000AA4201F10401F1D1042B14DD04F22C72F7
:10506000002306F8013F52F8041FAE4281F82530B4
:10507000F7D184F8243884F8D53284F82C3884F8B1
:10508000013384F84038201DBDE8F84F0CF0AAB871
:10509000374604F5EF6504F5F86BB2461AF8019F40
:1050A000B9F1000F18D094F81A282968D4F81C38E0
:1050B00002B95B4255F8480C1944036829601B6B20
:1050C00009B298472A68002A07DD55F8483CB3F929
:1050D00008301344EF2B00DCC14604355D452BD16D
:1050E00004F61908B9F1000F28D12046FFF769FE30
:1050F0002046FFF7A2FD2046FFF7F7FBFFF70AFC6B
:10510000FFF709FD2046FFF77EFC04F5E66317F87C
:10511000012F62B31A68D3F89010B2F90A200A443A
:10512000B4F98A128A4222DB012384F8243800234E
:10513000C4F82838BDE8F88FC846AFE794F81A38A5
:1051400083F0010384F81A3816F8013F53B1D4F8FC
:105150002038296855F8900C1944036829605B6B66
:1051600009B29847464505F10405EDD1BDE747452D
:1051700003F10403CBD186E7F02070474FF4A07011
:1051800070472920FCF7FCBD2820FCF7F9BD08B5C5
:10519000FCF7CAFDCA20FCF7F3FDC320FCF7D4FDE1
:1051A0000820FCF7D1FD5020FCF7CEFDCF20FCF706
:1051B000E7FD0020FCF7C8FDC120FCF7C5FD30204D
:1051C000FCF7C2FDED20FCF7DBFD6420FCF7BCFD25
:1051D0000320FCF7B9FD1220FCF7B6FD8120FCF797
:1051E000B3FDE820FCF7CCFD8520FCF7ADFD0020E9
:1051F000FCF7AAFD7820FCF7A7FDCB20FCF7C0FD4B
:105200003920FCF7A1FD2C20FCF79EFD0020FCF7C7
:105210009BFD3420FCF798FD0220FCF795FDF7205C
:10522000FCF7AEFD2020FCF78FFDEA20FCF7A8FD7F
:105230000020FCF789FD0020FCF786FDB120FCF77B
:105240009FFD0020FCF780FD1B20FCF77DFDB620B4
:10525000FCF796FD0A20FCF777FDA220FCF774FD11
:10526000C020FCF78DFD1020FCF76EFDC120FCF77F
:1052700087FD1020FCF768FDC520FCF781FD452067
:10528000FCF762FD1520FCF75FFDC720FCF778FDF9
:105290009020FCF759FD3620FCF772FDC820FCF782
:1052A00053FDF220FCF76CFD0020FCF74DFDB02013
:1052B000FCF766FDC220FCF747FDB620FCF760FD59
:1052C0000A20FCF741FDA720FCF73EFD2720FCF754
:1052D0003BFD0420FCF738FD2A20FCF751FD00209F
:1052E000FCF732FD0020FCF72FFD0020FCF72CFD21
:1052F000EF20FCF729FD2B20FCF742FD0020FCF7F6
:1053000023FD0020FCF720FD0120FCF71DFD3F20C0
:10531000FCF71AFDF620FCF733FD0120FCF714FD25
:105320000020FCF711FD0620FCF70EFD2C20FCF7F9
:1053300027FDC820FCF772FD2620FCF721FD012087
:10534000FCF702FDE020FCF71BFD0F20FCF7FCFC46
:105350002920FCF7F9FC2420FCF7F6FC0C20FCF7D4
:10536000F3FC0E20FCF7F0FC0920FCF7EDFC4E20CE
:10537000FCF7EAFC7820FCF7E7FC3C20FCF7E4FCB7
:105380000920FCF7E1FC1320FCF7DEFC0520FCF70C
:10539000DBFC1720FCF7D8FC1120FCF7D5FC002023
:1053A000FCF7D2FCE120FCF7EBFC0020FCF7CCFC86
:1053B0001620FCF7C9FC1B20FCF7C6FC0420FCF7F8
:1053C000C3FC1120FCF7C0FC0720FCF7BDFC31201A
:1053D000FCF7BAFC3320FCF7B7FC4220FCF7B4FC26
:1053E0000520FCF7B1FC0C20FCF7AEFC0A20FCF712
:1053F000ABFC2820FCF7A8FC2F20FCF7A5FC0F2015
:10540000FCF7A2FC1120FCF7BBFCC820FCF706FD52
:105410002920FCF7B5FCBDE808402C20FCF7B0BC07
:1054200008B5FCF781FC0321D320FCF7C5FC80B252
:1054300008BD10B5C4B2022203212046FCF72AFCA5
:105440000A20FCF76FFC204600220321FCF722FC17
:10545000BDE810400220FCF765BC38B50446E4B254
:10546000FCF716FC00212046FCF72CFC0121054628
:105470002046FCF727FC40EA052080B238BD10B575
:10548000C4B240212046FCF71DFC030607D54C2181
:105490002046FCF717FC003818BF012010BD012280
:1054A0004B212046FCF7F6FB204600224B21FCF75F
:1054B000F1FB0020F2E773B50423C4B20E46154693
:1054C000D7210DEB03022046FCF716FC019B1BBA0B
:1054D0001A0DC3F30B23328020462B8001224B216F
:1054E000FCF7D8FB00224B212046FCF7D3FB02B08F
:1054F00070BD000010B50A4A1378984204460DD0DA
:10550000517888420AD00BB141B90123D454FCF739
:10551000BFFB2046BDE81040FFF78BBF10BD00BFAA
:105520002821002010B5C4B209212046FCF7CAFB8F
:1055300040F00102D2B220460921BDE81040FCF73C
:10554000A9BB10B5C4B209212046FCF7BBFB092159
:1055500000F0FE022046BDE81040FCF79BBB38B5CA
:10556000C4B20D4620460A21FCF7ACFB40EA050216
:10557000D2B220460A21BDE83840FCF78BBB10B5FB
:105580000446FCF786FB20461F21FFF7E8FF204674
:10559000BDE81040FFF7C6BF38B5C4B20D4620467F
:1055A0000A21FCF78FFB20EA0502D2B220460A212D
:1055B000BDE83840FCF76EBB10B50446FFF7C1FFED
:1055C00020461F21BDE81040FFF7E6BF10B5C0B26E
:1055D0000C460B21FCF776FB204010BD1F21FFF786
:1055E000F5BF0A46C0B20B21FCF754BB1F21FFF7E1
:1055F000F8BF38B5C4B20D4620461721FCF762FB50
:1056000020EA0502D2B220461721BDE83840FCF757
:1056100041BB70B5C4B2064604212046FCF752FBDC
:10562000042100F0FB0205462046FCF733FB304620
:10563000F021FFF7DEFF05F0F80220460421FCF719
:1056400029FB492220212046FCF724FB0220FCF7FD
:1056500069FB204601222121FCF71CFB20469A22EF
:105660004121FCF717FB204601224A21FCF712FBDF
:10567000204601224B21FCF70DFB204600224B2146
:10568000FCF708FB204601225621FCF703FB2046CD
:1056900001225821FCF7FEFA204601224021FCF7A6
:1056A000F9FA2046FF220B21FCF7F4FABDE870401E
:1056B0000220FCF737BB0000054BD3F8882042F4EA
:1056C0007002C3F888204FF000629A60704700BFF4
:1056D00000ED00E008B50B4B1A6842F400721A6046
:1056E0001A6842F480621A601A6842F480721A6082
:1056F000032000F02FF80020FCF72CFEFCF79CFBA9
:10570000002008BD003C0240034A044B11681B788E
:105710000B441360704700BF2C210020780000204C
:10572000014B1868704700BF2C21002038B5044693
:10573000FFF7F6FF631C1CBF054B1B78054618BF1F
:10574000E418FFF7EDFF431BA342FAD338BD00BFB7
:10575000780000200749CA6822F4E06203021204BC
:1057600003F4E063120C134343F0BF6343F40033CC
:10577000CB60704700ED00E0164B30B5DC68C4F339
:105780000224C4F10703251D042B28BF0423062D82
:105790004FF0FF358CBF033C002405FA03F321EAE8
:1057A0000303A54022EA0502A340002843EA0203BE
:1057B000ACBF00F16040084A4FEA0313B8BF00F0E5
:1057C0000F00DBB2AABF00F56140135480F800332C
:1057D00030BD00BF00ED00E014ED00E0002807DB65
:1057E000044A4109012300F01F00834042F82130A0
:1057F000704700BF00E100E010B5044650B14379A6
:1058000003F0FF0213B90271FCF736FB0123637149
:10581000002010BD0120FCE710B5044620B390F82D
:10582000393003F0FF021BB980F83820FCF73CFB4D
:10583000022384F83930236861681A6822F4403200
:105840000A431A605A6BA16822F007020A435A639E
:105850001A6CE1686FF30D020A431A6400200123F9
:10586000E06384F8393010BD0120FCE770477047D1
:10587000036870B55E681D68F207044614D5E90533
:1058800012D51A6822F480721A60C26B42F00102CB
:10589000C26301229A60042380F83930002380F823
:1058A0003830436903B19847B20616D5AB0414D516
:1058B00023681A6822F400521A6020229A60E36B6F
:1058C00043F00203E363042384F83930002384F8AF
:1058D000383063690BB120469847300716D5290543
:1058E00014D523681A6822F400621A6008229A60AC
:1058F000E36B43F00403E363042384F839300023AB
:1059000084F8383063690BB12046984772070BD58D
:105910006B0509D523681A6822F480621A60042294
:105920009A602046FFF7A2FFB00714D5A90512D54B
:1059300023681A6822F400721A6002229A60E36BEC
:10594000E363012384F83930002384F83830236975
:105950000BB120469847F20613D5EB0411D5236806
:105960001A6822F480521A6010229A60E36BE36393
:10597000012384F83930002384F838302046FFF7BB
:1059800076FF70BDF0B590F83820012A03464FF03D
:1059900002002BD0012283F8382083F8390003EB72
:1059A0000112D2E90740556A174F44EA0040093C0A
:1059B000012C9CBF05F07F4210434FEA01161A6884
:1059C00088BF40EA056091B9516A3940014351628C
:1059D000012C9969916103D8596A21F07F41916244
:1059E0000122002083F8392083F83800F0BDD16906
:1059F00039400143D1619919012C896911619CBF1A
:105A000025F07F451562EBE7F0FFFC002DE9F74F2D
:105A1000DFF8BC916C4A00230D6801249C4004EA25
:105A20000506AC4340F0B7804D68032705F003043A
:105A30004FEA430807FA08FC671E012F6FEA0C0CB7
:105A400034D8876807EA0C0ECF6807FA08F747EAE8
:105A50000E078760476827EA060EC5F300179F40C8
:105A600047EA0E074760C76807EA0C0E8F6807FA17
:105A700008F747EA0E07022CC76019D14FEAD30A8C
:105A800000EB8A0A03F0070BDAF820704FEA8B0B61
:105A90004FF00F0E0EFA0BFE27EA0E0E0F6907FAF3
:105AA0000BF747EA0E07CAF8207001E0032CDAD1A1
:105AB000076804FA08F407EA0C073C4315F4403F72
:105AC000046068D000240194D9F8444044F4804430
:105AD000C9F84440D9F8444023F0030707F1804750
