:020000040800F2
:10000000000003205D060008F5230008F723000820
:10001000F9230008FB230008FD230008000000006E
:10002000000000000000000000000000818C0008BB
:10003000FF23000800000000118D00089D850008C6
:10004000AD060008AD060008AD060008AD060008C4
:10005000AD060008AD060008AD060008AD060008B4
:10006000AD060008AD060008AD060008AD060008A4
:10007000AD060008AD060008AD060008AD06000894
:10008000AD060008AD060008AD060008AD06000884
:10009000AD060008AD060008AD060008AD06000874
:1000A000AD060008AD060008AD060008AD06000864
:1000B000AD060008AD060008AD060008AD06000854
:1000C000AD060008AD060008AD060008AD06000844
:1000D000AD060008AD060008AD060008AD06000834
:1000E000AD060008AD060008AD060008AD06000824
:1000F000AD060008AD060008AD060008AD06000814
:10010000AD060008AD060008AD060008AD06000803
:10011000AD060008AD06000801240008AD06000881
:10012000AD060008AD060008AD060008AD060008E3
:10013000AD060008AD060008AD060008AD060008D3
:10014000AD060008AD060008AD060008AD060008C3
:10015000AD060008AD060008AD060008AD060008B3
:10016000AD060008AD060008AD060008AD060008A3
:10017000AD060008AD060008AD060008000000004E
:10018000AD060008AD060008AD060008AD06000883
:10019000AD060008AD060008AD060008AD06000873
:0C01A0000D240008AD060008192400081A
:1001B00010B5054C237833B9044B13B10448AFF3A1
:1001C00000800123237010BD800300200000000088
:1001D000105F020808B5034B1BB103490348AFF396
:1001E000008008BD0000000084030020105F0208AA
:1001F00001F0FF01102A2BDB10F0070F08D010F8D8
:10020000013B013A8B422DD010F0070F42B3F6D1DB
:10021000F0B441EA012141EA014122F007047FF0F4
:1002200000070023F0E80256083C85EA010586EA4B
:10023000010685FA47F5A3FA87F586FA47F6A5FA87
:1002400087F68EB9EED1F0BC01F0FF0102F0070293
:1002500032B110F8013B013A83EA010313B1F8D13E
:100260000020704701387047002D06BF354603381F
:10027000073815F0010F07D1013015F4807F02BF58
:10028000013015F4C03F0130F0BC0138704700BFA9
:100290007BB972B90029BEBF00204FF0004106E0D3
:1002A00008BF00281CBF6FF000414FF0FF3000F086
:1002B000D3B9ADF1080C6DE904CE002909DB002BA0
:1002C0001ADB00F04DF8DDF804E0DDE9022304B0AC
:1002D0007047404261EB4101002B1BDB00F040F80E
:1002E000DDF804E0DDE9022304B0404261EB4101A6
:1002F000524263EB43037047524263EB430300F007
:100300002FF8DDF804E0DDE9022304B0404261EBA0
:1003100041017047524263EB430300F021F8DDF8DE
:1003200004E0DDE9022304B0524263EB430370476B
:1003300053B94AB9002908BF00281CBF4FF0FF314C
:100340004FF0FF3000F088B9ADF1080C6DE904CE34
:1003500000F006F8DDF804E0DDE9022304B07047A0
:100360002DE9F047089D8E4604468846002B4AD169
:100370008A42174662D9B2FA82F64EB1C6F120031C
:1003800001FA06F820FA03F3B74043EA0808B4403C
:100390004FEA174E1FFA87FCB8FBFEF1230C0EFB49
:1003A000118843EA084301FB0CF29A4209D9FB1871
:1003B00001F1FF3080F0EA809A4240F2E780023992
:1003C0003B449A1AA3B2B2FBFEF00EFB102243EAA2
:1003D000024300FB0CFC9C4509D9FB1800F1FF32DD
:1003E00080F0D6809C4540F2D3803B44023840EAFE
:1003F0000140A3EB0C0300211DB1F3400022C5E92D
:100400000032BDE8F0878B4205D90DB1C5E9000186
:1004100000210846F5E7B3FA83F1002946D1734578
:1004200002D3824200F20581841A6EEB030201209E
:100430009046002DE5D0C5E90048E2E7002A00F02B
:100440009080B2FA82F6002E40F0A4808A1A030C43
:100450004FEA174E80B2BCB20121B2FBFEFC0EFB8C
:100460001C2243EA024304FB0CF29A4207D9FB1810
:100470000CF1FF3802D29A4200F2E080C4469B1A87
:10048000B3FBFEF20EFB123340EA034302FB04F41B
:100490009C4207D9FB1802F1FF3002D29C4200F2C5
:1004A000CA8002461B1B42EA0C40A5E7C1F12006A8
:1004B0008B4022FA06F71F430EFA01F420FA06F3E6
:1004C0002EFA06FE4FEA1749234300FA01F81FFAF5
:1004D00087FCBEFBF9F01C0C09FB10EE44EA0E444D
:1004E00000FB0CFEA64502FA01F209D93C1900F105
:1004F000FF3A80F09C80A64540F2998002383C4447
:10050000A4EB0E041FFA83FEB4FBF9F309FB1344BA
:100510004EEA044403FB0CFCA44508D93C1903F142
:10052000FF3E80F08280A4457FD9023B3C4443EAF1
:100530000040A4EB0C04A0FB02EC64457346E146CA
:1005400062D35FD05DB1B8EB030264EB090404FA37
:1005500006F622FA01F31E43CC40C5E900640021EF
:100560004FE7B1FBF2FC010C41EA0E4180B240EAD8
:1005700001423B4638463C46B846BE462026B1FBC3
:10058000F7F1A2EB080241EA0C4166E7014618E7E1
:1005900010462CE7C6F120022EFA02F3B740B14014
:1005A00020FA02F24FEA174E0A43B3FBFEF8BCB240
:1005B0000EFB1833110C41EA034108FB04F9B0406B
:1005C00089454FEA104380B23ED9791808F1FF3CC3
:1005D00001D289451FD8A1EB0901B1FBFEF909FB46
:1005E00004F80EFB191192B242EA0142424529D2A7
:1005F000BA1809F1FF31C4D24245C2D2A9F10201B1
:100600003A44BEE7F0459DD2BEEB02036CEB070C0B
:100610000138E14696E7A7EB09094944A8F1020C25
:10062000B1FBFEF909FB04F8DBE773467FE75046B0
:1006300066E70846FDE63B44023A33E7ACF1020CBC
:100640003B441CE749469CE7A1EB0901C446B1FBCA
:10065000FEF909FB04F8C4E7704700BFDFF834D0A7
:10066000002103E00C4B5B58435004310B480C4B0A
:1006700042189A42F6D30B4A02E0002342F8043BA8
:10068000094B9A42F9D305F0A9FA24F0D3FE01F000
:1006900091F8704700000320A48413080000002094
:1006A0006401002080030020083C0120FEE7704721
:1006B00008B500F0B9FDBDE8084000F03DBD00F010
:1006C000B5BD704710B50421044623F0C7FC204691
:1006D00010BD000038B50C4B0C4C18800C4B822020
:1006E00019806368984740F6110398420AD1094D72
:1006F00023682C60822098472B688220DB6898470B
:10070000002038BD0120FCE7A60300204C0000209B
:10071000A4030020A80300204FF4A071F020FFF7ED
:10072000D9BF0000F7B5394D2B6804461B698220FC
:100730009847208000284ED02B680DF106025B6997
:1007400001A982209847324B1B78002B4BD0BDF873
:10075000062040F674639A423FD9ADF80630BDF8E2
:1007600006209B1A9BB20A2B42D90B22B3FBF2F351
:10077000284A1288934201D9013A93B2BDF8042065
:10078000254840F6B8318A4234D8C2F571620E323B
:10079000016892B20F25B2FBF5F2204D2D88AA42D6
:1007A00084BF05F1FF35AAB28A4215468EB22AD916
:1007B000921B91B21A4E3768BB42BAB28CBF9A1ADA
:1007C000D21A92B211440529C4BF05603360036890
:1007D00063803368A38003B0F0BDB32A9CBFB4220A
:1007E000ADF80620BBE7BDF80630A3F5B473B9E752
:1007F0000023C3E7C2F56D62083292B20E2A016887
:10080000C8D800252A46891A89B2D3E7A803002050
:10081000F81D0020A4030020A0030020A603002050
:100820009C03002037B568460D461446FFF77AFF53
:10083000BDF8000030B1BDF802302B60BDF80430C7
:100840002360012003B030BD032821D8DFE800F089
:10085000020B12190F4B1A68B2FA82F252090421E4
:100860000D4805F04FBC0B4B5A68B2FA82F25209A0
:100870000821F5E7074B9A68B2FA82F25209102173
:10088000EEE7044BDA68B2FA82F252092021E7E778
:10089000704700BFAC03002000100240032821D89D
:1008A000DFE800F0020B12190F4B1A68003A18BF6C
:1008B000012204210D4805F025BC0B4B5A68003A73
:1008C00018BF01220821F5E7074B9A68003A18BFC4
:1008D00001221021EEE7044BDA68003A18BF01222A
:1008E0002021E7E7704700BFAC0300200010024062
:1008F00003280DD8DFE800F00206080A04210548A5
:1009000005F005BC0821FAE71021F8E72021F6E7F9
:10091000704700BF0010024008B5032811D8DFE877
:1009200000F0020A0C0E0421074805F0E5FB431E07
:100930005842584108BD0821F6E71021F4E720216C
:10094000F2E70020F3E700BF0010024070B5084D49
:1009500000240126E0B2FFF7DFFF18B12B68012B5E
:1009600018BF2E600134052C05F10405F2D170BDCD
:10097000AC030020012380F8781080F879307047AC
:100980007047002070470000034B4164003918BFD6
:1009900001211970704700BFC72E01207047002049
:1009A0007047836B0BB10846184770474FF6FF70CE
:1009B0007047406803689B691847704770477047E5
:1009C0007047704710B5044600F046FD23680349A0
:1009D000D3F890302046BDE810401847000000D002
:1009E00008B503680446D3F8843098472368204646
:1009F000DB6F984700F0ECF8236820465B6F984760
:100A0000292001F0BDF900F0E3F8236820465B6F70
:100A10009847F8E710B504460AF02AFF23682046F5
:100A2000D3F8BC30BDE81040184700F0F9BC00F026
:100A3000FDBC00F02FBD00F0CFBC00F03FBD00F0CA
:100A400047BD00F0D3BC0AF041B910B5842104467B
:100A500023F004FB204610BD10B590F8341090F838
:100A600078400C4B8C421A7809D03AB90A4A0B49A3
:100A70001488088810800C8001221A7010BD002A8A
:100A8000FCD0054A05491488088810800C80002293
:100A9000F3E700BFC02E0120BC2E0120BE2E012096
:100AA00070B50D46194635B9094B0A4A0A4840F255
:100AB000FF2124F00FFAC0E90F52084B003A18BF8B
:100AC00001221A700368BDE87040D3F890301847CF
:100AD000805F0208B85F020806600208C62E012087
:100AE00008B5094B1B888B4203D8084B1B889342DF
:100AF00005D9074B074A0848A32124F0EBF9074B17
:100B00001980074B1A8008BDBC2E0120BE2E012083
:100B10004B600208AE60020806600208C22E012087
:100B2000C42E0120034690F87A0018B15868036873
:100B30001B68184770470000012108B500220846CD
:100B400007F0B6FD0A4B186028B90A4B0A4A28215B
:100B50000A4824F0BFF900220421012007F047FED3
:100B6000074B186018B9074B034A2C21F0E708BD62
:100B7000C0030020F16002083A61020869610208BE
:100B8000BC030020CC610208024B4FF0FF31186813
:100B900007F0D8BDC0030020014B186807F0FEBD68
:100BA000C0030020024B0021186807F0CBBD00BF36
:100BB000C0030020FFF7F0BF03480449006800238A
:100BC0001A4607F04FBE00BFBC03002004000020FF
:100BD00013B5084C00231A4601A9206807F073FEDC
:100BE00020684FF0FF33002201A907F06CFE02B02D
:100BF00010BD00BFBC03002003685B6C18470120D8
:100C0000704703689B6A1847FEE740F2EF30704771
:100C1000054B0360054B4FF08062C3F88820BFF39B
:100C20004F8FBFF36F8F70479070020800E100E0B4
:100C300010B504464FF45A61FFF7EAFF204623F04F
:100C40000DFA204610BD000082B0002301930E4B28
:100C50001A6B42F400021A631A6B02F4000201924A
:100C6000019A1A6942F400021A611A6922F4000218
:100C70001A61064B064A1A61064A5A61064B4FF042
:100C800080629A6002B0704700380240E81F00207E
:100C9000E90E0008090C000800E100E008B50A2888
:100CA00009D8DFE800F006100E0808080810101038
:100CB0001000022008BD054B054A0648902124F08B
:100CC00009F90020F6E70120F4E700BF0E620208F0
:100CD000296202087462020838B50C46887FFFF763
:100CE000DDFFA58AE28A164B2169586342EA054274
:100CF0005A64628BD963521B1A642568082D0ED181
:100D00009A611A615862207F0E4A42EA0062DA61F3
:100D1000E2681A620C4A5961D9601A6038BD002233
:100D2000D8611A61E1680A0A480902F4784200F4BD
:100D3000FC600243C1F3C4010A439A63034AECE72F
:100D400000B002400900010001230200012303005A
:100D500008B50B280BD8DFE800F00612100A0A0AC3
:100D60000A0808080808022008BD0520FCE7054B12
:100D7000054A06486F2124F0ADF80020F4E7012071
:100D8000F2E700BF0E620208D56202087462020830
:100D90002DE9F04191F81D800C464046FFF7D8FF41
:100DA000A77F05463846FFF7D3FF06463846FFF7CC
:100DB00075FFA18A628B444B521A1A649A61228B86
:100DC000521A1A61E28A586342EA01425A6421695E
:100DD0006268D963DA602068802828D0227F0FD823
:100DE000202867D0402865D004281AD0364B45EA21
:100DF000026545F40035B845DD6161D0334A44E011
:100E0000B0F5807F04D0B0F5007FEFD1304800E02E
:100E1000304840EA0262DA61E2681A625E62596151
:100E200032E045EA026242F40032DA61F6E7A06895
:100E3000021DDA62227F45EA026545F40035DD6174
:100E40005E625961017841B1012921D0224B234AC8
:100E500023484FF48D7124F03DF8DA69418822F47B
:100E60007F42013922F0100242EA0122DA610121B7
:100E7000154BDA6942F02002DA61DA699206FCD495
:100E800010229A600029B9D0164A1A60BDE8F08194
:100E9000B2F1FF01DA69408822F47F4200F1FF30AD
:100EA00022F0100242EA002242F0100218BF012193
:100EB000DA61DDE745EA0262034B42F40032B4E74F
:100EC00042F20132E1E700BF00B00240012301001D
:100ED000090002000A0002001F63020839630208C9
:100EE0007462020801230200024B1B685868036801
:100EF0005B691847C82E012070B5044625460A4B89
:100F00000C30002660602672667245F8203B602235
:100F100029460AF003FE04F55A63EE6024359D422B
:100F2000FBD1204670BD00BF90700208034B1A68C9
:100F3000D207FCD423229A60704700BF00B0024061
:100F40007047000030B50F4C2568ED07FCD4232511
:100F50000904A56041F001010225FF2B656361646E
:100F6000E0630AD00849656241EA0363E361074B25
:100F700022626061E060236030BDE561039BA36392
:100F8000034BF8E700B00240090001000100020035
:100F90000100030030B50E4C2568ED07FCD4232575
:100FA0001204A56042F001020225FF2B6563626412
:100FB000E063E16008D01B0643F00213E361054BD8
:100FC00065626061236030BD034BE3610123F9E793
:100FD00000B0024001000200020002FF30B50B4CDD
:100FE0002568ED07FCD4232512041B06A56043F4F5
:100FF0000033022542F0010265636264E063E16050
:10100000E361034B65626061236030BD00B0024064
:1010100001000200012070474020704700EB811062
:101020000830704700EB811008307047012070478E
:1010300040F6B800704740F6B80303FB01000830E3
:10104000704740F6B80303FB0100083070470120E9
:1010500070471020704700EB01100830704700EB1C
:10106000011008307047084601F05CBF10B5034B13
:101070000360044609F07FFB204610BD487102085A
:1010800010B50446FFF7F2FF2046482122F0E6FFA4
:10109000204610BD10B5034B0360044609F06BFBFE
:1010A000204610BD1471020810B50446FFF7F2FF88
:1010B00020464FF40C6122F0D1FF204610BD000005
:1010C00010B5034B0360044609F055FB204610BDE4
:1010D000E070020810B50446FFF7F2FF2046182121
:1010E00022F0BCFF204610BD10B5084B036004463B
:1010F00000F6EC00FFF7BAFF04F12C00FFF7CAFF7F
:1011000004F11400FFF7DCFF204610BD7C710208DB
:1011100008B50248FFF7E8FF08BD00BF9C12002099
:1011200010B50446FFF7E0FF204640F6942122F078
:1011300095FF204610BD00002DE9F34101F0E8F9CC
:10114000054601F0E9F900240146234628462246D7
:10115000009413F0D1FE274B274A1A60204603F073
:1011600037FC264D264B274A27489A6013F02CFE61
:101170002B68BFF35B8FDB0735D4284622F070FF66
:1011800088B3224C224B236004F6381604F1140075
:1011900004F12C0804F6EC076060C4F80880E760EE
:1011A000266109F0E9FA1B4B6361404609F0E4FA55
:1011B000194BE362384609F0DFFA184BC4F8EC38F3
:1011C00004F6341003F078FD224604F6341130465C
:1011D00003F07CFC304601F0A5FE114823F098FE98
:1011E000284622F049FF0F4802B0BDE8F041FFF762
:1011F000E9BB00BF2C2F01204804002098120020DA
:10120000680400204C040020080000209C120020EC
:101210007C710208E070020814710208487102082B
:1012200011110008C4030020704700000148FFF7B7
:10123000D7BB00BFC403002070B5264E264C274DF7
:10124000274B23603046FFF757FE284618F05AFF19
:10125000244810F0E5FE244B2448DC6000224FF4C3
:101260008071C3E9121222491A86C3E91A12214970
:1012700083F85820C3E91E011F49C3F880101F4995
:101280001F480B60F021C3E90422C3E90622C3E929
:101290000822C3E90A22C3E90E22C3E91022C3E9E6
:1012A0001422C3E917225A6683F870205A67C3E9EB
:1012B000016501801348018013484FF4A07101803B
:1012C0001248018012490A70012283F83420114A21
:1012D0001A6070BDF40400209412002068040020FD
:1012E000705F02084C040020C403002000000101CC
:1012F00001000001000450001A001400C82E012053
:10130000BC2E0120C22E0120BE2E0120C42E0120A1
:10131000C02E0120A46F02080148FFF779BC00BF6E
:10132000F40400200020704781807047C18070471E
:10133000018170474181704770477047704770471F
:10134000704710B4C4880368121B84885B6D091B46
:1013500012B25DF8044B09B218474FF6FF73838150
:101360004FF0FF3303621368C361106070470020C1
:1013700070478B88838001207047704780F8261063
:10138000704790F82600704710B50022B1F9084068
:10139000B1F90A10028042808480C18010BD002211
:1013A000028042808280C28070470177704780ED62
:1013B000080A704780F82410704780F8251070479D
:1013C00001207047983070478C30704784307047E8
:1013D0007047704770470000034B902283F85A23F0
:1013E00083F85823704700BF00E100E0094A0A492A
:1013F000D3680A48C3F30A03013B9BB20B8011690F
:10140000C1F30A01013901801364536B43F00103F6
:101410005363704700680140321D0020301D0020DA
:10142000014BD3F8AC00704700680140024B012229
:10143000C3F8AC105A6270470068014010B52C2107
:10144000044622F00BFE204610BD10B5BC21044618
:1014500022F004FE204610BD70B5044609F08BFC56
:1014600023689D6E0FF070FB01462046A847236855
:10147000054AD3F88C502046AC460023BDE87040A6
:10148000A2F51631604700BF00B004D009F05ABC85
:1014900009F064BC09F020BC09F08FBD90F825204C
:1014A00012B103685B691847704790F825201AB19C
:1014B00090F8242002B1186070470000034B4FF0F1
:1014C00080629A604FF080729A60704700E100E09D
:1014D000084B4FF08062C3F88820BFF34F8FBFF3F3
:1014E0006F8F4FF08072C3F88820BFF34F8FBFF328
:1014F0006F8F704700E100E070B50023124E8380CB
:10150000124B0360336893F8582005460AB1D86C33
:1015100000B998680368DB6A98473368B0FA80F4CA
:10152000D86C640930B10368DB6A9847002808BFAB
:1015300044F001042CB9064B064A07482C2123F03D
:10154000C9FC284670BD00BFC82E0120907102085A
:1015500077630208D56302080E64020870B5254E51
:101560003568BFF35B8F15F0010540D1304622F09E
:1015700077FD00283BD0204C204B256104F134003E
:10158000C4E90035C4E90255E584A562A58511F0DA
:101590002CF804F158000BF077FF194BA365204697
:1015A000184B40F8843BFFF7A7FF174BC4F8843073
:1015B0002433C4F88C304FF4C803C4E92835002321
:1015C000C4F8AC30C4F8B030C4F8B430C4F8B830A3
:1015D0000E480F4BC4F89050C4F89C50C4F8A85063
:1015E000C4F8983023F094FC304622F045FD0248C0
:1015F00070BD00BF341D0020381D0020347C02085F
:10160000B071020828720208E87B0208D5130008AE
:10161000C87B020838B5184C23685BB3174B184ACF
:101620001B6C11888B4216D1164B198805F072FB82
:10163000236893F86A200025013283F86A2083F832
:101640007C50FFF7B9FA20680AF012F92846BDE885
:101650003840FFF7F9B805F05DFB246823682046A1
:101660001B6A9847012384F87C300020BDE838408D
:10167000FFF714B938BD00BFC82E01200068014033
:10168000321D0020301D002007B5064BADF80600C6
:101690001B68054801220DF1060106F027F903B089
:1016A0005DF804FB0C000020841E002007B5184DD7
:1016B000184E1748042104F01FFD044670B9012399
:1016C0004FF4005128468DF8073004F020FD3068B3
:1016D000234622460DF1070107F0C4F80C48082103
:1016E00004F00AFD044670B902234FF40051284665
:1016F0008DF8073004F00BFD3068234622460DF1CB
:10170000070107F0AFF8642006F0C6FFD1E700BF7D
:1017100000180240FC1D002030B595B010220021B9
:101720000AA823F0DEFD1422002103A823F0D9FD2E
:1017300000241E4B01941A6C42F080521A641B6CF8
:1017400003F080530193019B194B02941A6842F4F1
:1017500040421A601B6803F4404302930122029B3B
:101760004FF48033CDE9082302254FF4800308218C
:10177000CDE90E534FF4B473CDE9101308A8042338
:101780001393129505F01EFB05F0E2FA0F23CDE945
:1017900003354FF4A0504FF48053CDE906030521E3
:1017A00003A8059405F0EAFC15B030BD00380240EE
:1017B000007000402DE980489DB004F01DFAFFF74D
:1017C000ABFF142200210FA823F08BFD0024C84B8F
:1017D00000941A6BC748C84DDFF8548342F01002DA
:1017E0001A631A6B02F010020092009A01941A6BAD
:1017F00042F020021A631A6B02F020020192019A51
:1018000002941A6B42F080021A631A6B02F0800293
:101810000292029A03941A6B42F004021A631A6B42
:1018200002F004020392039A04941A6B42F001023C
:101830001A631A6B02F001020492049A05941A6B5F
:1018400042F002021A631A6B02F002020592059A34
:1018500006941A6B42F040021A631A6B02F04002BF
:101860000692069A07941A6B42F008021A631B6BE1
:1018700003F00803224607933C21079B04F042FC37
:101880009E480122022104F03DFC22469B4804218F
:1018900004F038FC22469A484FF4405104F032FCE0
:1018A000224698484FF4C04104F02CFC01263C230A
:1018B000CDE90F368F48119403230FA90227129305
:1018C00004F036FB8D480FA9CDE90F76CDE9114420
:1018D00004F02EFB042389480FA9CDE90F36CDE98A
:1018E000114704F025FB884811940FA9CDE90F6436
:1018F00004F01EFB4FF4405381480FA9CDE90F3689
:10190000CDE9114704F014FB0C237E4811960FA972
:10191000CDE90F3404F00CFB0FA94FF4C043794814
:10192000CDE90F36CDE9114404F002FB7748784B3E
:10193000036004F0F3F9DFF8FCE1764B2C62C5E9B3
:1019400000E328464FF48043C5E90434C5E9024466
:10195000C5E9064404F0E4FD1021284605F028F806
:10196000214628466C4D05F042F84FF48273C5E9D4
:1019700000834FF400791823C5E9069328460A230B
:10198000C5E90244C5E90444C5E90844AC62EB6218
:1019900005F050FF8F232246394658488DF82C30E9
:1019A0008DF83C4004F0AEFB32464FF47A730BA93D
:1019B000284605F09BFF4FF47A7332460FA928465C
:1019C00006F040F9324639464C48544D04F09AFB33
:1019D0009DF83C30D32B04BF514B1E70514B012658
:1019E000C5E900364FF0100A40230024C5E904A3DE
:1019F0004FF4C073C5E906344FF40063C5E90834F9
:101A00004FF4005302274FF00409AB624FF0030B71
:101A100007230FA92846CDE90F73CDE911934FF0A5
:101A20000808C5E90249CDE913B7159705F0E6FDA9
:101A30004FF6FF720BA92846CDE90C8608940B9649
:101A40000E9405F0FBFD304604F002F94FF6FF72EC
:101A50000BA92846CDE90B78CDE90D6405F0EEFD24
:101A60004FF6FF720BA92846CDE90BB8CDE90D94CE
:101A700005F0E4FD4FF40C730893089B0E934FF6AA
:101A8000FF720BA92846CDE90B980D9605F0D6FDFF
:101A900040F26A51284605F0EFFD342221460FA896
:101AA00023F01FFC204D214B2C61C5E90034092394
:101AB000C5E905361D23C5E9073B40F20D1240F28A
:101AC0004313C5E9092340F2171140F24713284692
:101AD000C5E90B13C5E90244AC8685F8364005F02C
:101AE00021F8FF21F022CDE914144FF4806023E0A7
:101AF0000038024000100240941F002000080240FD
:101B0000000C024000180240000002402820002083
:101B100000300240A0860100841E0020081E002024
:101B2000F81D0020400100A0EC1E002000680140CC
:101B300000500140005C004005214FF4A073CDE946
:101B40001601CDE910240FA9CDE9184228462246F6
:101B5000CDE912373E4D1A930F94ADF86C408DF8D5
:101B60006E4005F0AAF83B4B2B601B6898472B682A
:101B7000394DDB689847394B2846C5E90034C5E93B
:101B80000274C5E90A47C5E90C4404F0D7F83146A8
:101B9000284604F089F93248324B036005F0E2FC34
:101BA000524621460BA8304D304F23F09AFB1C22A1
:101BB00021460FA8CDE9094423F093FB5323C5E93F
:101BC000007328464FF4FA73C5E90334AC60AC6186
:101BD00006F088FA4FF480530BA928460B9306F0C1
:101BE0006BFB284606F0AAFA09A92846CDE9094464
:101BF00006F0FCFB4FF0600CFA2322460FA92846A2
:101C0000CDE90FC31194139406F0F4FA284600F0BE
:101C10000BFBFEF74DFDFEF74AFD06F0CDFC144A26
:101C20003146404606F0E3FD124B134A1860214648
:101C3000124806F0EDFC124B124A18602146124879
:101C400006F0E6FC114B186006F0C8FCFEE700BF8A
:101C5000F41D002014000020E81F002000B0024006
:101C6000DC1E0020000806503C1E0020000400403E
:101C70006C720208FC1D0020A8720208AD16000854
:101C8000041E002084720208BF060008001E002007
:101C9000704770477FB5094B8DF817201B6802937A
:101CA0000DF117020123009201930A4601460448F0
:101CB00004F0DEFC07B05DF804FB00BF100000205C
:101CC000941F00207FB500238DF81730084B1B6848
:101CD00002930A4601230DF1170100910193014679
:101CE000044804F055FD9DF8170007B05DF804FBAB
:101CF00010000020941F00201FB5084C246800929B
:101D0000CDE901340A4601230146054804F040FDAF
:101D1000003818BF012004B010BD00BF1000002023
:101D2000941F002003F094BF10B5064C00222046FB
:101D3000042104F0E7F920460122BDE81040042107
:101D400004F0E0B90008024038B50B4D044601220A
:101D50000A484FF4005104F0D5F900220421284626
:101D600004F0D0F92046FFF78FFC28460122BDE899
:101D70003840042104F0C6B900080240000C0240BB
:101D800038B50B4D044600220A484FF4005104F0C8
:101D9000B9F900220421284604F0B4F92046FFF7DF
:101DA00073FC28460122BDE83840042104F0AAB99A
:101DB00000080240000C0240F7B5144E144F0546CF
:101DC0000C4630460022042104F09CF900224FF416
:101DD0000051384604F096F92846FFF755FC0D4BA4
:101DE0000D481B68224601A905F02CFF3846012248
:101DF0004FF40051019C04F085F930460122042182
:101E000004F080F9204603B0F0BD00BF0008024096
:101E1000000C02400C000020841E002003F018BFBC
:101E20000268034B9A4201D103F000BF704700BF24
:101E3000001000407047000082B00E4B002200925C
:101E4000596C41F480415964596C01F4804100910E
:101E500000990192196C41F0805119641B6C03F0D8
:101E600080530193019B0F216FF0010002B003F03A
:101E700015BF00BF003802400268094B9A4282B089
:101E80000BD100230193074B1A6B42F480521A6363
:101E90001B6B03F480530193019B02B0704700BF9A
:101EA000003002400038024007B50F4B02689A42EA
:101EB00016D10022A3F5F0430192196B41F4000101
:101EC00019631B6B03F40003019305215A20019B46
:101ED00003F0E4FE5A2003B05DF804EB03F010BFFA
:101EE00003B05DF804FB00BF00B002402DE9F043F1
:101EF000044689B01422002103A823F0F2F92268D5
:101F0000244B9A4243D1244C244800250095236B4E
:101F100043F004032363236B03F004030093009B4B
:101F20000195236B43F001032363236B03F001034B
:101F30000193019B4FF012094FF400734FF0010819
:101F40000327042603A9CDE90339CDE905870796C0
:101F500003F0EEFF4FF480731148079603A9CDE913
:101F60000339CDE9058703F0E3FF0295236C43F4C1
:101F700000032364236C03F400030293029B236A8F
:101F800043F400032362236A23F40003236209B0AD
:101F9000BDE8F083005C00400038024000080240C9
:101FA00000000240F0B599B004461422002107A8B1
:101FB00023F097F930220DEB0200002123F091F974
:101FC00022685E4B9A4240F0B78008230C93C023EE
:101FD0001093042312930CA84FF40033159305F0CB
:101FE00095F908B1FFF726FF554B56480024009499
:101FF0005A6C42F080625A645A6C02F0806200921D
:10200000009A01941A6B42F020021A631A6B02F0D4
:1020100020020192019A02941A6B42F001021A63A3
:102020001A6B02F001020292029A03941A6B42F0B8
:1020300002021A631A6B02F002020392039A0494DA
:102040001A6B42F040021A631A6B02F040020492CB
:10205000049A05941A6B42F004021A631A6B02F098
:1020600004020592059A06941A6B42F008021A635C
:102070001B6B03F00803069302250E26069B0B96A6
:102080004FF4806307A9CDE90735CDE9094503F091
:102090004FFF41F658032C480B9607A9CDE90735A9
:1020A0000927CDE9094503F043FF032327480B9790
:1020B00007A9CDE90735CDE9094503F039FF4FF40C
:1020C000706322480B9607A9CDE90735CDE909458C
:1020D00003F02EFF4FF40C631D480B9607A9CDE9C2
:1020E0000735CDE9094503F023FFC02319480B96B6
:1020F00007A9CDE90735CDE9094503F019FF082304
:1021000015480B9607A9CDE90735CDE9094503F038
:102110000FFF4FF4A0530E480B9707A9CDE90735E1
:10212000CDE9094503F004FF58202246052103F0BC
:10213000B5FD582003F0E4FD19B0F0BD0068014082
:102140000038024000140240000002400004024037
:102150000018024000080240000C02400268094BCF
:102160009A4282B00BD100230193074B5A6B42F085
:1021700040025A635B6B03F040030193019B02B082
:10218000704700BF000806500038024010B50446F2
:1021900088B01422002103A823F0A3F82268144B6E
:1021A0009A4223D103F56843002101915A6C1148EA
:1021B00042F480125A645A6C02F480120192019A1D
:1021C00002911A6B42F020021A631B6B03F020038A
:1021D0000293029B4FF4607202230321CDE9032393
:1021E0000523CDE9061303A903F0A2FE08B010BD34
:1021F00000500140001402400268094B9A4282B02C
:102200000BD100230193074B1A6C42F002021A64AF
:102210001B6C03F002030193019B02B0704700BFE7
:10222000000400400038024010B5044686B0142275
:10223000002101A823F055F822680D4B9A4214D1D1
:10224000002300930B4B0C481A6B42F002021A63F6
:102250001B6B03F002030093009B1022022301A9D1
:10226000CDE90123059303F063FE06B010BD00BF66
:102270000004004000380240000402402DE9F04113
:1022800086B0002303932B4B1C68002C4FD14FF0DA
:102290000108C3F80080284B00949A6B274842EA53
:1022A00008029A639B6B03EA080300930227032644
:1022B0000C25009B01A94FF63F03CDE90137CDE97D
:1022C000046503F035FE1E48059501A9CDE9018797
:1022D000CDE9034603F02CFE48F233131948059567
:1022E00001A9CDE90137CDE9034603F021FE4FF600
:1022F00083731548059501A9CDE90137CDE903465A
:1023000003F016FE4CF203731048059501A9CDE9C0
:102310000137CDE9034603F00BFE60230C48059519
:1023200001A9CDE90137CDE9034603F001FE06B06E
:10233000BDE8F08130200020003802400014024047
:10234000000802400018024000100240000C024049
:102350000004024070B588B000230293204B1A6C31
:1023600042F010021A641B6C03F01003029305463E
:1023700001A903A8029B04F0ABFF069B4BBB04F032
:1023800097FF184E184B336040F2E733F360174B5A
:10239000B0FBF3F3013B7360304600233361B3605D
:1023A000B36105F09FFE044680B9304605F06EFD2E
:1023B000044658B9362003F0A3FC0F2D0DD8224651
:1023C0002946362003F06AFC094B1D60204608B000
:1023D00070BD04F06DFF4000D3E70124F6E700BFB5
:1023E00000380240342000200010004040420F001E
:1023F0007C0000207047FEE7FEE7FEE7FEE770473F
:10240000014805F082BD00BF34200020014804F0DF
:10241000F7BB00BFEC1E0020014803F0BBBC00BFAF
:10242000E81F00200120704708B522F0FDFF1623A9
:1024300003604FF0FF3008BD08B522F0F5FF16230A
:102440000360FEE770B50D4614460E46731B9C42B2
:1024500001DC204670BDAFF3008006F8010BF5E704
:1024600070B50D4614460E46731B9C4201DC204697
:1024700070BD16F8010BAFF30080F5E74FF0FF30A9
:1024800070474FF400534B600020704701207047A5
:10249000002070470A4A116808B5034609B909497E
:1024A00011601068694603448B4206D922F0BCFFD4
:1024B0000C2303604FF0FF3008BD1360FCE700BF42
:1024C0007C200020083C0120704708B5062915D85B
:1024D000DFE801F0101004080C10100002F0C4FA3C
:1024E000406808BD02F0C0FA8068FAE702F0BCFA62
:1024F000C068F6E702F0B8FA0068F2E70020F0E7FB
:1025000010B50421044621F0A9FD204610BD0000AD
:1025100000487047E07202081620704713B5002487
:1025200051B1036801948DF8034001AA9C680DF134
:102530000303A04702B010BD0846FBE7C0897047FF
:10254000008A7047C088704780887047807A00F0A2
:102550007F007047807AC0097047002070470000F4
:102560009FED010A704700BF00000000704710B5E2
:102570000821044621F072FD204610BD70477047C7
:1025800000F598730868496803C37047704770473F
:102590004160704770477047064BC0F84C310023CC
:1025A000C0F8503100F5A273C0F84801C0F84031BE
:1025B000704700BF9D3200080123037270477047C7
:1025C000704770477047704738B5054640680368E4
:1025D000DB699847044604B938BDA188AB89C91A9C
:1025E000236820461B6B09B29847A469F3E738B506
:1025F000054640680368DB699847044604B938BD5E
:10260000E188AB89C91A236820465B6B09B29847F9
:10261000A469F3E738B5054640680368DB69984765
:10262000044604B938BDA188AB89C91A236820467D
:102630001B6B09B29847A469F3E710B4C2684168FC
:102640005410034601EB6200D20748BF0A599B6849
:102650005DF8044B48BFD35818470346406830B173
:102660009A681AB9D86800F00100704701207047D5
:1026700010B50C21044621F0F1FC204610BD10B528
:102680001021044621F0EAFC204610BD10B51021AF
:10269000044621F0E3FC204610BD10B5102104468D
:1026A00021F0DCFC204610BD10B51021044621F0BD
:1026B000D5FC204610BD10B54FF4AE71044621F094
:1026C000CDFC204610BD10B54021044621F0C6FCCB
:1026D000204610BD10B50EF037FA0368BDE8104073
:1026E000DB6B184710B50EF02FFA0368BDE81040F9
:1026F0005B6B184710B50EF027FA0368BDE8104071
:102700005B6B184710B50EF01FFA0368BDE8104068
:102710005B6B184737B50546807A6B7A0130C0B2DB
:102720009842A87205D901232B720023AB7203B023
:1027300030BDB5F90C20B5F90E40002110F0BEFBFC
:10274000C30707D500284FF6FF73C8BF012313FA4C
:1027500080F000B2AB7AE881041B012BA4B206D151
:10276000174B1B781BB10EF0EFF90EF0F3F9154A79
:1027700000231288ADF80230EB891A445B42ADF8B1
:102780000430114BADF800201B88ADF806300EF078
:10279000DBF9036802AA12E906001B6C9847686817
:1027A0000368DB6998470546002DC0D0A9882B68CF
:1027B000214428461B6B09B29847AD69F4E700BF76
:1027C000C62E0120BC2E0120BE2E012037B50546A5
:1027D000807A6B7A0130C0B29842A87205D9012381
:1027E0002B720023AB7203B030BDB5F90C20B5F9E4
:1027F0000E40002110F062FBC30707D500284FF6FA
:10280000FF73C8BF012313FA80F000B2AB7AE881EE
:10281000041B012BA4B206D1134B1B781BB10EF085
:1028200093F90EF097F900230093EB89ADF804308B
:102830000E4B1B88ADF806300EF086F9036802AA2D
:1028400012E906001B6C984768680368DB699847C3
:102850000546002DC7D0A9882B68214428461B6B4C
:1028600009B29847AD69F4E7C62E0120BE2E0120BB
:1028700037B50546807A6B7A0130C0B29842A872AB
:1028800005D901232B720023AB7203B030BDB5F91B
:102890000C20B5F90E40002110F010FBC30707D53E
:1028A00000284FF6FF73C8BF012313FA80F000B26F
:1028B000AB7AE881041B012BA4B206D1174B1B781D
:1028C0001BB10EF041F90EF045F9154A00231288AC
:1028D000ADF80030EB891A44ADF80220114A5B4292
:1028E0001288ADF80420ADF806300EF02DF903681B
:1028F00002AA12E906001B6C984768680368DB6946
:1029000098470546002DC0D0E9882B682144284609
:102910005B6B09B29847AD69F4E700BFC62E012092
:10292000BE2E0120BC2E0120054B1B7801462BB189
:10293000406818B103680C315B6E1847704700BFE0
:10294000C72E0120037A70B50546BBB940680368FD
:10295000DB69984704463CB96868036805F10C01D7
:102960001B6EBDE870401847A1886B8FC91A236899
:1029700020461B6B09B29847A469ECE770BD10B5FF
:102980000446D0F8400158B10368DB68984738B175
:10299000D4F8400103689B6898470023C4F840318D
:1029A00010BD70B5044690F8390094F83830013005
:1029B000C0B2984284F8390005D90123237200235C
:1029C00084F8393070BDB4F93A20002110F076FA5D
:1029D000C30706D500284FF6FF73C8BF012318446C
:1029E00000B2238AC01AA08760680368DB69984731
:1029F00005462DB960680368BDE870405B691847FB
:102A0000A988A38F19442B6828461B6B09B29847E5
:102A1000AD69EEE72DE9F14FD0E9556A0746B06898
:102A200003681B6A9847DB2805D8494B494AA3210C
:102A3000494822F04FFA706803681B6A98470F28CC
:102A400003D8464B434AA421F2E7F06803681B6AA7
:102A500098470F2803D8424B3E4AA521E8E70EF0DD
:102A600073F8DFF8089104300EF0BBF8D9F80000D5
:102A700010B10368DB689847D9F8000010B103680B
:102A80001B689847DFF8E880D8F8000010B10368A9
:102A90005B699847D7F83C0110B103685B689847B9
:102AA000D8F8000010B103681B689847D7F83C01BC
:102AB00010B103689B689847F068036800215B6A5F
:102AC0009847284B03604FF4A0530381264B1B8883
:102AD0004FF0000B80F80AB05B420446C0F804B027
:102AE000A0F80EB08381B068036859465B6A9847C6
:102AF000054602F0D5F87068036859465B6A984746
:102B00002946064602F0ACF8331DC7F83C61C9F807
:102B10000040C8F80050CAF800302B68C6F808A07A
:102B20002846DB68EE639847336830461B68984751
:102B30002146284610F0BCF9236820461B699847B7
:102B400023685B69204601B0BDE8F04F184700BF1D
:102B50008E6402081C650208FD65020844660208CE
:102B6000E7660208AC750208BC2E0120102F012078
:102B70000C2F01202DE9F14FD0E9556A0746B068C6
:102B800003681B6A9847B0F5887F05D2484B494ACD
:102B9000A321494822F09EF9706803681B6A984790
:102BA0000F2803D8454B434AA421F2E7F068036895
:102BB0001B6A98470F2803D8414B3E4AA521E8E7F6
:102BC0000DF0C2FFDFF8049104300EF00AF8D9F8D6
:102BD000000010B10368DB689847D9F8000010B115
:102BE00003681B689847DFF8E880D8F8000010B148
:102BF00003685B699847D7F83C0110B103685B68CC
:102C00009847D8F8000010B103681B689847D7F8B8
:102C10003C0110B103689B689847F0680368002185
:102C20005B6A9847274B03604FF4A0530381264B00
:102C30001B884FF0000B80F80AB05B420446C0F8D6
:102C400004B0A0F80EB08381B068036859465B6A8F
:102C50009847054601F0EAFF7068036859465B6AC9
:102C600098472946064601F0BFFF331DC7F83C616F
:102C7000C9F80040C8F80050CAF800302B68C6F800
:102C800008A02846DB68EE639847336830461B6827
:102C900098472146284610F00BF9236820461B6907
:102CA000984723685B69204601B0BDE8F04F18479C
:102CB0008E6402088A670208FD65020844660208FD
:102CC000E766020888750208BE2E0120102F012039
:102CD0000C2F01202DE9F0411D460368BDF9187045
:102CE0001B6B0446164698472368314620465B6BAB
:102CF00098472368294620469B6B984723683946A6
:102D00002046DB6BBDE8F041184700002DE9F74F86
:102D1000D0E9556A0746B06803681B6A984740F6D1
:102D2000B703984205D8544B544AA321544822F083
:102D3000D1F8706803681B6A98470F2803D8514B75
:102D40004E4AA421F2E7F06803681B6A98473F28BF
:102D500003D84D4B494AA521E8E70DF0F5FEDFF811
:102D6000389104300DF03DFFD9F8000010B1036830
:102D7000DB689847D9F8000010B103681B689847D2
:102D8000DFF81881D8F8000010B103685B69984734
:102D9000D7F83C0110B103685B689847D8F8000089
:102DA00010B103681B689847D7F83C0110B103685D
:102DB0009B689847F068036800215B6A984705465E
:102DC0000022324B4260027245F80C3B0446284612
:102DD0000AF002FC142323872D4B1B780022A287C4
:102DE000002B35D101232372B068036800215B6A90
:102DF0009847054602F076F87068036800215B6A20
:102E000098472946064601F069FF331DC7F83C6123
:102E1000C9F80040C8F80050CAF800302B68C6F85E
:102E200008A02846DB68EE639847336830461B6885
:102E300098472146284610F03BF8236820461B6936
:102E4000984723685B69204603B0BDE8F04F1847F8
:102E5000104BDFF84CB0B3F900300093BBF90030F1
:102E600011462846FFF736FF28460AF030FBBBF82C
:102E700000305B426387B7E78E6402086C68020823
:102E8000FD65020844660208E7660208407502080C
:102E9000C72E0120BE2E0120102F01200C2F012053
:102EA000BC2E0120044B1B6893F858200AB1D86C43
:102EB00000B99868704700BFC82E0120F8B51746C2
:102EC00004460E460DF02AFF124B1C60124B236085
:102ED000124B0025C4E95135114BC4E9535518680C
:102EE000036801219B68C4E94F55C4E955769847AA
:102EF000284601F06DFDFFF7D5FF18F0ACFFFFF796
:102F0000D1FF19F023F8FFF7CDFF19F02BF8204679
:102F1000F8BD00BF1C2F0120C8740208B07402085D
:102F2000C82E0120064BC0F84C310023C0F85031A8
:102F300000F5A273C0F84801C0F84031704700BFE7
:102F40009D320008064BC0F84C310023C0F85031C8
:102F500000F5A273C0F84801C0F84031704700BFC7
:102F600041310008064BC0F84C310023C0F8503105
:102F700000F5A273C0F84801C0F84031704700BFA7
:102F8000752B0008064BC0F84C310023C0F85031B7
:102F900000F5A273C0F84801C0F84031704700BF87
:102FA0000D2D0008064BC0F84C310023C0F85031FD
:102FB00000F5A273C0F84801C0F84031704700BF67
:102FC000152A0008064BC0F84C310023C0F85031D8
:102FD00000F5A273C0F84801C0F84031704700BF47
:102FE000ED2F000803685B6A184700002DE9F14FD8
:102FF000D0E9556A0746B06803681B6A9847DB2822
:1030000005D8444B444AA321444821F063FF70682B
:1030100003681B6A98470F2803D8414B3E4AA421F6
:10302000F2E7F06803681B6A98470B2803D83D4B0A
:10303000394AA521E8E70DF087FDDFF8F09004306C
:103040000DF0CFFDD9F8000010B10368DB68984798
:10305000D9F8000010B103681B689847DFF8D080EA
:10306000D8F8000010B103685B699847D7F83C01B5
:1030700010B103685B689847D8F8000010B1036886
:103080001B689847D7F83C0110B103689B689847C4
:10309000F0680021FFF7A6FF4FF0000B224BC0F8AD
:1030A00004B0044680F808B00360B068036859466D
:1030B0005B6A9847054601F041FD70680368594610
:1030C0005B6A98472946064601F018FD331DC7F88C
:1030D0003C61C9F80040C8F80050CAF800302B68BD
:1030E000C6F808A02846DB68EE6398473368304688
:1030F0001B689847214628460FF0DAFE23682046D1
:103100001B69984723685B69204601B0BDE8F04F12
:10311000184700BF8E64020851690208FD65020865
:1031200044660208E76602081C750208102F012099
:103130000C2F012003685B6A184703685B6A184715
:103140002DE9F14FD0E9556A0746B06803681B6A5C
:103150009847B0F5AE7F05D2474B484AA32148486F
:1031600021F0B8FE706803681B6A98470F2803D8DF
:10317000444B424AA421F2E7F06803681B6A98476F
:103180000F2803D8404B3D4AA521E8E70DF0DCFCB1
:10319000DFF8009104300DF024FDD9F8000010B1E3
:1031A0000368DB689847D9F8000010B103681B6812
:1031B0009847DFF8E480D8F8000010B103685B6935
:1031C0009847D7F83C0110B103685B689847D8F876
:1031D000000010B103681B689847D7F83C0110B194
:1031E00003689B689847F068036800215B6A98470A
:1031F000264B03604FF4A0530381254B4FF0000B87
:103200001B8880F80AB0044683815946C0F804B090
:10321000A0F80EB0B068FFF78DFF054601F0CAFCBC
:1032200059467068FFF789FF2946064601F0A0FC61
:10323000331DC7F83C61C9F80040C8F80050CAF80F
:1032400000302B68C6F808A02846DB68EE63984774
:10325000336830461B689847214628460FF028FE01
:10326000236820461B69984723685B69204601B0A4
:10327000BDE8F04F184700BF8E640208256A0208B7
:10328000FD65020844660208E766020864750208E4
:10329000BC2E0120102F01200C2F01202DE9F14F11
:1032A000D0E9556A0746B06803681B6A9847B0F5CD
:1032B000AE7F05D2424B434AA321434821F00AFE88
:1032C000706803681B6A98470F2803D83F4B3D4A34
:1032D000A421F2E7F06803681B6A98470B2803D81B
:1032E0003B4B384AA521E8E70DF02EFCDFF8E890CB
:1032F00004300DF076FCD9F8000010B10368DB68EB
:103300009847D9F8000010B103681B689847DFF8A8
:10331000CC80D8F8000010B103685B699847D7F8F3
:103320003C0110B103685B689847D8F8000010B101
:1033300003681B689847D7F83C0110B103689B6885
:103340009847F0680021FFF74DFE4FF0000B214B2E
:10335000036004465946C0F804B080F808B0B0686D
:10336000FFF7E8FE054601F025FC59467068FFF7B7
:10337000E4FE2946064601F0FBFB331DC7F83C611D
:10338000C9F80040C8F80050CAF800302B68C6F8E9
:1033900008A02846DB68EE639847336830461B6810
:1033A0009847214628460FF083FD236820461B6975
:1033B000984723685B69204601B0BDE8F04F184785
:1033C0008E640208106B0208FD650208446602085C
:1033D000E76602081C750208102F01200C2F01203F
:1033E0007047704770477047704770477047704725
:1033F00030B4C26844685510034604EB6200D2073B
:1034000048BF62599B6830BC48BFD3581847034631
:10341000406830B19A681AB9D86800F00100704766
:103420000120704710B51021044620F017FE2046F9
:1034300010BD10B5DC21044620F010FE204610BD62
:103440009830884208B505D10DF07EFBBDE80840F4
:10345000FFF778BD08BD70B5036804461B6B1546C1
:1034600098472368294620465B6BBDE870401847A3
:103470000022C0E90122C0E90322C0E90522C0E917
:1034800007224FF480728284014A0260704700BFB5
:10349000D07502082DE9F3470446264600250FF0B3
:1034A0005BFB484BE56346F8403B4FF0260A52462B
:1034B0002946304621F015FF3046FFF7D9FF04F1C9
:1034C0006C07414B23644FF0FF084FF6FF795246DB
:1034D000294684F86680A5663846ADF8049021F048
:1034E00000FF3846FFF7C4FF384BE366BDF80430F1
:1034F000A4F8923084F8948001A904F19808384621
:103500000AF02BFB52462946404621F0EAFE40468F
:10351000FFF7AEFF012384F8BC302D4BC4F8983080
:103520002C4BA4F8C690C4E933342B4BA4F8C890B4
:103530002A46C4E9353584F8CA9029463046C4F88D
:10354000C05084F8C450FFF786FF3046F021FDF7E5
:10355000EFFE30464FF4A071FDF7ECFE04F10409D4
:103560004FF07F43A3663146484607F019F92A46D3
:1035700029463846FFF76FFF032301A93846ADF807
:1035800004300AF0EAFA3946484607F009F940469D
:10359000DE221821FFF75FFF0D2301AA694640468E
:1035A000ADF80030ADF804300AF09EF904F1CC0318
:1035B0004846C4F8C030414607F0F2F8204602B051
:1035C000BDE8F08750760208687D0208447E020854
:1035D000D07D02083876020841340008406A7047FE
:1035E000806A704770478A880B8810B5D20A4C8869
:1035F000C1699BB251F8220043EA0443184410BD4C
:1036000010B50446BAB1107B68B1537BD27A1B0265
:1036100003F4E0631A43236A03EB82031A888A42A5
:1036200002D193F9020010BD05D8013880B20433ED
:103630000028F3D1F7E70020F5E710B52C21044668
:1036400020F00CFD204610BD30B58BB00446BDF80F
:1036500060500895BDF85C5007959DF85050069550
:103660009DF84C5005959DF8485004959DF84450A0
:1036700003959DF8405002959DF83C500195BDF88A
:10368000385000950FF06EF8064B2360159BE361F0
:10369000169B2362199B63621A9BA36220460BB0A0
:1036A00030BD00BF8476020830B5036885B06D4632
:1036B0000181D3F88430014604462846984795E8AE
:1036C00007003C3484E8070005B030BD30B503681E
:1036D00085B06D464181D3F88430014604462846C2
:1036E000984795E807003C3484E8070005B030BDF2
:1036F0000022028042808280C280704780F83610AB
:10370000704770B5036804461B6B154698472368DD
:10371000294620465B6EBDE8704018470020704780
:10372000806C7047704770477047704730B4C2680C
:1037300044685510034604EB6200D20748BF625943
:103740009B6830BC48BFD35818470346406830B127
:103750009A681AB9D86800F00100704701207047D4
:1037600010B54C21044620F079FC204610BD10B560
:103770001021044620F072FC204610BD10B54FF415
:10378000AE71044620F06AFC204610BD08B5FDF776
:1037900085FE08BD036870B55E6B124B1B6804465E
:1037A0008DB22BB9104B114A6C21114821F092FBBC
:1037B0001049828D0988914203D80F4B0B4A6D2125
:1037C000F3E713F812200D4B1B6853F8220003682F
:1037D0001B6B9847291A3346204609B2BDE8704052
:1037E000184700BF202F0120E86B02082A6C02084E
:1037F000656C0208242F0120AC6C0208282F0120E0
:1038000038B500F19803994204460D4603D10DF0F6
:103810009BF9FFF7C7FBCC34A54205D10DF094F915
:10382000BDE83840FFF79EBB38BD00224FF0FF31A6
:10383000C0E900218260704710B5262204460021AD
:1038400021F04FFD2046FFF713FE0023A36284F80A
:103850002C30012384F82430044B23604FF6FF738F
:1038600084F83230E3852386204610BDD07D0208DF
:103870002DE9F04F04468BB0A04600250FF06CF9FF
:103880006E4BE56348F8403B4FF026094A4629460F
:10389000404621F026FD4046FFF7EAFD04F16C07A3
:1038A000FF26674B23644A464FF0FF33294684F8CE
:1038B0006660A5663846ADF8203021F012FD384626
:1038C000FFF7D6FD5F4BE366BDF82030A4F89230D9
:1038D00008A904F1980B84F8946038460AF03DF981
:1038E00004F1CC0A584604F58076FFF7A5FF504650
:1038F000FFF7A2FF4A462946304621F0F2FC304647
:10390000FFF7B6FD504BC4F828314FF47F03C4F8DD
:1039100034314E4BC4F800314FF0FF33C4E9503519
:103920004B4BC4F83051C4E953344A4BA4F83851D6
:10393000C4E955354FF0FF324FF4A073A4F82C21A1
:10394000C4F83C51C4F848512A46009329464046E1
:10395000F023FFF7BFF904F104094FF07F43A3669A
:103960004146484606F01CFF2A4629463846FFF7DE
:1039700072FD052308A93846ADF820300AF0EDF8AD
:103980003946484606F00CFF584640F219121821F5
:10399000FFF761FD04F5A677122308AA07A9584688
:1039A000ADF81C30ADF8203009F09EFF594648466E
:1039B000C4F8C07006F0F4FE504640F21D12CD214E
:1039C000FFF749FD072308AA07A95046ADF81C30A8
:1039D000ADF8203009F088FF51464846C4F8F4702D
:1039E00006F0DEFE0F2300931D2230462D236321B7
:1039F000FFF770F9184BC4F83031D4F80031A4F84F
:103A0000345102AD31462846D3F88430984795E8C2
:103A1000070004F59E7383E807000B4B089308A981
:103A200009233046ADF8243009F000FF48463146FE
:103A300006F0B6FE20460BB0BDE8F08F9477020882
:103A4000687D0208447E0208A0740208EC76020831
:103A50007C77020801380008E4FDFFFF70477047DB
:103A6000704730B4C26844685510034604EB6200E6
:103A7000D20748BF62599B6830BC48BFD35818472B
:103A80000346406830B19A681AB9D86800F001005E
:103A900070470120704710B51021044620F0DEFA6F
:103AA000204610BD10B54FF48871044620F0D6FAB8
:103AB000204610BD38B500F19803994204460D46E2
:103AC00003D10DF041F8FFF76DFACC34A54205D1D2
:103AD0000DF03AF8BDE83840FFF734BA38BD0000C1
:103AE0002DE9F3470446264600250FF035F84B4BE9
:103AF000E56346F8403B4FF026094A4629463046E2
:103B000021F0EFFB3046FFF7B3FC04F16C074FF0F8
:103B1000FF08434B23644A464FF6FF73294684F857
:103B20006680A5663846ADF8043021F0DAFB3846E9
:103B3000FFF79EFC3B4BE366BDF80430A4F89230DF
:103B400001A904F1980A84F8948038460AF005F82F
:103B500004F1CC095046FFF76FFE4846FFF76CFEB4
:103B6000314BC4E94034314B2A46C4E94235294639
:103B70003046FFF770FC3046F021FDF7D9FB3046A8
:103B80004FF4A071FDF7D6FB04F104084FF07F431A
:103B9000A3663146404606F003FE2A4629463846CB
:103BA000FFF759FC082301A93846ADF8043009F0A5
:103BB000D4FF3946404606F0F3FD50463722332104
:103BC000FFF749FC04F58076132301AA69465046A5
:103BD000ADF80030ADF8043009F086FE514640469D
:103BE000C4F8C06006F0DCFD48464FF48C720C212E
:103BF000FFF731FC01AA69464846ADF80050ADF820
:103C0000045009F071FE4046C4F8F460494606F0DD
:103C1000C7FD204602B0BDE8F08700BFE07702088C
:103C2000687D0208447E0208C8770208B53A000899
:103C300070477047704730B4C268446855100346F7
:103C400004EB6200D20748BF62599B6830BC48BF92
:103C5000D35818470346406830B19A681AB9D868F3
:103C600000F0010070470120704710B51021044694
:103C700020F0F4F9204610BD10B5DC21044620F0F8
:103C8000EDF9204610BD9830884208B505D10CF0FA
:103C90005BFFBDE80840FFF775B908BD2DE9F347A4
:103CA0000446264600250EF057FF484BE56346F8CC
:103CB000403B4FF0260A52462946304621F011FB80
:103CC0003046FFF7D5FB04F16C07414B23644FF0FE
:103CD000FF084FF6FF795246294684F86680A566AC
:103CE0003846ADF8049021F0FCFA3846FFF7C0FBE7
:103CF000384BE366BDF80430A4F8923084F8948021
:103D000001A904F19808384609F027FF52462946D0
:103D1000404621F0E6FA4046FFF7AAFB012384F86B
:103D2000BC302D4BC4F898302C4BA4F8C690C4E995
:103D300033342B4BA4F8C8902A46C4E9353584F8AF
:103D4000CA9029463046C4F8C05084F8C450FFF7E2
:103D500082FB3046F021FDF7EBFA30464FF4A071BC
:103D6000FDF7E8FA04F104094FF07F43A3663146FA
:103D7000484606F015FD2A4629463846FFF76BFBF4
:103D8000092301A93846ADF8043009F0E6FE3946AA
:103D9000484606F005FD4046D7225F21FFF75BFB52
:103DA0000C2301AA69464046ADF80030ADF8043056
:103DB00009F09AFD04F1CC034846C4F8C0304146EE
:103DC00006F0EEFC204602B0BDE8F0872C78020831
:103DD000687D0208447E0208D07D0208147802083B
:103DE000873C00087047704710B54FF4E761044600
:103DF00020F034F9204610BD38B5262204460D4681
:103E0000002121F06EFA2046FFF732FB064B2360BB
:103E10002B88E384FF23204684F82830294609F0C4
:103E20009CFE204638BD00BF447E020810B5262205
:103E30000446002121F055FA2046FFF719FB0A4BF2
:103E4000A3624FF6FF73A3854FF47F020023C4E9FA
:103E50000C32064A226023874FF0FF32C4E9102358
:103E6000E363A364204610BDA0740208EC76020848
:103E70002DE9F04F0446A9B026464FF000090EF098
:103E80006BFED84BC4F83C9046F8403B262249468E
:103E9000304621F026FA3046FFF7EAFAD24B236487
:103EA00004F16C0AFF234FF6FF7584F8663026A9EB
:103EB0005046C4F86890ADF89850FFF79DFF04F1A4
:103EC0009803184604F1C40826A9089304F1F007E2
:103ED000ADF89850FFF790FF26A9404604F58E7B79
:103EE000ADF89850FFF788FF26A93846ADF89850EE
:103EF000FFF782FF26A95846ADF89850FFF77CFFE0
:103F000004F5A47326A918460993ADF89850FFF755
:103F100073FF04F5BA7326A918460A93ADF89850B2
:103F2000FFF76AFF04F5D07326A918460B93ADF886
:103F30009850FFF761FF04F5E67318460393FFF707
:103F400075FF04F5067318460493FFF76FFF04F539
:103F5000197318460593FFF769FF04F52C7326A91A
:103F600018460C93ADF89850FFF746FF04F53773E9
:103F700026A918460D93ADF89850FFF73DFF04F5BC
:103F8000427326A918460E93ADF89850FFF734FFF8
:103F900004F54D7326A918460F93ADF89850FFF716
:103FA0002BFF04F5587326A918461093ADF89850C6
:103FB000FFF722FF04F5637326A918461193ADF8A5
:103FC0009850FFF719FF04F56E7326A9184612934F
:103FD000ADF89850FFF710FF04F5797326A918463D
:103FE0001393ADF89850FFF707FF04F5826326A9F5
:103FF00018461493ADF89850FFF7FEFE04F23C43C8
:1040000026A918461593ADF89850FFF7F5FE04F56C
:104010008D6326A918461693ADF89850FFF7ECFE6D
:1040200004F2944326A918461793ADF89850FFF769
:10403000E3FE04F5986326A918461893ADF8985046
:10404000FFF7DAFE04F2EC4326A918461993ADF8FF
:104050009850FFF7D1FE04F5A36326A918461A93DA
:10406000ADF89850FFF7C8FE04F2445326A918464D
:104070001B93ADF89850FFF7BFFE04F5AE6326A979
:1040800018461C93ADF89850FFF7B6FE04F29C5307
:1040900026A918461D93ADF89850FFF7ADFE04F51C
:1040A000B96326A918461E93ADF89850FFF7A4FEF1
:1040B00004F2F45326A918461F93ADF89850FFF761
:1040C0009BFE04F5C46326A918462093ADF89850CA
:1040D000FFF792FE04F24C6326A918462193ADF82F
:1040E0009850FFF789FE04F5CF6318460693FFF753
:1040F0009DFE04F2C46318460793FFF797FE4FF442
:10410000A0734A46304600934946F023251DFEF72A
:10411000E1FD4FF07F43A3663146284606F040FBA1
:10412000F02250464946FFF796F94FF011035046EA
:1041300026A9ADF8983009F010FD5146284606F042
:104140002FFB4A4608984946FFF785F94FF00F0ABA
:104150000898ADF898A026A909F0FFFC0899284610
:1041600006F01EFB4FF4967240462D21FFF773F9BF
:104170000626404626A9ADF8986009F0EEFC4146B7
:10418000284606F00DFB4FF4967238464321FFF7A0
:1041900062F9384626A9ADF8986009F0DEFC394688
:1041A000284606F0FDFA4FF4967258465921FFF75B
:1041B00052F9584626A9ADF8986009F0CEFC594648
:1041C000284606F0EDFAEB220998DFF82080DFF8A8
:1041D00020B06421FFF73FF914270998ADF89870D3
:1041E00008E000BF60780208687D02085480FFFF85
:1041F000A074020826A909F0B0FC0999284606F027
:10420000CFFAEB220A98BE21FFF725F90A98ADF8FC
:10421000987026A909F0A1FC0A99284606F0C0FA70
:10422000EB220B980A21FFF716F90B98ADF898705E
:1042300026A909F092FC0B99284606F0B1FAF02263
:104240000398CDF800A02D230A21FEF743FDD4F8F2
:10425000CC310399D3F88430C4F8FC8122AF3846BE
:10426000A4F80092984797E8070004F5027383E8E2
:10427000070004230398ADF89C3026A9CDF898B028
:1042800009F0D4FA0399284606F08AFAF022049835
:10429000CDF800A02D236221FEF71CFDD4F81832C2
:1042A0000499D3F88430C4F848823846A4F84C9274
:1042B000984797E8070004F5157383E8070005237E
:1042C0000498ADF89C3026A9CDF898B009F0AEFA64
:1042D0000499284606F064FAF0220598CDF800A06B
:1042E0002D23BB21FEF7F6FCD4F864320599D3F8F0
:1042F0008430C4F894823846A4F89892984797E896
:10430000070004F5287383E807000598ADF89C6062
:1043100026A9CDF898B009F089FA0599284606F043
:104320003FFAE6220C984946FFF795F84FF00A0845
:104330000C98ADF8988026A909F00FFC0C99284636
:1043400006F02EFAB6220D985146FFF784F84FF08A
:1043500011030D98ADF8983026A909F0FEFB0D99D0
:10436000284606F01DFAB6220E983421FFF773F89E
:104370000E230E98ADF8983026A909F0EEFB0E99A1
:10438000284606F00DFA63220F98D2211027FFF776
:1043900062F80F98ADF8987026A909F0DEFB0F9926
:1043A000284606F0FDF9632210988221FFF753F8A2
:1043B0001098ADF8987026A909F0CFFB10992846FF
:1043C00006F0EEF9632211983221FFF744F81198B4
:1043D000ADF8987026A909F0C0FB1199284606F09F
:1043E000DFF943221298AA21FFF735F81298ADF8A9
:1043F000987026A909F0B1FB1299284606F0D0F969
:10440000432213985A21FFF726F81398ADF89870B5
:1044100026A909F0A2FB1399284606F0C1F9432208
:1044200014984146FFF717F81498ADF8987026A92C
:1044300009F093FB1499284606F0B2F92322159847
:10444000D221FFF708F81598ADF8987026A909F061
:1044500084FB1599284606F0A3F923221698822199
:10446000FEF7F9FF1698ADF8987026A909F075FBCC
:104470001699284606F094F9232217983221FEF760
:10448000EAFF1798ADF8987026A909F066FB17990E
:10449000284606F085F92322189841460126FEF7A2
:1044A000DAFF1898ADF8986026A909F056FB18991C
:1044B000284606F075F9232219985A21FEF7CBFFFA
:1044C0001998ADF8986026A909F047FB1999284674
:1044D00006F066F923221A98AA21FEF7BCFF1A9863
:1044E000ADF8986026A909F038FB1A99284606F01D
:1044F00057F943221B983221FEF7ADFF1B98ADF808
:10450000986026A909F029FB1B99284606F048F96E
:1045100043221C988221FEF79EFF1C98ADF89860FC
:1045200026A909F01AFB1C99284606F039F94322FE
:104530001D98D221FEF78FFF1D98ADF8986026A92F
:1045400009F00BFB1D99284606F02AF963221E98F4
:104550004146FEF780FF1E98ADF8986026A909F045
:10456000FCFA1E99284606F01BF963221F985A216F
:10457000FEF771FF1F98ADF8986026A909F0EDFAD3
:104580001F99284606F00CF963222098AA21FEF70D
:1045900062FF2098ADF8986026A909F0DEFA20990C
:1045A000284606F0FDF840F2051221986921FEF731
:1045B00052FF15232198ADF8983026A909F0CDFABD
:1045C0002199284606F0ECF8394606983E4F5246A7
:1045D000FEF741FF3D4BC4F8A8364FF0FF33C4F857
:1045E000B83604F5E26303933B68A4F8AC96C4F8CC
:1045F000B496C4F8BC962BB9354B364A6021364880
:1046000020F068FC354B1B88022B03D8344B314A11
:104610006121F4E7334B0221186800F015FA414696
:104620000346314A039810F0C1FB039AC4F8C02630
:10463000069809F0DBF803230698ADF89C3026A90C
:10464000CDF898B009F0F2F80699284606F0A8F8D7
:1046500052460798C921FEF7FEFE244BC4F8F436F3
:104660003B68A4F8F8964FF0FF32C4F80097C4F8FE
:104670000427C4F8089704F2247A002BBCD0174A08
:104680001388002BC2D0174B4946186800F0DCF99C
:10469000154A03464146504610F088FB0798C4F877
:1046A0000CA709F0A3F80798CDF898B026A9ADF8A3
:1046B0009C6009F0BBF82846079906F071F820467F
:1046C00029B0BDE8F08F00BF202F0120F5FDFFFFCE
:1046D000E86B0208EA6C0208656C0208242F0120CE
:1046E000AC6C02082C2F0120356D0208E8FAFFFFA0
:1046F0007047000030B5164D2C6814F001048FB0DF
:10470000BFF35B8F20D128461FF0AAFCE0B13F2306
:104710000993104B0893104B104911480A94012239
:10472000CDE906430423CDE9033212230093CDE9FA
:104730000B44CDE901440594FEF786FF094820F0BB
:10474000E7FB28461FF098FC05480FB030BD00BFBE
:1047500080200020108B0208208B0208448A020867
:1047600084200020F14600087047000030B5164D47
:104770002C6814F001048FB0BFF35B8F21D1284661
:104780001FF06EFCE8B13F230993104B0893104BC8
:10479000104911480A94CDE9064301220423CDE9CA
:1047A00003320E2300930B22CDE90B44CDE90144E3
:1047B0000594FEF749FF094820F0AAFB28461FF0A0
:1047C0005BFC05480FB030BDB0200020148B020800
:1047D000248B0208548A0208B4200020694700088C
:1047E0007047000030B5164D2C6814F001048FB0EE
:1047F000BFF35B8F20D128461FF032FCE0B13F238E
:104800000993104B0893104B104911480A94012248
:10481000CDE906430423CDE9033214230093CDE907
:104820000B44CDE901440594FEF70EFF094820F042
:104830006FFB28461FF020FC05480FB030BD00BFBD
:10484000E0200020188B0208288B0208F08A02085A
:10485000E4200020E14700087047000030B5164D05
:104860002C6814F001048FB0BFF35B8F20D1284671
:104870001FF0F6FBE0B13F230993104B0893104B58
:10488000104911480A940122CDE906430423CDE9D9
:10489000033228230093CDE90B44CDE9014405946C
:1048A000FEF7D2FE094820F033FB28461FF0E4FB58
:1048B00005480FB030BD00BF102100201C8B02083E
:1048C0002C8B0208008B0208142100205948000894
:1048D00000207047002070470EB403B503AB0021E1
:1048E00053F8042B01930DF0DFF902B05DF804EBEF
:1048F00003B070470CB407B504AB53F8042B019315
:104900000DF0D2F903B05DF804EB02B0704700007F
:1049100010B504460EF07AFBE38E04EB4303588493
:10492000636C5BB3238F2BB9174B184AC52118480A
:1049300020F0D0FA10B320460FF08FFC238F012B0C
:1049400003D8144B144ACB21F1E7E28E531C9BB2DF
:10495000092B194688BFA3F10A0104EB410140F677
:104960003F10498C814209D10A2B04EB420228BF37
:10497000002304EB4303508C588451842046BDE847
:1049800010400FF06DBB00BF386D0208416D02088A
:10499000EC6D0208366E0208446E020810B504463B
:1049A0000FF025FB2046BDE810400EF02ABB10B5E5
:1049B00086B002AC84E806001A460AAB0593019360
:1049C000099B00932146089B0BF044FC06B010BDE8
:1049D00038B518BB124B13481C681349B4B1226890
:1049E00022440260626822440A60A26814440F4BA9
:1049F00000221A8000F038F8054600F033F80C4B1E
:104A00001C600C4B1D600C4B188007E00B4B0360C7
:104A10000B4B0B600B4B1C68002CE8D138BD00BF62
:104A20004C2100204421002040210020482100206A
:104A3000202F0120282F0120242F0120588B02082D
:104A4000308B0208648B0208044B1B6853F821006A
:104A5000034B1B6803EB4000704700BF4021002060
:104A6000442100200A207047004870475021002050
:104A700010B5FFF7B7FE064C2060FFF7EFFE606051
:104A8000FFF774FEA060FFF735FEE06010BD00BFC9
:104A90005021002010B5002404600C6014601C60DC
:104AA00010BD704710B54FF4AE7104461FF0D6FA32
:104AB000204610BD10B50446D0F8580100F0FFF8AC
:104AC0002046BDE810400CF0E9B8000010B50446DF
:104AD000FEF7F4F9014B2360204610BD94780208DC
:104AE000704704387047704710B5102104461FF016
:104AF000B5FA204610BDA0F10400F5E7002282605F
:104B0000024A026018324260C1607047E8780208C9
:104B10007047000010B5034B03600446FEF766FCC7
:104B2000204610BD1079020810B50446FFF7F2FFC9
:104B30002046DC211FF092FA204610BD10B5044635
:104B4000FEF7A8FC014B2360204610BD1079020837
:104B5000FEF74DBC704704387047704710B5102100
:104B600004461FF07BFA204610BDA0F10400F5E7D3
:104B700000228260024A026018324260C1607047BF
:104B8000447902087047000010B5034B03600446E7
:104B9000FEF7CAFD204610BD6C79020810B5044628
:104BA000FFF7F2FF20464FF4AE711FF057FA204690
:104BB00010BD000010B50446FEF75AFE014B2360FD
:104BC000204610BD6C790208FEF7AFBD704704386F
:104BD0007047704710B5102104461FF03FFA204679
:104BE00010BDA0F10400F5E700228260024A0260D5
:104BF00018324260C1607047A07902087047000017
:104C000010B5034B03600446FEF729FF204610BD94
:104C1000C879020810B50446FFF7F2FF20464FF4AA
:104C200088711FF01BFA204610BD000010B5044625
:104C3000FEF756FF014B2360204610BDC8790208DD
:104C4000FEF70EBF704704387047704710B510214B
:104C500004461FF003FA204610BDA0F10400F5E75A
:104C600000228260024A026018324260C1607047CE
:104C7000FC7902087047000010B5034B036004463E
:104C8000FEF7D7FF204610BD247A020810B504466F
:104C9000FFF7F2FF2046DC211FF0E0F9204610BDAF
:104CA00010B50446FEF7FAFF014B2360204610BD05
:104CB000247A0208FEF7BEBF0022026070477047E8
:104CC000704704387047704710B5102104461FF034
:104CD000C5F9204610BDA0F10400F5E7002282606E
:104CE000024A026018324260C1607047587A020876
:104CF0007047000010B5034B03600446FFF772F8DD
:104D0000204610BD807A020810B50446FFF7F2FF76
:104D1000204640F6B8011FF0A1F9204610BD90F8DA
:104D200078387BB1D0F88038D0F884281344002B31
:104D3000C0F88038A0F80E33BEBF002380F82D33B2
:104D400080F87838704710B588680C68136820447C
:104D5000984210DB906803449C420CDC4868C968A8
:104D600053680144994206DBD26813449842CCBF91
:104D70000020012010BD0020FCE7D0F89C38002B5B
:104D8000D4BF00220122012B80F8E920D4BF0022E9
:104D90000122022BD4BF0023012380F8152180F8C3
:104DA00041317047022910B41FD8421892F8A03838
:104DB000DBB100EB8104D4F89038013B002BC4F840
:104DC000903808DC0023012982F8A03807D0022996
:104DD00008D080F8C5315DF8044BFFF7CEBF80F8EE
:104DE0009931F8E780F86D31F5E75DF8044B7047CD
:104DF000B0F95436F0B5B0F9505603EBD37305EB68
:104E0000630500F63F0700F5ED6300216FF00046F3
:104E10004FF0FF3017F8012F7AB11A68B2F9082065
:104E200002EBD2749A6C02EB6402521B002AB8BFE8
:104E30005242B242BCBF164608460131122903F164
:104E40000403E7D1F0BDD0F88838002BC8BF03F1C8
:104E5000FF3310B5C8BFC0F8883890F8A3380446AF
:104E60002BB390F8783813BBD0F88838002B1EDCB1
:104E7000FFF7BEFF01301AD0B4F95436B4F950161A
:104E8000B4F95226C4F8802803EBD37301EB630115
:104E9000C4F87C1804F5427009B2FEF7DCFA01236D
:104EA00084F82D3384F878380323C4F8883810BD8B
:104EB00082B00A4BC0F8A43800230193084B5A6B08
:104EC00042F040025A635B6B03F040030193019B85
:104ED00000F6A40002B002F045BB00BF0008065077
:104EE0000038024010B50446FEF7C2FF1F4B236096
:104EF0000223C4F8543800230A2184F85C38C4F82B
:104F0000603884F86438C4F86838C4F86C38C4F879
:104F1000743884F87838A4F8B438C4F87C38C4F805
:104F20008038C4F88838C4F88C3806230122C4F8C5
:104F30005818C4F87018C4F890386FF00901C4F814
:104F40009438C4F89838C4F89C384FF001332046A0
:104F500084F8522884F8B628C4F88418C4F8A03815
:104F600084F8A428FFF7A4FF204610BD807A020829
:104F700007B5002301A900F6A400019302F00AFB83
:104F8000019803B05DF804FB10B5002392B000F661
:104F90003F021C4612F8011F29B112A901EB84013E
:104FA000013441F8483C0133122BF3D164B1FFF7CF
:104FB000DFFFB0FBF4F303FB140012AB03EB800044
:104FC00050F8480C12B010BD4FF0FF30FAE7D0F89F
:104FD0007438002BC8BF03F1FF3310B5C8BFC0F849
:104FE000743890F86438044653BBD0F87438002BFA
:104FF00026DCFFF7C9FF431C22D004EB8000D0F869
:105000006827D0F8B017B2F90830B2F90A2003EBDC
:10501000D37301EB6301C4F86818D0F8F8371A4469
:10502000C4F86C2809B212B204F53770FEF713FA0F
:10503000012384F8013384F864380523C4F87438F4
:1050400010BD08B5002380F8013380F82D3380F8B7
:10505000643880F878380BF077FDBDE80840FDF73C
:10506000B1BF90F8A33810B50446D3B1D0F89C383E
:10507000013B002BC0F89C380EDC90F87828002308
:1050800080F8A33880F871361AB180F82D3380F893
:1050900078382046FFF7D5FF2046BDE81040FFF7DF
:1050A0006CBE10BDF0B590F864388DB00446002B8E
:1050B0003BD0D0F868380493D0F86C380593B0F939
:1050C000E4320693B0F9E632079300F5D07301930A
:1050D00000F5BA73029300F5A473039300F69F06DC
:1050E000002501AF16F8013F0BB357F8253093F8B0
:1050F0002520E2B1B3F904200892B3F90620099201
:10510000B3F908200A92B3F90A300B9308AA04A94C
:105110002046FFF718FE50B129462046FFF742FE11
:10512000002384F8013384F864380DB0F0BD0135F4
:10513000032DD7D194F8A338002BF6D094F871360C
:10514000002BF2D0B4F950360893B4F952360993D3
:10515000B4F954360A9308AAB4F956360B9304A945
:105160002046FFF7F0FD0028DFD02046FFF779FF4B
:10517000002384F8013384F86438D6E713B5044675
:105180001448002300681A460DF1070103F09BFB49
:1051900050B994F8A3383BB19DF80730B4F95026C4
:1051A000012B03D0022B0FD002B010BDA2F10A03D5
:1051B00023EAE3739342F7D0A4F85036C4F88C384E
:1051C000201D0CF078FEEFE702F10A03D22BA8BFF6
:1051D000D223EFE7FC1D00202DE9F74F04460027FE
:1051E000FEF701FE04F5E8605C4AC4F838773B46F8
:1051F0000A21C4F83C77C4F8C0060FF0D7FD04F5C7
:10520000CF600CF058FE04F25470D4F83C37534A87
:10521000C4F80C070A210FF0C9FD04F2C4600CF0B9
:105220004AFE04F29443C4F8683704F59863C4F85E
:105230006C3704F58D63C4F8703704F2EC43C4F89E
:10524000743704F23C43C4F8783704F5A363C4F818
:105250007C3704F58263C4F8803704F24453C4F801
:10526000843704F57973C4F8883704F5AE63C4F85D
:105270008C3704F56E73C4F8903704F29C53C4F86D
:10528000943704F56373C4F8983704F5B963C4F828
:105290009C3704F55873C4F8A03704F2F453C4F8EB
:1052A000A43704F54D73C4F8A83704F5C463C4F8F3
:1052B000AC3704F2647A4FF0140904F63F034FF060
:1052C00001080FFA89F203EB070B56461425F56423
:1052D000C6F8949056F8040F019329B20092233532
:1052E000FEF7B9F83168E62D81F82580DDE9002365
:1052F0000BF8018FEBD10637122F0AF1180A09F1CA
:105300002809DED1002384F8013384F8643884F856
:105310002D3384F87838B4F95036C4F88C38032328
:10532000C4F89038C4F89438C4F89838C4F89C3855
:105330004FF001332046C4F8A03884F8C58184F8C2
:10534000998184F86D8184F87186FFF716FD201D20
:1053500003B0BDE8F04F0CF0AEBD00BF166F020801
:10536000D0F83837114A0B4410B50A210446C0F86A
:10537000383700F5E8600FF019FD04F5CF600CF048
:105380009AFDD4F83837D4F83C2793420DDDC4F8A1
:105390003C3704F25470054A0A210FF007FD04F26D
:1053A000C460BDE810400CF086BD10BD166F020849
:1053B00090F864289AB1D0F86C28D0F870180A4494
:1053C000B2F5A07FC0F86C28A0F8E22207DD002229
:1053D00080F8012380F864280121FFF7C1BF7047DE
:1053E000112910B411D8441894F840286AB101F575
:1053F000ED71002250F8213084F8402801215DF839
:10540000044B83F82520FFF7ABBF5DF8044B7047D2
:10541000F0B590F878388DB004468BB3D0F87C386E
:105420000493D0F880380593B0F910330693B0F99F
:105430001233079300F63F0700F5ED65002617F8D5
:10544000013FFBB12B6893F82520DAB1AA6C0892D2
:10545000D5F890200992B3F908200A92B3F90A30DE
:105460000B9308AA04A92046FFF76DFC50B1314602
:105470002046FFF7B5FF002384F82D3384F87838F1
:105480000DB0F0BD0136122E05F10405D7D104F59B
:10549000D073019304F5BA73029304F5A4730393D4
:1054A00004F69F06002501AF16F8013F03B357F835
:1054B000253093F82520DAB1B3F904200892B3F926
:1054C00006200992B3F908200A92B3F90A300B9327
:1054D00008AA04A92046FFF736FC48B12946204611
:1054E000FFF760FC002384F82D3384F87838C7E791
:1054F0000135032DD8D1C3E72DE9F84FB0F8B43802
:1055000001339BB20322B3FBF2F202EB4202A0F89A
:10551000B4389B1A9BB204460BB1FFF72FFEB4F8C8
:10552000B4380F22B3FBF2F2C2EB02129B1A9BB209
:10553000002B40F0918094F85C8804F63F06B8F1A7
:10554000000F36D0D4F860380133C4F8603804F561
:10555000ED6104F65105324612F8010F30B10F68C3
:1055600097F8250080F0010087F82500AA4201F194
:105570000401F1D1042B17DD04F26472002306F854
:10558000013F52F8041FAE4281F82530F7D184F86C
:105590005C3884F8013384F8643884F82D3384F857
:1055A00078382046FFF74DFD201DBDE8F84F0CF080
:1055B00082BC374604F5F66504F5FF6BB2461AF86F
:1055C000019FB9F1000F18D094F852282968D4F837
:1055D000543802B95B4255F8480C194403682960F5
:1055E0001B6B09B298472A68002A07DD55F8483C2A
:1055F000B3F908301344EF2B00DCC14604355D4598
:105600002CD104F65108B9F1000F29D12046FFF73B
:10561000DEFC2046FFF717FC2046FFF7C9FE2046B8
:10562000FFF77DFBFFF73EFD2046FFF7F1FE04F597
:10563000ED6317F8012F62B31A68D3F89010B2F92E
:105640000A200A44B4F9B6128A4222DB012384F804
:105650005C380023C4F86038BDE8F88FC846AEE770
:1056600094F8523883F0010384F8523816F8013F59
:1056700053B1D4F85838296855F8900C1944036888
:1056800029605B6B09B29847464505F10405EDD1E9
:10569000BCE7474503F10403CBD185E7F020704711
:1056A0004FF4A07070472920FCF76ABB2820FCF754
:1056B00067BB08B5FCF738FBCA20FCF761FBC320C9
:1056C000FCF742FB0820FCF73FFB5020FCF73CFBBB
:1056D000CF20FCF755FB0020FCF736FBC120FCF780
:1056E00033FB3020FCF730FBED20FCF749FB642056
:1056F000FCF72AFB0320FCF727FB1220FCF724FB16
:105700008120FCF721FBE820FCF73AFB8520FCF721
:105710001BFB0020FCF718FB7820FCF715FBCB20C7
:10572000FCF72EFB3920FCF70FFB2C20FCF70CFBC1
:105730000020FCF709FB3420FCF706FB0220FCF7F5
:1057400003FBF720FCF71CFB2020FCF7FDFAEA2006
:10575000FCF716FB0020FCF7F7FA0020FCF7F4FA40
:10576000B120FCF70DFB0020FCF7EEFA1B20FCF744
:10577000EBFAB620FCF704FB0A20FCF7E5FAA220BE
:10578000FCF7E2FAC020FCF7FBFA1020FCF7DCFA89
:10579000C120FCF7F5FA1020FCF7D6FAC520FCF77B
:1057A000EFFA4520FCF7D0FA1520FCF7CDFAC72018
:1057B000FCF7E6FA9020FCF7C7FA3620FCF7E0FA8F
:1057C000C820FCF7C1FAF220FCF7DAFA0020FCF757
:1057D000BBFAB020FCF7D4FAC220FCF7B5FAB62029
:1057E000FCF7CEFA0A20FCF7AFFAA720FCF7ACFAD8
:1057F0002720FCF7A9FA0420FCF7A6FA2A20FCF7D8
:10580000BFFA0020FCF7A0FA0020FCF79DFA002068
:10581000FCF79AFAEF20FCF797FA2B20FCF7B0FA86
:105820000020FCF791FA0020FCF78EFA0120FCF72B
:105830008BFA3F20FCF788FAF620FCF7A1FA01204A
:10584000FCF782FA0020FCF77FFA0620FCF77CFACE
:105850002C20FCF795FAC820FCF7E0FA2620FCF78C
:105860008FFA0120FCF770FAE020FCF789FA0F208C
:10587000FCF76AFA2920FCF767FA2420FCF764FA9F
:105880000C20FCF761FA0E20FCF75EFA0920FCF709
:105890005BFA4E20FCF758FA7820FCF755FA3C20CA
:1058A000FCF752FA0920FCF74FFA1320FCF74CFAE8
:1058B0000520FCF749FA1720FCF746FA1120FCF7FF
:1058C00043FA0020FCF740FAE120FCF759FA0020E7
:1058D000FCF73AFA1620FCF737FA1B20FCF734FAEB
:1058E0000420FCF731FA1120FCF72EFA0720FCF710
:1058F0002BFA3120FCF728FA3320FCF725FA422056
:10590000FCF722FA0520FCF71FFA0C20FCF71CFA22
:105910000A20FCF719FA2820FCF716FA2F20FCF7CA
:1059200013FA0F20FCF710FA1120FCF729FAC8200F
:10593000FCF774FA2920FCF723FABDE808402C2074
:10594000FCF71EBA08B5FCF7EFF90321D320FCF7EA
:1059500033FA80B208BD10B5C4B20222032120463A
:10596000FCF798F90A20FCF7DDF920460022032114
:10597000FCF790F9BDE810400220FCF7D3B938B528
:105980000446E4B2FCF784F900212046FCF79AF9BA
:10599000012105462046FCF795F940EA052080B232
:1059A00038BD10B5C4B240212046FCF78BF9030680
:1059B00007D54C212046FCF785F9003818BF012097
:1059C00010BD01224B212046FCF764F9204600223D
:1059D0004B21FCF75FF90020F2E773B50423C4B252
:1059E0000E461546D7210DEB03022046FCF784F93D
:1059F000019B1BBA1A0DC3F30B23328020462B8068
:105A000001224B21FCF746F900224B212046FCF7EE
:105A100041F902B070BD000010B50A4A13789842EF
:105A200004460DD0517888420AD00BB141B9012308
:105A3000D454FCF72DF92046BDE81040FFF78BBF8A
:105A400010BD00BF6021002010B5C4B2092120465E
:105A5000FCF738F940F00102D2B220460921BDE836
:105A60001040FCF717B910B5C4B209212046FCF765
:105A700029F9092100F0FE022046BDE81040FCF79C
:105A800009B938B5C4B20D4620460A21FCF71AF907
:105A900040EA0502D2B220460A21BDE83840FCF7B0
:105AA000F9B810B50446FCF7F4F820461F21FFF7BB
:105AB000E8FF2046BDE81040FFF7C6BF38B5C4B2C6
:105AC0000D4620460A21FCF7FDF820EA0502D2B275
:105AD00020460A21BDE83840FCF7DCB810B5044682
