:020000040800F2
:10000000000003205D060008F5230008F723000820
:10001000F9230008FB230008FD230008000000006E
:1000200000000000000000000000000051870008F0
:10003000FF23000800000000E18700086D80000831
:10004000AD060008AD060008AD060008AD060008C4
:10005000AD060008AD060008AD060008AD060008B4
:10006000AD060008AD060008AD060008AD060008A4
:10007000AD060008AD060008AD060008AD06000894
:10008000AD060008AD060008AD060008AD06000884
:10009000AD060008AD060008AD060008AD06000874
:1000A000AD060008AD060008AD060008AD06000864
:1000B000AD060008AD060008AD060008AD06000854
:1000C000AD060008AD060008AD060008AD06000844
:1000D000AD060008AD060008AD060008AD06000834
:1000E000AD060008AD060008AD060008AD06000824
:1000F000AD060008AD060008AD060008AD06000814
:10010000AD060008AD060008AD060008AD06000803
:10011000AD060008AD06000801240008AD06000881
:10012000AD060008AD060008AD060008AD060008E3
:10013000AD060008AD060008AD060008AD060008D3
:10014000AD060008AD060008AD060008AD060008C3
:10015000AD060008AD060008AD060008AD060008B3
:10016000AD060008AD060008AD060008AD060008A3
:10017000AD060008AD060008AD060008000000004E
:10018000AD060008AD060008AD060008AD06000883
:10019000AD060008AD060008AD060008AD06000873
:0C01A0000D240008AD060008192400081A
:1001B00010B5054C237833B9044B13B10448AFF3A1
:1001C00000800123237010BD800300200000000088
:1001D0007442020808B5034B1BB103490348AFF34F
:1001E000008008BD00000000840300207442020863
:1001F00001F0FF01102A2BDB10F0070F08D010F8D8
:10020000013B013A8B422DD010F0070F42B3F6D1DB
:10021000F0B441EA012141EA014122F007047FF0F4
:1002200000070023F0E80256083C85EA010586EA4B
:10023000010685FA47F5A3FA87F586FA47F6A5FA87
:1002400087F68EB9EED1F0BC01F0FF0102F0070293
:1002500032B110F8013B013A83EA010313B1F8D13E
:100260000020704701387047002D06BF354603381F
:10027000073815F0010F07D1013015F4807F02BF58
:10028000013015F4C03F0130F0BC0138704700BFA9
:100290007BB972B90029BEBF00204FF0004106E0D3
:1002A00008BF00281CBF6FF000414FF0FF3000F086
:1002B000D3B9ADF1080C6DE904CE002909DB002BA0
:1002C0001ADB00F04DF8DDF804E0DDE9022304B0AC
:1002D0007047404261EB4101002B1BDB00F040F80E
:1002E000DDF804E0DDE9022304B0404261EB4101A6
:1002F000524263EB43037047524263EB430300F007
:100300002FF8DDF804E0DDE9022304B0404261EBA0
:1003100041017047524263EB430300F021F8DDF8DE
:1003200004E0DDE9022304B0524263EB430370476B
:1003300053B94AB9002908BF00281CBF4FF0FF314C
:100340004FF0FF3000F088B9ADF1080C6DE904CE34
:1003500000F006F8DDF804E0DDE9022304B07047A0
:100360002DE9F047089D8E4604468846002B4AD169
:100370008A42174662D9B2FA82F64EB1C6F120031C
:1003800001FA06F820FA03F3B74043EA0808B4403C
:100390004FEA174E1FFA87FCB8FBFEF1230C0EFB49
:1003A000118843EA084301FB0CF29A4209D9FB1871
:1003B00001F1FF3080F0EA809A4240F2E780023992
:1003C0003B449A1AA3B2B2FBFEF00EFB102243EAA2
:1003D000024300FB0CFC9C4509D9FB1800F1FF32DD
:1003E00080F0D6809C4540F2D3803B44023840EAFE
:1003F0000140A3EB0C0300211DB1F3400022C5E92D
:100400000032BDE8F0878B4205D90DB1C5E9000186
:1004100000210846F5E7B3FA83F1002946D1734578
:1004200002D3824200F20581841A6EEB030201209E
:100430009046002DE5D0C5E90048E2E7002A00F02B
:100440009080B2FA82F6002E40F0A4808A1A030C43
:100450004FEA174E80B2BCB20121B2FBFEFC0EFB8C
:100460001C2243EA024304FB0CF29A4207D9FB1810
:100470000CF1FF3802D29A4200F2E080C4469B1A87
:10048000B3FBFEF20EFB123340EA034302FB04F41B
:100490009C4207D9FB1802F1FF3002D29C4200F2C5
:1004A000CA8002461B1B42EA0C40A5E7C1F12006A8
:1004B0008B4022FA06F71F430EFA01F420FA06F3E6
:1004C0002EFA06FE4FEA1749234300FA01F81FFAF5
:1004D00087FCBEFBF9F01C0C09FB10EE44EA0E444D
:1004E00000FB0CFEA64502FA01F209D93C1900F105
:1004F000FF3A80F09C80A64540F2998002383C4447
:10050000A4EB0E041FFA83FEB4FBF9F309FB1344BA
:100510004EEA044403FB0CFCA44508D93C1903F142
:10052000FF3E80F08280A4457FD9023B3C4443EAF1
:100530000040A4EB0C04A0FB02EC64457346E146CA
:1005400062D35FD05DB1B8EB030264EB090404FA37
:1005500006F622FA01F31E43CC40C5E900640021EF
:100560004FE7B1FBF2FC010C41EA0E4180B240EAD8
:1005700001423B4638463C46B846BE462026B1FBC3
:10058000F7F1A2EB080241EA0C4166E7014618E7E1
:1005900010462CE7C6F120022EFA02F3B740B14014
:1005A00020FA02F24FEA174E0A43B3FBFEF8BCB240
:1005B0000EFB1833110C41EA034108FB04F9B0406B
:1005C00089454FEA104380B23ED9791808F1FF3CC3
:1005D00001D289451FD8A1EB0901B1FBFEF909FB46
:1005E00004F80EFB191192B242EA0142424529D2A7
:1005F000BA1809F1FF31C4D24245C2D2A9F10201B1
:100600003A44BEE7F0459DD2BEEB02036CEB070C0B
:100610000138E14696E7A7EB09094944A8F1020C25
:10062000B1FBFEF909FB04F8DBE773467FE75046B0
:1006300066E70846FDE63B44023A33E7ACF1020CBC
:100640003B441CE749469CE7A1EB0901C446B1FBCA
:10065000FEF909FB04F8C4E7704700BFDFF834D0A7
:10066000002103E00C4B5B58435004310B480C4B0A
:1006700042189A42F6D30B4A02E0002342F8043BA8
:10068000094B9A42F9D305F011F823F085F801F0EF
:1006900091F8704700000320046413080000002054
:1006A0006401002080030020D03B0120FEE770475A
:1006B00008B500F0B9FDBDE8084000F03DBD00F010
:1006C000B5BD704710B50421044621F079FE2046DF
:1006D00010BD000038B50C4B0C4C18800C4B822020
:1006E00019806368984740F6110398420AD1094D72
:1006F00023682C60822098472B688220DB6898470B
:10070000002038BD0120FCE7A60300204C0000209B
:10071000A4030020A80300204FF4A071F020FFF7ED
:10072000D9BF0000F7B5394D2B6804461B698220FC
:100730009847208000284ED02B680DF106025B6997
:1007400001A982209847324B1B78002B4BD0BDF873
:10075000062040F674639A423FD9ADF80630BDF8E2
:1007600006209B1A9BB20A2B42D90B22B3FBF2F351
:10077000284A1288934201D9013A93B2BDF8042065
:10078000254840F6B8318A4234D8C2F571620E323B
:10079000016892B20F25B2FBF5F2204D2D88AA42D6
:1007A00084BF05F1FF35AAB28A4215468EB22AD916
:1007B000921B91B21A4E3768BB42BAB28CBF9A1ADA
:1007C000D21A92B211440529C4BF05603360036890
:1007D00063803368A38003B0F0BDB32A9CBFB4220A
:1007E000ADF80620BBE7BDF80630A3F5B473B9E752
:1007F0000023C3E7C2F56D62083292B20E2A016887
:10080000C8D800252A46891A89B2D3E7A803002050
:10081000C01D0020A4030020A0030020A603002088
:100820009C03002037B568460D461446FFF77AFF53
:10083000BDF8000030B1BDF802302B60BDF80430C7
:100840002360012003B030BD032821D8DFE800F089
:10085000020B12190F4B1A68B2FA82F252090421E4
:100860000D4805F0B7B90B4B5A68B2FA82F252093B
:100870000821F5E7074B9A68B2FA82F25209102173
:10088000EEE7044BDA68B2FA82F252092021E7E778
:10089000704700BFAC03002000100240032821D89D
:1008A000DFE800F0020B12190F4B1A68003A18BF6C
:1008B000012204210D4805F08DB90B4B5A68003A0E
:1008C00018BF01220821F5E7074B9A68003A18BFC4
:1008D00001221021EEE7044BDA68003A18BF01222A
:1008E0002021E7E7704700BFAC0300200010024062
:1008F00003280DD8DFE800F00206080A04210548A5
:1009000005F06DB90821FAE71021F8E72021F6E794
:10091000704700BF0010024008B5032811D8DFE877
:1009200000F0020A0C0E0421074805F04DF9431EA1
:100930005842584108BD0821F6E71021F4E720216C
:10094000F2E70020F3E700BF0010024070B5084D49
:1009500000240126E0B2FFF7DFFF18B12B68012B5E
:1009600018BF2E600134052C05F10405F2D170BDCD
:10097000AC030020012380F8781080F879307047AC
:100980007047002070470000034B4164003918BFD6
:1009900001211970704700BF8F2E01207047002081
:1009A0007047836B0BB10846184770474FF6FF70CE
:1009B0007047406803689B691847704770477047E5
:1009C0007047704710B5044600F046FD23680349A0
:1009D000D3F890302046BDE810401847000000D002
:1009E00008B503680446D3F8843098472368204646
:1009F000DB6F984700F0ECF8236820465B6F984760
:100A0000292001F0BDF900F0E3F8236820465B6F70
:100A10009847F8E710B504460AF092FC2368204690
:100A2000D3F8BC30BDE81040184700F0F9BC00F026
:100A3000FDBC00F02FBD00F0CFBC00F03FBD00F0CA
:100A400047BD00F0D3BC09F0A9BE10B5842104460F
:100A500021F0B6FC204610BD10B590F8341090F887
:100A600078400C4B8C421A7809D03AB90A4A0B49A3
:100A70001488088810800C8001221A7010BD002A8A
:100A8000FCD0054A05491488088810800C80002293
:100A9000F3E700BF882E0120842E0120862E01203E
:100AA00070B50D46194635B9094B0A4A0A4840F255
:100AB000FF2122F0C1FBC0E90F52084B003A18BFDA
:100AC00001221A700368BDE87040D3F890301847CF
:100AD000E44202081C4302086A4302088E2E0120E9
:100AE00008B5094B1B888B4203D8084B1B889342DF
:100AF00005D9074B074A0848A32122F09DFB074B65
:100B00001980074B1A8008BD842E0120862E0120F3
:100B1000AF430208124402086A4302088A2E0120E9
:100B20008C2E0120034690F87A0018B158680368AB
:100B30001B68184770470000012108B500220846CD
:100B400007F01EFB0A4B186028B90A4B0A4A2821F5
:100B50000A4822F071FB00220421012007F0AFFBBC
:100B6000074B186018B9074B034A2C21F0E708BD62
:100B7000C0030020554402089E440208CD440208E8
:100B8000BC03002030450208024B4FF0FF311868CB
:100B900007F040BBC0030020014B186807F066BB9C
:100BA000C0030020024B0021186807F033BB00BFD0
:100BB000C0030020FFF7F0BF03480449006800238A
:100BC0001A4607F0B7BB00BFBC030020040000209A
:100BD00013B5084C00231A4601A9206807F0DBFB77
:100BE00020684FF0FF33002201A907F0D4FB02B0C8
:100BF00010BD00BFBC03002003685B6C18470120D8
:100C0000704703689B6A1847FEE740F2EF30704771
:100C1000054B0360054B4FF08062C3F88820BFF39B
:100C20004F8FBFF36F8F7047D052020800E100E092
:100C300010B504464FF45A61FFF7EAFF204621F051
:100C4000BFFB204610BD000082B0002301930E4B75
:100C50001A6B42F400021A631A6B02F4000201924A
:100C6000019A1A6942F400021A611A6922F4000218
:100C70001A61064B064A1A61064A5A61064B4FF042
:100C800080629A6002B0704700380240B01F0020B6
:100C9000E90E0008090C000800E100E008B50A2888
:100CA00009D8DFE800F006100E0808080810101038
:100CB0001000022008BD054B054A0648902122F08D
:100CC000BBFA0020F6E70120F4E700BF72450208F6
:100CD0008D450208D845020838B50C46887FFFF7D5
:100CE000DDFFA58AE28A164B2169586342EA054274
:100CF0005A64628BD963521B1A642568082D0ED181
:100D00009A611A615862207F0E4A42EA0062DA61F3
:100D1000E2681A620C4A5961D9601A6038BD002233
:100D2000D8611A61E1680A0A480902F4784200F4BD
:100D3000FC600243C1F3C4010A439A63034AECE72F
:100D400000B002400900010001230200012303005A
:100D500008B50B280BD8DFE800F00612100A0A0AC3
:100D60000A0808080808022008BD0520FCE7054B12
:100D7000054A06486F2122F05FFA0020F4E70120BF
:100D8000F2E700BF7245020839460208D84502085A
:100D90002DE9F04191F81D800C464046FFF7D8FF41
:100DA000A77F05463846FFF7D3FF06463846FFF7CC
:100DB00075FFA18A628B444B521A1A649A61228B86
:100DC000521A1A61E28A586342EA01425A6421695E
:100DD0006268D963DA602068802828D0227F0FD823
:100DE000202867D0402865D004281AD0364B45EA21
:100DF000026545F40035B845DD6161D0334A44E011
:100E0000B0F5807F04D0B0F5007FEFD1304800E02E
:100E1000304840EA0262DA61E2681A625E62596151
:100E200032E045EA026242F40032DA61F6E7A06895
:100E3000021DDA62227F45EA026545F40035DD6174
:100E40005E625961017841B1012921D0224B234AC8
:100E500023484FF48D7122F0EFF9DA69418822F4CA
:100E60007F42013922F0100242EA0122DA610121B7
:100E7000154BDA6942F02002DA61DA699206FCD495
:100E800010229A600029B9D0164A1A60BDE8F08194
:100E9000B2F1FF01DA69408822F47F4200F1FF30AD
:100EA00022F0100242EA002242F0100218BF012193
:100EB000DA61DDE745EA0262034B42F40032B4E74F
:100EC00042F20132E1E700BF00B00240012301001D
:100ED000090002000A000200834602089D4602083B
:100EE000D845020801230200024B1B6858680368BA
:100EF0005B691847902E012070B5044625460A4BC1
:100F00000C30002660602672667245F8203B602235
:100F100029460AF06BFB04F55A63EE6024359D42C6
:100F2000FBD1204670BD00BFD0520208034B1A68A7
:100F3000D207FCD423229A60704700BF00B0024061
:100F40007047000030B50F4C2568ED07FCD4232511
:100F50000904A56041F001010225FF2B656361646E
:100F6000E0630AD00849656241EA0363E361074B25
:100F700022626061E060236030BDE561039BA36392
:100F8000034BF8E700B00240090001000100020035
:100F90000100030030B50E4C2568ED07FCD4232575
:100FA0001204A56042F001020225FF2B6563626412
:100FB000E063E16008D01B0643F00213E361054BD8
:100FC00065626061236030BD034BE3610123F9E793
:100FD00000B0024001000200020002FF30B50B4CDD
:100FE0002568ED07FCD4232512041B06A56043F4F5
:100FF0000033022542F0010265636264E063E16050
:10100000E361034B65626061236030BD00B0024064
:1010100001000200012070474020704700EB811062
:101020000830704700EB811008307047012070478E
:101030004FF4086070474FF4086303FB0100083069
:1010400070474FF4086303FB01000830704701202C
:1010500070471020704700EB01100830704700EB1C
:10106000011008307047084601F05ABF10B5034B15
:101070000360044609F0E7F8204610BD88530208D3
:1010800010B50446FFF7F2FF2046482121F098F9F9
:10109000204610BD10B5034B0360044609F0D3F899
:1010A000204610BD5453020810B50446FFF7F2FF66
:1010B000204640F6880121F083F9204610BD00004B
:1010C00010B5034B0360044609F0BDF8204610BD7F
:1010D0002053020810B50446FFF7F2FF20461821FE
:1010E00021F06EF9204610BD10B5084B0360044690
:1010F00000F6B400FFF7BAFF04F12C00FFF7CAFFB7
:1011000004F11400FFF7DCFF204610BDBC530208B9
:1011100008B50248FFF7E8FF08BD00BF9C12002099
:1011200010B50446FFF7E0FF204640F65C2121F0B1
:1011300047F9204610BD00002DE9F34101F0E6F922
:10114000054601F0E7F900240146234628462246D9
:10115000009412F083F8274B274A1A60204603F0C8
:1011600057FA264D264B274A27489A6011F0DEFF92
:101170002B68BFF35B8FDB0735D4284621F022F9BB
:1011800088B3224C224B236004F5106604F114004E
:1011900004F12C0804F6B4076060C4F80880E76026
:1011A000266109F051F81B4B6361404609F04CF889
:1011B000194BE362384609F047F8184BC4F8B438C5
:1011C00004F6FC0003F05EFB224604F6FC01304608
:1011D00003F09CFA304601F0A3FE114822F04AF8D1
:1011E000284621F0FBF80F4802B0BDE8F041FFF7B8
:1011F000E9BB00BFF42E0120480400209812002013
:10120000680400204C040020080000209C120020EC
:10121000BC530208205302085453020888530208A2
:1012200011110008C4030020704700000148FFF7B7
:10123000D7BB00BFC403002070B5264E264C274DF7
:10124000274B23603046FFF757FE284617F00CF96E
:10125000244810F075F8244B2448DC6000224FF439
:101260008071C3E9121222491A86C3E91A12214970
:1012700083F85820C3E91E011F49C3F880101F4995
:101280001F480B60F021C3E90422C3E90622C3E929
:101290000822C3E90A22C3E90E22C3E91022C3E9E6
:1012A0001422C3E917225A6683F870205A67C3E9EB
:1012B000016501801348018013484FF4A07101803B
:1012C0001248018012490A70012283F83420114A21
:1012D0001A6070BDF40400209412002068040020FD
:1012E000D44202084C040020C40300200000010185
:1012F00001000001000450001A001400902E01208B
:10130000842E01208A2E0120862E01208C2E012081
:10131000882E0120E45102080148FFF779BC00BF84
:10132000F40400200020704781807047C18070471E
:10133000018170474181704770477047704770471F
:10134000704710B4C4880368121B84885B6D091B46
:1013500012B25DF8044B09B218474FF6FF73838150
:101360004FF0FF3303621368C361106070470020C1
:1013700070478B88838001207047704780F8261063
:10138000704790F82600704710B50022B1F9084068
:10139000B1F90A10028042808480C18010BD002211
:1013A000028042808280C28070470177704780ED62
:1013B000080A704780F82410704780F8251070479D
:1013C00001207047983070478C30704784307047E8
:1013D0007047704770470000034B902283F85A23F0
:1013E00083F85823704700BF00E100E0094A0A492A
:1013F000D3680A48C3F30A03013B9BB20B8011690F
:10140000C1F30A01013901801364536B43F00103F6
:101410005363704700680140FA1C0020F81C00204C
:10142000014BD3F8AC00704700680140024B012229
:10143000C3F8AC105A6270470068014010B52C2107
:10144000044620F0BDFF204610BD10B5BC21044667
:1014500020F0B6FF204610BD70B5044609F0F3F940
:1014600023689D6E0EF0DCFC01462046A8472368E9
:10147000054AD3F88C502046AC460023BDE87040A6
:10148000A2F51631604700BF00B004D009F0C2B920
:1014900009F0CCB909F088B909F0F7BA90F825201D
:1014A00012B103685B691847704790F825201AB19C
:1014B00090F8242002B1186070470000034B4FF0F1
:1014C00080629A604FF080729A60704700E100E09D
:1014D000084B4FF08062C3F88820BFF34F8FBFF3F3
:1014E0006F8F4FF08072C3F88820BFF34F8FBFF328
:1014F0006F8F704700E100E070B50023124E8380CB
:10150000124B0360336893F8582005460AB1D86C33
:1015100000B998680368DB6A98473368B0FA80F4CA
:10152000D86C640930B10368DB6A9847002808BFAB
:1015300044F001042CB9064B064A07482C2121F03F
:101540007BFE284670BD00BF902E0120D0530208BC
:10155000DB460208394702087247020870B5254E7B
:101560003568BFF35B8F15F0010540D1304620F0A0
:1015700029FF00283BD0204C204B256104F134008A
:10158000C4E90035C4E90255E584A562A58510F0DB
:10159000BCF904F158000BF0DFFC194BA3652046A1
:1015A000184B40F8843BFFF7A7FF174BC4F8843073
:1015B0002433C4F88C304FF4C803C4E92835002321
:1015C000C4F8AC30C4F8B030C4F8B430C4F8B830A3
:1015D0000E480F4BC4F89050C4F89C50C4F8A85063
:1015E000C4F8983021F046FE304620F0F7FE02485D
:1015F00070BD00BFFC1C0020001D0020CC5D020857
:10160000F053020868540208805D0208D5130008F0
:10161000605D020838B5184C23685BB3174B184A55
:101620001B6C11888B4216D1164B198805F0DAF81D
:10163000236893F86A200025013283F86A2083F832
:101640007C50FFF7B9FA206809F07AFE2846BDE819
:101650003840FFF7F9B805F0C5F82468236820463C
:101660001B6A9847012384F87C300020BDE838408D
:10167000FFF714B938BD00BF902E0120006801406B
:10168000FA1C0020F81C002007B5064BADF8060038
:101690001B68054801220DF1060105F08FFE03B01D
:1016A0005DF804FB0C0000204C1E002007B5184D0F
:1016B000184E1748042104F087FA044670B9012334
:1016C0004FF4005128468DF8073004F088FA30684E
:1016D0000A2322460DF1070106F02CFE0C480821D2
:1016E00004F072FA044670B902234FF40051284600
:1016F0008DF8073004F073FA30680A2322460DF1A2
:10170000070106F017FEB42006F02EFDD1E700BF5A
:1017100000180240C41D002030B595B010220021F1
:101720000AA821F090FF1422002103A821F08BFFCA
:1017300000241E4B01941A6C42F080521A641B6CF8
:1017400003F080530193019B194B02941A6842F4F1
:1017500040421A601B6803F4404302930122029B3B
:101760004FF48033CDE9082302254FF4800308218C
:10177000CDE90E534FF4B473CDE9101308A8042338
:101780001393129505F086F805F04AF80F23CDE97A
:1017900003354FF4A0504FF48053CDE906030521E3
:1017A00003A8059405F052FA15B030BD0038024088
:1017B000007000402DE980489DB003F085FFFFF7E1
:1017C000ABFF142200210FA821F03DFF0024C84BDD
:1017D00000941A6BC748C84DDFF8548342F01002DA
:1017E0001A631A6B02F010020092009A01941A6BAD
:1017F00042F020021A631A6B02F020020192019A51
:1018000002941A6B42F080021A631A6B02F0800293
:101810000292029A03941A6B42F004021A631A6B42
:1018200002F004020392039A04941A6B42F001023C
:101830001A631A6B02F001020492049A05941A6B5F
:1018400042F002021A631A6B02F002020592059A34
:1018500006941A6B42F040021A631A6B02F04002BF
:101860000692069A07941A6B42F008021A631B6BE1
:1018700003F00803224607933C21079B04F0AAF9D2
:101880009E480122022104F0A5F922469B4804212A
:1018900004F0A0F922469A484FF4405104F09AF916
:1018A000224698484FF4C04104F094F901263C23A5
:1018B000CDE90F368F48119403230FA90227129305
:1018C00004F09EF88D480FA9CDE90F76CDE91144BB
:1018D00004F096F8042389480FA9CDE90F36CDE925
:1018E000114704F08DF8884811940FA9CDE90F64D1
:1018F00004F086F84FF4405381480FA9CDE90F3624
:10190000CDE9114704F07CF80C237E4811960FA90D
:10191000CDE90F3404F074F80FA94FF4C0437948AF
:10192000CDE90F36CDE9114404F06AF87748784BD9
:10193000036003F05BFFDFF8FCE1764B2C62C5E946
:1019400000E328464FF48043C5E90434C5E9024466
:10195000C5E9064404F04CFB1021284604F090FD34
:10196000214628466C4D04F0AAFD4FF48273C5E968
:1019700000834FF400791823C5E9069328460A230B
:10198000C5E90244C5E90444C5E90844AC62EB6218
:1019900005F0B8FC8F232246394658488DF82C3084
:1019A0008DF83C4004F016F932464FF47A730BA9D7
:1019B000284605F003FD4FF47A7332460FA92846F6
:1019C00005F0A8FE324639464C48544D04F002F961
:1019D0009DF83C30D32B04BF514B1E70514B012757
:1019E000C5E900374FF0100840230024C5E90483FF
:1019F0004FF4C073C5E906344FF40063C5E90834F9
:101A00004FF4005302264FF0040AAB624FF0030B71
:101A100007230FA92846CDE90F63CDE911A34FF0A5
:101A20000809C5E9024ACDE913B6159605F04EFB43
:101A30004FF6FF720BA92846CDE90C970B97089437
:101A40000E9405F063FB384603F06AFE4FF6FF7212
:101A50000BA92846CDE90D74CDE90B6905F056FBBD
:101A60004FF6FF720BA92846CDE90BB9CDE90DA4BD
:101A700005F04CFB4FF40C730893089B0E934FF644
:101A8000FF720BA928460D97CDE90BA905F03EFB87
:101A900040F26A51284605F057FB342221460FA830
:101AA00021F0D1FD204D214B2C61C5E900340923E3
:101AB000C5E905371D23C5E9073B40F20D1240F289
:101AC0004313C5E9092340F2171140F24713284692
:101AD000C5E90B13C5E90244AC8685F8364004F02D
:101AE00089FDFF21F022CDE914144FF4806023E03A
:101AF00000380240001002405C1F00200008024035
:101B0000000C02400018024000000240F01F0020BC
:101B100000300240A08601004C1E0020D01D002095
:101B2000C01D0020400100A0B41E0020006801403C
:101B300000500140005C004005214FF4A073CDE946
:101B40001601CDE910240FA9CDE9184228462246F6
:101B50003F4D1A93CDE912360F94ADF86C408DF8D5
:101B60006E4004F012FE3B4B2B601B6898472B68BD
:101B7000394DDB689847394B2846C5E90034C5E93B
:101B80000264C5E90A46C5E90C4403F03FFE394644
:101B9000284603F0F1FE3248324B036005F04AFA62
:101BA000424621460BA8304D304F21F04CFD1C22FF
:101BB00021460FA8CDE9094421F045FD5323C5E98D
:101BC000007328464FF4FA73C5E90334AC60AC6186
:101BD00005F0F0FF4FF480530BA928460B9306F055
:101BE000D3F8284606F012F809A92846CDE9094499
:101BF00006F064F94FF0600CFA2322460FA928463C
:101C0000CDE90FC31194139406F05CF8284600F058
:101C10000BFBFEF74DFDFEF74AFD06F035FA144AC0
:101C20003146404606F04BFB124B134A18602146E2
:101C3000124806F055FA124B124A18602146124813
:101C400006F04EFA114B186006F030FAFEE700BFBE
:101C5000BC1D002014000020B01F002000B0024076
:101C6000A41E002000080650041E002000040040AE
:101C7000AC540208C41D0020E8540208AD16000848
:101C8000CC1D0020C4540208BF060008C81D002057
:101C9000704770477FB5094B8DF817201B6802937A
:101CA0000DF117020123009201930A4601460448F0
:101CB00004F046FA07B05DF804FB00BF10000020F6
:101CC0005C1F00207FB500238DF81730084B1B6880
:101CD00002930A4601230DF1170100910193014679
:101CE000044804F0BDFA9DF8170007B05DF804FB46
:101CF000100000205C1F00201FB5084C24680092D3
:101D0000CDE901340A4601230146054804F0A8FA4A
:101D1000003818BF012004B010BD00BF1000002023
:101D20005C1F002003F0FCBC10B5064C00222046CE
:101D3000042103F04FFF20460122BDE8104004219A
:101D400003F048BF0008024038B50B4D044601229D
:101D50000A484FF4005103F03DFF002204212846B9
:101D600003F038FF2046FFF78FFC28460122BDE82C
:101D70003840042103F02EBF00080240000C02404E
:101D800038B50B4D044600220A484FF4005103F0C9
:101D900021FF00220421284603F01CFF2046FFF704
:101DA00073FC28460122BDE83840042103F012BF2D
:101DB00000080240000C0240F7B5144E144F0546CF
:101DC0000C4630460022042103F004FF00224FF4A9
:101DD0000051384603F0FEFE2846FFF755FC0D4B38
:101DE0000D481B68224601A905F094FC38460122E3
:101DF0004FF40051019C03F0EDFE30460122042116
:101E000003F0E8FE204603B0F0BD00BF000802402A
:101E1000000C02400C0000204C1E002003F080BC8F
:101E20000268034B9A4201D103F068BC704700BFBF
:101E3000001000407047000082B00E4B002200925C
:101E4000596C41F480415964596C01F4804100910E
:101E500000990192196C41F0805119641B6C03F0D8
:101E600080530193019B0F216FF0010002B003F03A
:101E70007DBC00BF003802400268094B9A4282B024
:101E80000BD100230193074B1A6B42F480521A6363
:101E90001B6B03F480530193019B02B0704700BF9A
:101EA000003002400038024007B50F4B02689A42EA
:101EB00016D10022A3F5F0430192196B41F4000101
:101EC00019631B6B03F40003019305215A20019B46
:101ED00003F04CFC5A2003B05DF804EB03F078BC2F
:101EE00003B05DF804FB00BF00B002402DE9F043F1
:101EF000044689B01422002103A821F0A4FB226823
:101F0000244B9A4243D1244C244800250095236B4E
:101F100043F004032363236B03F004030093009B4B
:101F20000195236B43F001032363236B03F001034B
:101F30000193019B4FF012094FF400734FF0010819
:101F40000327042603A9CDE90339CDE905870796C0
:101F500003F056FD4FF480731148079603A9CDE9AD
:101F60000339CDE9058703F04BFD0295236C43F45B
:101F700000032364236C03F400030293029B236A8F
:101F800043F400032362236A23F40003236209B0AD
:101F9000BDE8F083005C00400038024000080240C9
:101FA00000000240F0B599B004461422002107A8B1
:101FB00021F049FB30220DEB0200002121F043FB10
:101FC00022685E4B9A4240F0B78008230C93C023EE
:101FD0001093042312930CA84FF40033159304F0CC
:101FE000FDFE08B1FFF726FF554B5648002400942C
:101FF0005A6C42F080625A645A6C02F0806200921D
:10200000009A01941A6B42F020021A631A6B02F0D4
:1020100020020192019A02941A6B42F001021A63A3
:102020001A6B02F001020292029A03941A6B42F0B8
:1020300002021A631A6B02F002020392039A0494DA
:102040001A6B42F040021A631A6B02F040020492CB
:10205000049A05941A6B42F004021A631A6B02F098
:1020600004020592059A06941A6B42F008021A635C
:102070001B6B03F00803069302250E26069B0B96A6
:102080004FF4806307A9CDE90735CDE9094503F091
:10209000B7FC41F658032C480B9607A9CDE9073544
:1020A0000927CDE9094503F0ABFC032327480B972B
:1020B00007A9CDE90735CDE9094503F0A1FC4FF4A7
:1020C000706322480B9607A9CDE90735CDE909458C
:1020D00003F096FC4FF40C631D480B9607A9CDE95D
:1020E0000735CDE9094503F08BFCC02319480B9651
:1020F00007A9CDE90735CDE9094503F081FC08239F
:1021000015480B9607A9CDE90735CDE9094503F038
:1021100077FC4FF4A0530E480B9707A9CDE907357C
:10212000CDE9094503F06CFC58202246052103F057
:102130001DFB582003F04CFB19B0F0BD00680140B6
:102140000038024000140240000002400004024037
:102150000018024000080240000C02400268094BCF
:102160009A4282B00BD100230193074B5A6B42F085
:1021700040025A635B6B03F040030193019B02B082
:10218000704700BF000806500038024010B50446F2
:1021900088B01422002103A821F055FA2268144BBC
:1021A0009A4223D103F56843002101915A6C1148EA
:1021B00042F480125A645A6C02F480120192019A1D
:1021C00002911A6B42F020021A631B6B03F020038A
:1021D0000293029B4FF4607202230321CDE9032393
:1021E0000523CDE9061303A903F00AFC08B010BDCE
:1021F00000500140001402400268094B9A4282B02C
:102200000BD100230193074B1A6C42F002021A64AF
:102210001B6C03F002030193019B02B0704700BFE7
:10222000000400400038024010B5044686B0142275
:10223000002101A821F007FA22680D4B9A4214D11F
:10224000002300930B4B0C481A6B42F002021A63F6
:102250001B6B03F002030093009B1022022301A9D1
:10226000CDE90123059303F0CBFB06B010BD00BF01
:102270000004004000380240000402402DE9F04113
:1022800086B0002303932B4B1C68002C4FD14FF0DA
:102290000108C3F80080284B00949A6B274842EA53
:1022A00008029A639B6B03EA080300930227032644
:1022B0000C25009B01A94FF63F03CDE90137CDE97D
:1022C000046503F09DFB1E48059501A9CDE9018732
:1022D000CDE9034603F094FB48F233131948059502
:1022E00001A9CDE90137CDE9034603F089FB4FF69B
:1022F00083731548059501A9CDE90137CDE903465A
:1023000003F07EFB4CF203731048059501A9CDE95B
:102310000137CDE9034603F073FB60230C480595B4
:1023200001A9CDE90137CDE9034603F069FB06B009
:10233000BDE8F081F81F0020003802400014024080
:10234000000802400018024000100240000C024049
:102350000004024070B588B000230293204B1A6C31
:1023600042F010021A641B6C03F01003029305463E
:1023700001A903A8029B04F013FD069B4BBB04F0CC
:10238000FFFC184E184B336040F2E733F360174BF5
:10239000B0FBF3F3013B7360304600233361B3605D
:1023A000B36105F007FC044680B9304605F0D6FA63
:1023B000044658B9362003F00BFA0F2D0DD82246EB
:1023C0002946362003F0D2F9094B1D60204608B09B
:1023D00070BD04F0D5FC4000D3E70124F6E700BF50
:1023E00000380240FC1F00200010004040420F0057
:1023F0007C0000207047FEE7FEE7FEE7FEE770473F
:10240000014805F0EABA00BFFC1F0020014804F0B3
:102410005FB900BFB41E0020014803F023BA00BF1B
:10242000B01F00200120704708B521F0AFF9162336
:1024300003604FF0FF3008BD08B521F0A7F916235F
:102440000360FEE770B50D4614460E46731B9C42B2
:1024500001DC204670BDAFF3008006F8010BF5E704
:1024600070B50D4614460E46731B9C4201DC204697
:1024700070BD16F8010BAFF30080F5E74FF0FF30A9
:1024800070474FF400534B600020704701207047A5
:10249000002070470A4A116808B5034609B909497E
:1024A00011601068694603448B4206D921F06EF929
:1024B0000C2303604FF0FF3008BD1360FCE700BF42
:1024C00044200020D03B0120704710B50421044671
:1024D0001FF076FF204610BD08B5032913D8DFE8AA
:1024E00001F002060A0E02F0DFF8006808BD02F0F3
:1024F000DBF84068FAE702F0D7F88068F6E702F008
:10250000D3F8C068F2E70020F0E700000048704709
:10251000205502081620704713B5002451B10368F6
:1025200001948DF8034001AA9C680DF10303A047B4
:1025300002B010BD0846FBE7C0897047008A7047AB
:10254000C088704780887047807A00F07F007047AD
:10255000807AC00970470020704700009FED010A93
:10256000704700BF00000000704710B50821044606
:102570001FF026FF204610BD7047704700F5987386
:102580000868496803C370477047704741607047E7
:1025900070477047064BC0F84C310023C0F85031EB
:1025A00000F5A273C0F84801C0F84031704700BF81
:1025B0002931000801230372704770477047704744
:1025C0007047704738B5054640680368DB6998472F
:1025D000044604B938BDA188AB89C91A23682046CE
:1025E0001B6B09B29847A469F3E738B50546406804
:1025F0000368DB699847044604B938BDE188AB89B4
:10260000C91A236820465B6B09B29847A469F3E7AF
:1026100038B5054640680368DB699847044604B945
:1026200038BDA188AB89C91A236820461B6B09B243
:102630009847A469F3E710B4C26841685410034690
:1026400001EB6200D20748BF0A599B685DF8044B52
:1026500048BFD35818470346406830B19A681AB942
:10266000D86800F0010070470120704710B50C21B8
:1026700004461FF0A5FE204610BD10B510210446EB
:102680001FF09EFE204610BD10B5102104461FF01D
:1026900097FE204610BD10B5102104461FF090FE95
:1026A000204610BD10B5102104461FF089FE2046BB
:1026B00010BD10B54FF4AE7104461FF081FE2046E8
:1026C00010BD10B5402104461FF07AFE204610BD13
:1026D00010B50DF0A5FB0368BDE81040DB6B184793
:1026E00010B50DF09DFB0368BDE810405B6B18470B
:1026F00010B50DF095FB0368BDE810405B6B184703
:1027000010B50DF08DFB0368BDE810405B6B1847FA
:1027100037B50546807A6B7A0130C0B29842A8720C
:1027200005D901232B720023AB7203B030BDB5F97C
:102730000C20B5F90E4000210FF050FDC30707D55E
:1027400000284FF6FF73C8BF012313FA80F000B2D0
:10275000AB7AE881041B012BA4B206D1174B1B787E
:102760001BB10DF05DFB0DF061FB154A00231288D3
:10277000ADF80230EB891A445B42ADF80430114BDE
:10278000ADF800201B88ADF806300DF049FB03685A
:1027900002AA12E906001B6C984768680368DB69A7
:1027A00098470546002DC0D0A9882B6821442846AB
:1027B0001B6B09B29847AD69F4E700BF8E2E01206C
:1027C000842E0120862E012037B50546807A6B7A4B
:1027D0000130C0B29842A87205D901232B720023A0
:1027E000AB7203B030BDB5F90C20B5F90E40002135
:1027F0000FF0F4FCC30707D500284FF6FF73C8BFDE
:10280000012313FA80F000B2AB7AE881041B012B9C
:10281000A4B206D1134B1B781BB10DF001FB0DF0D8
:1028200005FB00230093EB89ADF804300E4B1B88A9
:10283000ADF806300DF0F4FA036802AA12E90600BA
:102840001B6C984768680368DB6998470546002D4C
:10285000C7D0A9882B68214428461B6B09B298472A
:10286000AD69F4E78E2E0120862E012037B505468E
:10287000807A6B7A0130C0B29842A87205D90123E0
:102880002B720023AB7203B030BDB5F90C20B5F943
:102890000E4000210FF0A2FCC30707D500284FF619
:1028A000FF73C8BF012313FA80F000B2AB7AE8814E
:1028B000041B012BA4B206D1174B1B781BB10DF0E2
:1028C000AFFA0DF0B3FA154A00231288ADF80030C4
:1028D000EB891A44ADF80220114A5B421288ADF828
:1028E0000420ADF806300DF09BFA036802AA12E945
:1028F00006001B6C984768680368DB6998470546C3
:10290000002DC0D0E9882B68214428465B6B09B2B2
:102910009847AD69F4E700BF8E2E0120862E012076
:10292000842E0120054B1B7801462BB1406818B15D
:1029300003680C315B6E1847704700BF8F2E012073
:10294000037A70B50546BBB940680368DB699847F0
:1029500004463CB96868036805F10C011B6EBDE8CC
:1029600070401847A1886B8FC91A236820461B6BDB
:1029700009B29847A469ECE770BD10B50446D0F8D9
:10298000400158B10368DB68984738B1D4F840017A
:1029900003689B6898470023C4F8403110BD70B5A8
:1029A000044690F8390094F838300130C0B29842AB
:1029B00084F8390005D901232372002384F83930C3
:1029C00070BDB4F93A2000210FF008FCC30706D50A
:1029D00000284FF6FF73C8BF0123184400B2238AB2
:1029E000C01AA08760680368DB69984705462DB95F
:1029F00060680368BDE870405B691847A988A38FC9
:102A000019442B6828461B6B09B29847AD69EEE75D
:102A10002DE9F14FD0E9556A0746B06803681B6A93
:102A20009847DB2805D8494B494AA321494820F05B
:102A300003FC706803681B6A98470F2803D8464B4D
:102A4000434AA421F2E7F06803681B6A98470F28FD
:102A500003D8424B3E4AA521E8E70DF0E1F9DFF843
:102A6000089104300DF029FAD9F8000010B103687C
:102A7000DB689847D9F8000010B103681B689847D5
:102A8000DFF8E880D8F8000010B103685B69984768
:102A9000D7F83C0110B103685B689847D8F800008C
:102AA00010B103681B689847D7F83C0110B1036860
:102AB0009B689847F068036800215B6A9847284B39
:102AC00003604FF4A0530381264B1B884FF0000B8B
:102AD00080F80AB05B420446C0F804B0A0F80EB01B
:102AE0008381B068036859465B6A9847054601F0E0
:102AF000BDFE7068036859465B6A984729460646DA
:102B000001F094FE331DC7F83C61C9F80040C8F8D5
:102B10000050CAF800302B68C6F808A02846DB68C9
:102B2000EE639847336830461B689847214628462D
:102B30000FF04EFB236820461B69984723685B69AA
:102B4000204601B0BDE8F04F184700BFF247020829
:102B50008048020861490208A84902084B4A020855
:102B6000EC570208842E0120D82E0120D42E0120FB
:102B70002DE9F14FD0E9556A0746B06803681B6A32
:102B80009847B0F5887F05D2484B494AA321494868
:102B900020F052FB706803681B6A98470F2803D81F
:102BA000454B434AA421F2E7F06803681B6A984743
:102BB0000F2803D8414B3E4AA521E8E70DF030F934
:102BC000DFF8049104300DF078F9D9F8000010B165
:102BD0000368DB689847D9F8000010B103681B68E8
:102BE0009847DFF8E880D8F8000010B103685B6907
:102BF0009847D7F83C0110B103685B689847D8F84C
:102C0000000010B103681B689847D7F83C0110B169
:102C100003689B689847F068036800215B6A9847DF
:102C2000274B03604FF4A0530381264B1B884FF0C2
:102C3000000B80F80AB05B420446C0F804B0A0F86C
:102C40000EB08381B068036859465B6A98470546B1
:102C500001F0D2FD7068036859465B6A98472946BF
:102C6000064601F0A7FD331DC7F83C61C9F80040D6
:102C7000C8F80050CAF800302B68C6F808A02846EB
:102C8000DB68EE639847336830461B6898472146F7
:102C900028460FF09DFA236820461B699847236851
:102CA0005B69204601B0BDE8F04F1847F2470208C3
:102CB000EE4A020861490208A84902084B4A020884
:102CC000C8570208862E0120D82E0120D42E0120BC
:102CD0002DE9F0411D460368BDF918701B6B0446D1
:102CE000164698472368314620465B6B9847236811
:102CF000294620469B6B9847236839462046DB6B64
:102D0000BDE8F041184700002DE9F74FD0E9556ABA
:102D10000746B06803681B6A9847B0F5086F05D28C
:102D2000544B554AA321554820F086FA7068036831
:102D30001B6A98470F2803D8514B4F4AA421F2E74A
:102D4000F06803681B6A98473F2803D84D4B4A4AEE
:102D5000A521E8E70DF064F8DFF8389104300DF0B4
:102D6000ACF8D9F8000010B10368DB689847D9F8CF
:102D7000000010B103681B689847DFF81C81D8F881
:102D8000000010B103685B699847D7F83C0110B1A7
:102D900003685B689847D8F8000010B103681B68A7
:102DA0009847D7F83C0110B103689B689847F068D2
:102DB000036800215B6A984705460022324B426057
:102DC000027245F80C3B044628460AF06DF91423BC
:102DD00023872E4B1B780022A287002B35D101239D
:102DE0002372B068036800215B6A9847054601F0CA
:102DF00073FF7068036800215B6A9847294606469E
:102E000001F052FD331DC7F83C61C9F80040C8F815
:102E10000050CAF800302B68C6F808A02846DB68C6
:102E2000EE639847336830461B689847214628462A
:102E30000FF0CEF9236820461B69984723685B6929
:102E4000204603B0BDE8F04F1847114BDFF84CB0F7
:102E5000B3F900300093BBF9003011462846FFF764
:102E600037FF28460AF09BF8BBF800305B426387C7
:102E7000B7E700BFF2470208D04B020861490208D9
:102E8000A84902084B4A0208805702088F2E0120E9
:102E9000862E0120D82E0120D42E0120842E012040
:102EA000044B1B6893F858200AB1D86C00B9986895
:102EB000704700BF902E0120F8B5174604460E4615
:102EC0000DF098F8124B1C60124B2360124B00253A
:102ED000C4E95135114BC4E9535518680368012101
:102EE0009B68C4E94F55C4E955769847284601F0D8
:102EF0008FFBFFF7D5FF17F060F9FFF7D1FF17F051
:102F0000D7F9FFF7CDFF17F0DFF92046F8BD00BF76
:102F1000E42E012008570208F0560208902E0120E6
:102F2000064BC0F84C310023C0F8503100F5A273B5
:102F3000C0F84801C0F84031704700BF293100088F
:102F4000064BC0F84C310023C0F8503100F5A27395
:102F5000C0F84801C0F84031704700BFCD2F0008CD
:102F6000064BC0F84C310023C0F8503100F5A27375
:102F7000C0F84801C0F84031704700BF712B00080D
:102F8000064BC0F84C310023C0F8503100F5A27355
:102F9000C0F84801C0F84031704700BF092D000853
:102FA000064BC0F84C310023C0F8503100F5A27335
:102FB000C0F84801C0F84031704700BF112A00082E
:102FC00003685B6A184703685B6A18472DE9F14F8D
:102FD000D0E9556A0746B06803681B6A9847B0F5A0
:102FE000AE7F05D2474B484AA321484820F024F938
:102FF000706803681B6A98470F2803D8444B424AFD
:10300000A421F2E7F06803681B6A98470F2803D8E9
:10301000404B3D4AA521E8E70CF002FFDFF80091A4
:1030200004300CF04AFFD9F8000010B10368DB68E7
:103030009847D9F8000010B103681B689847DFF87B
:10304000E480D8F8000010B103685B699847D7F8AE
:103050003C0110B103685B689847D8F8000010B1D4
:1030600003681B689847D7F83C0110B103689B6858
:103070009847F068036800215B6A9847264B036015
:103080004FF4A0530381254B4FF0000B1B8880F8B1
:103090000AB0044683815946C0F804B0A0F80EB0C7
:1030A000B068FFF78DFF054601F06AFB594670686E
:1030B000FFF789FF2946064601F040FB331DC7F89C
:1030C0003C61C9F80040C8F80050CAF800302B68CD
:1030D000C6F808A02846DB68EE6398473368304698
:1030E0001B689847214628460FF072F8236820464F
:1030F0001B69984723685B69204601B0BDE8F04F23
:10310000184700BFF2470208B54C0208614902089F
:10311000A84902084B4A0208A4570208842E01203D
:10312000D82E0120D42E01202DE9F14FD0E9556A87
:103130000746B06803681B6A9847B0F5AE7F05D2B2
:10314000434B444AA321444820F076F87068036852
:103150001B6A98470F2803D8404B3E4AA421F2E748
:10316000F06803681B6A98470B2803D83C4B394A20
:10317000A521E8E70CF054FEDFF8EC9004300CF0E9
:103180009CFED9F8000010B10368DB689847D9F8B5
:10319000000010B103681B689847DFF8D080D8F8AA
:1031A000000010B103685B699847D7F83C0110B183
:1031B00003685B689847D8F8000010B103681B6883
:1031C0009847D7F83C0110B103689B689847F068AE
:1031D000036800215B6A98474FF0000B214B0360A6
:1031E00004465946C0F804B080F808B0B068FFF74C
:1031F000E7FE054601F0C4FA59467068FFF7E3FEA2
:103200002946064601F09AFA331DC7F83C61C9F811
:103210000040C8F80050CAF800302B68C6F808A073
:103220002846DB68EE639847336830461B6898474A
:10323000214628460EF0CCFF236820461B6998479C
:1032400023685B69204601B0BDE8F04F184700BF16
:10325000F2470208A04D020861490208A849020885
:103260004B4A02085C570208D82E0120D42E0120B8
:103270007047704770477047704770B503680446E1
:103280001B6B154698472368294620465B6BBDE8B3
:10329000704018470022C0E90122C0E90322C0E9BA
:1032A0000522C0E907224FF480728284014A02603D
:1032B000704700BF10580208406A7047806A704724
:1032C00070478A880B8810B5D20A4C88C1699BB2B6
:1032D00051F8220043EA0443184410BD10B50446D7
:1032E000BAB1107B68B1537BD27A1B0203F4E0635E
:1032F0001A43236A03EB82031A888A4202D193F9A4
:10330000020010BD05D8013880B204330028F3D183
:10331000F7E70020F5E710B52C2104461FF050F820
:10332000204610BD30B58BB00446BDF860500895FE
:10333000BDF85C5007959DF8505006959DF84C508F
:1033400005959DF8485004959DF8445003959DF8C7
:10335000405002959DF83C500195BDF838500095BD
:103360000EF090FB064B2360159BE361169B2362D6
:10337000199B63621A9BA36220460BB030BD00BF4D
:103380007858020830B5036885B06D460181D3F8DE
:103390008430014604462846984795E807003C34A7
:1033A00084E8070005B030BD30B5036885B06D46D0
:1033B0004181D3F88430014604462846984795E871
:1033C00007003C3484E8070005B030BD00220280CD
:1033D00042808280C280704780F83610704770B596
:1033E000036804461B6B1546984723682946204608
:1033F0005B6EBDE87040184700207047806C7047D6
:10340000704770477047704730B4C26844685510C1
:10341000034604EB6200D20748BF62599B6830BC88
:1034200048BFD35818470346406830B19A681AB964
:10343000D86800F0010070470120704710B54C219A
:1034400004461EF0BDFF204610BD10B510210446F5
:103450001EF0B6FF204610BD10B54FF4AE71044605
:103460001EF0AEFF204610BD08B5FEF717F808BDE8
:10347000036870B55E6B124B1B6804468DB22BB9A6
:10348000104B114A6C2111481FF0D6FE1049828D55
:103490000988914203D80F4B0B4A6D21F3E713F8CB
:1034A00012200D4B1B6853F8220003681B6B9847D2
:1034B000291A3346204609B2BDE87040184700BFBC
:1034C000E82E0120784E0208BA4E0208F54E020896
:1034D000EC2E01203C4F0208F02E012038B500F1FF
:1034E0009803994204460D4603D10CF099FCFFF76E
:1034F00057FDCC34A54205D10CF092FCBDE8384014
:10350000FFF72EBD38BD00224FF0FF31C0E900218A
:103510008260704710B526220446002120F093F8FF
:103520002046FFF7B7FE0023A36284F82C30012366
:1035300084F82430044B23604FF6FF7384F8323054
:10354000E3852386204610BD685F02082DE9F04F11
:1035500004468BB0A04600250EF08EFC6E4BE56352
:1035600048F8403B4FF026094A462946404620F09D
:103570006AF84046FFF78EFE04F16C07FF26674BA2
:1035800023644A464FF0FF33294684F86660A566F7
:103590003846ADF8203020F056F83846FFF77AFE6E
:1035A0005F4BE366BDF82030A4F8923008A904F11F
:1035B000980B84F8946038460AF037F804F1CC0A86
:1035C000584604F58076FFF7A5FF5046FFF7A2FFA7
:1035D0004A462946304620F036F83046FFF75AFE74
:1035E000504BC4F828314FF47F03C4F834314E4BAC
:1035F000C4F800314FF0FF33C4E950354B4BC4F8E9
:103600003051C4E953344A4BA4F83851C4E9553514
:103610004FF0FF324FF4A073A4F82C21C4F83C51B2
:10362000C4F848512A46009329464046F023FFF744
:103630004FFB04F104094FF07F43A366414648461F
:1036400006F016FE2A4629463846FFF716FE4FF0CA
:10365000050808A93846ADF8208009F0E6FF39468C
:10366000484606F005FE584640F219121821FFF7A9
:1036700004FE04F5A677122308AA07A95846ADF858
:103680001C30ADF8203009F097FE59464846C4F882
:10369000C07006F0EDFD504640F21D12CD21FFF73F
:1036A000ECFD072308AA07A95046ADF81C30ADF879
:1036B000203009F081FE51464846C4F8F47006F007
:1036C000D7FD0F2300931D2230462D236321FFF7E2
:1036D000FFFA184BC4F83031D4F80031A4F8345153
:1036E00002AD31462846D3F88430984795E8070064
:1036F00004F59E7383E807000A4B089308A9304637
:10370000ADF8248009F0FAFD4846314606F0B0FDD8
:1037100020460BB0BDE8F08F88590208005F020810
:10372000DC5F0208E0560208E058020870590208FF
:10373000DD340008E4FDFFFF70477047704730B488
:10374000C26844685510034604EB6200D20748BFC4
:1037500062599B6830BC48BFD3581847034640683D
:1037600030B19A681AB9D86800F00100704701209A
:10377000704710B5102104461EF022FE204610BDF1
:1037800010B54FF4887104461EF01AFE204610BD95
:1037900038B500F19803994204460D4603D10CF068
:1037A0003FFBFFF7FDFBCC34A54205D10CF038FB05
:1037B000BDE83840FFF7C4BB38BD00002DE9F34732
:1037C0000446264600250EF057FB4B4BE56346F8B2
:1037D000403B4FF026094A46294630461FF033FF4A
:1037E0003046FFF757FD04F16C074FF0FF08434BDD
:1037F00023644A464FF6FF73294684F86680A5661F
:103800003846ADF804301FF01EFF3846FFF742FD82
:103810003B4BE366BDF80430A4F8923001A904F1F3
:10382000980A84F89480384609F0FFFE04F1CC0928
:103830005046FFF76FFE4846FFF76CFE314BC4E978
:103840004034314B2A46C4E9423529463046FFF719
:1038500014FD3046F021FDF76BFD30464FF4A071AA
:10386000FDF768FD04F104084FF07F43A36631467D
:10387000404606F0FDFC2A4629463846FFF7FDFC87
:10388000082301A93846ADF8043009F0CEFE3946C8
:10389000404606F0EDFC504637223321FFF7EDFCA1
:1038A00004F58076132301AA69465046ADF800302E
:1038B000ADF8043009F080FD51464046C4F8C060C0
:1038C00006F0D6FC48464FF48C720C21FFF7D5FC6D
:1038D00001AA69464846ADF80050ADF8045009F019
:1038E0006BFD4046C4F8F460494606F0C1FC204632
:1038F00002B0BDE8F08700BFD4590208005F02089B
:10390000DC5F0208BC590208913700087047704715
:10391000704730B4C26844685510034604EB620037
:10392000D20748BF62599B6830BC48BFD35818477C
:103930000346406830B19A681AB9D86800F00100AF
:1039400070470120704710B5102104461EF038FD65
:10395000204610BD10B5DC2104461EF031FD204686
:1039600010BD9830884208B505D10CF059FABDE871
:103970000840FFF705BB08BD2DE9F347044626467E
:1039800000250EF079FA484BE56346F8403B4FF0CE
:10399000260A5246294630461FF055FE3046FFF7AC
:1039A00079FC04F16C07414B23644FF0FF084FF69C
:1039B000FF795246294684F86680A5663846ADF8F8
:1039C00004901FF040FE3846FFF764FC384BE36676
:1039D000BDF80430A4F8923084F8948001A904F171
:1039E0009808384609F021FE5246294640461FF005
:1039F0002AFE4046FFF74EFC012384F8BC302D4BD5
:103A0000C4F898302C4BA4F8C690C4E933342B4B3F
:103A1000A4F8C8902A46C4E9353584F8CA902946E6
:103A20003046C4F8C05084F8C450FFF726FC304636
:103A3000F021FDF77DFC30464FF4A071FDF77AFCD4
:103A400004F104094FF07F43A3663146484606F06F
:103A50000FFC2A4629463846FFF70FFC092301A927
:103A60003846ADF8043009F0E0FD3946484606F026
:103A7000FFFB4046D7225F21FFF7FFFB0C2301AA83
:103A800069464046ADF80030ADF8043009F094FCCA
:103A900004F1CC034846C4F8C030414606F0E8FBC8
:103AA000204602B0BDE8F087205A0208005F0208F5
:103AB000DC5F0208685F0208085A020863390008E0
:103AC0007047704710B54FF4E66104461EF078FC6D
:103AD000204610BD38B5262204460D4600211FF0B1
:103AE000B2FD2046FFF7D6FB064B23602B88E3840C
:103AF000FF23204684F82830294609F096FD204609
:103B000038BD00BFDC5F020810B526220446002144
:103B10001FF099FD2046FFF7BDFB0A4BA3624FF64D
:103B2000FF73A3854FF47F020023C4E90C32064AD9
:103B3000226023874FF0FF32C4E91023E363A364BC
:103B4000204610BDE0560208E05802082DE9F04F6B
:103B50000446A9B0274600260EF08EF9D54BE66341
:103B600047F8403B2622314638461FF06CFD384668
:103B7000FFF790FBD04B236404F16C0BFF234FF64F
:103B8000FF7584F8663026A9A6665846ADF89850A9
:103B9000FFF7A0FF04F1980304F1C409184626A911
:103BA00004F1F0080593ADF89850FFF793FF26A9AC
:103BB0004846ADF89850FFF78DFF26A94046ADF86E
:103BC0009850FFF787FF04F58E7326A918460693D1
:103BD000ADF89850FFF77EFF04F5A47326A91846A8
:103BE0000793ADF89850FFF775FF04F5BA7304F525
:103BF000D07A26A918460893ADF89850FFF76AFFC7
:103C00005046FFF781FF04F5F67318460393FFF75C
:103C10007BFF04F50E7318460493FFF775FF04F558
:103C2000217326A918460993ADF89850FFF752FF63
:103C300004F52C7326A918460A93ADF89850FFF79F
:103C400049FF04F5377326A918460B93ADF8985031
:103C5000FFF740FF04F5427326A918460C93ADF810
:103C60009850FFF737FF04F54D7326A918460D93BA
:103C7000ADF89850FFF72EFF04F5587326A91846A3
:103C80000E93ADF89850FFF725FF04F5637326A94E
:103C900018460F93ADF89850FFF71CFF04F56E73AC
:103CA00026A918461093ADF89850FFF713FF04F5B6
:103CB000797326A918461193ADF89850FFF70AFFBB
:103CC00004F5826326A918461293ADF89850FFF7C1
:103CD00001FF04F23C4326A918461393ADF898500F
:103CE000FFF7F8FE04F58D6326A918461493ADF886
:103CF0009850FFF7EFFE04F2944326A91846159357
:103D0000ADF89850FFF7E6FE04F5986326A918462B
:103D10001693ADF89850FFF7DDFE04F2EC4326A9A8
:103D200018461793ADF89850FFF7D4FE04F5A36337
:103D300026A918461893ADF89850FFF7CBFE04F269
:103D4000445326A918461993ADF89850FFF7C2FEC0
:103D500004F5AE6326A918461A93ADF89850FFF7FC
:103D6000B9FE04F29C5326A918461B93ADF898504F
:103D7000FFF7B0FE04F5B96326A918461C93ADF809
:103D80009850FFF7A7FE04F2F45326A918461D9396
:103D9000ADF89850FFF79EFE04F5C46326A91846B7
:103DA0001E93ADF89850FFF795FE04F24C63184649
:103DB0001F93FFF7A9FE04F5D36318462093FFF77E
:103DC000A3FE04F2E46318462193FFF79DFE4FF42F
:103DD000A0733246009331463846F023251DFEF786
:103DE00077FF4FF07F43A3663946284606F040FA36
:103DF000324631465846FFF740FA4FF00F0326A9E6
:103E00005846ADF8983009F010FC5946284606F09F
:103E10002FFA4FF4967205982D21FFF72EFA0627F8
:103E20000598ADF8987026A909F0FFFB059928467A
:103E300006F01EFA4FF4967248464321FFF71DFA2A
:103E400026A94846ADF8987009F0EFFB4946284688
:103E500006F00EFA4FF4967240465921FFF70DFA1C
:103E600026A94046ADF8987009F0DFFB4146284688
:103E700006F0FEF9EB220698DFF84090DFF840806C
:103E80006421FFF7FAF94FF0140B0698ADF898B0DB
:103E900026A909F0CAFB0699284606F0E9F9EB22A3
:103EA0000798BE21FFF7E9F90798ADF898B026A961
:103EB00008E000BF545A0208005F02085480FFFF68
:103EC000E056020809F0B1FB0799284606F0D0F940
:103ED000EB2208980A21FFF7D0F90898ADF898B0BE
:103EE00026A909F0A2FB0899284606F0C1F90F237C
:103EF0000093F02250462D230A21FEF7E9FED4F864
:103F0000A031C4F8D09122AF51463846D3F884305E
:103F1000A4F8D461984797E8070004F5EE7383E8A6
:103F2000070026A95046CDF89880ADF89C6009F0AE
:103F3000E5F95146284606F09BF90F2303980093B4
:103F4000F0222D236221FEF7C3FED4F8EC31039951
:103F5000C4F81C923846D3F88430A4F820629847FD
:103F600097E8070004F50A734FF0010A83E8070099
:103F70000398CDF8988026A9ADF89CA009F0BEF969
:103F80000399284606F074F90F2304980093F02251
:103F90002D23BB21FEF79CFED4F838320499C4F8D7
:103FA00068923846D3F88430A4F86C62984797E852
:103FB000070004F51D7383E8070002230498ADF899
:103FC0009C3026A9CDF8988009F098F904992846E4
:103FD00006F04EF9E62209983146FFF74EF94FF008
:103FE0000A090998ADF8989026A909F01EFB0999CD
:103FF000284606F03DF9B6220A980F21FFF73DF951
:1040000011230A98ADF8983026A909F00EFB0A99F9
:10401000284606F02DF9B6220B983421FFF72DF92A
:104020000E230B98ADF8983026A909F0FEFA0B99EB
:10403000284606F01DF963220C98D2211027FFF7BD
:104040001CF90C98ADF8987026A909F0EEFA0C99B5
:10405000284606F00DF963220D988221FFF70DF92D
:104060000D98ADF8987026A909F0DFFA0D99284649
:1040700006F0FEF863220E983221FFF7FEF80E9844
:10408000ADF8987026A909F0D0FA0E99284606F0E6
:10409000EFF843220F98AA21FFF7EFF80F98ADF839
:1040A000987026A909F0C1FA0F99284606F0E0F8A1
:1040B000432210985A21FFF7E0F81098ADF8987055
:1040C00026A909F0B2FA1099284606F0D1F8432241
:1040D00011984946FFF7D1F81198ADF8987026A9C4
:1040E00009F0A3FA1199284606F0C2F82322129883
:1040F000D221FFF7C2F81298ADF8987026A909F0FE
:1041000094FA1299284606F0B3F8232213988221D4
:10411000FFF7B3F81398ADF8987026A909F085FA5F
:104120001399284606F0A4F8232214983221FFF7A9
:10413000A4F81498ADF8987026A909F076FA1499A5
:10414000284606F095F8232215984946FFF795F87A
:104150001598ADF898A026A909F067FA1599284690
:1041600006F086F8232216985A21FFF786F816984B
:10417000ADF898A026A909F058FA1699284606F035
:1041800077F823221798AA21FFF777F81798ADF848
:1041900098A026A909F049FA1799284606F068F868
:1041A000432218983221FFF768F81898ADF898A0C4
:1041B00026A909F03AFA1899284606F059F8432238
:1041C00019988221FFF759F81998ADF898A026A9F7
:1041D00009F02BFA1999284606F04AF843221A9852
:1041E000D221FFF74AF81A98ADF898A026A909F04D
:1041F0001CFA1A99284606F03BF863221B98494698
:10420000FFF73BF81B98ADF898A026A909F00DFA26
:104210001B99284606F02CF863221C985A21FFF7B8
:104220002CF81C98ADF898A026A909F0FEF91C9965
:10423000284606F01DF863221D98AA21FFF71DF8F5
:104240001D98ADF898A026A909F0EFF91D99284608
:1042500006F00EF840F205121E986921FFF70DF8DE
:1042600015231E98ADF8983026A909F0DEF91E999D
:10427000284605F0FDFF0F235A464FF0FF371F98E1
:104280000093A9F226292D230721FEF721FD0523FE
:104290001F98C4F87C9626A9A4F88066C4F888669E
:1042A000C4F88C76C4F89066ADF89C30CDF8988050
:1042B00009F024F81F99284605F0DAFF0F235A4623
:1042C00020980093BE212D23FEF702FD2098C4F80C
:1042D000C89626A94FF00409A4F8CC66C4F8D466A1
:1042E000C4F8D876C4F8DC66CDF89880ADF89C9018
:1042F00009F004F82099284605F0BAFF4A462198AB
:104300008621FEF7BAFF0E4B2198C4F8143726A970
:104310000323A4F81867C4F82067C4F82477C4F806
:104320002867ADF89C30CDF8988008F0E7FF284664
:10433000219905F09DFF204629B0BDE8F08F00BF10
:10434000E6FDFFFF7047000030B5164D2C6814F0F5
:1043500001048FB0BFF35B8F20D128461EF032F8E6
:10436000E0B13F230993104B0893104B07930423AC
:104370000122CDE902431223CDE905420C49049202
:104380000093CDE90B440B480A940194FEF7CAFF51
:1043900009481EF06FFF28461EF020F805480FB0B0
:1043A00030BD00BF48200020906A0208A06A0208C1
:1043B000506A02084C200020454300087047000066
:1043C00030B5164D2C6814F001048FB0BFF35B8F2D
:1043D00020D128461DF0F6FFE0B13F230993104B92
:1043E0000893104B104911480A940122CDE9064365
:1043F0000423CDE903320A230093CDE90B44CDE930
:1044000001440594FEF78EFF09481EF033FF28464D
:104410001DF0E4FF05480FB030BD00BF782000203C
:10442000946A0208A46A0208606A02087C200020DC
:10443000BD4300087047000030B5164D2C6814F0DD
:1044400001048FB0BFF35B8F20D128461DF0BAFF67
:10445000E0B13F230993104B0893104B10491148CA
:104460000A940122CDE906430423CDE90332142343
:104470000093CDE90B44CDE901440594FEF752FFCA
:1044800009481EF0F7FE28461DF0A8FF05480FB0AA
:1044900030BD00BFA8200020986A0208A86A020860
:1044A000706A0208AC200020354400087047000004
:1044B00030B5164D2C6814F001048FB0BFF35B8F3C
:1044C00020D128461DF07EFFE0B13F230993104B19
:1044D0000893104B104911480A940122CDE9064374
:1044E0000423CDE9033228230093CDE90B44CDE921
:1044F00001440594FEF716FF09481EF0BBFE28464E
:104500001DF06CFF05480FB030BD00BFD820002063
:104510009C6A0208AC6A0208806A0208DC2000205B
:10452000AD44000800207047002070470EB403B56A
:1045300003AB002153F8042B01930CF021FD02B0D2
:104540005DF804EB03B070470CB407B504AB53F847
:10455000042B01930CF014FD03B05DF804EB02B0E2
:1045600070470000436C10B5044673B3038F2BB93A
:10457000184B194AC52119481EF05EFEC38E00EB88
:1045800043035B8C0BB30EF096FB238F012B03D8F8
:10459000134B144ACB21EEE7E28E531C9BB2092B3E
:1045A000194688BFA3F10A0104EB410140F63F1010
:1045B000498C814209D10A2B04EB420228BF002317
:1045C00004EB4303508C588451842046BDE81040CE
:1045D0000EF074BA7A4F0208834F02082E50020878
:1045E00078500208865002080EF02FBA10B586B037
:1045F00002AC84E806001A460AAB05930193099BB6
:1046000000932146089B0AF0A9FF06B010BD0000E8
:1046100038B518BB124B13481C681349B4B1226853
:1046200022440260626822440A60A26814440F4B6C
:1046300000221A8000F038F8054600F033F80C4BE1
:104640001C600C4B1D600C4B188007E00B4B03608B
:104650000B4B0B600B4B1C68002CE8D138BD00BF26
:10466000142100200C21002008210020102100200E
:10467000E82E0120F02E0120EC2E0120C86A02084D
:10468000B06A0208CC6A0208044B1B6853F8210088
:10469000034B1B6803EB4000704700BF082100205C
:1046A0000C21002006207047004870471821002088
:1046B00010B5FFF7C1FE064C2060FFF7F9FE606001
:1046C000FFF77EFEA060FFF73FFEE06010BD00BF79
:1046D0001821002010B5002404600C6014601C60D8
:1046E00010BD704710B54FF4AE7104461DF068FE62
:1046F000204610BD10B50446D0F8580100F0C5F8AA
:104700002046BDE810400BF035BC000010B5044653
:10471000FEF7D2FB014B2360204610BD885A0208E9
:10472000704704387047704710B5102104461DF0DB
:1047300047FE204610BDA0F10400F5E7002282608C
:10474000024A026018324260C1607047DC5A0208B7
:104750007047000010B5034B03600446FEF752FE9D
:10476000204610BD045B020810B50446FFF7F2FFB7
:1047700020464FF4AE711DF023FE204610BD000010
:1047800010B50446FEF7E2FE014B2360204610BD43
:10479000045B0208FEF737BE704704387047704765
:1047A00010B5102104461DF00BFE204610BDA0F1EF
:1047B0000400F5E700228260024A0260183242607B
:1047C000C1607047385B02087047000010B5034BAA
:1047D00003600446FEF7B1FF204610BD605B02088F
:1047E00010B50446FFF7F2FF20464FF488711DF024
:1047F000E7FD204610BD000010B50446FEF7DEFFC1
:10480000014B2360204610BD605B0208FEF796BF97
:10481000704704387047704710B5102104461DF0EA
:10482000CFFD204610BDA0F10400F5E70022826014
:10483000024A026018324260C1607047945B02080D
:104840007047000010B5034B03600446FFF75FF8A4
:10485000204610BDBC5B020810B50446FFF7F2FF0E
:104860002046DC211DF0ACFD204610BD10B50446ED
:10487000FFF782F8014B2360204610BDBC5B0208A5
:10488000FFF746B80022026070477047704704384F
:104890007047704710B5102104461DF091FD204669
:1048A00010BDA0F10400F5E700228260024A026018
:1048B00018324260C1607047F05B02087047000028
:1048C00010B5034B03600446FFF7FAF8204610BD0D
:1048D000185C020810B50446FFF7F2FF20464FF4BB
:1048E00008611DF06DFD204610BD90F82C3883B195
:1048F000D0F83438D0F838281344B3F5A07FC0F886
:104900003438A0F8B632C2BF002380F8D53280F820
:104910002C38704790F840387BB1D0F84838D0F840
:104920004C281344002BC0F84838A0F8E232BEBF30
:10493000002380F8013380F84038704710B588684C
:104940000C6813682044984210DB906803449C4232
:104950000CDC4868C96853680144994206DBD26898
:1049600013449842CCBF0020012010BD0020FCE77A
:1049700011290CD8421892F8083843B101F5E671B4
:10498000002382F8083850F8212082F8253070473B
:10499000D0F86438002BD4BF00220122012B80F80C
:1049A000BD20D4BF00220122022BD4BF002301234B
:1049B00080F8E92080F815317047022910B41FD81B
:1049C000421892F86838DBB100EB8104D4F858380B
:1049D000013B002BC4F8583808DC0023012982F879
:1049E000683807D0022908D080F899315DF8044B67
:1049F000FFF7CEBF80F86D31F8E780F84131F5E779
:104A00005DF8044B7047F0B590F840388DB004461F
:104A10008BB3D0F844380493D0F848380593B0F9F4
:104A2000E4320693B0F9E632079300F6070700F583
:104A3000E665002617F8013FFBB12B6893F82520A7
:104A4000DAB1AA6C0892D5F890200992B3F908203F
:104A50000A92B3F90A300B9308AA04A92046FFF77B
:104A60006DFF50B131462046FFF782FF002380F8EA
:104A7000013380F840380DB0F0BD0136122E05F13B
:104A80000405D7D104F5BA73019304F5A473029316
:104A900004F58E73039304F66706002501AF16F83C
:104AA000013FDBB157F8253093F82520B2B1B3F9B7
:104AB00004200892B3F906200992B3F908200A925B
:104AC000B3F90A300B9308AA04A92046FFF736FF72
:104AD00020B129462046FFF770FFC7E70135032DB7
:104AE000DDD1C8E790F86B38A3B1D0F86438013B4A
:104AF000002BC0F864380BDC90F84028002380F8C5
:104B00006B3880F845361AB180F8013380F84038A8
:104B1000FFF73EBF7047F0B590F82C388DB00446D3
:104B2000002B3BD0D0F830380493D0F834380593BC
:104B3000B0F9B8320693B0F9BA32079300F5BA73F8
:104B4000019300F5A473029300F58E73039300F6AE
:104B50006706002501AF16F8013F0BB357F8253063
:104B600093F82520E2B1B3F904200892B3F90620A6
:104B70000992B3F908200A92B3F90A300B9308AAF4
:104B800004A92046FFF7DAFE50B129462046FFF778
:104B900014FF002380F8D53280F82C380DB0F0BD1A
:104BA0000135032DD7D194F86B38002BF6D094F84B
:104BB0004536002BF2D0B4F924360893B4F92636E2
:104BC0000993B4F928360A9308AAB4F92A360B9344
:104BD00004A92046FFF7B2FE0028DFD02046FFF7E9
:104BE00081FFD6E7B0F92836F0B5B0F9245603EBCB
:104BF000D37305EB630500F6070700F5E6630021B4
:104C00006FF000464FF0FF3017F8012F7AB11A68A5
:104C1000B2F9082002EBD2749A6C02EB6402521BC8
:104C2000002AB8BF5242B242BCBF16460846013104
:104C3000122903F10403E7D1F0BDD0F85038002B5E
:104C4000C8BF03F1FF3310B5C8BFC0F8503890F8A3
:104C50006B3804462BB390F8403813BBD0F850386B
:104C6000002B1EDCFFF7BEFF01301AD0B4F9283646
:104C7000B4F92416B4F92626C4F8482803EBD373F4
:104C800001EB6301C4F8441804F5377009B2FEF76C
:104C9000F4FA012384F8013384F840380523C4F87A
:104CA000503810BD82B00A4BC0F86C380023019315
:104CB000084B5A6B42F040025A635B6B03F04003AF
:104CC0000193019B00F66C0002B002F0B3B900BF83
:104CD000000806500038024010B50446FEF736FFC3
:104CE0001E4B23600223C4F81C380023012284F8E1
:104CF0002438C4F8283884F82C38C4F83038C4F87C
:104D00003438C4F83C3884F84038A4F87C38C4F807
:104D10004438C4F84838C4F85038C4F85438032329
:104D20000A2184F81A2884F87E28C4F858386FF0CD
:104D30000902C4F85C38C4F86038C4F864384FF02D
:104D400001332046C4F82018C4F83818C4F84C2899
:104D5000C4F86838FFF7A6FF204610BD185C0208AB
:104D600013B50023044601A900F66C00019302F07C
:104D700079F910B9019802B010BDB4F87C08C0EB05
:104D8000C0000D30F7E710B5002392B000F607021F
:104D90001C4612F8011F29B112A901EB840101344C
:104DA00041F8483C0133122BF3D164B1FFF7D8FF2F
:104DB000B0FBF4F303FB140012AB03EB800050F8DC
:104DC000480C12B010BD4FF0FF30FAE7D0F83C3875
:104DD000002BC8BF03F1FF3310B5C8BFC0F83C3883
:104DE00090F82C38044653BBD0F83C38002B26DC16
:104DF000FFF7C9FF431C22D004EB8000D0F8302716
:104E0000D0F87817B2F90830B2F90A2003EBD3735F
:104E100001EB6301C4F83018D0F8C0371A44C4F865
:104E2000342809B212B204F52C70FEF726FA0123D9
:104E300084F8D53284F82C380523C4F83C3810BDEA
:104E40002DE9F74F0446FEF73CFE04F58D63C4F8E8
:104E5000303704F29443C4F8343704F23C43C4F8C6
:104E6000383704F59863C4F83C3704F58263C4F816
:104E7000403704F2EC43C4F8443704F57973C4F8BE
:104E8000483704F5A363C4F84C3704F56E73C4F8CF
:104E9000503704F24453C4F8543704F56373C4F82C
:104EA000583704F5AE63C4F85C3704F55873C4F89A
:104EB000603704F29C53C4F8643704F54D73C4F8AA
:104EC000683704F5B963C4F86C3704F54273C4F865
:104ED000703704F2F453C4F8743704F22C7A4FF0AC
:104EE00014094FF0000804F6070301250FFA89F2B0
:104EF00003EB080B57461426FE64C7F8949057F846
:104F0000040F019331B200922336FEF7B6F93968E7
:104F1000E62E81F82550DDE900230BF8015FEBD187
:104F200008F10608B8F1120F0AF1180A09F1280968
:104F3000DCD1002384F8D53284F82C3884F801338E
:104F400084F84038B4F92436C4F854380323C4F83C
:104F50005838C4F85C38C4F86038C4F864384FF086
:104F600001332046C4F8683884F8995184F86D51AB
:104F700084F8415184F84556FFF70AFD201D03B01F
:104F8000BDE8F04F0CF026B913B5044614480A23C7
:104F9000006800220DF1070103F0FDF950B994F803
:104FA0006B383BB19DF80730B4F92426012B03D0B0
:104FB000022B0FD002B010BDA2F10A0323EAE37363
:104FC0009342F7D0A4F82436C4F85438201D0CF0CE
:104FD00001F9EFE702F10A03B42BA8BFB423EFE70E
:104FE000C41D00202DE9F84FB0F87C380446013389
:104FF000A0F87C38FFF7C8FFB4F87C380A22B3FB6E
:10500000F2F102FB11339BB2002B40F08D8094F83B
:10501000248804F60706B8F1000F33D0D4F82838F6
:105020000133C4F8283804F5E66104F61905324660
:1050300012F8010F30B10F6897F8250080F00100D9
:1050400087F82500AA4201F10401F1D1042B14DDF7
:1050500004F22C72002306F8013F52F8041FAE42FE
:1050600081F82530F7D184F8243884F8D53284F8D3
:105070002C3884F8013384F84038201DBDE8F84FFF
:105080000CF0A8B8374604F5EF6504F5F86BB246A6
:105090001AF8019FB9F1000F18D094F81A2829685E
:1050A000D4F81C3802B95B4255F8480C194403681F
:1050B00029601B6B09B298472A68002A07DD55F85A
:1050C000483CB3F908301344EF2B00DCC1460435EB
:1050D0005D452BD104F61908B9F1000F28D12046FF
:1050E000FFF774FE2046FFF7A8FD2046FFF7FDFB03
:1050F000FFF710FCFFF70FFD2046FFF784FC04F5D7
:10510000E66317F8012F62B31A68D3F89010B2F96A
:105110000A200A44B4F98A128A4222DB012384F865
:1051200024380023C4F82838BDE8F88FC846AFE714
:1051300094F81A3883F0010384F81A3816F8013FFE
:1051400053B1D4F82038296855F8900C19440368F5
:1051500029605B6B09B29847464505F10405EDD11E
:10516000BDE7474503F10403CBD186E7F020704744
:105170004FF4A07070472920FCF702BE2820FCF7EE
:10518000FFBD08B5FCF7D0FDCA20FCF7F9FDC32030
:10519000FCF7DAFD0820FCF7D7FD5020FCF7D4FD22
:1051A000CF20FCF7EDFD0020FCF7CEFDC120FCF781
:1051B000CBFD3020FCF7C8FDED20FCF7E1FD6420BD
:1051C000FCF7C2FD0320FCF7BFFD1220FCF7BCFD7D
:1051D0008120FCF7B9FDE820FCF7D2FD8520FCF723
:1051E000B3FD0020FCF7B0FD7820FCF7ADFDCB202F
:1051F000FCF7C6FD3920FCF7A7FD2C20FCF7A4FD29
:105200000020FCF7A1FD3420FCF79EFD0220FCF7F6
:105210009BFDF720FCF7B4FD2020FCF795FDEA206C
:10522000FCF7AEFD0020FCF78FFD0020FCF78CFDA5
:10523000B120FCF7A5FD0020FCF786FD1B20FCF744
:1052400083FDB620FCF79CFD0A20FCF77DFDA22023
:10525000FCF77AFDC020FCF793FD1020FCF774FDED
:10526000C120FCF78DFD1020FCF76EFDC520FCF77A
:1052700087FD4520FCF768FD1520FCF765FDC7207C
:10528000FCF77EFD9020FCF75FFD3620FCF778FDF3
:10529000C820FCF759FDF220FCF772FD0020FCF756
:1052A00053FDB020FCF76CFDC220FCF74DFDB6208D
:1052B000FCF766FD0A20FCF747FDA720FCF744FD3C
:1052C0002720FCF741FD0420FCF73EFD2A20FCF7D7
:1052D00057FD0020FCF738FD0020FCF735FD0020CD
:1052E000FCF732FDEF20FCF72FFD2B20FCF748FDEB
:1052F0000020FCF729FD0020FCF726FD0120FCF72B
:1053000023FD3F20FCF720FDF620FCF739FD0120AE
:10531000FCF71AFD0020FCF717FD0620FCF714FD32
:105320002C20FCF72DFDC820FCF778FD2620FCF78B
:1053300027FD0120FCF708FDE020FCF721FD0F20F0
:10534000FCF702FD2920FCF7FFFC2420FCF7FCFC05
:105350000C20FCF7F9FC0E20FCF7F6FC0920FCF70A
:10536000F3FC4E20FCF7F0FC7820FCF7EDFC3C2031
:10537000FCF7EAFC0920FCF7E7FC1320FCF7E4FC4F
:105380000520FCF7E1FC1720FCF7DEFC1120FCF700
:10539000DBFC0020FCF7D8FCE120FCF7F1FC00204E
:1053A000FCF7D2FC1620FCF7CFFC1B20FCF7CCFC52
:1053B0000420FCF7C9FC1120FCF7C6FC0720FCF711
:1053C000C3FC3120FCF7C0FC3320FCF7BDFC4220BD
:1053D000FCF7BAFC0520FCF7B7FC0C20FCF7B4FC8A
:1053E0000A20FCF7B1FC2820FCF7AEFC2F20FCF7CC
:1053F000ABFC0F20FCF7A8FC1120FCF7C1FCC82077
:10540000FCF70CFD2920FCF7BBFCBDE808402C2074
:10541000FCF7B6BC08B5FCF787FC0321D320FCF7EA
:10542000CBFC80B208BD10B5C4B2022203212046D5
:10543000FCF730FC0A20FCF775FC20460022032113
:10544000FCF728FCBDE810400220FCF76BBC38B527
:105450000446E4B2FCF71CFC00212046FCF732FCB9
:10546000012105462046FCF72DFC40EA052080B2CC
:1054700038BD10B5C4B240212046FCF723FC03061A
:1054800007D54C212046FCF71DFC003818BF012031
:1054900010BD01224B212046FCF7FCFB20460022D8
:1054A0004B21FCF7F7FB0020F2E773B50423C4B2ED
:1054B0000E461546D7210DEB03022046FCF71CFCD7
:1054C000019B1BBA1A0DC3F30B23328020462B809D
:1054D00001224B21FCF7DEFB00224B212046FCF78A
:1054E000D9FB02B070BD000010B50A4A137898428B
:1054F00004460DD0517888420AD00BB141B901233E
:10550000D454FCF7C5FB2046BDE81040FFF78BBF25
:1055100010BD00BF2821002010B5C4B209212046CB
:10552000FCF7D0FB40F00102D2B220460921BDE8D1
:105530001040FCF7AFBB10B5C4B209212046FCF700
:10554000C1FB092100F0FE022046BDE81040FCF737
:10555000A1BB38B5C4B20D4620460A21FCF7B2FB08
:1055600040EA0502D2B220460A21BDE83840FCF7E5
:1055700091BB10B50446FCF78CFB20461F21FFF7BA
:10558000E8FF2046BDE81040FFF7C6BF38B5C4B2FB
:105590000D4620460A21FCF795FB20EA0502D2B20F
:1055A00020460A21BDE83840FCF774BB10B504461C
:1055B000FFF7C1FF20461F21BDE81040FFF7E6BFFF
:1055C00010B5C0B20C460B21FCF77CFB204010BD8F
:1055D0001F21FFF7F5BF0A46C0B20B21FCF75ABBEB
:1055E0001F21FFF7F8BF38B5C4B20D46204617217A
:1055F000FCF768FB20EA0502D2B220461721BDE87D
:105600003840FCF747BB70B5C4B2064604212046BB
:10561000FCF758FB042100F0FB0205462046FCF78E
:1056200039FB3046F021FFF7DEFF05F0F802204697
:105630000421FCF72FFB492220212046FCF72AFBFE
:105640000220FCF76FFB204601222121FCF722FB00
:1056500020469A224121FCF71DFB204601224A21C7
:10566000FCF718FB204601224B21FCF713FB2046D8
:1056700000224B21FCF70EFB204601225621FCF7AD
:1056800009FB204601225821FCF704FB2046012299
:105690004021FCF7FFFA2046FF220B21FCF7FAFA23
:1056A000BDE870400220FCF73DBB0000054BD3F87D
:1056B000882042F47002C3F888204FF000629A609C
:1056C000704700BF00ED00E008B50B4B1A6842F4CC
:1056D00000721A601A6842F480621A601A6842F412
:1056E00080721A60032000F02FF80020FCF732FED1
:1056F000FCF7A2FB002008BD003C0240034A044B1B
:1057000011681B780B441360704700BF2C210020E8
:1057100078000020014B1868704700BF2C21002042
:1057200038B50446FFF7F6FF631C1CBF054B1B781A
:10573000054618BFE418FFF7EDFF431BA342FAD359
:1057400038BD00BF780000200749CA6822F4E06233
:105750000302120403F4E063120C134343F0BF632B
:1057600043F40033CB60704700ED00E0164B30B5DA
:10577000DC68C4F30224C4F10703251D042B28BFF1
:105780000423062D4FF0FF358CBF033C002405FA9F
:1057900003F321EA0303A54022EA0502A3400028FF
:1057A00043EA0203ACBF00F16040084A4FEA03132A
:1057B000B8BF00F00F00DBB2AABF00F56140135480
:1057C00080F8003330BD00BF00ED00E014ED00E0D4
:1057D000002807DB044A4109012300F01F00834031
:1057E00042F82130704700BF00E100E010B50446E8
:1057F00050B1437903F0FF0213B90271FCF73CFB8F
:1058000001236371002010BD0120FCE710B50446A0
:1058100020B390F8393003F0FF021BB980F838202C
:10582000FCF742FB022384F83930236861681A6868
:1058300022F440320A431A605A6BA16822F0070230
:105840000A435A631A6CE1686FF30D020A431A6443
:1058500000200123E06384F8393010BD0120FCE70B
:1058600070477047036870B55E681D68F2070446AC
:1058700014D5E90512D51A6822F480721A60C26B39
:1058800042F00102C26301229A60042380F8393099
:10589000002380F83830436903B19847B20616D523
:1058A000AB0414D523681A6822F400521A6020222F
:1058B0009A60E36B43F00203E363042384F8393016
:1058C000002384F8383063690BB1204698473007CD
:1058D00016D5290514D523681A6822F400621A60C7
:1058E00008229A60E36B43F00403E363042384F823
:1058F0003930002384F8383063690BB1204698476B
:1059000072070BD56B0509D523681A6822F48062EB
:105910001A6004229A602046FFF7A2FFB00714D550
:10592000A90512D523681A6822F400721A600222AF
:105930009A60E36BE363012384F83930002384F831
:10594000383023690BB120469847F20613D5EB0493
:1059500011D523681A6822F480521A6010229A60C6
:10596000E36BE363012384F83930002384F8383093
:105970002046FFF776FF70BDF0B590F83820012A79
:1059800003464FF002002BD0012283F8382083F821
:10599000390003EB0112D2E90740556A174F44EA78
:1059A0000040093C012C9CBF05F07F4210434FEAA8
:1059B00001161A6888BF40EA056091B9516A3940FA
:1059C00001435162012C9969916103D8596A21F010
:1059D0007F4191620122002083F8392083F838004A
:1059E000F0BDD16939400143D1619919012C896910
:1059F00011619CBF25F07F451562EBE7F0FFFC00CD
:105A00002DE9F74FDFF8BC916C4A00230D680124A3
:105A10009C4004EA0506AC4340F0B7804D6803277C
:105A200005F003044FEA430807FA08FC671E012F3C
:105A30006FEA0C0C34D8876807EA0C0ECF6807FAB7
:105A400008F747EA0E078760476827EA060EC5F39E
:105A500000179F4047EA0E074760C76807EA0C0E29
:105A60008F6807FA08F747EA0E07022CC76019D1BA
:105A70004FEAD30A00EB8A0A03F0070BDAF820702A
:105A80004FEA8B0B4FF00F0E0EFA0BFE27EA0E0EAD
:105A90000F6907FA0BF747EA0E07CAF8207001E012
:105AA000032CDAD1076804FA08F407EA0C073C4330
:105AB00015F4403F046068D000240194D9F84440B4
:105AC00044F48044C9F84440D9F8444023F0030723
:105AD00007F1804704F4804407F59C37019403F0F4
