:020000040800F2
:10000000000003205D060008FD210008FF21000814
:100010000122000803220008052200080000000059
:1000200000000000000000000000000071790008DE
:100030000722000800000000017A00089172000801
:10004000AD060008AD060008AD060008AD060008C4
:10005000AD060008AD060008AD060008AD060008B4
:10006000AD060008AD060008AD060008AD060008A4
:10007000AD060008AD060008AD060008AD06000894
:10008000AD060008AD060008AD060008AD06000884
:10009000AD060008AD060008AD060008AD06000874
:1000A000AD060008AD060008AD060008AD06000864
:1000B000AD060008AD060008AD060008AD06000854
:1000C000AD060008AD060008AD060008AD06000844
:1000D000AD060008AD060008AD060008AD06000834
:1000E000AD060008AD060008AD060008AD06000824
:1000F000AD060008AD060008AD060008AD06000814
:10010000AD060008AD060008AD060008AD06000803
:10011000AD060008AD06000809220008AD0600087B
:10012000AD060008AD060008AD060008AD060008E3
:10013000AD060008AD060008AD060008AD060008D3
:10014000AD060008AD060008AD060008AD060008C3
:10015000AD060008AD060008AD060008AD060008B3
:10016000AD060008AD060008AD060008AD060008A3
:10017000AD060008AD060008AD060008000000004E
:10018000AD060008AD060008AD060008AD06000883
:10019000AD060008AD060008AD060008AD06000873
:0C01A00015220008AD060008212200080E
:1001B00010B5054C237833B9044B13B10448AFF3A1
:1001C00000800123237010BD800300200000000088
:1001D000A03D020808B5034B1BB103490348AFF328
:1001E000008008BD0000000084030020A03D02083C
:1001F00001F0FF01102A2BDB10F0070F08D010F8D8
:10020000013B013A8B422DD010F0070F42B3F6D1DB
:10021000F0B441EA012141EA014122F007047FF0F4
:1002200000070023F0E80256083C85EA010586EA4B
:10023000010685FA47F5A3FA87F586FA47F6A5FA87
:1002400087F68EB9EED1F0BC01F0FF0102F0070293
:1002500032B110F8013B013A83EA010313B1F8D13E
:100260000020704701387047002D06BF354603381F
:10027000073815F0010F07D1013015F4807F02BF58
:10028000013015F4C03F0130F0BC0138704700BFA9
:100290007BB972B90029BEBF00204FF0004106E0D3
:1002A00008BF00281CBF6FF000414FF0FF3000F086
:1002B000D3B9ADF1080C6DE904CE002909DB002BA0
:1002C0001ADB00F04DF8DDF804E0DDE9022304B0AC
:1002D0007047404261EB4101002B1BDB00F040F80E
:1002E000DDF804E0DDE9022304B0404261EB4101A6
:1002F000524263EB43037047524263EB430300F007
:100300002FF8DDF804E0DDE9022304B0404261EBA0
:1003100041017047524263EB430300F021F8DDF8DE
:1003200004E0DDE9022304B0524263EB430370476B
:1003300053B94AB9002908BF00281CBF4FF0FF314C
:100340004FF0FF3000F088B9ADF1080C6DE904CE34
:1003500000F006F8DDF804E0DDE9022304B07047A0
:100360002DE9F047089D8E4604468846002B4AD169
:100370008A42174662D9B2FA82F64EB1C6F120031C
:1003800001FA06F820FA03F3B74043EA0808B4403C
:100390004FEA174E1FFA87FCB8FBFEF1230C0EFB49
:1003A000118843EA084301FB0CF29A4209D9FB1871
:1003B00001F1FF3080F0EA809A4240F2E780023992
:1003C0003B449A1AA3B2B2FBFEF00EFB102243EAA2
:1003D000024300FB0CFC9C4509D9FB1800F1FF32DD
:1003E00080F0D6809C4540F2D3803B44023840EAFE
:1003F0000140A3EB0C0300211DB1F3400022C5E92D
:100400000032BDE8F0878B4205D90DB1C5E9000186
:1004100000210846F5E7B3FA83F1002946D1734578
:1004200002D3824200F20581841A6EEB030201209E
:100430009046002DE5D0C5E90048E2E7002A00F02B
:100440009080B2FA82F6002E40F0A4808A1A030C43
:100450004FEA174E80B2BCB20121B2FBFEFC0EFB8C
:100460001C2243EA024304FB0CF29A4207D9FB1810
:100470000CF1FF3802D29A4200F2E080C4469B1A87
:10048000B3FBFEF20EFB123340EA034302FB04F41B
:100490009C4207D9FB1802F1FF3002D29C4200F2C5
:1004A000CA8002461B1B42EA0C40A5E7C1F12006A8
:1004B0008B4022FA06F71F430EFA01F420FA06F3E6
:1004C0002EFA06FE4FEA1749234300FA01F81FFAF5
:1004D00087FCBEFBF9F01C0C09FB10EE44EA0E444D
:1004E00000FB0CFEA64502FA01F209D93C1900F105
:1004F000FF3A80F09C80A64540F2998002383C4447
:10050000A4EB0E041FFA83FEB4FBF9F309FB1344BA
:100510004EEA044403FB0CFCA44508D93C1903F142
:10052000FF3E80F08280A4457FD9023B3C4443EAF1
:100530000040A4EB0C04A0FB02EC64457346E146CA
:1005400062D35FD05DB1B8EB030264EB090404FA37
:1005500006F622FA01F31E43CC40C5E900640021EF
:100560004FE7B1FBF2FC010C41EA0E4180B240EAD8
:1005700001423B4638463C46B846BE462026B1FBC3
:10058000F7F1A2EB080241EA0C4166E7014618E7E1
:1005900010462CE7C6F120022EFA02F3B740B14014
:1005A00020FA02F24FEA174E0A43B3FBFEF8BCB240
:1005B0000EFB1833110C41EA034108FB04F9B0406B
:1005C00089454FEA104380B23ED9791808F1FF3CC3
:1005D00001D289451FD8A1EB0901B1FBFEF909FB46
:1005E00004F80EFB191192B242EA0142424529D2A7
:1005F000BA1809F1FF31C4D24245C2D2A9F10201B1
:100600003A44BEE7F0459DD2BEEB02036CEB070C0B
:100610000138E14696E7A7EB09094944A8F1020C25
:10062000B1FBFEF909FB04F8DBE773467FE75046B0
:1006300066E70846FDE63B44023A33E7ACF1020CBC
:100640003B441CE749469CE7A1EB0901C446B1FBCA
:10065000FEF909FB04F8C4E7704700BFDFF834D0A7
:10066000002103E00C4B5B58435004310B480C4B0A
:1006700042189A42F6D30B4A02E0002342F8043BA8
:10068000094B9A42F9D304F085FB22F01BFE01F0DE
:1006900065F8704700000320B41113080000002023
:1006A000640100208003002090480120FEE770478D
:1006B00008B500F0BDFDBDE8084000F03FBD00F00A
:1006C000B9BD704710B50421044621F00FFC204647
:1006D00010BD000038B50C4B0C4C18800C4B822020
:1006E00019806368984740F6110398420AD1094D72
:1006F00023682C60822098472B688220DB6898470B
:10070000002038BD0120FCE7A60300204C0000209B
:10071000A4030020A80300204FF4A071F020FFF7ED
:10072000D9BF0000F7B5394D2B6804461B698220FC
:100730009847208000284ED02B680DF106025B6997
:1007400001A982209847324B1B78002B4BD0BDF873
:10075000062040F674639A423FD9ADF80630BDF8E2
:1007600006209B1A9BB20A2B42D90B22B3FBF2F351
:10077000284A1288934201D9013A93B2BDF8042065
:10078000254840F6B8318A4234D8C2F571620E323B
:10079000016892B20F25B2FBF5F2204D2D88AA42D6
:1007A00084BF05F1FF35AAB28A4215468EB22AD916
:1007B000921B91B21A4E3768BB42BAB28CBF9A1ADA
:1007C000D21A92B211440529C4BF05603360036890
:1007D00063803368A38003B0F0BDB32A9CBFB4220A
:1007E000ADF80620BBE7BDF80630A3F5B473B9E752
:1007F0000023C3E7C2F56D62083292B20E2A016887
:10080000C8D800252A46891A89B2D3E7A803002050
:10081000DC2A0020A4030020A0030020A60300205F
:100820009C03002037B568460D461446FFF77AFF53
:10083000BDF8000030B1BDF802302B60BDF80430C7
:100840002360012003B030BD032821D8DFE800F089
:10085000020B12190F4B1A68B2FA82F252090421E4
:100860000D4804F02BBD0B4B5A68B2FA82F25209C4
:100870000821F5E7074B9A68B2FA82F25209102173
:10088000EEE7044BDA68B2FA82F252092021E7E778
:10089000704700BFAC03002000100240032821D89D
:1008A000DFE800F0020B12190F4B1A68003A18BF6C
:1008B000012204210D4804F001BD0B4B5A68003A97
:1008C00018BF01220821F5E7074B9A68003A18BFC4
:1008D00001221021EEE7044BDA68003A18BF01222A
:1008E0002021E7E7704700BFAC0300200010024062
:1008F00003280DD8DFE800F00206080A04210548A5
:1009000004F0E1BC0821FAE71021F8E72021F6E71E
:10091000704700BF0010024008B5032811D8DFE877
:1009200000F0020A0C0E0421074804F0C1FC431E2B
:100930005842584108BD0821F6E71021F4E720216C
:10094000F2E70020F3E700BF0010024070B5084D49
:1009500000240126E0B2FFF7DFFF18B12B68012B5E
:1009600018BF2E600134052C05F10405F2D170BDCD
:10097000AC030020012380F8781080F879307047AC
:100980007047002070470000034B4164003918BFD6
:1009900001211970704700BF4F3B012070470020B4
:1009A0007047836B0BB10846184770474FF6FF70CE
:1009B0007047406803689B691847704770477047E5
:1009C0007047704710B5044600F04AFD236803499C
:1009D000D3F890302046BDE810401847000000D002
:1009E00008B503680446D3F8843098472368204646
:1009F000DB6F984700F0ECF8236820465B6F984760
:100A0000292001F01BF900F0E3F8236820465B6F12
:100A10009847F8E710B5044609F0A2FD2368204680
:100A2000D3F8BC30BDE81040184700F0FDBC00F022
:100A300001BD00F033BD00F0D3BC00F043BD00F0B9
:100A40004BBD00F0D7BC08F0B9BF10B584210446F7
:100A500021F04CFA204610BD10B590F8341090F8F3
:100A600078400C4B8C421A7809D03AB90A4A0B49A3
:100A70001488088810800C8001221A7010BD002A8A
:100A8000FCD0054A05491488088810800C80002293
:100A9000F3E700BF483B0120443B0120463B0120D7
:100AA00070B50D46194635B9094B0A4A0A4840F255
:100AB000FF2122F057F9C0E90F52084B003A18BF46
:100AC00001221A700368BDE87040D3F890301847CF
:100AD000103E0208483E0208963E02084E3B0120A6
:100AE00008B5094B1B888B4203D8084B1B889342DF
:100AF00005D9074B074A0848A32122F033F9074BD1
:100B00001980074B1A8008BD443B0120463B012059
:100B1000DB3E02083E3F0208963E02084A3B0120A7
:100B20004C3B0120034690F87A0018B158680368DE
:100B30001B68184770470000012108B500220846CD
:100B400006F030FC0A4B186028B90A4B0A4A2821E3
:100B50000A4822F007F900220421012006F0C1FC16
:100B6000074B186018B9074B034A2C21F0E708BD62
:100B7000C0030020813F0208CA3F0208F93F020873
:100B8000BC0300205C400208024B4FF0FF311868A4
:100B900006F052BCC0030020014B186806F078BC78
:100BA000C0030020024B0021186806F045BC00BFBE
:100BB000C0030020FFF7F0BF03480449006800238A
:100BC0001A4606F0C9BC00BFBC0300200400002088
:100BD00013B5084C00231A4601A9206806F0EDFC65
:100BE00020684FF0FF33002201A906F0E6FC02B0B6
:100BF00010BD00BFBC03002003685B6C18470120D8
:100C0000704703689B6A1847FEE740F2EF30704771
:100C1000054B0360054B4FF08062C3F88820BFF39B
:100C20004F8FBFF36F8F7047F04D020800E100E077
:100C300010B504464FF45A61FFF7EAFF204621F051
:100C400055F9204610BD000082B0002301930E4BE1
:100C50001A6B42F400021A631A6B02F4000201924A
:100C6000019A1A6942F400021A611A6922F4000218
:100C70001A61064B064A1A61064A5A61064B4FF042
:100C800080629A6002B0704700380240702C0020E9
:100C9000E90E0008090C000800E100E008B50A2888
:100CA00009D8DFE800F006100E0808080810101038
:100CB0001000022008BD054B054A0648902122F08D
:100CC00051F80020F6E70120F4E700BF9E4002083B
:100CD000B94002080441020838B50C46887FFFF786
:100CE000DDFFA58AE28A164B2169586342EA054274
:100CF0005A64628BD963521B1A642568082D0ED181
:100D00009A611A615862207F0E4A42EA0062DA61F3
:100D1000E2681A620C4A5961D9601A6038BD002233
:100D2000D8611A61E1680A0A480902F4784200F4BD
:100D3000FC600243C1F3C4010A439A63034AECE72F
:100D400000B002400900010001230200012303005A
:100D500008B50B280BD8DFE800F00612100A0A0AC3
:100D60000A0808080808022008BD0520FCE7054B12
:100D7000054A06486F2121F0F5FF0020F4E7012025
:100D8000F2E700BF9E4002086541020804410208E4
:100D90002DE9F04191F81D800C464046FFF7D8FF41
:100DA000A77F05463846FFF7D3FF06463846FFF7CC
:100DB00075FFA18A628B444B521A1A649A61228B86
:100DC000521A1A61E28A586342EA01425A6421695E
:100DD0006268D963DA602068802828D0227F0FD823
:100DE000202867D0402865D004281AD0364B45EA21
:100DF000026545F40035B845DD6161D0334A44E011
:100E0000B0F5807F04D0B0F5007FEFD1304800E02E
:100E1000304840EA0262DA61E2681A625E62596151
:100E200032E045EA026242F40032DA61F6E7A06895
:100E3000021DDA62227F45EA026545F40035DD6174
:100E40005E625961017841B1012921D0224B234AC8
:100E500023484FF48D7121F085FFDA69418822F42F
:100E60007F42013922F0100242EA0122DA610121B7
:100E7000154BDA6942F02002DA61DA699206FCD495
:100E800010229A600029B9D0164A1A60BDE8F08194
:100E9000B2F1FF01DA69408822F47F4200F1FF30AD
:100EA00022F0100242EA002242F0100218BF012193
:100EB000DA61DDE745EA0262034B42F40032B4E74F
:100EC00042F20132E1E700BF00B00240012301001D
:100ED000090002000A000200AF410208C9410208ED
:100EE0000441020801230200024B1B685868036892
:100EF0005B691847503B012070B5044625460A4BF4
:100F00000C30002660602672667245F8203B602235
:100F1000294609F07BFC04F55A63EE6024359D42B6
:100F2000FBD1204670BD00BFF04D0208034B1A688C
:100F3000D207FCD423229A60704700BF00B0024061
:100F40007047000030B50F4C2568ED07FCD4232511
:100F50000904A56041F001010225FF2B656361646E
:100F6000E0630AD00849656241EA0363E361074B25
:100F700022626061E060236030BDE561039BA36392
:100F8000034BF8E700B00240090001000100020035
:100F90000100030030B50E4C2568ED07FCD4232575
:100FA0001204A56042F001020225FF2B6563626412
:100FB000E063E16008D01B0643F00213E361054BD8
:100FC00065626061236030BD034BE3610123F9E793
:100FD00000B0024001000200020002FF30B50B4CDD
:100FE0002568ED07FCD4232512041B06A56043F4F5
:100FF0000033022542F0010265636264E063E16050
:10100000E361034B65626061236030BD00B0024064
:1010100001000200012070474020704700EB811062
:101020000830704700EB811008307047012070478E
:1010300041F29C50704741F29C5303FB0100083081
:10104000704741F29C5303FB0100083070470120B8
:1010500070471020704700EB01100830704700EB1C
:10106000011008307047084601F05EBE10B5034B12
:101070000360044608F0F7F9204610BDA84E0208A8
:1010800010B50446FFF7F2FF2046482120F02EFF5E
:10109000204610BD10B5034B0360044608F0E3F989
:1010A000204610BD744E020810B50446FFF7F2FF4B
:1010B000204641F2A45120F019FF204610BD000047
:1010C00010B5034B0360044608F0CDF9204610BD6F
:1010D000404E020810B50446FFF7F2FF20461821E3
:1010E00020F004FF204610BD10B5094B03600446F4
:1010F00000F5AE501030FFF7B9FF04F12C00FFF7F8
:10110000C9FF04F11400FFF7DBFF204610BD00BF4C
:10111000DC4E020808B50248FFF7E6FF08BD00BF35
:101120009C12002010B50446FFF7DEFF204641F276
:10113000787120F0DBFE204610BD00002DE9F34160
:1011400001F0E8F8054601F0E9F8002401462346DD
:1011500028462246009411F017FE274B274A1A60B2
:10116000204603F015F9264D264B274A27489A605A
:1011700011F072FD2B68BFF35B8FDB0736D4284676
:1011800020F0B6FE90B3224C224F234B236007F190
:101190004C0604F1140004F12C086060C4F80880C7
:1011A000E760266108F060F91C4B6361404608F077
:1011B0005BF91B4BE362384608F056F904F580539F
:1011C00003F5C360174AC3F8D02503F01BFA224683
:1011D00007F14801304603F059F9304601F0A4FD0B
:1011E000114821F0DDFD284620F08EFE0F4802B0A8
:1011F000BDE8F041FFF7E6BBB43B01204804002006
:1012000098120020680400204C04002008000020F0
:101210009C1200206C280020DC4E0208404E020880
:10122000744E0208A84E020815110008C4030020DD
:10123000704700000148FFF7D3BB00BFC403002084
:1012400070B5264E264C274D274B23603046FFF7BE
:1012500053FE284616F09EFE24480FF039FD244B1D
:101260002448DC6000224FF48071C3E91212224945
:101270001A86C3E91A12214983F85820C3E91E01CE
:101280001F49C3F880101F491F480B60F021C3E9B4
:101290000422C3E90622C3E90822C3E90A22C3E9FA
:1012A0000E22C3E91022C3E91422C3E917225A66A9
:1012B00083F870205A67C3E90165018013480180F3
:1012C00013484FF4A07101801248018012490A703E
:1012D000012283F83420114A1A6070BDF404002002
:1012E0009412002068040020003E02084C040020F4
:1012F000C4030020000001010100000100045000AF
:101300001A001400503B0120443B01204A3B0120BD
:10131000463B01204C3B0120483B0120044D020884
:101320000148FFF775BC00BFF4040020002070479F
:1013300081807047C180704701817047418170474B
:101340007047704770477047704710B4C48803688F
:10135000121B84885B6D091B12B25DF8044B09B245
:1013600018474FF6FF7383814FF0FF330362136812
:10137000C36110607047002070478B888380012014
:101380007047704780F82610704790F82600704725
:1013900010B50022B1F90840B1F90A10028042806C
:1013A0008480C18010BD0022028042808280C28081
:1013B00070470177704780ED080A704780F8241065
:1013C000704780F8251070470120704798307047AB
:1013D0008C3070478430704770477047704700000A
:1013E000034B902283F85A2383F85823704700BF99
:1013F00000E100E0094A0A49D3680A48C3F30A0336
:10140000013B9BB20B801169C1F30A0101390180D4
:101410001364536B43F0010353637047006801404A
:10142000162A0020142A0020014BD3F8AC00704784
:1014300000680140024B0122C3F8AC105A627047A9
:101440000068014010B52C21044620F04FFD2046D5
:1014500010BD10B5BC21044620F048FD204610BD4B
:1014600070B5044608F0FFFA23689D6E0EF0A0F9EF
:1014700001462046A8472368054AD3F88C502046E9
:10148000AC460023BDE87040A2F51631604700BFAE
:1014900000B004D008F0CEBA08F0D8BA08F094BA78
:1014A00008F003BC90F8252012B103685B69184767
:1014B000704790F825201AB190F8242002B11860E6
:1014C00070470000034B4FF080629A604FF08072CB
:1014D0009A60704700E100E0084B4FF08062C3F86B
:1014E0008820BFF34F8FBFF36F8F4FF08072C3F828
:1014F0008820BFF34F8FBFF36F8F704700E100E08C
:1015000070B50023124E8380124B0360336893F84A
:10151000582005460AB1D86C00B998680368DB6AA0
:1015200098473368B0FA80F4D86C640930B1036826
:10153000DB6A9847002808BF44F001042CB9064B29
:10154000064A07482C2121F00DFC284670BD00BF3B
:10155000503B0120F04E0208074202086542020893
:101560009E42020870B5254E3568BFF35B8F15F0BB
:10157000010540D1304620F0BBFC00283BD0204C78
:10158000204B256104F13400C4E90035C4E902555B
:10159000E584A562A5850FF080FE04F158000AF0ED
:1015A000EBFD194BA3652046184B40F8843BFFF731
:1015B000A7FF174BC4F884302433C4F88C304FF4A1
:1015C000C803C4E928350023C4F8AC30C4F8B030EF
:1015D000C4F8B430C4F8B8300E480F4BC4F890507B
:1015E000C4F89C50C4F8A850C4F8983021F0D8FB37
:1015F000304620F089FC024870BD00BF182A002048
:101600001C2A0020C0580208104F0208884F020808
:1016100074580208DD1300085458020838B5184CF5
:1016200023685BB3174B184A1B6C11888B4216D189
:10163000164B198804F04AFC236893F86A200025A9
:10164000013283F86A2083F87C50FFF7B5FA2068EE
:1016500008F086FF2846BDE83840FFF7F5B804F0EB
:1016600035FC2468236820461B6A9847012384F8C8
:101670007C300020BDE83840FFF710B938BD00BF0E
:10168000503B012000680140162A0020142A002047
:1016900007B5064BADF806001B68054801220DF1A1
:1016A000060105F0B3F903B05DF804FB0C0000205F
:1016B0001C2B002008B5642005F068FEFBE7000045
:1016C00030B595B0102200210AA821F052FD142255
:1016D000002103A821F04DFD00241E4B01941A6C3B
:1016E00042F080521A641B6C03F080530193019BFB
:1016F000194B02941A6842F440421A601B6803F4C2
:10170000404302930122029B4FF48033CDE908232A
:1017100002254FF480030821CDE90E534FF4B47332
:10172000CDE9101308A804231393129504F026FCA6
:1017300004F0EAFB0F23CDE903354FF4A0504FF43A
:101740008053CDE90603052103A8059404F0F2FDBA
:1017500015B030BD003802400070004080B59AB02E
:1017600003F026FBFFF7ACFF142200210DA821F0A7
:1017700000FD0024C74B00941A6BC748C74DDFF823
:10178000588342F010021A631A6B02F010020092A2
:10179000009A01941A6B42F020021A631A6B02F04D
:1017A00020020192019A02941A6B42F080021A639D
:1017B0001A6B02F080020292029A03941A6B42F0B2
:1017C00004021A631A6B02F004020392039A04944F
:1017D0001A6B42F001021A631A6B02F001020492C2
:1017E000049A05941A6B42F002021A631A6B02F013
:1017F00002020592059A06941A6B42F040021A639F
:101800001A6B02F040020692069A07941A6B42F095
:1018100008021A631B6B03F00803224607933C215E
:10182000079B03F04BFD9E480122022103F046FD79
:1018300022469B48042103F041FD224699484FF47B
:10184000405103F03BFD01263C23CDE90D36924883
:101850000F9403230DA90227109303F045FC904831
:101860000DA9CDE90D76CDE90F4403F03DFC04232D
:101870008B480DA9CDE90D36CDE90F4703F034FCB7
:101880000DA94FF440538748CDE90D36CDE90F47F8
:1018900003F02AFC8448854B036003F01BFBDFF850
:1018A0003CE2834B2C62C5E900E328464FF48043B9
:1018B000C5E90434C5E90244C5E9064403F00CFF58
:1018C0001021284604F050F921462846794D04F0AD
:1018D0006AF94FF48273C5E900834FF40079182345
:1018E000C5E9069328460A23C5E90244C5E904442C
:1018F000C5E90844AC62EB6205F02CF88F23224660
:10190000394667488DF824308DF8344003F0D6FC12
:1019100032464FF47A7309A9284605F077F84FF458
:101920007A7332460DA9284605F01CFA324639462C
:101930005B48614D03F0C2FC9DF83430D32B04BFEB
:101940005E4B1E705E4B0126C5E900361022402317
:101950000024C5E904234FF4C073C5E906344FF4ED
:101960000063C5E908344FF4005302274FF004091F
:10197000AB624FF0030A07230DA92846CDE90D738A
:10198000CDE90F934FF00808C5E90249CDE911A749
:10199000139704F0C3FE4FF6FF7209A92846CDE95C
:1019A0000A86089409960C9404F0D8FE304603F099
:1019B0002BFA4FF6FF7209A92846CDE90978CDE93F
:1019C0000B6404F0CBFE4FF6FF7209A92846CDE95F
:1019D00009A8CDE90B9404F0C1FE4FF40C730893F1
:1019E000089B0C934FF6FF7209A92846CDE9099888
:1019F0000B9604F0B3FE40F26A51284604F0CCFE88
:101A000034220DEB0200214621F0B3FB2D4D2E4B6D
:101A10002C61C5E900340923C5E905361D23C5E954
:101A2000073A40F20D1140F24313C5E9091340F2A1
:101A3000171040F24713C5E90B032846C5E90244D5
:101A4000AC8685F8364004F049F9FF214FF4806CEC
:101A5000F022CDE912140521CDE914C14FF4A07391
:101A60000DA9CDE90E24CDE9164228462246174D90
:101A70001893CDE910370D94ADF864408DF86640A9
:101A800004F0F7F9124B2B601B6898472B68114D37
:101A9000DB6825E000380240001002401C2C0020CA
:101AA00000080240000C0240B02C00200030024030
:101AB000A08601001C2B0020E82A0020DC2A002040
:101AC000400100A0742B002000680140D82A0020AB
:101AD00014000020702C002000500140005C0040E9
:101AE0009847134B2846C5E90034C5E90274C5E997
:101AF0000A47C5E90C4403F0FDF93146284603F0D6
:101B0000AFFAFEF7D5FDFEF7D2FD05F0CFFB094A8F
:101B10000948214605F0F6FB084B094A18602146A2
:101B2000084805F0EFFB084B186005F0D1FBFEE715
:101B300000B00240F04F0208B5160008E42A002069
:101B4000CC4F0208BF060008E02A0020704770470B
:101B50007FB5094B8DF817201B6802930DF1170212
:101B60000123009201930A460146044803F05CFEFB
:101B700007B05DF804FB00BF100000201C2C002003
:101B80007FB500238DF81730084B1B6802930A4677
:101B900001230DF11701009101930146044803F060
:101BA000D3FE9DF8170007B05DF804FB100000207D
:101BB0001C2C00201FB5084C24680092CDE901348C
:101BC0000A4601230146054803F0BEFE003818BF4F
:101BD000012004B010BD00BF100000201C2C00200C
:101BE00003F012B910B5064C00222046042103F080
:101BF00065FB20460122BDE81040042103F05EBBD6
:101C00000008024038B50B4D044601220A484FF443
:101C1000005103F053FB00220421284603F04EFB41
:101C20002046FFF735FD28460122BDE83840042153
:101C300003F044BB00080240000C024038B50B4DD5
:101C4000044600220A484FF4005103F037FB0022FB
:101C50000421284603F032FB2046FFF719FD2846F1
:101C60000122BDE83840042103F028BB00080240EF
:101C7000000C0240F7B5144E144F05460C46304692
:101C80000022042103F01AFB00224FF400513846D1
:101C900003F014FB2846FFF7FBFC0D4B0D481B68B7
:101CA000224601A905F05EF8384601224FF40051A2
:101CB000019C03F003FB30460122042103F0FEFAED
:101CC000204603B0F0BD00BF00080240000C0240F7
:101CD0000C0000201C2B002003F096B80268034B78
:101CE0009A4201D103F07EB8704700BF0010004057
:101CF0007047000082B00E4B00220092596C41F4F4
:101D000080415964596C01F480410091009901921D
:101D1000196C41F0805119641B6C03F080530193DE
:101D2000019B0F216FF0010002B003F093B800BFD8
:101D3000003802400268094B9A4282B00BD100235E
:101D40000193074B1A6B42F480521A631B6B03F426
:101D500080530193019B02B0704700BF00300240E6
:101D60000038024007B50F4B02689A4216D1002294
:101D7000A3F5F0430192196B41F4000119631B6B49
:101D800003F40003019305215A20019B03F062F83C
:101D90005A2003B05DF804EB03F08EB803B05DF891
:101DA00004FB00BF00B002402DE9F043044689B0B7
:101DB0001422002103A821F0DCF92268244B9A4266
:101DC00043D1244C244800250095236B43F00403A1
:101DD0002363236B03F004030093009B0195236BA3
:101DE00043F001032363236B03F001030193019B81
:101DF0004FF012094FF400734FF001080327042637
:101E000003A9CDE90339CDE90587079603F06CF9FD
:101E10004FF480731148079603A9CDE90339CDE942
:101E2000058703F061F90295236C43F400032364F2
:101E3000236C03F400030293029B236A43F4000320
:101E40002362236A23F40003236209B0BDE8F08310
:101E5000005C0040003802400008024000000240E0
:101E6000F0B599B004461422002107A821F081F9A9
:101E700030220DEB0200002121F07BF922685E4B3D
:101E80009A4240F0B78008230C93C0231093042398
:101E900012930CA84FF40033159304F013FB08B110
:101EA000FFF726FF554B5648002400945A6C42F029
:101EB00080625A645A6C02F080620092009A019427
:101EC0001A6B42F020021A631A6B02F02002019290
:101ED000019A02941A6B42F001021A631A6B02F023
:101EE00001020292029A03941A6B42F002021A63F0
:101EF0001A6B02F002020392039A04941A6B42F0E6
:101F000040021A631A6B02F040020492049A05948C
:101F10001A6B42F004021A631A6B02F00402059273
:101F2000059A06941A6B42F008021A631B6B03F0C1
:101F30000803069302250E26069B0B964FF480633A
:101F400007A9CDE90735CDE9094503F0CDF841F6FC
:101F500058032C480B9607A9CDE907350927CDE989
:101F6000094503F0C1F8032327480B9707A9CDE9DA
:101F70000735CDE9094503F0B7F84FF470632248FF
:101F80000B9607A9CDE90735CDE9094503F0ACF873
:101F90004FF40C631D480B9607A9CDE90735CDE931
:101FA000094503F0A1F8C02319480B9607A9CDE90C
:101FB0000735CDE9094503F097F8082315480B9636
:101FC00007A9CDE90735CDE9094503F08DF84FF4B0
:101FD000A0530E480B9707A9CDE90735CDE9094570
:101FE00003F082F858202246052102F033FF5820E2
:101FF00002F062FF19B0F0BD0068014000380240F5
:102000000014024000000240000402400018024098
:1020100000080240000C024010B5044688B01422AB
:10202000002103A821F0A5F82268144B9A4223D17D
:1020300003F56843002101915A6C114842F4801263
:102040005A645A6C02F480120192019A02911A6B3E
:1020500042F020021A631B6B03F020030293029BE1
:102060004FF4607202230321CDE903230523CDE958
:10207000061303A903F038F808B010BD0050014062
:10208000001402402DE9F04186B0002303932B4B4E
:102090001C68002C4FD14FF00108C3F80080284B7A
:1020A00000949A6B274842EA08029A639B6B03EA02
:1020B00008030093022703260C25009B01A94FF675
:1020C0003F03CDE90137CDE9046503F00DF81E4863
:1020D000059501A9CDE90187CDE9034603F004F890
:1020E00048F233131948059501A9CDE90137CDE927
:1020F000034602F0F9FF4FF683731548059501A9D1
:10210000CDE90137CDE9034602F0EEFF4CF203734F
:102110001048059501A9CDE90137CDE9034602F044
:10212000E3FF60230C48059501A9CDE90137CDE90E
:10213000034602F0D9FF06B0BDE8F081B82C0020BC
:10214000003802400014024000080240001802401B
:1021500000100240000C02400004024070B588B03C
:1021600000230293204B1A6C42F010021A641B6C7D
:1021700003F010030293054601A903A8029B04F093
:1021800083F9069B4BBB04F06FF9184E184B336074
:1021900040F2E733F360174BB0FBF3F3013B73609E
:1021A000304600233361B360B36104F0ABFF0446F3
:1021B00080B9304604F07CFE044658B9362002F05F
:1021C0007BFE0F2D0DD822462946362002F042FE16
:1021D000094B1D60204608B070BD04F045F9400071
:1021E000D3E70124F6E700BF00380240BC2C0020F2
:1021F0000010004040420F007C0000207047FEE7C6
:10220000FEE7FEE7FEE77047014804F08FBE00BF1F
:10221000BC2C0020014803F0CFBD00BF742B002070
:10222000014802F093BE00BF702C002001207047CF
:1022300008B521F041F8162303604FF0FF3008BDC8
:1022400008B521F039F816230360FEE770B50D4696
:1022500014460E46731B9C4201DC204670BDAFF352
:10226000008006F8010BF5E770B50D4614460E46E2
:10227000731B9C4201DC204670BD16F8010BAFF3C6
:102280000080F5E74FF0FF3070474FF400534B608C
:102290000020704701207047002070470A4A1168EB
:1022A00008B5034609B90949116010686946034435
:1022B0008B4206D921F000F80C2303604FF0FF3069
:1022C00008BD1360FCE700BF042D002090480120EA
:1022D000704710B5042104461FF008FE204610BDCB
:1022E00008B5032913D8DFE801F002060A0E02F050
:1022F0009BF8006808BD02F097F84068FAE702F022
:1023000093F88068F6E702F08FF8C068F2E70020E3
:10231000F0E7000000487047285002081520704779
:1023200013B5002451B1036801948DF8034001AA4C
:102330009C680DF10303A04702B010BD0846FBE7FF
:10234000C0897047008A7047C0887047808870478E
:10235000807A00F07F007047807AC00970470020C3
:10236000704700009FED010A704700BF00000000A9
:10237000704710B5082104461FF0B8FD204610BD77
:102380007047704700F598730868496803C3704741
:10239000704770474160704770477047064BC0F800
:1023A0004C310023C0F8503100F5A273C0F8480149
:1023B000C0F84031704700BF312F0008012303727D
:1023C00070477047704770477047704738B505468B
:1023D00040680368DB699847044604B938BDA188A2
:1023E000AB89C91A236820461B6B09B29847A469B8
:1023F000F3E738B5054640680368DB69984704464B
:1024000004B938BDE188AB89C91A236820465B6BE3
:1024100009B29847A469F3E738B5054640680368F0
:10242000DB699847044604B938BDA188AB89C91A4D
:10243000236820461B6B09B29847A469F3E710B4E0
:10244000C26841685410034601EB6200D20748BFDE
:102450000A599B685DF8044B48BFD3581847034698
:10246000406830B19A681AB9D86800F00100704726
:102470000120704710B50C2104461FF037FD20469F
:1024800010BD10B5102104461FF030FD204610BDD0
:1024900010B5102104461FF029FD204610BD10B5CF
:1024A000102104461FF022FD204610BD10B510215A
:1024B00004461FF01BFD204610BD10B54FF4AE7151
:1024C00004461FF013FD204610BD10B54021044600
:1024D0001FF00CFD204610BD10B50DF069F9036822
:1024E000BDE81040DB6B184710B50DF061F90368CB
:1024F000BDE810405B6B184710B50DF059F9036843
:10250000BDE810405B6B184710B50DF051F903683A
:10251000BDE810405B6B184737B50546807A6B7A8B
:102520000130C0B29842A87205D901232B72002352
:10253000AB7203B030BDB5F90C20B5F90E400021E7
:102540000FF0E2FBC30707D500284FF6FF73C8BFA3
:10255000012313FA80F000B2AB7AE881041B012B4F
:10256000A4B206D1174B1B781BB10DF021F90DF069
:1025700025F9154A00231288ADF80230EB891A4478
:102580005B42ADF80430114BADF800201B88ADF86C
:1025900006300DF00DF9036802AA12E906001B6C63
:1025A000984768680368DB6998470546002DC0D0E6
:1025B000A9882B68214428461B6B09B29847AD694E
:1025C000F4E700BF4E3B0120443B0120463B012085
:1025D00037B50546807A6B7A0130C0B29842A8724E
:1025E00005D901232B720023AB7203B030BDB5F9BE
:1025F0000C20B5F90E4000210FF086FBC30707D56C
:1026000000284FF6FF73C8BF012313FA80F000B211
:10261000AB7AE881041B012BA4B206D1134B1B78C3
:102620001BB10DF0C5F80DF0C9F800230093EB893C
:10263000ADF804300E4B1B88ADF806300DF0B8F83D
:10264000036802AA12E906001B6C984768680368D1
:10265000DB6998470546002DC7D0A9882B6821441F
:1026600028461B6B09B29847AD69F4E74E3B012041
:10267000463B012037B50546807A6B7A0130C0B2FF
:102680009842A87205D901232B720023AB7203B0C4
:1026900030BDB5F90C20B5F90E4000210FF034FB28
:1026A000C30707D500284FF6FF73C8BF012313FAED
:1026B00080F000B2AB7AE881041B012BA4B206D1F2
:1026C000174B1B781BB10DF073F80DF077F8154A16
:1026D00000231288ADF80030EB891A44ADF80220CF
:1026E000114A5B421288ADF80420ADF806300DF0B7
:1026F0005FF8036802AA12E906001B6C9847686835
:102700000368DB6998470546002DC0D0E9882B682F
:10271000214428465B6B09B29847AD69F4E700BFD6
:102720004E3B0120463B0120443B0120054B1B78DA
:1027300001462BB1406818B103680C315B6E184735
:10274000704700BF4F3B0120037A70B50546BBB907
:1027500040680368DB69984704463CB968680368C9
:1027600005F10C011B6EBDE870401847A1886B8F06
:10277000C91A236820461B6B09B29847A469ECE785
:1027800070BD10B50446D0F8400158B10368DB684D
:10279000984738B1D4F8400103689B6898470023F4
:1027A000C4F8403110BD70B5044690F8390094F873
:1027B00038300130C0B2984284F8390005D901237D
:1027C0002372002384F8393070BDB4F93A20002117
:1027D0000FF09AFAC30706D500284FF6FF73C8BF5B
:1027E0000123184400B2238AC01AA08760680368D6
:1027F000DB69984705462DB960680368BDE87040FD
:102800005B691847A988A38F19442B6828461B6B5E
:1028100009B29847AD69EEE72DE9F14FD0E9556A65
:102820000746B06803681B6A9847DB2805D8494B00
:10283000494AA321494820F095FA706803681B6A49
:1028400098470F2803D8464B434AA421F2E7F06883
:1028500003681B6A98470F2803D8424B3E4AA521BC
:10286000E8E70CF0A5FFDFF8089104300CF0EDFF6D
:10287000D9F8000010B10368DB689847D9F8000068
:1028800010B103681B689847DFF8E880D8F80000AB
:1028900010B103685B699847D7F83C0110B1036831
:1028A0005B689847D8F8000010B103681B68984728
:1028B000D7F83C0110B103689B689847F06803683B
:1028C00000215B6A9847284B03604FF4A0530381B3
:1028D000264B1B884FF0000B80F80AB05B42044681
:1028E000C0F804B0A0F80EB08381B0680368594600
:1028F0005B6A9847054601F079FE7068036859469F
:102900005B6A98472946064601F050FE331DC7F81A
:102910003C61C9F80040C8F80050CAF800302B6884
:10292000C6F808A02846DB68EE639847336830464F
:102930001B689847214628460FF0E0F92368204697
:102940001B69984723685B69204601B0BDE8F04FDA
:10295000184700BF15430208A34302088444020835
:10296000CB4402086E450208E0520208443B0120B5
:10297000983B0120943B01202DE9F14FD0E9556AA5
:102980000746B06803681B6A9847B0F5887F05D290
:10299000484B494AA321494820F0E4F9706803688C
:1029A0001B6A98470F2803D8454B434AA421F2E7F6
:1029B000F06803681B6A98470F2803D8414B3E4ACA
:1029C000A521E8E70CF0F4FEDFF8049104300CF0E8
:1029D0003CFFD9F8000010B10368DB689847D9F8CC
:1029E000000010B103681B689847DFF8E880D8F84A
:1029F000000010B103685B699847D7F83C0110B13B
:102A000003685B689847D8F8000010B103681B683A
:102A10009847D7F83C0110B103689B689847F06865
:102A2000036800215B6A9847274B03604FF4A0536B
:102A30000381264B1B884FF0000B80F80AB05B42E5
:102A40000446C0F804B0A0F80EB08381B0680368F3
:102A500059465B6A9847054601F08EFD7068036829
:102A600059465B6A98472946064601F063FD331DC7
:102A7000C7F83C61C9F80040C8F80050CAF80030F7
:102A80002B68C6F808A02846DB68EE6398473368D1
:102A900030461B689847214628460FF02FF92368D7
:102AA00020461B69984723685B69204601B0BDE852
:102AB000F04F1847154302081146020884440208E3
:102AC000CB4402086E450208BC520208463B012076
:102AD000983B0120943B01202DE9F0411D460368FD
:102AE000BDF918701B6B044616469847236831469B
:102AF00020465B6B98472368294620469B6B984786
:102B0000236839462046DB6BBDE8F04118470000DA
:102B10002DE9F74FD0E9556A0746B06803681B6A8C
:102B2000984741F29B53984205D8544B544AA321ED
:102B3000544820F017F9706803681B6A98470F28FB
:102B400003D8514B4E4AA421F2E7F06803681B6A90
:102B500098473F2803D84D4B494AA521E8E70CF098
:102B600027FEDFF8389104300CF06FFED9F8000032
:102B700010B10368DB689847D9F8000010B103680A
:102B80001B689847DFF81881D8F8000010B1036877
:102B90005B699847D7F83C0110B103685B689847B8
:102BA000D8F8000010B103681B689847D7F83C01BB
:102BB00010B103689B689847F068036800215B6A5E
:102BC000984705460022324B4260027245F80C3BA2
:102BD0000446284609F01CFF142323872D4B1B783D
:102BE0000022A287002B35D101232372B06803682D
:102BF00000215B6A9847054601F038FD706803685C
:102C000000215B6A98472946064601F00DFD331DF9
:102C1000C7F83C61C9F80040C8F80050CAF8003055
:102C20002B68C6F808A02846DB68EE63984733682F
:102C300030461B689847214628460FF05FF8236806
:102C400020461B69984723685B69204603B0BDE8AE
:102C5000F04F1847104BDFF84CB0B3F90030009339
:102C6000BBF9003011462846FFF736FF284609F029
:102C70004AFEBBF800305B426387B7E715430208A2
:102C8000F346020884440208CB4402086E45020859
:102C9000745202084F3B0120463B0120983B012023
:102CA000943B0120443B0120044B1B6893F85820BF
:102CB0000AB1D86C00B99868704700BF503B01203A
:102CC000F8B5174604460E460CF05CFE124B1C602D
:102CD000124B2360124B0025C4E95135114BC4E956
:102CE00053551868036801219B68C4E94F55C4E92E
:102CF00055769847284601F04BFBFFF7D5FF16F0B5
:102D0000F2FFFFF7D1FF17F069F8FFF7CDFF17F0DB
:102D100071F82046F8BD00BFA43B0120FC51020819
:102D2000E4510208503B0120064BC0F84C3100230F
:102D3000C0F8503100F5A273C0F84801C0F8403126
:102D4000704700BF312F0008064BC0F84C310023FC
:102D5000C0F8503100F5A273C0F84801C0F8403106
:102D6000704700BFD52D0008064BC0F84C3100233A
:102D7000C0F8503100F5A273C0F84801C0F84031E6
:102D8000704700BF79290008064BC0F84C3100237A
:102D9000C0F8503100F5A273C0F84801C0F84031C6
:102DA000704700BF112B0008064BC0F84C310023C0
:102DB000C0F8503100F5A273C0F84801C0F84031A6
:102DC000704700BF1928000803685B6A184703684A
:102DD0005B6A18472DE9F14FD0E9556A0746B0689C
:102DE00003681B6A9847B0F5AE7F05D2474B484A47
:102DF000A32148481FF0B6FF706803681B6A984714
:102E00000F2803D8444B424AA421F2E7F068036834
:102E10001B6A98470F2803D8404B3D4AA521E8E795
:102E20000CF0C6FCDFF8009104300CF00EFDD9F870
:102E3000000010B10368DB689847D9F8000010B1B2
:102E400003681B689847DFF8E480D8F8000010B1E9
:102E500003685B699847D7F83C0110B103685B6869
:102E60009847D8F8000010B103681B689847D7F856
:102E70003C0110B103689B689847F0680368002123
:102E80005B6A9847264B03604FF4A0530381254BA0
:102E90004FF0000B1B8880F80AB004468381594626
:102EA000C0F804B0A0F80EB0B068FFF78DFF05467B
:102EB00001F026FB59467068FFF789FF2946064650
:102EC00001F0FCFA331DC7F83C61C9F80040C8F8AE
:102ED0000050CAF800302B68C6F808A02846DB6806
:102EE000EE639847336830461B689847214628466A
:102EF0000EF004FF236820461B69984723685B692E
:102F0000204601B0BDE8F04F184700BF1543020846
:102F1000D847020884440208CB4402086E450208E0
:102F200098520208443B0120983B0120943B012029
:102F30002DE9F14FD0E9556A0746B06803681B6A6E
:102F40009847B0F5AE7F05D2434B444AA32144488D
:102F50001FF008FF706803681B6A98470F2803D8A2
:102F6000404B3E4AA421F2E7F06803681B6A984789
:102F70000B2803D83C4B394AA521E8E70CF018FC94
:102F8000DFF8EC9004300CF060FCD9F8000010B1D0
:102F90000368DB689847D9F8000010B103681B6824
:102FA0009847DFF8D080D8F8000010B103685B695B
:102FB0009847D7F83C0110B103685B689847D8F888
:102FC000000010B103681B689847D7F83C0110B1A6
:102FD00003689B689847F068036800215B6A98471C
:102FE0004FF0000B214B036004465946C0F804B073
:102FF00080F808B0B068FFF7E7FE054601F080FAF8
:1030000059467068FFF7E3FE2946064601F056FA76
:10301000331DC7F83C61C9F80040C8F80050CAF831
:1030200000302B68C6F808A02846DB68EE63984796
:10303000336830461B689847214628460EF05EFEEE
:10304000236820461B69984723685B69204601B0C6
:10305000BDE8F04F184700BF15430208C3480208F7
:1030600084440208CB4402086E450208505202080C
:10307000983B0120943B0120704770477047704790
:10308000704770B5036804461B6B15469847236864
:10309000294620465B6BBDE8704018470022C0E916
:1030A0000122C0E90322C0E90522C0E907224FF44A
:1030B00080728284014A0260704700BF0453020894
:1030C000406A7047806A704770478A880B8810B5DD
:1030D000D20A4C88C1699BB251F8220043EA0443EA
:1030E000184410BD10B50446BAB1107B68B1537BCB
:1030F000D27A1B0203F4E0631A43236A03EB8203D0
:103100001A888A4202D193F9020010BD05D801380D
:1031100080B204330028F3D1F7E70020F5E710B5BB
:103120002C2104461EF0E2FE204610BD30B58BB0C7
:103130000446BDF860500895BDF85C5007959DF8B1
:10314000505006959DF84C5005959DF848500495B3
:103150009DF8445003959DF8405002959DF83C50D1
:103160000195BDF8385000950EF054F9064B2360D8
:10317000159BE361169B2362199B63621A9BA362F2
:1031800020460BB030BD00BF6C53020830B5036859
:1031900085B06D460181D3F8843001460446284647
:1031A000984795E807003C3484E8070005B030BD37
:1031B00030B5036885B06D464181D3F8843001464F
:1031C00004462846984795E807003C3484E8070001
:1031D00005B030BD0022028042808280C2807047EC
:1031E00080F83610704770B5036804461B6B1546AF
:1031F00098472368294620465B6EBDE87040184713
:1032000000207047806C7047704770477047704768
:1032100030B4C26844685510034604EB6200D2071C
:1032200048BF62599B6830BC48BFD3581847034613
:10323000406830B19A681AB9D86800F00100704748
:103240000120704710B54C2104461EF04FFE204669
:1032500010BD10B5102104461EF048FE204610BDDA
:1032600010B54FF4AE7104461EF040FE204610BD6E
:1032700008B5FEF717F908BD036870B55E6B124B11
:103280001B6804468DB22BB9104B114A6C211148B2
:103290001FF068FD1049828D0988914203D80F4BB9
:1032A0000B4A6D21F3E713F812200D4B1B6853F8FE
:1032B000220003681B6B9847291A3346204609B23F
:1032C000BDE87040184700BFA83B01209B49020899
:1032D000DD490208184A0208AC3B01205F4A020897
:1032E000B03B012038B500F19803994204460D46E1
:1032F00003D10CF05DFAFFF757FDCC34A54205D1A0
:103300000CF056FABDE83840FFF72EBD38BD00225C
:103310004FF0FF31C0E900218260704710B52622CE
:10332000044600211FF025FF2046FFF7B7FE0023CB
:10333000A36284F82C30012384F82430044B2360EA
:103340004FF6FF7384F83230E3852386204610BDA4
:10335000E85B02082DE9F04F04468BB0A04600253B
:103360000EF020FB6E4BE56348F8403B4FF026091A
:103370004A46294640461FF0FCFE4046FFF78EFEB7
:1033800004F16C07FF26674B23644A464FF0FF3376
:10339000294684F86660A5663846ADF820301FF0EF
:1033A000E8FE3846FFF77AFE5F4BE366BDF8203053
:1033B000A4F8923008A904F1980B84F89460384678
:1033C00009F0E7FD04F1CC0A584604F58076FFF7D2
:1033D000A5FF5046FFF7A2FF4A46294630461FF098
:1033E000C8FE3046FFF75AFE504BC4F828314FF460
:1033F0007F03C4F834314E4BC4F800314FF0FF3333
:10340000C4E950354B4BC4F83051C4E953344A4BEE
:10341000A4F83851C4E955354FF0FF324FF4A0738A
:10342000A4F82C21C4F83C51C4F848512A46009312
:1034300029464046F023FFF74FFB04F104094FF003
:103440007F43A3664146484606F022F82A462946AD
:103450003846FFF716FE052308A93846ADF8203098
:1034600009F097FD3946484606F012F8584640F2F2
:1034700019121821FFF705FE04F5A677112308AAF3
:1034800007A95846ADF81C30ADF8203009F048FCCB
:1034900059464846C4F8C07005F0FAFF504640F25D
:1034A0001D12CD21FFF7EDFD072308AA07A95046FD
:1034B000ADF81C30ADF8203009F032FC51464846DA
:1034C000C4F8F47005F0E4FF0F2300931D2230468A
:1034D0002D236321FFF700FB184BC4F83031D4F8DB
:1034E0000031A4F8345102AD31462846D3F8843077
:1034F000984795E8070004F59E7383E807000B4B97
:10350000089308A902233046ADF8243009F0AAFB3D
:103510004846314605F0BCFF20460BB0BDE8F08FB1
:103520007C540208805B02085C5C0208D4510208EB
:10353000D453020864540208E5320008E4FDFFFF9A
:1035400070477047704730B4C268446855100346EE
:1035500004EB6200D20748BF62599B6830BC48BF89
:10356000D35818470346406830B19A681AB9D868EA
:1035700000F0010070470120704710B5102104468B
:103580001EF0B4FC204610BD10B54FF488710446FF
:103590001EF0ACFC204610BD38B500F198039942EE
:1035A00004460D4603D10CF003F9FFF7FDFBCC34C4
:1035B000A54205D10CF0FCF8BDE83840FFF7C4BBCC
:1035C00038BD00002DE9F3470446264600250EF0DD
:1035D000E9F94B4BE56346F8403B4FF026094A4674
:1035E000294630461FF0C5FD3046FFF757FD04F170
:1035F0006C074FF0FF08434B23644A464FF6FF73B6
:10360000294684F86680A5663846ADF804301FF078
:10361000B0FD3846FFF742FD3B4BE366BDF8043092
:10362000A4F8923001A904F1980A84F894803846ED
:1036300009F0AFFC04F1CC095046FFF76FFE484695
:10364000FFF76CFE314BC4E94034314B2A46C4E9E4
:10365000423529463046FFF714FD3046F021FDF78C
:103660006BFE30464FF4A071FDF768FE04F10408CC
:103670004FF07F43A3663146404605F009FF2A46D6
:1036800029463846FFF7FDFC082301A93846ADF866
:10369000043009F07EFC3946404605F0F9FE5046FC
:1036A00037223321FFF7EDFC04F58076122301AABF
:1036B00069465046ADF80030ADF8043009F030FBF3
:1036C00051464046C4F8C06005F0E2FE48464FF45B
:1036D0008C720C21FFF7D5FC01AA69464846ADF86B
:1036E0000050ADF8045009F01BFB4046C4F8F460EC
:1036F000494605F0CDFE204602B0BDE8F08700BF88
:10370000C8540208805B02085C5C0208B0540208DE
:103710009935000870477047704730B4C2684468F4
:103720005510034604EB6200D20748BF62599B68FC
:1037300030BC48BFD35818470346406830B19A6838
:103740001AB9D86800F0010070470120704710B521
:10375000102104461EF0CAFB204610BD10B5DC2126
:1037600004461EF0C3FB204610BD9830884208B5C1
:1037700005D10CF01DF8BDE80840FFF705BB08BDFA
:103780002DE9F3470446264600250EF00BF9484B79
:10379000E56346F8403B4FF0260A5246294630463C
:1037A0001FF0E7FC3046FFF779FC04F16C07414B52
:1037B00023644FF0FF084FF6FF795246294684F8FC
:1037C0006680A5663846ADF804901FF0D2FC3846F6
:1037D000FFF764FC384BE366BDF80430A4F8923080
:1037E00084F8948001A904F19808384609F0D1FBC7
:1037F0005246294640461FF0BCFC4046FFF74EFCAF
:10380000012384F8BC302D4BC4F898302C4BA4F81D
:10381000C690C4E933342B4BA4F8C8902A46C4E9B7
:10382000353584F8CA9029463046C4F8C05084F82B
:10383000C450FFF726FC3046F021FDF77DFD3046F1
:103840004FF4A071FDF77AFD04F104094FF07F43B6
:10385000A3663146484605F01BFE2A4629463846EF
:10386000FFF70FFC092301A93846ADF8043009F031
:1038700090FB3946484605F00BFE4046D7225F21B3
:10388000FFF7FFFB0B2301AA69464046ADF8003065
:10389000ADF8043009F044FA04F1CC034846C4F80A
:1038A000C030414605F0F4FD204602B0BDE8F08787
:1038B00014550208805B02085C5C0208E85B0208A1
:1038C000FC5402086B3700087047000010B5034B2A
:1038D000036004460AF072FA204610BD48550208FB
:1038E00010B5064B036004460AF068FA204641F220
:1038F000B4411EF0FBFA204610BD00BF4855020837
:1039000038B5262204460D4600211FF032FC204621
:10391000FFF7C4FB064B23602B88E384FF2320467C
:1039200084F82830294609F034FB204638BD00BF12
:103930005C5C020810B52622044600211FF019FC29
:103940002046FFF7ABFB0A4BA3624FF6FF73A3853C
:103950004FF47F020023C4E90C32064A2260238719
:103960004FF0FF32C4E91023E363A364204610BD87
:10397000D4510208D45302082DE9F04F0446A3B0F5
:10398000A04600260EF00EF8D74BE66348F8403B01
:103990002622314640461FF0ECFB4046FFF77EFBF7
:1039A000D24B236404F16C0BFF234FF6FF7584F8B0
:1039B000663004F1980A20A9A666584604F1C409A5
:1039C000ADF88050FFF79CFF20A95046ADF880501D
:1039D000FFF796FF20A94846ADF88050FFF790FF0B
:1039E00004F1F00320A904F58E7718460393ADF88F
:1039F0008050FFF785FF384608F092FD04F5C67346
:103A000018461F93FDF77CFDB94BC4F88C31243365
:103A1000C4F8943104F5D07320A91846C4F898610D
:103A20000493ADF88050FFF76BFF04F5E67320A90F
:103A300018460593ADF88050FFF762FF04F5FC735C
:103A400020A918460693ADF88050FFF759FF04F5FA
:103A5000097320A918460793ADF88050FFF750FF6F
:103A600004F5147320A918460893ADF88050FFF7A9
:103A700047FF04F51F7320A918460993ADF880503D
:103A8000FFF73EFF04F52A7320A918460A93ADF804
:103A90008050FFF735FF04F5357320A918460B93C6
:103AA000ADF88050FFF72CFF04F5407320A91846AD
:103AB0000C93ADF88050FFF723FF04F54B7320A95A
:103AC00018460D93ADF88050FFF71AFF04F55673B2
:103AD00020A918460E93ADF88050FFF711FF04F5AA
:103AE000617320A918460F93ADF88050FFF708FFC7
:103AF00004F56C7320A918461093ADF88050FFF7B9
:103B0000FFFE04F5777320A918461193ADF8805095
:103B1000FFF7F6FE04F5816320A918461293ADF86D
:103B20008050FFF7EDFE04F2344320A918461393AA
:103B3000ADF88050FFF7E4FE04F58C6320A9184629
:103B40001493ADF88050FFF7DBFE04F28C4320A9FC
:103B500018461593ADF88050FFF7D2FE04F5976331
:103B600020A918461693ADF88050FFF7C9FE04F25D
:103B7000E44320A918461793ADF88050FFF7C0FE24
:103B800004F5A26320A918461893ADF88050FFF7FA
:103B9000B7FE04F23C5320A918461993ADF88050A3
:103BA000FFF7AEFE04F5AD6320A918461A93ADF8F1
:103BB0008050FFF7A5FE04F2945320A918461B93EA
:103BC000ADF88050FFF79CFE04F5B86318461C93CF
:103BD000FFF7B0FE04F20C6318461D93FFF7AAFE30
:103BE00004F5CB6318461E93FFF7A4FE4FF4616102
:103BF00004F2A4600AF0D8F84FF4A07332464046AD
:103C000000933146F023FEF767FF251D4FF07F43F9
:103C1000A3664146284605F03BFC324631465846ED
:103C2000FFF72FFA0E2320A95846ADF8803009F08F
:103C3000B0F95946284605F02BFC4FF496722D2119
:103C40005046FFF71EFA4FF0060820A95046ADF87F
:103C5000808009F09EF95146284605F019FC4FF482
:103C6000967243214846FFF70CFA20A94846ADF862
:103C7000808009F08EF94946284605F009FC4FF48A
:103C8000967203985921FFF7FCF90398ADF88080EC
:103C900020A909F07EF90399284605F0F9FB0F23C6
:103CA0000093E622F02331463846FEF715FF114B0C
:103CB000C4F898314FF6BC734FF04008A4F89C311B
:103CC0001F9BC4F8443142463146384608F03EFD59
:103CD00042464FF4F051384608F043FDD4F85831CD
:103CE00043450ED008E000BF48550208805B02083B
:103CF00074580208E2F4FFFFC4F85881384608F00F
:103D00002FFC3846012108F037FD3946284605F0DA
:103D1000BFFBEB220498DFF8A8936421FFF7B1F909
:103D200013260498ADF8806020A909F032F90499AF
:103D3000284605F0ADFBEB220598BE21FFF7A1F95F
:103D40000598ADF8806020A909F023F90599284667
:103D500005F09EFBEB2206980A21FFF792F90698E0
:103D6000ADF8806020A909F014F90699284605F0FD
:103D70008FFBB62207980F21FFF783F910230798CE
:103D8000ADF8803020A909F004F90799284605F01C
:103D90007FFBB62208983421FFF773F90D230898AA
:103DA000ADF8803020A909F0F4F80899284605F00C
:103DB0006FFB63220998D2210F26FFF762F9099859
:103DC000ADF8806020A909F0E4F80999284605F0CB
:103DD0005FFB63220A988221FFF753F90A98ADF836
:103DE000806020A909F0D5F80A99284605F050FB13
:103DF00063220B983221FFF744F90B98ADF88060ED
:103E000020A909F0C6F80B99284605F041FB43228A
:103E10000C98AA21FFF735F90C98ADF8806020A91D
:103E200009F0B7F80C99284605F032FB43220D98AB
:103E30005A21FFF726F90D98ADF8806020A909F006
:103E4000A8F80D99284605F023FB43220E980A2175
:103E5000FFF717F90E98ADF8806020A909F099F8DE
:103E60000E99284605F014FB23220F98D221FFF764
:103E700008F90F98ADF8806020A909F08AF80F9929
:103E8000284605F005FB232210988221FFF7F9F858
:103E90001098ADF8806020A909F07BF810992846A9
:103EA00005F0F6FA232211983221FFF7EAF811986B
:103EB000ADF8806020A909F06CF81199284605F04A
:103EC000E7FA232212980A214FF00108FFF7D9F8E8
:103ED0001298ADF8808020A909F05BF81299284665
:103EE00005F0D6FA232213985A21FFF7CAF813983F
:103EF000ADF8808020A909F04CF81399284605F008
:103F0000C7FA23221498AA21FFF7BBF81498ADF83A
:103F1000808020A909F03DF81499284605F0B8FAE8
:103F2000432215983221FFF7ACF81598ADF8808040
:103F300020A909F02EF81599284605F0A9FA432280
:103F400016988221FFF79DF81698ADF8808020A979
:103F500009F01FF81699284605F09AFA4322179897
:103F6000D221FFF78EF81798ADF8808020A909F0CC
:103F700010F81799284605F08BFA632218980A2141
:103F8000FFF77FF81898ADF8808020A909F001F8B4
:103F90001899284605F07CFA632219985A21FFF7F0
:103FA00070F81998ADF8808020A908F0F2FF1999EF
:103FB000284605F06DFA63221A98AA21FFF761F8E6
:103FC0001A98ADF8808020A908F0E3FF1A992846D6
:103FD00005F05EFA40F205121B986921FFF751F8CF
:103FE0004FF0140B1B98ADF880B020A908F0D1FF5A
:103FF0001B99284605F04CFA5A461C9800962D232A
:104000000721FEF769FD00274FF0FF3A2A4B1C9865
:10401000C4F8F03520A90223A4F8F475C4F8FC759F
:10402000C4F800A6C4F80476ADF88430CDF88090CA
:1040300008F018FE1C99284605F02AFA5A461D98E1
:1040400000962D23BE21FEF747FD1B4BC4F83C36DE
:104050001D98A4F8407620A9C4F84876C4F84CA668
:10406000C4F85076CDF88090ADF8848008F0FAFD61
:104070001D99284605F00CFA04221E988621FFF7A8
:1040800000F80E4B1E98C4F8883620A9A4F88C7648
:10409000C4F89476C4F898A6C4F89C76CDF88090BD
:1040A000ADF8847008F0DEFD28461E9905F0F0F9A1
:1040B000204623B0BDE8F08FE4FDFFFFE6FDFFFFE3
:1040C000D45102087047000030B5164D2C6814F02A
:1040D00001048FB0BFF35B8F20D128461DF008FF8D
:1040E000E0B13F230993104B0893104B079304232F
:1040F0000122CDE902431223CDE905420C49049285
:104100000093CDE90B440B480A940194FFF70EF895
:1041100009481EF045FE28461DF0F6FE05480FB082
:1041200030BD00BF082D002010670208206702087C
:10413000D06602080C2D0020C54000087047000022
:1041400030B5164D2C6814F001048FB0BFF35B8FAF
:1041500020D128461DF0CCFEE0B13F230993104B3F
:104160000893104B104911480A940122CDE90643E7
:104170000423CDE903320A230093CDE90B44CDE9B2
:1041800001440594FEF7D2FF09481EF009FE2846B7
:104190001DF0BAFE05480FB030BD00BF382D00201D
:1041A0001467020824670208E06602083C2D00201C
:1041B0003D4100087047000030B5164D2C6814F0E2
:1041C00001048FB0BFF35B8F20D128461DF090FE15
:1041D000E0B13F230993104B0893104B104911484D
:1041E0000A940122CDE906430423CDE903321423C6
:1041F0000093CDE90B44CDE901440594FEF796FF09
:1042000009481EF0CDFD28461DF07EFE05480FB082
:1042100030BD00BF682D002018670208286702081B
:10422000F06602086C2D0020B541000870470000C0
:1042300030B5164D2C6814F001048FB0BFF35B8FBE
:1042400020D128461DF054FEE0B13F230993104BC6
:104250000893104B104911480A940122CDE90643F6
:104260000423CDE9033228230093CDE90B44CDE9A3
:1042700001440594FEF75AFF09481EF091FD2846B7
:104280001DF042FE05480FB030BD00BF982D002044
:104290001C6702082C670208006702089C2D00209A
:1042A0002D42000800207047002070470EB403B56F
:1042B00003AB002153F8042B01930CF029FB02B04F
:1042C0005DF804EB03B070470CB407B504AB53F8CA
:1042D000042B01930CF01CFB03B05DF804EB02B05F
:1042E00070470000436C10B5044673B3038F2BB9BD
:1042F000184B194AC52119481EF034FDC38E00EB36
:1043000043035B8C0BB30EF06CFA238F012B03D8A5
:10431000134B144ACB21EEE7E28E531C9BB2092BC0
:10432000194688BFA3F10A0104EB410140F63F1092
:10433000498C814209D10A2B04EB420228BF002399
:1043400004EB4303508C588451842046BDE8104050
:104350000EF04AB99D4A0208A64A0208514B0208CB
:104360009B4B0208A94B02080EF005B910B586B0A8
:1043700002AC84E806001A460AAB05930193099B38
:1043800000932146089B0AF0B1FD06B010BD000065
:1043900038B518BB124B13481C681349B4B12268D6
:1043A00022440260626822440A60A26814440F4BEF
:1043B00000221A8000F038F8054600F033F80C4B64
:1043C0001C600C4B1D600C4B188007E00B4B03600E
:1043D0000B4B0B600B4B1C68002CE8D138BD00BFA9
:1043E000D42D0020CC2D0020C82D0020D02D002061
:1043F000A83B0120B03B0120AC3B01203C670208F8
:104400003067020840670208044B1B6853F821001C
:10441000034B1B6803EB4000704700BFC82D002012
:10442000CC2D00200320704700487047D82D002075
:1044300010B5FFF7C1FE064C2060FFF7F9FE606083
:10444000FFF77EFEA060FFF73FFEE06010BD00BFFB
:10445000D82D002010B5002404600C6014601C608E
:1044600010BD704710B54FF4AE7104461DF03EFD0F
:10447000204610BD10B50446D0F8580100F0C5F82C
:104480002046BDE810400BF03DBA000010B50446D0
:10449000FEF716FC014B2360204610BD7C55020838
:1044A000704704387047704710B5102104461DF05E
:1044B0001DFD204610BDA0F10400F5E7002282603A
:1044C000024A026018324260C1607047D05502084B
:1044D0007047000010B5034B03600446FEF796FEDC
:1044E000204610BDF855020810B50446FFF7F2FF4C
:1044F00020464FF4AE711DF0F9FC204610BD0000BF
:1045000010B50446FEF726FF014B2360204610BD80
:10451000F8550208FEF77BBE7047043870477047B5
:1045200010B5102104461DF0E1FC204610BDA0F19D
:104530000400F5E700228260024A026018324260FD
:10454000C16070472C5602087047000010B5034B3D
:1045500003600446FEF7F5FF204610BD54560208DE
:1045600010B50446FFF7F2FF20464FF488711DF0A6
:10457000BDFC204610BD000010B50446FFF722F830
:10458000014B2360204610BD54560208FEF7DABFE7
:10459000704704387047704710B5102104461DF06D
:1045A000A5FC204610BDA0F10400F5E700228260C2
:1045B000024A026018324260C160704788560208A1
:1045C0007047000010B5034B03600446FFF7A3F8E3
:1045D000204610BDB056020810B50446FFF7F2FFA2
:1045E0002046DC211DF082FC204610BD10B504469B
:1045F000FFF7C6F8014B2360204610BDB0560208F5
:10460000FFF78AB80022026070477047704704388D
:104610007047704710B5102104461DF067FC204616
:1046200010BDA0F10400F5E700228260024A02609A
:1046300018324260C1607047E456020870470000BB
:1046400010B5034B03600446FFF740F9204610BD48
:104650000C57020810B50446FFF7F2FF204641F25E
:104660009C511DF043FC204610BD000010B50446CF
:10467000FFF782F9094B236004F5805302210122E0
:10468000C3F890150A21C3F8941583F89A250021E0
:1046900083F88C25A3F89815204610BD0C57020806
:1046A0002DE9F74F0446FFF70FF904F5805304F5A1
:1046B0007772C3F8B42404F58162C3F8B82404F512
:1046C0006C72C3F8BC2404F23442C3F8C02404F56D
:1046D0006172C3F8C42404F58C62C3F8C82404F5DD
:1046E0005672C3F8CC2404F28C42C3F8D02404F5EB
:1046F0004B72C3F8D42404F59762C3F8D82404F5A8
:104700004072C3F8DC2404F2E442C3F8E02404F568
:104710003572C3F8E42404F5A262C3F8E82404F572
:104720002A72C3F8EC2404F23C52C3F8F02404F5D6
:104730001F72C3F8F42404F5A55704F5AD62C3F85D
:10474000F82410374FF014084FF0000A4FF0010B17
:104750000FFA88F301933E461425F564C6F8948059
:1047600056F8049FD9F8002029B2126B48469047AA
:10477000D9F800200199526B48469047233532689A
:10478000E62D82F825B0E8D10AF1060ABAF1120F37
:1047900007F1180708F12808DAD1201D03B0BDE899
:1047A000F04F0CF0DFB92DE9F04100F580571423EC
:1047B000B7F898450134A4B2A7F89845B4FBF3F2D2
:1047C00003FB1244A4B20646002C42D100F5A755C3
:1047D000183500F5AA5897F88C2555F8041FD7F816
:1047E000903502B95B4255F8480C194403682960BA
:1047F0001B6B09B298472A68002A0FDD55F8483C20
:10480000B3F908301344F02BA8BF01244545E2D189
:1048100034B9301DBDE8F0410CF0A4B90124F5E72E
:1048200097F88C352C4683F0010306F5AC5587F8D4
:104830008C35083554F8041FD7F8943554F8900C8B
:104840001944036821605B6B09B29847A542F1D116
:10485000DFE7BDE8F081F02070474FF4A0707047AB
:104860002920FDF7EBB92820FDF7E8B908B5FDF7D9
:10487000B9F9CA20FDF7E2F9C320FDF7C3F9082012
:10488000FDF7C0F95020FDF7BDF9CF20FDF7D6F9AF
:104890000020FDF7B7F9C120FDF7B4F93020FDF78E
:1048A000B1F9ED20FDF7CAF96420FDF7ABF903205B
:1048B000FDF7A8F91220FDF7A5F98120FDF7A2F96F
:1048C000E820FDF7BBF98520FDF79CF90020FDF7F6
:1048D00099F97820FDF796F9CB20FDF7AFF939204B
:1048E000FDF790F92C20FDF78DF90020FDF78AF9EE
:1048F0003420FDF787F90220FDF784F9F720FDF752
:104900009DF92020FDF77EF9EA20FDF797F90020B8
:10491000FDF778F90020FDF775F9B120FDF78EF964
:104920000020FDF76FF91B20FDF76CF9B620FDF7AD
:1049300085F90A20FDF766F9A220FDF763F9C0208A
:10494000FDF77CF91020FDF75DF9C120FDF776F940
:104950001020FDF757F9C520FDF770F94520FDF748
:1049600051F91520FDF74EF9C720FDF767F99020A2
:10497000FDF748F93620FDF761F9C820FDF742F947
:10498000F220FDF75BF90020FDF73CF9B020FDF7C0
:1049900055F9C220FDF736F9B620FDF74FF90A2088
:1049A000FDF730F9A720FDF72DF92720FDF72AF9AB
:1049B0000420FDF727F92A20FDF740F90020FDF734
:1049C00021F90020FDF71EF90020FDF71BF9EF206B
:1049D000FDF718F92B20FDF731F90020FDF712F94A
:1049E0000020FDF70FF90120FDF70CF93F20FDF73E
:1049F00009F9F620FDF722F90120FDF703F900205F
:104A0000FDF700F90620FDF7FDF82C20FDF716F95B
:104A1000C820FDF761F92620FDF710F90120FDF708
:104A2000F1F8E020FDF70AF90F20FDF7EBF8292057
:104A3000FDF7E8F82420FDF7E5F80C20FDF7E2F893
:104A40000E20FDF7DFF80920FDF7DCF84E20FDF71A
:104A5000D9F87820FDF7D6F83C20FDF7D3F80920E7
:104A6000FDF7D0F81320FDF7CDF80520FDF7CAF8C3
:104A70001720FDF7C7F81120FDF7C4F80020FDF757
:104A8000C1F8E120FDF7DAF80020FDF7BBF81620A9
:104A9000FDF7B8F81B20FDF7B5F80420FDF7B2F8D4
:104AA0001120FDF7AFF80720FDF7ACF83120FDF736
:104AB000A9F83320FDF7A6F84220FDF7A3F805205A
:104AC000FDF7A0F80C20FDF79DF80A20FDF79AF8F5
:104AD0002820FDF797F82F20FDF794F80F20FDF719
:104AE00091F81120FDF7AAF8C820FDF7F5F8292064
:104AF000FDF7A4F8BDE808402C20FDF79FB808B5E5
:104B0000FDF770F80321D320FDF7B4F880B208BD9B
:104B100010B5C4B2022203212046FDF719F80A207D
:104B2000FDF75EF8204600220321FDF711F8BDE8ED
:104B300010400220FDF754B838B50446E4B2FDF742
:104B400005F800212046FDF71BF801210546204607
:104B5000FDF716F840EA052080B238BD10B5C4B2A2
:104B600040212046FDF70CF8030607D54C212046CE
:104B7000FDF706F8003818BF012010BD01224B21B7
:104B80002046FCF7E5FF204600224B21FCF7E0FF22
:104B90000020F2E773B50423C4B20E461546D721B0
:104BA0000DEB03022046FDF705F8019B1BBA1A0D19
:104BB000C3F30B23328020462B8001224B21FCF7CC
:104BC000C7FF00224B212046FCF7C2FF02B070BD98
:104BD00010B50A4A1378984204460DD0517888429D
:104BE0000AD00BB141B90123D454FCF7AFFF2046E2
:104BF000BDE81040FFF78CBF10BD00BFE82D0020BE
:104C000010B5C4B209212046FCF7BAFF40F00102FA
:104C1000D2B220460921BDE81040FCF799BF10B57B
:104C2000C4B209212046FCF7ABFF092100F0FE02C7
:104C30002046BDE81040FCF78BBF38B5C4B20D4626
:104C400020460A21FCF79CFF40EA0502D2B220462A
:104C50000A21BDE83840FCF77BBF10B50446FCF7DD
:104C600076FF20461F21FFF7E8FF2046BDE81040F1
:104C7000FFF7C6BF38B5C4B20D4620460A21FCF77F
:104C80007FFF20EA0502D2B220460A21BDE8384063
:104C9000FCF75EBF10B50446FFF7C1FF20461F2199
:104CA000BDE81040FFF7E6BF10B5C0B20C460B21BF
:104CB000FCF766FF204010BD1F21FFF7F5BF0A4635
:104CC000C0B20B21FCF744BF1F21FFF7F8BF38B576
:104CD000C4B20D4620461721FCF752FF20EA050218
:104CE000D2B220461721BDE83840FCF731BF70B57D
:104CF000C4B2064604212046FCF742FF042100F01E
:104D0000FB0205462046FCF723FF3046F021FFF763
:104D1000DEFF05F0F80220460421FCF719FF4922C6
:104D200020212046FCF714FF0220FCF759FF204603
:104D300001222121FCF70CFF20469A224121FCF799
:104D400007FF204601224A21FCF702FF20460122EC
:104D50004B21FCF7FDFE204600224B21FCF7F8FE1C
:104D6000204601225621FCF7F3FE2046012258215D
:104D7000FCF7EEFE204601224021FCF7E9FE20462A
:104D8000FF220B21FCF7E4FEBDE870400220FCF797
:104D900027BF0000054BD3F8882042F47002C3F807
:104DA00088204FF000629A60704700BF00ED00E07D
:104DB00008B50B4B1A6842F400721A601A6842F484
:104DC00080621A601A6842F480721A60032000F050
:104DD0002FF80020FDF7C2F9FCF78CFF002008BD7A
:104DE000003C0240034A044B11681B780B441360DB
:104DF000704700BFEC2D002078000020014B1868A0
:104E0000704700BFEC2D002038B50446FFF7F6FFD1
:104E1000631C1CBF054B1B78054618BFE418FFF741
:104E2000EDFF431BA342FAD338BD00BF780000203A
:104E30000749CA6822F4E0620302120403F4E06343
:104E4000120C134343F0BF6343F40033CB6070474D
:104E500000ED00E0164B30B5DC68C4F30224C4F169
:104E60000703251D042B28BF0423062D4FF0FF3513
:104E70008CBF033C002405FA03F321EA0303A54099
:104E800022EA0502A340002843EA0203ACBF00F176
:104E90006040084A4FEA0313B8BF00F00F00DBB2CE
:104EA000AABF00F56140135480F8003330BD00BF45
:104EB00000ED00E014ED00E0002807DB044A4109A2
:104EC000012300F01F00834042F82130704700BFEB
:104ED00000E100E010B5044650B1437903F0FF0251
:104EE00013B90271FCF726FF01236371002010BD86
:104EF0000120FCE710B5044620B390F8393003F0E8
:104F0000FF021BB980F83820FCF72CFF022384F83D
:104F10003930236861681A6822F440320A431A6003
:104F20005A6BA16822F007020A435A631A6CE168BF
:104F30006FF30D020A431A6400200123E06384F832
:104F4000393010BD0120FCE770477047036870B529
:104F50005E681D68F207044614D5E90512D51A6883
:104F600022F480721A60C26B42F00102C263012215
:104F70009A60042380F83930002380F83830436980
:104F800003B19847B20616D5AB0414D523681A6846
:104F900022F400521A6020229A60E36B43F002036D
:104FA000E363042384F83930002384F838306369DC
:104FB0000BB120469847300716D5290514D523682C
:104FC0001A6822F400621A6008229A60E36B43F0C8
:104FD0000403E363042384F83930002384F8383071
:104FE00063690BB12046984772070BD56B0509D54D
:104FF00023681A6822F480621A6004229A602046AC
:10500000FFF7A2FFB00714D5A90512D523681A68C7
:1050100022F400721A6002229A60E36BE3630123B8
:1050200084F83930002384F8383023690BB12046E6
:105030009847F20613D5EB0411D523681A6822F4B9
:1050400080521A6010229A60E36BE363012384F8B4
:105050003930002384F838302046FFF776FF70BDE2
:10506000F0B590F83820012A03464FF002002BD00B
:10507000012283F8382083F8390003EB0112D2E9CA
:105080000740556A174F44EA0040093C012C9CBF79
:1050900005F07F4210434FEA01161A6888BF40EAC4
:1050A000056091B9516A394001435162012C9969F7
:1050B000916103D8596A21F07F4191620122002059
:1050C00083F8392083F83800F0BDD16939400143B5
:1050D000D1619919012C896911619CBF25F07F4527
:1050E0001562EBE7F0FFFC002DE9F74FDFF8BC910C
:1050F0006C4A00230D6801249C4004EA0506AC4379
:1051000040F0B7804D68032705F003044FEA4308D9
:1051100007FA08FC671E012F6FEA0C0C34D8876869
:1051200007EA0C0ECF6807FA08F747EA0E07876010
:10513000476827EA060EC5F300179F4047EA0E07A7
:105140004760C76807EA0C0E8F6807FA08F747EA56
:105150000E07022CC76019D14FEAD30A00EB8A0A66
:1051600003F0070BDAF820704FEA8B0B4FF00F0EAD
:105170000EFA0BFE27EA0E0E0F6907FA0BF747EA45
:105180000E07CAF8207001E0032CDAD1076804FA90
:1051900008F407EA0C073C4315F4403F046068D06C
:1051A00000240194D9F8444044F48044C9F84440B0
:1051B000D9F8444023F0030707F1804704F4804402
:1051C00007F59C37019403F0030C019CD7F808E025
:1051D0004FEA8C0C0F2404FA0CF42EEA040E324C25
:1051E000A0424DD004F58064A0424BD004F5806409
:1051F000A04249D004F58064A04247D004F5806401
:10520000A04245D004F58064A04243D004F58064F8
:10521000A04241D004F58064A0423FD004F58064F0
:10522000A0423DD004F58064A04214BF0A240924A2
:1052300004FA0CF444EA0E04BC609468F74315F4D5
:10524000801F0CBF3C4034439460D46815F4001FA9
:105250000CBF3C403443D460546815F4003F0CBF8D
:105260003C40344354601468ED0354BF3C40344325
:1052700014600133102B7FF43DAF03B0BDE8F08F15
:105280000024D5E70124D3E70224D1E70324CFE7A4
:105290000424CDE70524CBE70624C9E70724C7E7A4
:1052A0000824C5E7003C01400000024000380240ED
:1052B0000369194214BF0120002070470AB18161BF
:1052C00070470904FBE7436901EA030221EA03018D
:1052D00041EA02418161704701684B6913F48063C0
:1052E0004FF0000210D06FF480634B612023026303
:1052F00080F83D3080F83E20036C80F83C2043F07D
:105300000403036401207047184670472DE9F846EE
:1053100006460F4691461D464FEA114A3368BAF1D8
:10532000010F0CBF5C699C6927EA0404A4B2B4FABB
:1053300084F46409A14501D0002025E06A1CEED068
:10534000FFF75CFD089BC01AA84201D8002DE5D1EB
:105350003368BAF1010F0CBF5B699B6927EA03034D
:105360009BB2B3FA83F35B099945D7D1002320227E
:10537000336386F83D2086F83E30326C86F83C3048
:1053800042F0200232640120BDE8F8862DE9F041A8
:1053900004460F46164698462568686927EA0000C5
:1053A00080B2C0B16B695A0517D52B6843F40073FE
:1053B0002B606FF480636B6120220023236384F8E9
:1053C0003D2084F83E30236C43F004032364002323
:1053D00084F83C300120BDE8F081731CDDD0FFF77C
:1053E0000DFDA0EB0800B04201D8002ED4D12368F7
:1053F0005A6927EA020292B2002ACDD00023202265
:10540000236384F83D2084F83E30236C1343DDE7AA
:1054100070B504460D46164623685B691B0601D528
:1054200000201EE02046FFF757FFC8B96A1CF3D0E2
:10543000FFF7E4FC801BA84201D8002DECD12368C3
:105440005B6913F08003E7D12022236384F83D20B9
:1054500084F83E30226C84F83C3042F02002226412
:10546000012070BD2DE9F0431546026885B0DDE9E5
:105470000C789946136843F4807313600E463B46DC
:10548000CDF8008000224FF001110446FFF73EFFE7
:10549000236838B11B68DB0502D54FF40073236421
:1054A000032620E006F0FE061E611A4943463A46EE
:1054B0002046FFF76BFFA8B9236803905A6903924F
:1054C0009B690393424639462046039BFFF7A0FFA2
:1054D000064660B1236C042B01BF2268136843F4B5
:1054E000007313600126304605B0BDE8F083B9F1C2
:1054F000010F236802D1EDB21D61F4E72A0A1A6197
:10550000394642462046FFF783FF0028E2D1236850
:10551000F1E700BF020001002DE9FF479A4603684A
:1055200015461A6842F480621A601A68DDE90C7840
:1055300042F480721A600E463B46CDF8008000228D
:105540004FF001110446FFF7E1FE236838B11B68F4
:10555000DB0544BF4FF400732364032021E05FFAAE
:1055600086F906F0FE061E612B4943463A46204660
:10557000FFF70CFFA0B9236803905A6903929B6957
:105580000393424639462046039BFFF741FF58B13B
:10559000236C042B01BF2268136843F4007313606B
:1055A000012004B0BDE8F087BAF1010F23681AD1D9
:1055B000EDB242461D6139462046FFF729FF0246FB
:1055C0000028E5D121680B6843F480730B60204606
:1055D000CDF800803B464FF00111FFF797FE22689F
:1055E00060B11368B4E72A0A1A6139464246204678
:1055F000FFF70EFF0028CBD12368D9E749F001035C
:105600001361054943463A462046FFF7BFFE00387E
:1056100018BF0120C5E700BF0200010070B50446B5
:105620000D46164623685B695B0701D500201EE026
:105630002046FFF751FEC8B96A1CF3D0FFF7DEFB26
:10564000801BA84201D8002DECD123685B6913F0C0
:105650000403E7D12022236384F83D2084F83E3000
:10566000226C84F83C3042F020022264012070BD9C
:1056700070B504460D46164621684B6913F0400389
:1056800001D0002011E04A69D2060FD56FF0100258
:105690004A612022236384F83D2084F83E30236C45
:1056A0002364002384F83C30012070BDFFF7A6FB83
:1056B000801BA84201D8002DDED123685B6913F05E
:1056C0004003D9D12022236384F83D2084F83E3062
:1056D000236C1343E4E7000070B5044608B90120C9
:1056E00070BD90F83D3003F0FF021BB980F83C20FC
:1056F000FCF75AFB242384F83D3023681A6822F013
:1057000001021A601A6842F400421A601A6822F410
:1057100000421A6000F0A8FE3F4B65689D4294BFAE
:105720003E4B3F4B98428CBF00230123002BD6D128
:105730002268394E51683B4BB0FBF3F321F03F0137
:105740001943B542516088BF4FF49676116A88BFFD
:10575000734321F03F0184BF4FF47A76B3FBF6F335
:1057600001330B431362D169431E2B4821F44F418F
:10577000854221F0FF0132D86D0040F6FC70B3FB8A
:10578000F5F30133034242D0C3F30B031943D16154
:10579000D4E907301168034321F0C0010B431360C3
:1057A0009168D4E9030321F40341034321F0FF018D
:1057B0000B439360D4E90530D168034321F0FF0126
:1057C0000B43D360136843F00103136000202023D0
:1057D000206484F83D30206384F83E0080E7A068B0
:1057E00050B905EB4505B3FBF5F30133C3F30B03E8
:1057F0007BB143F40043C9E719206843B3FBF0F3DE
:105800000133C3F30B0323B143F44043BEE7042346
:10581000BCE70123BAE700BFA08601007F841E0019
:10582000FF083D0040420F002DE9F743044699462A
:105830000C9E0F469046FFF7E1FA94F83D30202B7E
:10584000054603D0022003B0BDE8F08300903C4938
:10585000192301222046FFF759FD0028F2D194F8C0
:105860003C30012BEED02068012384F83C300368E3
:10587000D9075EBF036843F001030360036823F4A4
:1058800000630360212384F83D30402384F83E30D8
:10589000002323640A9B6362BDF82C306385638D0B
:1058A0002385284BE3624246CDE900654B463946E5
:1058B0002046FFF7D7FD00282AD00120C3E7FFF7D5
:1058C000A7FD40B1236C042B01BF2268136843F489
:1058D00000731360F1E7636A27681A4612F8011B28
:1058E00039616262628D218D013A92B262857A6974
:1058F000481E80B2520720850AD548B15A783A61CD
:1059000002336362638D013B02399BB2218563855B
:10591000238D2A4631462046002BD0D1FFF77EFE4C
:105920000028CFD12268136843F40073136020234A
:1059300084F83D3084F83C0084F83E0083E700BFE3
:10594000020010000000FFFF2DE9F043044687B07D
:105950009946109F0D469046FFF750FA94F83D3057
:10596000202B064604D00225284607B0BDE8F08368
:1059700000907A49192301222046FFF7C7FC00282E
:10598000F1D194F83C30012BEDD02068012384F84C
:105990003C300368DB075EBF036843F0010303602C
:1059A000036823F400630360222384F83D3040231E
:1059B00084F83E30002323640E9B6362BDF83C30C4
:1059C0006385638D2385664BE3622946CDE90076C6
:1059D0004B4642462046FFF79FFD054608B101258C
:1059E000C2E7228D2368B2B902905A6902929A697D
:1059F0000292029A1A6842F400721A60DFF8648117
:105A0000238D002B2CD1202284F83D2084F83C30BB
:105A100084F83E30A8E7012A0AD11A6822F480628D
:105A20001A6003905A6903929A690392039AE1E714
:105A3000022A0ED11A6822F480621A601A6842F4AF
:105A400000621A6004905A6904929B690493049B53
:105A5000D4E705905A6905929B690593059BCDE7AC
:105A6000032B56D8012B15D1324639462046FFF775
:105A7000FFFD0028B3D123681A69636A1A70636A4C
:105A800001336362238D013B2385638D013B9BB210
:105A90006385B5E7022B00963B464FF00002414676
:105AA000204619D1FFF732FC002898D123681A68E4
:105AB00042F400721A601A69636A1A70626A531CAF
:105AC0006362238D013B2385638D013B9BB263851C
:105AD00023681B695370D2E7FFF718FC02460028C1
