:020000040800F2
:10000000000003205D060008F9210008FB2100081C
:10001000FD210008FF210008012200080000000067
:10002000000000000000000000000000A1710008B6
:10003000032200080000000031720008C16A0008B5
:10004000AD060008AD060008AD060008AD060008C4
:10005000AD060008AD060008AD060008AD060008B4
:10006000AD060008AD060008AD060008AD060008A4
:10007000AD060008AD060008AD060008AD06000894
:10008000AD060008AD060008AD060008AD06000884
:10009000AD060008AD060008AD060008AD06000874
:1000A000AD060008AD060008AD060008AD06000864
:1000B000AD060008AD060008AD060008AD06000854
:1000C000AD060008AD060008AD060008AD06000844
:1000D000AD060008AD060008AD060008AD06000834
:1000E000AD060008AD060008AD060008AD06000824
:1000F000AD060008AD060008AD060008AD06000814
:10010000AD060008AD060008AD060008AD06000803
:10011000AD060008AD06000805220008AD0600087F
:10012000AD060008AD060008AD060008AD060008E3
:10013000AD060008AD060008AD060008AD060008D3
:10014000AD060008AD060008AD060008AD060008C3
:10015000AD060008AD060008AD060008AD060008B3
:10016000AD060008AD060008AD060008AD060008A3
:10017000AD060008AD060008AD060008000000004E
:10018000AD060008AD060008AD060008AD06000883
:10019000AD060008AD060008AD060008AD06000873
:0C01A00011220008AD0600081D22000816
:1001B00010B5054C237833B9044B13B10448AFF3A1
:1001C00000800123237010BD800300200000000088
:1001D000BC28020808B5034B1BB103490348AFF321
:1001E000008008BD0000000084030020BC28020835
:1001F00001F0FF01102A2BDB10F0070F08D010F8D8
:10020000013B013A8B422DD010F0070F42B3F6D1DB
:10021000F0B441EA012141EA014122F007047FF0F4
:1002200000070023F0E80256083C85EA010586EA4B
:10023000010685FA47F5A3FA87F586FA47F6A5FA87
:1002400087F68EB9EED1F0BC01F0FF0102F0070293
:1002500032B110F8013B013A83EA010313B1F8D13E
:100260000020704701387047002D06BF354603381F
:10027000073815F0010F07D1013015F4807F02BF58
:10028000013015F4C03F0130F0BC0138704700BFA9
:100290007BB972B90029BEBF00204FF0004106E0D3
:1002A00008BF00281CBF6FF000414FF0FF3000F086
:1002B000D3B9ADF1080C6DE904CE002909DB002BA0
:1002C0001ADB00F04DF8DDF804E0DDE9022304B0AC
:1002D0007047404261EB4101002B1BDB00F040F80E
:1002E000DDF804E0DDE9022304B0404261EB4101A6
:1002F000524263EB43037047524263EB430300F007
:100300002FF8DDF804E0DDE9022304B0404261EBA0
:1003100041017047524263EB430300F021F8DDF8DE
:1003200004E0DDE9022304B0524263EB430370476B
:1003300053B94AB9002908BF00281CBF4FF0FF314C
:100340004FF0FF3000F088B9ADF1080C6DE904CE34
:1003500000F006F8DDF804E0DDE9022304B07047A0
:100360002DE9F047089D8E4604468846002B4AD169
:100370008A42174662D9B2FA82F64EB1C6F120031C
:1003800001FA06F820FA03F3B74043EA0808B4403C
:100390004FEA174E1FFA87FCB8FBFEF1230C0EFB49
:1003A000118843EA084301FB0CF29A4209D9FB1871
:1003B00001F1FF3080F0EA809A4240F2E780023992
:1003C0003B449A1AA3B2B2FBFEF00EFB102243EAA2
:1003D000024300FB0CFC9C4509D9FB1800F1FF32DD
:1003E00080F0D6809C4540F2D3803B44023840EAFE
:1003F0000140A3EB0C0300211DB1F3400022C5E92D
:100400000032BDE8F0878B4205D90DB1C5E9000186
:1004100000210846F5E7B3FA83F1002946D1734578
:1004200002D3824200F20581841A6EEB030201209E
:100430009046002DE5D0C5E90048E2E7002A00F02B
:100440009080B2FA82F6002E40F0A4808A1A030C43
:100450004FEA174E80B2BCB20121B2FBFEFC0EFB8C
:100460001C2243EA024304FB0CF29A4207D9FB1810
:100470000CF1FF3802D29A4200F2E080C4469B1A87
:10048000B3FBFEF20EFB123340EA034302FB04F41B
:100490009C4207D9FB1802F1FF3002D29C4200F2C5
:1004A000CA8002461B1B42EA0C40A5E7C1F12006A8
:1004B0008B4022FA06F71F430EFA01F420FA06F3E6
:1004C0002EFA06FE4FEA1749234300FA01F81FFAF5
:1004D00087FCBEFBF9F01C0C09FB10EE44EA0E444D
:1004E00000FB0CFEA64502FA01F209D93C1900F105
:1004F000FF3A80F09C80A64540F2998002383C4447
:10050000A4EB0E041FFA83FEB4FBF9F309FB1344BA
:100510004EEA044403FB0CFCA44508D93C1903F142
:10052000FF3E80F08280A4457FD9023B3C4443EAF1
:100530000040A4EB0C04A0FB02EC64457346E146CA
:1005400062D35FD05DB1B8EB030264EB090404FA37
:1005500006F622FA01F31E43CC40C5E900640021EF
:100560004FE7B1FBF2FC010C41EA0E4180B240EAD8
:1005700001423B4638463C46B846BE462026B1FBC3
:10058000F7F1A2EB080241EA0C4166E7014618E7E1
:1005900010462CE7C6F120022EFA02F3B740B14014
:1005A00020FA02F24FEA174E0A43B3FBFEF8BCB240
:1005B0000EFB1833110C41EA034108FB04F9B0406B
:1005C00089454FEA104380B23ED9791808F1FF3CC3
:1005D00001D289451FD8A1EB0901B1FBFEF909FB46
:1005E00004F80EFB191192B242EA0142424529D2A7
:1005F000BA1809F1FF31C4D24245C2D2A9F10201B1
:100600003A44BEE7F0459DD2BEEB02036CEB070C0B
:100610000138E14696E7A7EB09094944A8F1020C25
:10062000B1FBFEF909FB04F8DBE773467FE75046B0
:1006300066E70846FDE63B44023A33E7ACF1020CBC
:100640003B441CE749469CE7A1EB0901C446B1FBCA
:10065000FEF909FB04F8C4E7704700BFDFF834D0A7
:10066000002103E00C4B5B58435004310B480C4B0A
:1006700042189A42F6D30B4A02E0002342F8043BA8
:10068000094B9A42F9D303F09DFF21F0A9FB01F039
:1006900063F870470000032078B90D0800000020BF
:1006A000640100208003002020430120FEE7704702
:1006B00008B500F0BBFDBDE8084000F03FBD00F00C
:1006C000B7BD704710B50421044620F09DF92046BF
:1006D00010BD000038B50C4B0C4C18800C4B822020
:1006E00019806368984740F6110398420AD1094D72
:1006F00023682C60822098472B688220DB6898470B
:10070000002038BD0120FCE7A60300204C0000209B
:10071000A4030020A80300204FF4A071F020FFF7ED
:10072000D9BF0000F7B5394D2B6804461B698220FC
:100730009847208000284ED02B680DF106025B6997
:1007400001A982209847324B1B78002B4BD0BDF873
:10075000062040F674639A423FD9ADF80630BDF8E2
:1007600006209B1A9BB20A2B42D90B22B3FBF2F351
:10077000284A1288934201D9013A93B2BDF8042065
:10078000254840F6B8318A4234D8C2F571620E323B
:10079000016892B20F25B2FBF5F2204D2D88AA42D6
:1007A00084BF05F1FF35AAB28A4215468EB22AD916
:1007B000921B91B21A4E3768BB42BAB28CBF9A1ADA
:1007C000D21A92B211440529C4BF05603360036890
:1007D00063803368A38003B0F0BDB32A9CBFB4220A
:1007E000ADF80620BBE7BDF80630A3F5B473B9E752
:1007F0000023C3E7C2F56D62083292B20E2A016887
:10080000C8D800252A46891A89B2D3E7A803002050
:10081000A0250020A4030020A0030020A6030020A0
:100820009C03002037B568460D461446FFF77AFF53
:10083000BDF8000030B1BDF802302B60BDF80430C7
:100840002360012003B030BD032821D8DFE800F089
:10085000020B12190F4B1A68B2FA82F252090421E4
:100860000D4804F043B90B4B5A68B2FA82F25209B0
:100870000821F5E7074B9A68B2FA82F25209102173
:10088000EEE7044BDA68B2FA82F252092021E7E778
:10089000704700BFAC03002000100240032821D89D
:1008A000DFE800F0020B12190F4B1A68003A18BF6C
:1008B000012204210D4804F019B90B4B5A68003A83
:1008C00018BF01220821F5E7074B9A68003A18BFC4
:1008D00001221021EEE7044BDA68003A18BF01222A
:1008E0002021E7E7704700BFAC0300200010024062
:1008F00003280DD8DFE800F00206080A04210548A5
:1009000004F0F9B80821FAE71021F8E72021F6E70A
:10091000704700BF0010024008B5032811D8DFE877
:1009200000F0020A0C0E0421074804F0D9F8431E17
:100930005842584108BD0821F6E71021F4E720216C
:10094000F2E70020F3E700BF0010024070B5084D49
:1009500000240126E0B2FFF7DFFF18B12B68012B5E
:1009600018BF2E600134052C05F10405F2D170BDCD
:10097000AC030020012380F8781080F879307047AC
:100980007047002070470000034B4164003918BFD6
:1009900001211970704700BFDF350120704700202A
:1009A0007047836B0BB10846184770474FF6FF70CE
:1009B0007047406803689B691847704770477047E5
:1009C0007047704710B5044600F048FD236803499E
:1009D000D3F890302046BDE810401847000000D002
:1009E00008B503680446D3F8843098472368204646
:1009F000DB6F984700F0ECF8236820465B6F984760
:100A0000292001F019F900F0E3F8236820465B6F14
:100A10009847F8E710B5044609F0BAF9236820466C
:100A2000D3F8BC30BDE81040184700F0FBBC00F024
:100A3000FFBC00F031BD00F0D1BC00F041BD00F0C2
:100A400049BD00F0D5BC08F0D1BB10B584210446E7
:100A50001FF0DAFF204610BD10B590F8341090F862
:100A600078400C4B8C421A7809D03AB90A4A0B49A3
:100A70001488088810800C8001221A7010BD002A8A
:100A8000FCD0054A05491488088810800C80002293
:100A9000F3E700BFD8350120D4350120D635012039
:100AA00070B50D46194635B9094B0A4A0A4840F255
:100AB000FF2120F0E5FEC0E90F52084B003A18BFB5
:100AC00001221A700368BDE87040D3F890301847CF
:100AD0002C29020864290208B2290208DE35012007
:100AE00008B5094B1B888B4203D8084B1B889342DF
:100AF00005D9074B074A0848A32120F0C1FE074B40
:100B00001980074B1A8008BDD4350120D635012045
:100B1000F72902085A2A0208B2290208DA35012008
:100B2000DC350120034690F87A0018B15868036854
:100B30001B68184770470000012108B500220846CD
:100B400006F048F80A4B186028B90A4B0A4A2821CF
:100B50000A4820F095FE00220421012006F0D9F871
:100B6000074B186018B9074B034A2C21F0E708BD62
:100B7000C00300209D2A0208E62A0208152B02085D
:100B8000BC030020622B0208024B4FF0FF311868B3
:100B900006F06AB8C0030020014B186806F090B850
:100BA000C0030020024B0021186806F05DB800BFAA
:100BB000C0030020FFF7F0BF03480449006800238A
:100BC0001A4606F0E1B800BFBC0300200400002074
:100BD00013B5084C00231A4601A9206806F005F950
:100BE00020684FF0FF33002201A906F0FEF802B0A2
:100BF00010BD00BFBC03002003685B6C18470120D8
:100C0000704703689B6A1847FEE740F2EF30704771
:100C1000054B0360054B4FF08062C3F88820BFF39B
:100C20004F8FBFF36F8F7047B038020800E100E0CC
:100C300010B504464FF45A61FFF7EAFF20461FF053
:100C4000E3FE204610BD000082B0002301930E4B4E
:100C50001A6B42F400021A631A6B02F4000201924A
:100C6000019A1A6942F400021A611A6922F4000218
:100C70001A61064B064A1A61064A5A61064B4FF042
:100C800080629A6002B0704700380240342700202A
:100C9000E90E0008090C000800E100E008B50A2888
:100CA00009D8DFE800F006100E0808080810101038
:100CB0001000022008BD054B054A0648902120F08F
:100CC000DFFD0020F6E70120F4E700BFA42B0208B7
:100CD000BF2B02080A2C020838B50C46887FFFF7A4
:100CE000DDFFA58AE28A164B2169586342EA054274
:100CF0005A64628BD963521B1A642568082D0ED181
:100D00009A611A615862207F0E4A42EA0062DA61F3
:100D1000E2681A620C4A5961D9601A6038BD002233
:100D2000D8611A61E1680A0A480902F4784200F4BD
:100D3000FC600243C1F3C4010A439A63034AECE72F
:100D400000B002400900010001230200012303005A
:100D500008B50B280BD8DFE800F00612100A0A0AC3
:100D60000A0808080808022008BD0520FCE7054B12
:100D7000054A06486F2120F083FD0020F4E701209A
:100D8000F2E700BFA42B0208552C02080A2C020827
:100D90002DE9F04191F81D800C464046FFF7D8FF41
:100DA000A77F05463846FFF7D3FF06463846FFF7CC
:100DB00075FFA18A628B444B521A1A649A61228B86
:100DC000521A1A61E28A586342EA01425A6421695E
:100DD0006268D963DA602068802828D0227F0FD823
:100DE000202867D0402865D004281AD0364B45EA21
:100DF000026545F40035B845DD6161D0334A44E011
:100E0000B0F5807F04D0B0F5007FEFD1304800E02E
:100E1000304840EA0262DA61E2681A625E62596151
:100E200032E045EA026242F40032DA61F6E7A06895
:100E3000021DDA62227F45EA026545F40035DD6174
:100E40005E625961017841B1012921D0224B234AC8
:100E500023484FF48D7120F013FDDA69418822F4A4
:100E60007F42013922F0100242EA0122DA610121B7
:100E7000154BDA6942F02002DA61DA699206FCD495
:100E800010229A600029B9D0164A1A60BDE8F08194
:100E9000B2F1FF01DA69408822F47F4200F1FF30AD
:100EA00022F0100242EA002242F0100218BF012193
:100EB000DA61DDE745EA0262034B42F40032B4E74F
:100EC00042F20132E1E700BF00B00240012301001D
:100ED000090002000A0002009F2C0208B92C020837
:100EE0000A2C020801230200024B1B6858680368A1
:100EF0005B691847E035012070B5044625460A4B6A
:100F00000C30002660602672667245F8203B602235
:100F1000294609F093F804F55A63EE6024359D42A2
:100F2000FBD1204670BD00BFB0380208034B1A68E1
:100F3000D207FCD423229A60704700BF00B0024061
:100F40007047000030B50F4C2568ED07FCD4232511
:100F50000904A56041F001010225FF2B656361646E
:100F6000E0630AD00849656241EA0363E361074B25
:100F700022626061E060236030BDE561039BA36392
:100F8000034BF8E700B00240090001000100020035
:100F90000100030030B50E4C2568ED07FCD4232575
:100FA0001204A56042F001020225FF2B6563626412
:100FB000E063E16008D01B0643F00213E361054BD8
:100FC00065626061236030BD034BE3610123F9E793
:100FD00000B0024001000200020002FF30B50B4CDD
:100FE0002568ED07FCD4232512041B06A56043F4F5
:100FF0000033022542F0010265636264E063E16050
:10100000E361034B65626061236030BD00B0024064
:1010100001000200012070474020704700EB811062
:101020000830704700EB811008307047012070478E
:101030004FF4835070474FF4835303FB0100083093
:1010400070474FF4835303FB0100083070470120C1
:1010500070471020704700EB01100830704700EB1C
:10106000011008307047084602F07CB810B5034BF9
:101070000360044607F00FFE204610BD68390208E1
:1010800010B50446FFF7F2FF204648211FF0BCFCD4
:10109000204610BD10B5034B0360044607F0FBFD6E
:1010A000204610BD3439020810B50446FFF7F2FFA0
:1010B000204641F268011FF0A7FC204610BD000049
:1010C00010B5034B0360044607F0E5FD204610BD54
:1010D0000039020810B50446FFF7F2FF2046182138
:1010E0001FF092FC204610BD10B5094B036004466A
:1010F00000F584501430FFF7B9FF04F12C00FFF71E
:10110000C9FF04F11400FFF7DBFF204610BD00BF4C
:101110009C39020808B50248FFF7E6FF08BD00BF8A
:101120009C12002010B50446FFF7DEFF204641F276
:101130003C211FF069FC204610BD00002DE9F34161
:1011400001F0E0F8054601F0E1F8002401462346ED
:1011500028462246009410F0A5FB274B274A1A6028
:10116000204602F025FE264D264B274A27489A6046
:1011700010F000FB2B68BFF35B8FDB0736D42846EB
:101180001FF044FC90B3224C224B236004F1140066
:1011900004F5875600F5845704F12C086060C4F804
:1011A0000880E760266107F077FD1B4B63614046CE
:1011B00007F072FD194BE362384607F06DFD04F548
:1011C000805303F1DC00164AC3F8942002F0DEFEDF
:1011D0002246311F304602F057FE304601F0C2FF72
:1011E000104820F06BFB28461FF01CFC0E4802B094
:1011F000BDE8F041FFF7E6BB44360120480400207B
:1012000098120020680400204C04002008000020F0
:101210009C1200209C390208003902083439020867
:101220006839020815110008C40300207047000047
:101230000148FFF7D5BB00BFC403002070B5264EA0
:10124000264C274D274B23603046FFF755FE284696
:1012500015F02EFC24480EF015FB244B2448DC60CE
:1012600000224FF48071C3E9121222491A86C3E9A1
:101270001A12214983F85820C3E91E011F49C3F8F7
:1012800080101F491F480B60F021C3E90422C3E905
:101290000622C3E90822C3E90A22C3E90E22C3E9F0
:1012A0001022C3E91422C3E917225A6683F870207A
:1012B0005A67C3E9016501801348018013484FF460
:1012C000A07101801248018012490A70012283F83E
:1012D0003420114A1A6070BDF404002094120020DA
:1012E000680400201C2902084C040020C4030020CC
:1012F0000000010101000001000450001A00140068
:10130000E0350120D4350120DA350120D635012021
:10131000DC350120D8350120C43702080148FFF729
:1013200077BC00BFF4040020002070478180704724
:10133000C180704701817047418170477047704795
:1013400070477047704710B4C4880368121B8488C4
:101350005B6D091B12B25DF8044B09B218474FF6DA
:10136000FF7383814FF0FF3303621368C361106022
:101370007047002070478B8883800120704770473A
:1013800080F82610704790F82600704710B50022AC
:10139000B1F90840B1F90A10028042808480C1800E
:1013A00010BD0022028042808280C2807047017797
:1013B000704780ED080A704780F82410704780F865
:1013C0002510704701207047983070478C30704767
:1013D000843070477047704770470000034B90227D
:1013E00083F85A2383F85823704700BF00E100E0D8
:1013F000094A0A49D3680A48C3F30A03013B9BB26E
:101400000B801169C1F30A01013901801364536B28
:1014100043F001035363704700680140DA24002061
:10142000D8240020014BD3F8AC007047006801407D
:10143000024B0122C3F8AC105A62704700680140A9
:1014400010B52C2104461FF0DFFA204610BD10B560
:10145000BC2104461FF0D8FA204610BD70B50446E2
:1014600007F019FF23689D6E0CF07CFF01462046B3
:10147000A8472368054AD3F88C502046AC46002381
:10148000BDE87040A2F51631604700BF00B004D03F
:1014900007F0E8BE07F0F2BE07F0AEBE08F01DB8D8
:1014A00090F8252012B103685B691847704790F8DF
:1014B00025201AB190F8242002B11860704700006E
:1014C000034B4FF080629A604FF080729A607047D1
:1014D00000E100E0084B4FF08062C3F88820BFF3C2
:1014E0004F8FBFF36F8F4FF08072C3F88820BFF328
:1014F0004F8FBFF36F8F704700E100E070B500239E
:10150000124E8380124B0360336893F858200546CF
:101510000AB1D86C00B998680368DB6A98473368E9
:10152000B0FA80F4D86C640930B10368DB6A98477C
:10153000002808BF44F001042CB9064B064A0748AE
:101540002C2120F09DF9284670BD00BFE035012018
:10155000B0390208F72C0208552D02088E2D02081A
:1015600070B5254E3568BFF35B8F15F0010540D18E
:1015700030461FF04BFA00283BD0204C204B256111
:1015800004F13400C4E90035C4E90255E584A562DC
:10159000A5850EF05CFC04F158000AF005FA194B21
:1015A000A3652046184B40F8843BFFF7A7FF174B75
:1015B000C4F884302433C4F88C304FF4C803C4E931
:1015C00028350023C4F8AC30C4F8B030C4F8B430C7
:1015D000C4F8B8300E480F4BC4F89050C4F89C5073
:1015E000C4F8A850C4F8983020F068F930461FF0CD
:1015F00019FA024870BD00BFDC240020E02400205E
:1016000068420208D0390208483A02081C4202081F
:10161000D9130008FC41020838B5184C23685BB3A5
:10162000174B184A1B6C11888B4216D1164B198820
:1016300004F064F8236893F86A200025013283F8E7
:101640006A2083F87C50FFF7B7FA206808F0A0FB07
:101650002846BDE83840FFF7F7B804F04FF8246893
:10166000236820461B6A9847012384F87C300020B9
:10167000BDE83840FFF712B938BD00BFE0350120A2
:1016800000680140DA240020D824002007B5064B6A
:10169000ADF806001B68054801220DF1060104F0B3
:1016A000CDFD03B05DF804FB0C000020E025002018
:1016B00008B5642005F082FAFBE7000030B595B06C
:1016C000102200210AA820F0E2FA1422002103A827
:1016D00020F0DDFA00241E4B01941A6C42F0805277
:1016E0001A641B6C03F080530193019B194B029405
:1016F0001A6842F440421A601B6803F440430293A4
:101700000122029B4FF48033CDE9082302254FF4D8
:1017100080030821CDE90E534FF4B473CDE91013C3
:1017200008A804231393129504F040F804F004F879
:101730000F23CDE903354FF4A0504FF48053CDE98A
:101740000603052103A8059404F00CFA15B030BD7A
:10175000003802400070004080B59AB002F040FFAF
:10176000FFF7ACFF142200210DA820F090FA00240E
:10177000C74B00941A6BC748C74DDFF8588342F037
:1017800010021A631A6B02F010020092009A019480
:101790001A6B42F020021A631A6B02F020020192C7
:1017A000019A02941A6B42F080021A631A6B02F0DB
:1017B00080020292029A03941A6B42F004021A63A6
:1017C0001A6B02F004020392039A04941A6B42F01B
:1017D00001021A631A6B02F001020492049A059442
:1017E0001A6B42F002021A631A6B02F002020592AF
:1017F000059A06941A6B42F040021A631A6B02F0C3
:1018000040020692069A07941A6B42F008021A6385
:101810001B6B03F00803224607933C21079B03F050
:1018200065F99E480122022103F060F922469B4897
:10183000042103F05BF9224699484FF4405103F02C
:1018400055F901263C23CDE90D3692480F94032328
:101850000DA90227109303F05FF890480DA9CDE978
:101860000D76CDE90F4403F057F804238B480DA9FA
:10187000CDE90D36CDE90F4703F04EF80DA94FF431
:1018800040538748CDE90D36CDE90F4703F044F8C2
:101890008448854B036002F035FFDFF83CE2834B60
:1018A0002C62C5E900E328464FF48043C5E90434BF
:1018B000C5E90244C5E9064403F026FB1021284689
:1018C00003F06AFD21462846794D03F084FD4FF46C
:1018D0008273C5E900834FF400791823C5E90693A4
:1018E00028460A23C5E90244C5E90444C5E9084479
:1018F000AC62EB6204F046FC8F232246394667480F
:101900008DF824308DF8344003F0F0F832464FF46F
:101910007A7309A9284604F091FC4FF47A73324691
:101920000DA9284604F036FE324639465B48614D23
:1019300003F0DCF89DF83430D32B04BF5E4B1E70EF
:101940005E4B0126C5E90036102240230024C5E97C
:1019500004234FF4C073C5E906344FF40063C5E9AE
:1019600008344FF4005302274FF00409AB624FF0E4
:10197000030A07230DA92846CDE90D73CDE90F937E
:101980004FF00808C5E90249CDE911A7139704F003
:10199000DDFA4FF6FF7209A92846CDE90A860894B8
:1019A00009960C9404F0F2FA304602F045FE4FF628
:1019B000FF7209A92846CDE90978CDE90B6404F046
:1019C000E5FA4FF6FF7209A92846CDE909A8CDE945
:1019D0000B9404F0DBFA4FF40C730893089B0C9300
:1019E0004FF6FF7209A92846CDE909980B9604F035
:1019F000CDFA40F26A51284604F0E6FA34220DEBA3
:101A00000200214620F043F92D4D2E4B2C61C5E9F3
:101A100000340923C5E905361D23C5E9073A40F21C
:101A20000D1140F24313C5E9091340F2171040F2BB
:101A30004713C5E90B032846C5E90244AC8685F87F
:101A4000364003F063FDFF214FF4806CF022CDE9B6
:101A500012140521CDE914C14FF4A0730DA9CDE9ED
:101A60000E24CDE9164228462246174D1893CDE99B
:101A700010370D94ADF864408DF8664003F011FE08
:101A8000124B2B601B6898472B68114DDB6825E0D3
:101A90000038024000100240E0260020000802400A
:101AA000000C02407427002000300240A086010094
:101AB000E0250020AC250020A0250020400100A04A
:101AC00038260020006801409C25002014000020DA
:101AD0003427002000500140005C00409847134B21
:101AE0002846C5E90034C5E90274C5E90A47C5E9D5
:101AF0000C4402F017FE3146284602F0C9FEFEF7FC
:101B0000D7FDFEF7D4FD04F0E9FF094A0948214654
:101B100005F010F8084B094A18602146084805F0FE
:101B200009F8084B186004F0EBFFFEE700B0024034
:101B3000B03A0208B1160008A82500208C3A020825
:101B4000BF060008A4250020704770477FB5094BE9
:101B50008DF817201B6802930DF1170201230092E4
:101B600001930A460146044803F076FA07B05DF88F
:101B700004FB00BF10000020E02600207FB50023FA
:101B80008DF81730084B1B6802930A4601230DF1AC
:101B90001701009101930146044803F0EDFA9DF806
:101BA000170007B05DF804FB10000020E0260020BD
:101BB0001FB5084C24680092CDE901340A46012380
:101BC0000146054803F0D8FA003818BF012004B0D8
:101BD00010BD00BF10000020E026002002F02CBD48
:101BE00010B5064C00222046042102F07FFF20465B
:101BF0000122BDE81040042102F078BF0008024035
:101C000038B50B4D044601220A484FF4005102F04A
:101C10006DFF00220421284602F068FF2046FFF7EE
:101C200035FD28460122BDE83840042102F05EBFA0
:101C300000080240000C024038B50B4D044600225B
:101C40000A484FF4005102F051FF002204212846B7
:101C500002F04CFF2046FFF719FD28460122BDE89F
:101C60003840042102F042BF00080240000C02404C
:101C7000F7B5144E144F05460C4630460022042199
:101C800002F034FF00224FF40051384602F02EFFDC
:101C90002846FFF7FBFC0D4B0D481B68224601A9A7
:101CA00004F078FC384601224FF40051019C02F008
:101CB0001DFF30460122042102F018FF204603B028
:101CC000F0BD00BF00080240000C02400C000020E4
:101CD000E025002002F0B0BC0268034B9A4201D11B
:101CE00002F098BC704700BF001000407047000031
:101CF00082B00E4B00220092596C41F4804159642D
:101D0000596C01F48041009100990192196C41F0E5
:101D1000805119641B6C03F080530193019B0F21C8
:101D20006FF0010002B002F0ADBC00BF003802400D
:101D30000268094B9A4282B00BD100230193074BF2
:101D40001A6B42F480521A631B6B03F480530193A5
:101D5000019B02B0704700BF0030024000380240D3
:101D600007B50F4B02689A4216D10022A3F5F04343
:101D70000192196B41F4000119631B6B03F400031A
:101D8000019305215A20019B02F07CFC5A2003B0EC
:101D90005DF804EB02F0A8BC03B05DF804FB00BFE3
:101DA00000B002402DE9F043044689B0142200211E
:101DB00003A81FF06CFF2268244B9A4243D1244CA5
:101DC000244800250095236B43F004032363236B11
:101DD00003F004030093009B0195236B43F0010380
:101DE0002363236B03F001030193019B4FF012095E
:101DF0004FF400734FF001080327042603A9CDE92F
:101E00000339CDE90587079602F086FD4FF480730C
:101E10001148079603A9CDE90339CDE9058702F0FA
:101E20007BFD0295236C43F400032364236C03F4CD
:101E300000030293029B236A43F400032362236A94
:101E400023F40003236209B0BDE8F083005C004086
:101E5000003802400008024000000240F0B599B08E
:101E600004461422002107A81FF011FF30220DEBB9
:101E7000020000211FF00BFF22685E4B9A4240F0E7
:101E8000B78008230C93C0231093042312930CA84B
:101E90004FF40033159303F02DFF08B1FFF726FF31
:101EA000554B5648002400945A6C42F080625A64A4
:101EB0005A6C02F080620092009A01941A6B42F010
:101EC00020021A631A6B02F020020192019A029416
:101ED0001A6B42F001021A631A6B02F001020292BD
:101EE000029A03941A6B42F002021A631A6B02F010
:101EF00002020392039A04941A6B42F040021A639E
:101F00001A6B02F040020492049A05941A6B42F094
:101F100004021A631A6B02F004020592059A0694F1
:101F20001A6B42F008021A631B6B03F00803069356
:101F300002250E26069B0B964FF4806307A9CDE978
:101F40000735CDE9094502F0E7FC41F658032C4876
:101F50000B9607A9CDE907350927CDE9094502F018
:101F6000DBFC032327480B9707A9CDE90735CDE90B
:101F7000094502F0D1FC4FF4706322480B9607A983
:101F8000CDE90735CDE9094502F0C6FC4FF40C63F5
:101F90001D480B9607A9CDE90735CDE9094502F0A3
:101FA000BBFCC02319480B9607A9CDE90735CDE93D
:101FB000094502F0B1FC082315480B9607A9CDE9A5
:101FC0000735CDE9094502F0A7FC4FF4A0530E48B0
:101FD0000B9707A9CDE90735CDE9094502F09CFC2F
:101FE00058202246052102F04DFB582002F07CFBD0
:101FF00019B0F0BD006801400038024000140240F2
:1020000000000240000402400018024000080240A4
:10201000000C024010B5044688B01422002103A829
:102020001FF035FE2268144B9A4223D103F5684312
:10203000002101915A6C114842F480125A645A6C82
:1020400002F480120192019A02911A6B42F020026E
:102050001A631B6B03F020030293029B4FF4607220
:1020600002230321CDE903230523CDE9061303A9A8
:1020700002F052FC08B010BD0050014000140240B4
:102080002DE9F04186B0002303932B4B1C68002CF4
:102090004FD14FF00108C3F80080284B00949A6B91
:1020A000274842EA08029A639B6B03EA08030093FD
:1020B000022703260C25009B01A94FF63F03CDE91B
:1020C0000137CDE9046502F027FC1E48059501A9FA
:1020D000CDE90187CDE9034602F01EFC48F2331337
:1020E0001948059501A9CDE90137CDE9034602F06C
:1020F00013FC4FF683731548059501A9CDE9013707
:10210000CDE9034602F008FC4CF203731048059534
:1021100001A9CDE90137CDE9034602F0FDFB6023BB
:102120000C48059501A9CDE90137CDE9034602F038
:10213000F3FB06B0BDE8F0817C27002000380240A8
:102140000014024000080240001802400010024043
:10215000000C02400004024070B588B000230293D6
:10216000204B1A6C42F010021A641B6C03F010032F
:102170000293054601A903A8029B03F09DFD069B5F
:102180004BBB03F089FD184E184B336040F2E73328
:10219000F360174BB0FBF3F3013B73603046002351
:1021A0003361B360B36104F0C5FB044680B93046C7
:1021B00004F096FA044658B9362002F095FA0F2D2D
:1021C0000DD822462946362002F05CFA094B1D60E4
:1021D000204608B070BD03F05FFD4000D3E7012446
:1021E000F6E700BF003802408027002000100040C2
:1021F00040420F007C0000207047FEE7FEE7FEE74C
:10220000FEE77047014804F0A9BA00BF802700200C
:10221000014803F0E9B900BF38260020014802F068
:10222000ADBA00BF342700200120704708B51FF069
:10223000D1FD162303604FF0FF3008BD08B51FF035
:10224000C9FD16230360FEE770B50D4614460E4621
:10225000731B9C4201DC204670BDAFF3008006F882
:10226000010BF5E770B50D4614460E46731B9C42F4
:1022700001DC204670BD16F8010BAFF30080F5E7D6
:102280004FF0FF3070474FF400534B600020704711
:1022900001207047002070470A4A116808B50346BC
:1022A00009B9094911601068694603448B4206D98F
:1022B0001FF090FD0C2303604FF0FF3008BD13604A
:1022C000FCE700BFC827002020430120704710B55D
:1022D000042104461EF098FB204610BD012908B5D4
:1022E00006D0022908D059B901F0A0FD006808BD48
:1022F00001F09CFD4068FAE701F098FD8068F6E780
:102300000020F4E700487047E83A02080F207047C1
:1023100013B5002451B1036801948DF8034001AA5C
:102320009C680DF10303A04702B010BD0846FBE70F
:10233000C0897047008A7047C0887047808870479E
:10234000807A00F07F007047807AC00970470020D3
:10235000704700009FED010A704700BF00000000B9
:102360007047704700F598730868496803C3704761
:10237000704770474160704770477047064BC0F820
:102380004C310023C0F8503100F5A273C0F8480169
:10239000C0F84031704700BFF927000801230372DD
:1023A00070477047704770477047704738B50546AB
:1023B00040680368DB699847044604B938BDA188C2
:1023C000AB89C91A236820461B6B09B29847A469D8
:1023D000F3E738B5054640680368DB69984704466B
:1023E00004B938BDE188AB89C91A236820465B6B04
:1023F00009B29847A469F3E738B505464068036811
:10240000DB699847044604B938BDA188AB89C91A6D
:10241000236820461B6B09B29847A469F3E710B400
:10242000C26841685410034601EB6200D20748BFFE
:102430000A599B685DF8044B48BFD35818470346B8
:10244000406830B19A681AB9D86800F00100704746
:102450000120704710B50C2104461EF0D5FA204625
:1024600010BD10B5102104461EF0CEFA204610BD56
:1024700010B5102104461EF0C7FA204610BD10B555
:10248000102104461EF0C0FA204610BD10B51021E0
:1024900004461EF0B9FA204610BD10B54FF4AE71D7
:1024A00004461EF0B1FA204610BD10B54021044686
:1024B0001EF0AAFA204610BD10B50BF053FF0368BA
:1024C000BDE81040DB6B184710B50BF04BFF0368FD
:1024D000BDE810405B6B184710B50BF043FF036875
:1024E000BDE810405B6B184710B50BF03BFF03686D
:1024F000BDE810405B6B184737B50546807A6B7AAC
:102500000130C0B29842A87205D901232B72002372
:10251000AB7203B030BDB5F90C20B5F90E40002107
:102520000EF0CCF9C30707D500284FF6FF73C8BFDC
:10253000012313FA80F000B2AB7AE881041B012B6F
:10254000A4B206D1174B1B781BB10BF00BFF0BF09D
:102550000FFF154A00231288ADF80230EB891A44A8
:102560005B42ADF80430114BADF800201B88ADF88C
:1025700006300BF0F7FE036802AA12E906001B6C96
:10258000984768680368DB6998470546002DC0D006
:10259000A9882B68214428461B6B09B29847AD696E
:1025A000F4E700BFDE350120D4350120D635012007
:1025B00037B50546807A6B7A0130C0B29842A8726E
:1025C00005D901232B720023AB7203B030BDB5F9DE
:1025D0000C20B5F90E4000210EF070F9C30707D5A5
:1025E00000284FF6FF73C8BF012313FA80F000B232
:1025F000AB7AE881041B012BA4B206D1134B1B78E4
:102600001BB10BF0AFFE0BF0B3FE00230093EB8980
:10261000ADF804300E4B1B88ADF806300BF0A2FE6F
:10262000036802AA12E906001B6C984768680368F1
:10263000DB6998470546002DC7D0A9882B6821443F
:1026400028461B6B09B29847AD69F4E7DE350120D7
:10265000D635012037B50546807A6B7A0130C0B295
:102660009842A87205D901232B720023AB7203B0E4
:1026700030BDB5F90C20B5F90E4000210EF01EF961
:10268000C30707D500284FF6FF73C8BF012313FA0D
:1026900080F000B2AB7AE881041B012BA4B206D112
:1026A000174B1B781BB10BF05DFE0BF061FE154A5A
:1026B00000231288ADF80030EB891A44ADF80220EF
:1026C000114A5B421288ADF80420ADF806300BF0D9
:1026D00049FE036802AA12E906001B6C9847686865
:1026E0000368DB6998470546002DC0D0E9882B6850
:1026F000214428465B6B09B29847AD69F4E700BFF7
:10270000DE350120D6350120D4350120054B1B785C
:1027100001462BB1406818B103680C315B6E184755
:10272000704700BFDF350120037A70B50546BBB99D
:1027300040680368DB69984704463CB968680368E9
:1027400005F10C011B6EBDE870401847A1886B8F26
:10275000C91A236820461B6B09B29847A469ECE7A5
:1027600070BD10B50446D0F8400158B10368DB686D
:10277000984738B1D4F8400103689B689847002314
:10278000C4F8403110BD70B5044690F8390094F893
:1027900038300130C0B2984284F8390005D901239D
:1027A0002372002384F8393070BDB4F93A20002137
:1027B0000EF084F8C30706D500284FF6FF73C8BF94
:1027C0000123184400B2238AC01AA08760680368F6
:1027D000DB69984705462DB960680368BDE870401D
:1027E0005B691847A988A38F19442B6828461B6B7F
:1027F00009B29847AD69EEE72DE9F14FD0E9556A86
:102800000746B06803681B6A9847B0F5887F05D211
:10281000444B454AA32145481FF032F870680368CD
:102820001B6A98470F2803D8414B3F4AA421F2E77F
:10283000F06803681B6A98470B2803D83D4B3A4A57
:10284000A521E8E70BF08EFDDFF8F09004300BF0E7
:10285000D6FDD9F8000010B10368DB689847D9F8B5
:10286000000010B103681B689847DFF8D480D8F8DF
:10287000000010B103685B699847D7F83C0110B1BC
:1028800003685B689847D8F8000010B103681B68BC
:102890009847D7F83C0110B103689B689847F068E7
:1028A000036800215B6A98474FF0000B224BC0F889
:1028B00004B0044680F808B00360B0680368594665
:1028C0005B6A9847054601F095FB706803685946B6
:1028D0005B6A98472946064601F06AFB331DC7F834
:1028E0003C61C9F80040C8F80050CAF800302B68B5
:1028F000C6F808A02846DB68EE6398473368304680
:102900001B689847214628460DF0D2FF23682046D1
:102910001B69984723685B69204601B0BDE8F04F0A
:10292000184700BF052E0208932E0208612F0208E7
:10293000A82F02084B300208883C020828360120E4
:10294000243601202DE9F14FD0E9556A0746B068D9
:1029500003681B6A9847B0F5887F05D2484B494AFF
:10296000A32149481EF08CFF706803681B6A9847D2
:102970000F2803D8454B434AA421F2E7F0680368C7
:102980001B6A98470F2803D8414B3E4AA521E8E728
:102990000BF0E8FCDFF8049104300BF030FDD9F8BF
:1029A000000010B10368DB689847D9F8000010B147
:1029B00003681B689847DFF8E880D8F8000010B17A
:1029C00003685B699847D7F83C0110B103685B68FE
:1029D0009847D8F8000010B103681B689847D7F8EB
:1029E0003C0110B103689B689847F06803680021B8
:1029F0005B6A9847274B03604FF4A0530381264B33
:102A00001B884FF0000B80F80AB05B420446C0F808
:102A100004B0A0F80EB08381B068036859465B6AC1
:102A20009847054601F0A6FA7068036859465B6A44
:102A300098472946064601F07BFA331DC7F83C61EA
:102A4000C9F80040C8F80050CAF800302B68C6F832
:102A500008A02846DB68EE639847336830461B6859
:102A60009847214628460DF023FF236820461B691E
:102A7000984723685B69204601B0BDE8F04F1847CE
:102A8000052E0208EE300208612F0208A82F020866
:102A90004B300208F43C0208D635012028360120CC
:102AA000243601202DE9F14FD0E9556A0746B06878
:102AB00003681B6A9847B0F5887F05D2554B564A84
:102AC000A32156481EF0DCFE706803681B6A984715
:102AD0000F2803D8524B504AA421F2E7F06803684C
:102AE0001B6A98473F2803D84E4B4B4AA521E8E77D
:102AF0000BF038FCDFF8409104300BF080FCD9F883
:102B0000000010B10368DB689847D9F8000010B1E5
:102B100003681B689847DFF82481D8F8000010B1DB
:102B200003685B699847D7F83C0110B103685B689C
:102B30009847D8F8000010B103681B689847D7F889
:102B40003C0110B103689B689847F0680368002156
:102B50005B6A984705460023334A4360037245F891
:102B60000C2B0446284609F06BFB142222872F4ABF
:102B700012780023A387002A35D101232372B0687D
:102B8000036800215B6A9847054601F0B7F9706851
:102B9000036800215B6A98472946064601F08CF9D4
:102BA000331DC7F83C61C9F80040C8F80050CAF8A6
:102BB00000302B68C6F808A02846DB68EE6398470B
:102BC000336830461B689847214628460DF070FE52
:102BD000236820461B69984723685B69204601B03B
:102BE000BDE8F04F18471249124AB1F900B0E16848
:102BF000236128468B6BB2F900109847E368594669
:102C0000DB6B28469847284609F095FA094A13884D
:102C10006387B4E7052E0208D0310208612F02084D
:102C2000A82F02084B300208D03C0208DF350120F3
:102C3000D6350120D4350120283601202436012044
:102C40002DE9F14FD0E9556A0746B06803681B6A61
:102C50009847B0F5835F05D2444B454AA3214548C8
:102C60001EF00EFE706803681B6A98470F2803D891
:102C7000414B3F4AA421F2E7F06803681B6A98477A
:102C80000B2803D83D4B3A4AA521E8E70BF06AFB35
:102C9000DFF8F09004300BF0B2FBD9F8000010B16F
:102CA0000368DB689847D9F8000010B103681B6817
:102CB0009847DFF8D480D8F8000010B103685B694A
:102CC0009847D7F83C0110B103685B689847D8F87B
:102CD000000010B103681B689847D7F83C0110B199
:102CE00003689B689847F068036800215B6A98470F
:102CF0004FF0000B224BC0F804B0044680F808B037
:102D00000360B068036859465B6A9847054601F05E
:102D1000ADF97068036859465B6A984729460646CC
:102D200001F082F9331DC7F83C61C9F80040C8F8CA
:102D30000050CAF800302B68C6F808A02846DB68A7
:102D4000EE639847336830461B689847214628460B
:102D50000DF0AEFD236820461B69984723685B6928
:102D6000204601B0BDE8F04F184700BF052E02080D
:102D7000BB320208612F0208A82F02084B3002085C
:102D8000883C020828360120243601202DE9F14F25
:102D9000D0E9556A0746B06803681B6A9847B0F5E2
:102DA000835F05D2484B494AA32149481EF068FD7C
:102DB000706803681B6A98470F2803D8454B434A3D
:102DC000A421F2E7F06803681B6A98470F2803D82C
:102DD000414B3E4AA521E8E70BF0C4FADFF8049125
:102DE00004300BF00CFBD9F8000010B10368DB686D
:102DF0009847D9F8000010B103681B689847DFF8BE
:102E0000E880D8F8000010B103685B699847D7F8EC
:102E10003C0110B103685B689847D8F8000010B116
:102E200003681B689847D7F83C0110B103689B689A
:102E30009847F068036800215B6A9847274B036056
:102E40004FF4A0530381264B1B884FF0000B80F8F2
:102E50000AB05B420446C0F804B0A0F80EB083810B
:102E6000B068036859465B6A9847054601F0FEF86A
:102E70007068036859465B6A98472946064601F020
:102E8000D3F8331DC7F83C61C9F80040C8F80050BA
:102E9000CAF800302B68C6F808A02846DB68EE6345
:102EA0009847336830461B689847214628460DF0FE
:102EB000FFFC236820461B69984723685B6920460E
:102EC00001B0BDE8F04F1847052E02088D33020807
:102ED000612F0208A82F02084B300208183D020893
:102EE000D435012028360120243601202DE9F14F68
:102EF000D0E9556A0746B06803681B6A9847B0F581
:102F0000887F05D2484B494AA32149481EF0B8FCA6
:102F1000706803681B6A98470F2803D8454B434ADB
:102F2000A421F2E7F06803681B6A98470F2803D8CA
:102F3000414B3E4AA521E8E70BF014FADFF8049173
:102F400004300BF05CFAD9F8000010B10368DB68BC
:102F50009847D9F8000010B103681B689847DFF85C
:102F6000E880D8F8000010B103685B699847D7F88B
:102F70003C0110B103685B689847D8F8000010B1B5
:102F800003681B689847D7F83C0110B103689B6839
:102F90009847F068036800215B6A9847274B0360F5
:102FA0004FF4A0530381264B4FF0000B80F80AB07A
:102FB0001B88C0F804B00446A0F80EB08381B06846
:102FC000036859465B6A9847054600F097FF7068AA
:102FD000036859465B6A98472946064600F06CFF2D
:102FE000331DC7F83C61C9F80040C8F80050CAF862
:102FF00000302B68C6F808A02846DB68EE639847C7
:10300000336830461B689847214628460DF050FC2F
:10301000236820461B69984723685B69204601B0F6
:10302000BDE8F04F184700BF052E020872340208B1
:10303000612F0208A82F02084B300208AC3C02089E
:10304000D43501202836012024360120044B1B688A
:1030500093F858200AB1D86C00B99868704700BF3F
:10306000E035012070B504460D4616460BF064FAB3
:10307000104A1460104A2260104A0023C4E9512308
:10308000C4E95333C4E94F330D4B18680368012179
:103090009B68C4E955659847FFF7D8FF15F0B1FB69
:1030A000FFF7D4FF15F028FCFFF7D0FF15F030FC38
:1030B000204670BD34360120343C02081C3C020816
:1030C000E0350120064BC0F84C310023C0F85031E8
:1030D00000F5A273C0F84801C0F84031704700BF46
:1030E000ED2E0008064BC0F84C310023C0F85031DB
:1030F00000F5A273C0F84801C0F84031704700BF26
:10310000A52A0008064BC0F84C310023C0F8503106
:1031100000F5A273C0F84801C0F84031704700BF05
:1031200045290008064BC0F84C310023C0F8503147
:1031300000F5A273C0F84801C0F84031704700BFE5
:103140008D2D0008064BC0F84C310023C0F85031DB
:1031500000F5A273C0F84801C0F84031704700BFC5
:10316000412C0008064BC0F84C310023C0F8503108
:1031700000F5A273C0F84801C0F84031704700BFA5
:10318000F9270008406A7047806A704770478A884C
:103190000B8810B5D20A4C88C1699BB251F8220045
:1031A00043EA0443184410BD10B50446BAB1107B7D
:1031B00068B1537BD27A1B0203F4E0631A43236A9B
:1031C00003EB82031A888A4202D193F9020010BDF0
:1031D00005D8013880B204330028F3D1F7E7002086
:1031E000F5E710B52C2104461DF00EFC204610BD5D
:1031F00030B58BB00446BDF860500895BDF85C5002
:1032000007959DF8505006959DF84C5005959DF8F2
:10321000485004959DF8445003959DF84050029500
:103220009DF83C500195BDF8385000950CF0CCFE4F
:10323000064B2360159BE361169B2362199B636217
:103240001A9BA36220460BB030BD00BF3C3D020874
:1032500070477047704770477047704770477047B6
:1032600030B4C26844685510034604EB6200D207CC
:1032700048BF62599B6830BC48BFD35818470346C3
:10328000406830B19A681AB9D86800F001007047F8
:103290000120704710B5102104461DF0B5FB2046F3
:1032A00010BD10B54FF4887104461DF0ADFB2046EB
:1032B00010BD38B500F19803994204460D4603D17C
:1032C0000BF050F8FFF72EFFCC34A54205D10BF0E0
:1032D00049F8BDE83840FFF715BF38BD70B5036841
:1032E00004461B6B154698472368294620465B6BAE
:1032F000BDE87040184700000022C0E90122C0E983
:103300000322C0E90522C0E907224FF480728284BB
:10331000014A0260704700BFA43D020810B5262292
:10332000044600211EF0B3FC2046FFF7E5FF002312
:10333000A36284F82C30012384F82430044B2360EA
:103340004FF6FF7384F83230E3852386204610BDA4
:10335000904502082DE9F3470446264600250DF066
:10336000FBF84C4BE56346F8403B4FF026094A46D4
:10337000294630461EF08BFC3046FFF7BDFF04F1B6
:103380006C074FF0FF08444B23644A464FF6FF7327
:10339000294684F86680A5663846ADF804301EF0EC
:1033A00076FC3846FFF7A8FF3C4BE366BDF80430D7
:1033B000A4F8923001A904F1980A84F89480384660
:1033C00009F06BF804F1CC095046FFF7A7FF484617
:1033D000FFF7A4FF324BC4E94034324B2A46C4E91C
:1033E000423529463046FFF779FF3046F021FDF798
:1033F000A1FF30464FF4A071FDF79EFF04F10408D1
:103400004FF07F43A3663146404605F059FC2A46FB
:1034100029463846FFF762FF04230DEB03013846C7
:10342000ADF8043009F039F83946404605F048FC5B
:10343000504640F219121821FFF750FF04F580752D
:103440000B2301AA69465046ADF80030ADF80430B0
:1034500008F056FF51464046C4F8C05005F030FC15
:10346000484640F21D12CD21FFF738FF062301AA7E
:1034700069464846ADF80030ADF8043008F040FF2A
:103480004046C4F8F450494605F01AFC204602B004
:10349000BDE8F087243E02082845020804460208D9
:1034A0000C3E0208B332000870477047704730B4D2
:1034B000C26844685510034604EB6200D20748BF57
:1034C00062599B6830BC48BFD358184703464068D0
:1034D00030B19A681AB9D86800F00100704701202D
:1034E000704710B5102104461DF08EFA204610BD1D
:1034F00010B54FF4887104461DF086FA204610BDC1
:1035000038B500F19803994204460D4603D10AF0FC
:1035100029FFFFF707FECC34A54205D10AF022FFB0
:10352000BDE83840FFF7CEBD38BD00002DE9F347B8
:103530000446264600250DF00FF84B4BE56346F890
:10354000403B4FF026094A46294630461EF09FFB75
:103550003046FFF7D1FE04F16C074FF0FF08434BF4
:1035600023644A464FF6FF73294684F86680A566B1
:103570003846ADF804301EF08AFB3846FFF7BCFE33
:103580003B4BE366BDF80430A4F8923001A904F186
:10359000980A84F89480384608F07FFF04F1CC093B
:1035A0005046FFF7BBFE4846FFF7B8FE314BC4E973
:1035B0004034314B2A46C4E9423529463046FFF7AC
:1035C0008DFE3046F021FDF7B5FE30464FF4A07178
:1035D000FDF7B2FE04F104084FF07F43A3663146C5
:1035E000404605F06DFB2A4629463846FFF776FE31
:1035F000072301A93846ADF8043008F04EFF3946DC
:10360000404605F05DFB504637223321FFF766FE4A
:103610000C2601AA6946504604F58077ADF8006093
:10362000ADF8046008F06CFE51464046C4F8C07026
:1036300005F046FB314648464FF48C72FFF74EFECC
:1036400001AA69464846ADF80050ADF8045008F0AC
:1036500057FE4046C4F8F470494605F031FB204659
:1036600002B0BDE8F08700BF703E0208284502089E
:1036700004460208583E02080135000870477047AA
:10368000704730B4C26844685510034604EB6200CA
:10369000D20748BF62599B6830BC48BFD35818470F
:1036A0000346406830B19A681AB9D86800F0010042
:1036B00070470120704710B5102104461DF0A4F991
:1036C000204610BD10B54FF4887104461DF09CF9DA
:1036D000204610BD38B500F19803994204460D46C6
:1036E00003D10AF03FFEFFF7FDFCCC34A54205D123
:1036F0000AF038FEBDE83840FFF724BD38BD0000B1
:103700002DE9F3470446264600250CF025FF4B4BD8
:10371000E56346F8403B4FF026094A4629463046C5
:103720001EF0B5FA3046FFF7E7FD04F16C074FF0E5
:10373000FF08434B23644A464FF6FF73294684F83B
:103740006680A5663846ADF804301EF0A0FA38460B
:10375000FFF7D2FD3B4BE366BDF80430A4F892308E
:1037600001A904F1980A84F89480384608F095FE7F
:1037700004F1CC095046FFF7D1FD4846FFF7CEFDD6
:10378000314BC4E94034314B2A46C4E9423529461D
:103790003046FFF7A3FD3046F021FDF7CBFD304664
:1037A0004FF4A071FDF7C8FD04F104084FF07F430A
:1037B000A3663146404605F083FA2A462946384634
:1037C000FFF78CFD082301A93846ADF8043008F056
:1037D00064FE3946404605F073FA504682221821AD
:1037E000FFF77CFD04F58075032301AA6946504666
:1037F000ADF80030ADF8043008F082FD5146404687
:10380000C4F8C05005F05CFA4846AF221821FFF713
:1038100065FD022301AA69464846ADF80030ADF8BF
:10382000043008F06DFD4046C4F8F450494605F0F8
:1038300047FA204602B0BDE8F08700BFBC3E020850
:103840002845020804460208A43E0208D5360008AE
:103850007047000010B5034B0360044609F032FDC9
:10386000204610BDF03E020810B5064B036004462A
:1038700009F028FD20464FF483511DF0C5F820467D
:1038800010BD00BFF03E020870B504461D46BDF9EC
:103890001060FFF723FD2368294620469B6B98475D
:1038A000236831462046DB6BBDE8704018470000B6
:1038B000002310B5C0E90133C0E90333C0E9073381
:1038C000C0E905334FF480738384064B03600B8893
:1038D000C384FF23044680F8283008F0DEFD20462C
:1038E00010BD00BF044602082DE9F04F04468BB01E
:1038F0000CF032FE9E4B23609E4B0025C4E9103530
:103900004FF4807304F16C0BA4F86430FF234FF67E
:10391000FF7684F8663004F1980A09A9C4E91255C3
:10392000C4E91455C4E91655E5632566A5665846ED
:1039300004F1C409ADF82460FFF7BAFF09A95046A5
:10394000ADF82460FFF7B4FF09A94846ADF824603C
:10395000FFF7AEFF04F1F00309A918460293ADF892
:103960002460FFF7A5FF04F58E7309A91846039399
:10397000ADF82460FFF79CFF04F5A47309A904F5D2
:10398000BA7718460493ADF82460FFF791FF3846E4
:1039900008F0DEF904F5F27318460693FDF7AEFD64
:1039A000754BC4F8E4312433C4F8EC3104F5FC73EE
:1039B000184609A9C4F8F05104F509780593ADF843
:1039C0002460FFF775FF09A94046ADF82460FFF7B2
:1039D0006FFF4FF4616104F5147009F069FC4FF456
:1039E000A07304F140002A4600932946F023079073
:1039F000FFF74AFF0798261D4FF07F43A366014655
:103A0000304605F05DF92A4629465846FFF766FC20
:103A1000092309A95846ADF8243008F03EFD59465F
:103A2000304605F04DF94FF496722D215046FFF7C0
:103A300055FC052309A95046ADF8243008F02DFDAA
:103A40005146304605F03CF94FF4827248466921F0
:103A5000FFF744FC0E23484609A9ADF8243008F0CE
:103A60001CFD4946304605F02BF9DE2202985A210A
:103A7000FFF734FC4FF00D090298ADF8249009A926
:103A800008F00BFD0299304605F01AF9DE22039882
:103A9000AA21FFF723FC0398ADF8249009A908F0A8
:103AA000FCFC0399304605F00BF9DE2204980A214C
:103AB000FFF714FC0498ADF8249009A908F0EDFC78
:103AC0000499304605F0FCF80F230093D822F02328
:103AD00029463846FFF7D8FE284BC4F8F0314FF698
:103AE000BC734FF04009A4F8F431069BC4F89C3134
:103AF0004A462946384608F041FA4A464FF4F05102
:103B0000384608F046FAD4F8B0314B4504D0C4F832
:103B1000B091384608F03CF93846012108F044FAE3
:103B20003946304605F0CCF8232205980A21FFF7E4
:103B3000D5FB01230598ADF8243009A908F0ADFCA8
:103B40000599304605F0BCF8462240460A21FFF7A9
:103B5000C5FB0A2309A94046ADF8243008F09DFCB6
:103B60003046414605F0ACF820460BB0BDE8F08F7A
:103B7000F03E0208284502081C420208E2F4FFFF5A
:103B80007047000030B5164D2C6814F001048FB05A
:103B9000BFF35B8F20D128461CF038FFE0B13F23F4
:103BA0000993104B0893104B104911480A940122B5
:103BB000CDE906430423CDE903320A230093CDE97E
:103BC0000B44CDE901440594FFF712FB09481DF0B1
:103BD00075FE28461CF026FF05480FB030BD00BF1B
:103BE000CC2700207450020880500208445002087C
:103BF000D0270020813B00087047000030B5164DEB
:103C00002C6814F001048FB0BFF35B8F20D12846DD
:103C10001CF0FCFEE0B13F230993104B0893104BBE
:103C2000104911480A940122CDE906430423CDE945
:103C3000033214230093CDE90B44CDE901440594EC
:103C4000FFF7D6FA09481DF039FE28461CF0EAFEB7
:103C500005480FB030BD00BFFC2700207850020897
:103C6000845002085450020800280020F93B000844
:103C70007047000030B5164D2C6814F001048FB069
:103C8000BFF35B8F20D128461CF0C0FEE0B13F237C
:103C90000993104B0893104B104911480A940122C4
:103CA000CDE906430423CDE9033228230093CDE96F
:103CB0000B44CDE901440594FFF79AFA09481DF039
:103CC000FDFD28461CF0AEFE05480FB030BD00BF1C
:103CD0002C2800207C5002088850020864500208FA
:103CE00030280020713C00080020704700207047F9
:103CF0000EB403B503AB002153F8042B01930BF072
:103D0000E1FB02B05DF804EB03B070470CB407B5FB
:103D100004AB53F8042B01930BF0D4FB03B05DF814
:103D200004EB02B070470000436C10B5044673B357
:103D3000038F2BB9184B194AC52119481DF0A0FD56
:103D4000C38E00EB43035B8C0BB30DF0D8FA238FCB
:103D5000012B03D8134B144ACB21EEE7E28E531C00
:103D60009BB2092B194688BFA3F10A0104EB41015C
:103D700040F63F10498C814209D10A2B04EB4202E4
:103D800028BF002304EB4303508C58845184204601
:103D9000BDE810400DF0B6B95D3502086635020881
:103DA000113602085B360208693602080DF071B957
:103DB00038B518BB124B13481C681349B4B12268BC
:103DC00022440260626822440A60A26814440F4BD5
:103DD00000221A8000F02AF8054600F025F80C4B66
:103DE0001C600C4B1D600C4B188007E00B4B0360F4
:103DF0000B4B0B600B4B1C68002CE8D138BD00BF8F
:103E000068280020602800205C280020642800200A
:103E100038360120403601203C36012090500208FF
:103E20008C500208945002080020704700487047E8
:103E30006C28002010B5FFF7E1FE044C2060FFF76E
:103E400019FF6060FFF79EFEA06010BD6C28002087
:103E500010B5002404600C6014601C6010BD704735
:103E600010B54FF4AE7104461CF0CEFD204610BDD7
:103E700010B50446D0F8580100F08BF82046BDE894
:103E800010400AF019BB000010B50446FFF7EAF82D
:103E9000014B2360204610BD243F020870470438C0
:103EA0007047704710B5102104461CF0ADFD204648
:103EB00010BDA0F10400F5E700228260024A026012
:103EC00018324260C1607047783F020870470000B6
:103ED00010B5034B03600446FFF7C0F9204610BD40
:103EE000A03F020810B50446FFF7F2FF20464FF44A
:103EF00088711CF089FD204610BD000010B50446F5
:103F0000FFF728FA014B2360204610BDA03F0208AE
:103F1000FFF7A5B9704704387047704710B51021F6
:103F200004461CF071FD204610BDA0F10400F5E729
:103F300000228260024A026018324260C16070470B
:103F4000D43F02087047000010B5034B03600446DD
:103F5000FFF7ABFA204610BDFC3F020810B504463F
:103F6000FFF7F2FF20464FF488711CF04DFD20460C
:103F700010BD000010B50446FFF7D8FA014B2360CE
:103F8000204610BDFC3F0208FFF790BA00220260F5
:103F900070477047704704387047704710B510215C
:103FA00004461CF031FD204610BDA0F10400F5E7E9
:103FB00000228260024A026018324260C16070478B
:103FC000304002087047000010B5034B0360044600
:103FD000FFF755FB204610BD5840020810B50446B7
:103FE000FFF7F2FF20464FF488711CF00DFD2046CC
:103FF00010BD000010B50446FFF782FB014B2360A3
:10400000204610BD58400208FFF73ABB70470438FD
:104010007047704710B5102104461CF0F5FC20468F
:1040200010BDA0F10400F5E700228260024A0260A0
:1040300018324260C16070478C400208704700002F
:1040400010B5034B03600446FFF704FC204610BD87
:10405000B440020810B50446FFF7F2FF20464FF4C3
:1040600083511CF0D1FC204610BD000010B5044661
:10407000FFF73AFC014B2360204610BDB440020814
:10408000FFF7E6BBF02070474FF4A070704729207F
:10409000FDF7D2BD2820FDF7CFBD08B5FDF7A0FD87
:1040A000CA20FDF7C9FDC320FDF7AAFD0820FDF7D2
:1040B000A7FD5020FDF7A4FDCF20FDF7BDFD00209A
:1040C000FDF79EFDC120FDF79BFD3020FDF798FD1B
:1040D000ED20FDF7B1FD6420FDF792FD0320FDF713
:1040E0008FFD1220FDF78CFD8120FDF789FDE82072
:1040F000FDF7A2FD8520FDF783FD0020FDF780FD83
:104100007820FDF77DFDCB20FDF796FD3920FDF7EA
:1041100077FD2C20FDF774FD0020FDF771FD3420A4
:10412000FDF76EFD0220FDF76BFDF720FDF784FD26
:104130002020FDF765FDEA20FDF77EFD0020FDF75C
:104140005FFD0020FDF75CFDB120FDF775FD00204F
:10415000FDF756FD1B20FDF753FDB620FDF76CFD66
:104160000A20FDF74DFDA220FDF74AFDC020FDF716
:1041700063FD1020FDF744FDC120FDF75DFD10201B
:10418000FDF73EFDC520FDF757FD4520FDF738FD45
:104190001520FDF735FDC720FDF74EFD9020FDF7FA
:1041A0002FFD3620FDF748FDC820FDF729FDF22040
:1041B000FDF742FD0020FDF723FDB020FDF73CFD9B
:1041C000C220FDF71DFDB620FDF736FD0A20FDF7E4
:1041D00017FDA720FDF714FD2720FDF711FD042092
:1041E000FDF70EFD2A20FDF727FD0020FDF708FD55
:1041F0000020FDF705FD0020FDF702FDEF20FDF793
:10420000FFFC2B20FDF718FD0020FDF7F9FC002036
:10421000FDF7F6FC0120FDF7F3FC3F20FDF7F0FC75
:10422000F620FDF709FD0120FDF7EAFC0020FDF76F
:10423000E7FC0620FDF7E4FC2C20FDF7FDFCC82080
:10424000FDF748FD2620FDF7F7FC0120FDF7D8FC1F
:10425000E020FDF7F1FC0F20FDF7D2FC2920FDF74F
:10426000CFFC2420FDF7CCFC0C20FDF7C9FC0E2070
:10427000FDF7C6FC0920FDF7C3FC4E20FDF7C0FC8E
:104280007820FDF7BDFC3C20FDF7BAFC0920FDF7C6
:10429000B7FC1320FDF7B4FC0520FDF7B1FC172097
:1042A000FDF7AEFC1120FDF7ABFC0020FDF7A8FCEC
:1042B000E120FDF7C1FC0020FDF7A2FC1620FDF770
:1042C0009FFC1B20FDF79CFC0420FDF799FC1120AE
:1042D000FDF796FC0720FDF793FC3120FDF790FCDD
:1042E0003320FDF78DFC4220FDF78AFC0520FDF709
:1042F00087FC0C20FDF784FC0A20FDF781FC2820B8
:10430000FDF77EFC2F20FDF77BFC0F20FDF778FCEE
:104310001120FDF791FCC820FDF7DCFC2920FDF7FA
:104320008BFCBDE808402C20FDF786BC08B5FDF7E6
:1043300057FC0321D320FDF79BFC80B208BD10B5CC
:10434000C4B2022203212046FDF700FC0A20FDF73B
:1043500045FC204600220321FDF7F8FBBDE8104094
:104360000220FDF73BBC38B50446E4B2FDF7ECFB98
:1043700000212046FDF702FC012105462046FDF7FD
:10438000FDFB40EA052080B238BD10B5C4B2402123
:104390002046FDF7F3FB030607D54C212046FDF729
:1043A000EDFB003818BF012010BD01224B21204633
:1043B000FDF7CCFB204600224B21FDF7C7FB002078
:1043C000F2E773B50423C4B20E461546D7210DEBB0
:1043D00003022046FDF7ECFB019B1BBA1A0DC3F349
:1043E0000B23328020462B8001224B21FDF7AEFBB0
:1043F00000224B212046FDF7A9FB02B070BD000052
:1044000010B50A4A1378984204460DD05178884274
:104410000AD00BB141B90123D454FDF795FB2046D6
:10442000BDE81040FFF78BBF10BD00BF782800200B
:1044300010B5C4B209212046FDF7A0FB40F00102EF
:10444000D2B220460921BDE81040FDF77FBB10B570
:10445000C4B209212046FDF791FB092100F0FE02BC
:104460002046BDE81040FDF771BB38B5C4B20D461B
:1044700020460A21FDF782FB40EA0502D2B220461F
:104480000A21BDE83840FDF761BB10B50446FDF7D1
:104490005CFB20461F21FFF7E8FF2046BDE81040E7
:1044A000FFF7C6BF38B5C4B20D4620460A21FDF756
:1044B00065FB20EA0502D2B220460A21BDE8384059
:1044C000FDF744BB10B50446FFF7C1FF20461F218E
:1044D000BDE81040FFF7E6BF10B5C0B20C460B2197
:1044E000FDF74CFB204010BD1F21FFF7F5BF0A462A
:1044F000C0B20B21FDF72ABB1F21FFF7F8BF38B56B
:10450000C4B20D4620461721FDF738FB20EA05020C
:10451000D2B220461721BDE83840FDF717BB70B571
:10452000C4B2064604212046FDF728FB042100F012
:10453000FB0205462046FDF709FB3046F021FFF758
:10454000DEFF05F0F80220460421FDF7FFFA4922BC
:1045500020212046FDF7FAFA0220FDF73FFB204616
:1045600001222121FDF7F2FA20469A224121FDF78E
:10457000EDFA204601224A21FDF7E8FA2046012201
:104580004B21FDF7E3FA204600224B21FDF7DEFA2E
:10459000204601225621FDF7D9FA20460122582152
:1045A000FDF7D4FA204601224021FDF7CFFA20463C
:1045B000FF220B21FDF7CAFABDE870400220FDF78B
:1045C0000DBB0000054BD3F8882042F47002C3F8FD
:1045D00088204FF000629A60704700BF00ED00E055
:1045E00008B50B4B1A6842F400721A601A6842F45C
:1045F00080621A601A6842F480721A60032000F028
:104600002FF80020FDF7A8FDFDF772FB002008BD84
:10461000003C0240034A044B11681B780B441360B2
:10462000704700BF7C28002078000020014B1868EC
:10463000704700BF7C28002038B50446FFF7F6FF1E
:10464000631C1CBF054B1B78054618BFE418FFF719
:10465000EDFF431BA342FAD338BD00BF7800002012
:104660000749CA6822F4E0620302120403F4E0631B
:10467000120C134343F0BF6343F40033CB60704725
:1046800000ED00E0164B30B5DC68C4F30224C4F141
:104690000703251D042B28BF0423062D4FF0FF35EB
:1046A0008CBF033C002405FA03F321EA0303A54071
:1046B00022EA0502A340002843EA0203ACBF00F14E
:1046C0006040084A4FEA0313B8BF00F00F00DBB2A6
:1046D000AABF00F56140135480F8003330BD00BF1D
:1046E00000ED00E014ED00E0002807DB044A41097A
:1046F000012300F01F00834042F82130704700BFC3
:1047000000E100E010B5044650B1437903F0FF0228
:1047100013B90271FDF70CFB01236371002010BD7A
:104720000120FCE710B5044620B390F8393003F0BF
:10473000FF021BB980F83820FDF712FB022384F832
:104740003930236861681A6822F440320A431A60DB
:104750005A6BA16822F007020A435A631A6CE16897
:104760006FF30D020A431A6400200123E06384F80A
:10477000393010BD0120FCE770477047036870B501
:104780005E681D68F207044614D5E90512D51A685B
:1047900022F480721A60C26B42F00102C2630122ED
:1047A0009A60042380F83930002380F83830436958
:1047B00003B19847B20616D5AB0414D523681A681E
:1047C00022F400521A6020229A60E36B43F0020345
:1047D000E363042384F83930002384F838306369B4
:1047E0000BB120469847300716D5290514D5236804
:1047F0001A6822F400621A6008229A60E36B43F0A0
:104800000403E363042384F83930002384F8383048
:1048100063690BB12046984772070BD56B0509D524
:1048200023681A6822F480621A6004229A60204683
:10483000FFF7A2FFB00714D5A90512D523681A689F
:1048400022F400721A6002229A60E36BE363012390
:1048500084F83930002384F8383023690BB12046BE
:104860009847F20613D5EB0411D523681A6822F491
:1048700080521A6010229A60E36BE363012384F88C
:104880003930002384F838302046FFF776FF70BDBA
:10489000F0B590F83820012A03464FF002002BD0E3
:1048A000012283F8382083F8390003EB0112D2E9A2
:1048B0000740556A174F44EA0040093C012C9CBF51
:1048C00005F07F4210434FEA01161A6888BF40EA9C
:1048D000056091B9516A394001435162012C9969CF
:1048E000916103D8596A21F07F4191620122002031
:1048F00083F8392083F83800F0BDD169394001438D
:10490000D1619919012C896911619CBF25F07F45FE
:104910001562EBE7F0FFFC002DE9F74FDFF8BC91E3
:104920006C4A00230D6801249C4004EA0506AC4350
:1049300040F0B7804D68032705F003044FEA4308B1
:1049400007FA08FC671E012F6FEA0C0C34D8876841
:1049500007EA0C0ECF6807FA08F747EA0E078760E8
:10496000476827EA060EC5F300179F4047EA0E077F
:104970004760C76807EA0C0E8F6807FA08F747EA2E
:104980000E07022CC76019D14FEAD30A00EB8A0A3E
:1049900003F0070BDAF820704FEA8B0B4FF00F0E85
:1049A0000EFA0BFE27EA0E0E0F6907FA0BF747EA1D
:1049B0000E07CAF8207001E0032CDAD1076804FA68
:1049C00008F407EA0C073C4315F4403F046068D044
:1049D00000240194D9F8444044F48044C9F8444088
:1049E000D9F8444023F0030707F1804704F48044DA
:1049F00007F59C37019403F0030C019CD7F808E0FD
:104A00004FEA8C0C0F2404FA0CF42EEA040E324CFC
:104A1000A0424DD004F58064A0424BD004F58064E0
:104A2000A04249D004F58064A04247D004F58064D8
:104A3000A04245D004F58064A04243D004F58064D0
:104A4000A04241D004F58064A0423FD004F58064C8
:104A5000A0423DD004F58064A04214BF0A2409247A
:104A600004FA0CF444EA0E04BC609468F74315F4AD
:104A7000801F0CBF3C4034439460D46815F4001F81
:104A80000CBF3C403443D460546815F4003F0CBF65
:104A90003C40344354601468ED0354BF3C403443FD
:104AA00014600133102B7FF43DAF03B0BDE8F08FED
:104AB0000024D5E70124D3E70224D1E70324CFE77C
:104AC0000424CDE70524CBE70624C9E70724C7E77C
:104AD0000824C5E7003C01400000024000380240C5
:104AE0000369194214BF0120002070470AB1816197
:104AF00070470904FBE7436901EA030221EA030165
:104B000041EA02418161704701684B6913F4806397
:104B10004FF0000210D06FF480634B6120230263DA
:104B200080F83D3080F83E20036C80F83C2043F054
:104B30000403036401207047184670472DE9F846C6
:104B400006460F4691461D464FEA114A3368BAF1B0
:104B5000010F0CBF5C699C6927EA0404A4B2B4FA93
:104B600084F46409A14501D0002025E06A1CEED040
:104B7000FFF75CFD089BC01AA84201D8002DE5D1C3
:104B80003368BAF1010F0CBF5B699B6927EA030325
:104B90009BB2B3FA83F35B099945D7D10023202256
:104BA000336386F83D2086F83E30326C86F83C3020
:104BB00042F0200232640120BDE8F8862DE9F04180
:104BC00004460F46164698462568686927EA00009D
:104BD00080B2C0B16B695A0517D52B6843F40073D6
:104BE0002B606FF480636B6120220023236384F8C1
:104BF0003D2084F83E30236C43F0040323640023FB
:104C000084F83C300120BDE8F081731CDDD0FFF753
:104C10000DFDA0EB0800B04201D8002ED4D12368CE
:104C20005A6927EA020292B2002ACDD0002320223C
:104C3000236384F83D2084F83E30236C1343DDE782
:104C400070B504460D46164623685B691B0601D500
:104C500000201EE02046FFF757FFC8B96A1CF3D0BA
:104C6000FFF7E4FC801BA84201D8002DECD123689B
:104C70005B6913F08003E7D12022236384F83D2091
:104C800084F83E30226C84F83C3042F020022264EA
:104C9000012070BD2DE9F0431546026885B0DDE9BD
:104CA0000C789946136843F4807313600E463B46B4
:104CB000CDF8008000224FF001110446FFF73EFFBF
:104CC000236838B11B68DB0502D54FF400732364F9
:104CD000032620E006F0FE061E611A4943463A46C6
:104CE0002046FFF76BFFA8B9236803905A69039227
:104CF0009B690393424639462046039BFFF7A0FF7A
:104D0000064660B1236C042B01BF2268136843F48C
:104D1000007313600126304605B0BDE8F083B9F199
:104D2000010F236802D1EDB21D61F4E72A0A1A616E
:104D3000394642462046FFF783FF0028E2D1236828
:104D4000F1E700BF020001002DE9FF479A46036822
:104D500015461A6842F480621A601A68DDE90C7818
:104D600042F480721A600E463B46CDF80080002265
:104D70004FF001110446FFF7E1FE236838B11B68CC
:104D8000DB0544BF4FF400732364032021E05FFA86
:104D900086F906F0FE061E612B4943463A46204638
:104DA000FFF70CFFA0B9236803905A6903929B692F
:104DB0000393424639462046039BFFF741FF58B113
:104DC000236C042B01BF2268136843F40073136043
:104DD000012004B0BDE8F087BAF1010F23681AD1B1
:104DE000EDB242461D6139462046FFF729FF0246D3
:104DF0000028E5D121680B6843F480730B602046DE
:104E0000CDF800803B464FF00111FFF797FE226876
:104E100060B11368B4E72A0A1A613946424620464F
:104E2000FFF70EFF0028CBD12368D9E749F0010333
:104E30001361054943463A462046FFF7BFFE003856
:104E400018BF0120C5E700BF0200010070B504468D
:104E50000D46164623685B695B0701D500201EE0FE
:104E60002046FFF751FEC8B96A1CF3D0FFF7DEFBFE
:104E7000801BA84201D8002DECD123685B6913F098
:104E80000403E7D12022236384F83D2084F83E30D8
:104E9000226C84F83C3042F020022264012070BD74
:104EA00070B504460D46164621684B6913F0400361
:104EB00001D0002011E04A69D2060FD56FF0100230
:104EC0004A612022236384F83D2084F83E30236C1D
:104ED0002364002384F83C30012070BDFFF7A6FB5B
:104EE000801BA84201D8002DDED123685B6913F036
:104EF0004003D9D12022236384F83D2084F83E303A
:104F0000236C1343E4E7000070B5044608B90120A0
:104F100070BD90F83D3003F0FF021BB980F83C20D3
:104F2000FCF740FF242384F83D3023681A6822F000
:104F300001021A601A6842F400421A601A6822F4E8
:104F400000421A6000F0A8FE3F4B65689D4294BF86
:104F50003E4B3F4B98428CBF00230123002BD6D100
:104F60002268394E51683B4BB0FBF3F321F03F010F
:104F70001943B542516088BF4FF49676116A88BFD5
:104F8000734321F03F0184BF4FF47A76B3FBF6F30D
:104F900001330B431362D169431E2B4821F44F4167
:104FA000854221F0FF0132D86D0040F6FC70B3FB62
:104FB000F5F30133034242D0C3F30B031943D1612C
:104FC000D4E907301168034321F0C0010B4313609B
:104FD0009168D4E9030321F40341034321F0FF0165
:104FE0000B439360D4E90530D168034321F0FF01FE
:104FF0000B43D360136843F00103136000202023A8
:10500000206484F83D30206384F83E0080E7A06887
:1050100050B905EB4505B3FBF5F30133C3F30B03BF
:105020007BB143F40043C9E719206843B3FBF0F3B5
:105030000133C3F30B0323B143F44043BEE704231E
:10504000BCE70123BAE700BFA08601007F841E00F1
:10505000FF083D0040420F002DE9F7430446994602
:105060000C9E0F469046FFF7E1FA94F83D30202B56
:10507000054603D0022003B0BDE8F08300903C4910
:10508000192301222046FFF759FD0028F2D194F898
:105090003C30012BEED02068012384F83C300368BB
:1050A000D9075EBF036843F001030360036823F47C
:1050B00000630360212384F83D30402384F83E30B0
:1050C000002323640A9B6362BDF82C306385638DE3
:1050D0002385284BE3624246CDE900654B463946BD
:1050E0002046FFF7D7FD00282AD00120C3E7FFF7AD
:1050F000A7FD40B1236C042B01BF2268136843F461
:1051000000731360F1E7636A27681A4612F8011BFF
:1051100039616262628D218D013A92B262857A694B
:10512000481E80B2520720850AD548B15A783A61A4
:1051300002336362638D013B02399BB22185638533
:10514000238D2A4631462046002BD0D1FFF77EFE24
:105150000028CFD12268136843F400731360202322
:1051600084F83D3084F83C0084F83E0083E700BFBB
:10517000020010000000FFFF2DE9F043044687B055
:105180009946109F0D469046FFF750FA94F83D302F
:10519000202B064604D00225284607B0BDE8F08340
:1051A00000907A49192301222046FFF7C7FC002806
:1051B000F1D194F83C30012BEDD02068012384F824
:1051C0003C300368DB075EBF036843F00103036004
:1051D000036823F400630360222384F83D304023F6
:1051E00084F83E30002323640E9B6362BDF83C309C
:1051F0006385638D2385664BE3622946CDE900769E
:105200004B4642462046FFF79FFD054608B1012563
:10521000C2E7228D2368B2B902905A6902929A6954
:105220000292029A1A6842F400721A60DFF86481EE
:10523000238D002B2CD1202284F83D2084F83C3093
:1052400084F83E30A8E7012A0AD11A6822F4806265
:105250001A6003905A6903929A690392039AE1E7EC
:10526000022A0ED11A6822F480621A601A6842F487
:1052700000621A6004905A6904929B690493049B2B
:10528000D4E705905A6905929B690593059BCDE784
:10529000032B56D8012B15D1324639462046FFF74D
:1052A000FFFD0028B3D123681A69636A1A70636A24
:1052B00001336362238D013B2385638D013B9BB2E8
:1052C0006385B5E7022B00963B464FF0000241464E
:1052D000204619D1FFF732FC002898D123681A68BC
:1052E00042F400721A601A69636A1A70626A531C87
:1052F0006362238D013B2385638D013B9BB26385F4
:1053000023681B695370D2E7FFF718FC0246002898
:105310007FF47DAF2368196821F4806119601969F1
:10532000636A1970636A01336362238D013B2385CD
:10533000638D013B9BB26385414600963B46204608
:10534000C8E7324639462046FFF7AAFD00287FF419
:105350005EAF23681A69636A1A70628D616A013AE6
:1053600092B24B1C628522686362238D5069013BB7
:105370009BB2400723857FF55BAF032B02BF136809
:1053800023F48063136013694B7090E702001000F0
:105390000000FFFF0400010010B590F83D30202B05
:1053A000DCB216D1242380F83D3003681A6822F05D
:1053B00001021A605A6A22F010025A625A6A1143B4
:1053C00059621A6842F001021A6080F83D400020DC
:1053D00010BD0220FCE730B590F83D30202BDCB248
:1053E00016D10268242380F83D30136823F00103AE
:1053F0001360556A4FF6F0732B400B439BB2536218
:10540000136843F00103136080F83D40002030BD75
:105410000220FCE70068D1F800C0D2018432831872
:105420002DE9F043C6685D684C68D1F8189005F422
:1054300070455D60C5680CF10107C5F30B45C6F307
:105440000B4626443D4445EA06455D60C668CD6886
:10545000C6F30A062E449D6805F470459D60C76832
:105460008D68C7F30A0701353D4445EA06459D604E
:105470001D690E6925F007051D614FF0000E1E61C4
:1054800091F832709D6991F83180C3F818E091F875
:10549000305045EA096545EA082545EA07459D611A
:1054A0005D6925F0FF055D614D695D61DD6925F48C
:1054B000E06525F00705DD61D1E907573D43DD6172
:1054C0009D6A4D6AC3F828E0072E9D629CBF0E4D71
:1054D000AE5DDD6A05F0E025DD6288BF01268D6ADC
:1054E000C96AA4EB0C0474437543033444EA0544CD
:1054F000DC621C6B6FF30A041C631963835843F06E
:1055000001038350BDE8F083F840020838B5044633
:10551000002863D090F8A13003F0FF021BB980F897
:10552000A020FCF79BFC022384F8A13023689A6931
:1055300022F070429A61D4E901200243E06899693F
:105540000243206902430A439A619A6824496069C8
:105550000A409A609A6842EA0042A06902439A604F
:10556000DA68E0690A40DA60DA6842EA0042206AF2
:105570000243DA601A69606A0A401A611A6942EAEB
:105580000042A06A02431A615A690A405A615A6984
:10559000E16A42EA0142216B0A435A61DA6A94F8ED
:1055A000350094F8361002F07F42DA62DD6A94F832
:1055B00034202A4342EA002242EA0142DA625A6B6C
:1055C00042F006025A639A6942F001029A61002091
:1055D0000123C4F8A40084F8A13038BD0120FCE701
:1055E00000F800F070477047036870B59E6B5D6B04
:1055F0007207044614D5690712D55A6B22F00402CB
:105600005A630422DA63D0F8A43043F00103C0F8EF
:10561000A430002380F8A12080F8A030FFF7E2FF3B
:10562000B20716D5AB0714D523685A6B22F00202D5
:105630005A630222DA63D4F8A4301343C4F8A430C6
:10564000042384F8A130002384F8A0302046FFF71B
:10565000C9FFF00710D5E9070ED523685A6B22F071
:1056600001025A630122DA63002384F8A12084F83E
:10567000A0302046FBF7D0FF320711D52B070FD5FE
:1056800023685A6B22F008025A630822DA63012366
:1056900084F8A130002384F8A0302046FFF7A3FF50
:1056A00070BD2DE9F04190F8A030012B06460F4661
:1056B00094464FF002001FD04FF0010886F8A080FA
:1056C00086F8A10034240D4604FB02640FCD383463
:1056D0000FC40FCD0FC40FCD0FC42B68236030460D
:1056E00062463946FFF796FE33680020C3F82480EF
:1056F00086F8A18086F8A000BDE8F08190F8A0208F
:10570000012A03464FF0020012D01A6883F8A10064
:10571000506B20F00100506306480164516B41F06A
:10572000010151630020012283F8A12083F8A00029
:10573000704700BF0068014037B500230193184B44
:10574000184D1A6C42F080521A641B6C03F080539F
:105750000193019B144B01221A64FEF767FF044674
:105760006B68DA030BD5104B0E4D01225A64FEF71D
:105770005DFF04466B689B030AD5002006E0FEF738
:1057800055FF001BB0F57A7FEAD9032003B030BD86
:10579000FEF74CFF001BB0F57A7FEBD9F5E700BFB1
:1057A000003802400070004000000E422DE9F34135
:1057B000044640B30368DE0710D423689D075BD41A
:1057C0002368190700F19D8023685A0700F1BD8006
:1057D000A369002B40F0248100202CE08D4B9A68B7
:1057E00002F00C02042A07D09A6802F00C02082A80
:1057F0000BD15B68590208D5864B1B689A03DCD530
:105800006368002BD9D1012015E06368814DB3F5A1
:10581000803F13D12B6843F480332B60FEF706FFE3
:105820007C4E054633689B03C7D4FEF7FFFE401B42
:105830006428F7D9032002B0BDE8F081B3F5A02FAA
:1058400004D12B6843F480232B60E3E72A6822F419
:1058500080322A602A6822F480222A60002BDDD15F
:10586000FEF7E4FE06462B689F03A6D5FEF7DEFE94
:10587000801B6428F7D9DDE7664B9A6812F00C0F9D
:1058800007D09A6802F00C02082A11D15B685D0209
:105890000ED4604A1368990702D5E368012BB2D190
:1058A0001368216923F0F80343EAC103136087E713
:1058B000E268594BB2B101221A60FEF7B7FE554DAE
:1058C00006462B689B0707D52B68226923F0F8034F
:1058D00043EAC2032B6073E7FEF7A8FE801B022891
:1058E000EFD9A7E71A60FEF7A1FE4A4E05463368D6
:1058F0009F077FF565AFFEF799FE401B0228F6D99A
:1059000098E76269444B82B10122C3F8802EFEF70A
:105910008DFE404E0546736F9B073FF555AFFEF772
:1059200085FE401B0228F6D984E7C3F8802EFEF7D7
:105930007DFE384E0546736F9F077FF545AFFEF736
:1059400075FE401B0228F6D974E7324B1A6C12F030
:10595000805228D101921A6C42F080521A641B6C5A
:1059600003F080530193019B01272C4D2B68D80530
:105970001BD5A368274D012B27D12B6F43F00103C3
:105980002B67FEF753FE234E054641F28838336FEE
:105990009A0739D5002F3FF41BAF1E4A136C23F032
:1059A0008053136414E70027DFE72B6843F4807308
:1059B0002B60FEF73BFE06462B68D905D9D4FEF7CF
:1059C00035FE801B0228F7D934E7052B04D12B6F55
:1059D00043F004032B67D0E72A6F22F001022A6705
:1059E0002A6F22F004022A67002BCAD1FEF71EFE9E
:1059F00041F2883806462B6F9B07CBD5FEF716FE83
:105A0000801B4045F7D915E7FEF710FE401B4045C7
:105A1000BDD90FE700380240000047420070004047
:105A2000374DAA6802F00C02082A3ED0022B354BF3
:105A30004FF000021A662BD1FEF7F8FD06462B68E0
:105A400099011FD4D4E907321343626A43EA8213EF
:105A5000E26A43EA0263A26A5208013A43EA024355
:105A60006B60284B264D01221A66FEF7DFFD0446C7
:105A70002B689A013FF5B0AEFEF7D8FD001B022857
:105A8000F6D9D7E6FEF7D2FD801B0228D7D9D1E69A
:105A9000FEF7CCFD04462B689B017FF59DAEFEF71B
:105AA000C5FD001B0228F6D9C4E6012B3FF4ABAEBE
:105AB0006B68E26903F4800191427FF4A4AE216A2D
:105AC00003F03F028A427FF49EAE616A47F6C072DD
:105AD0001A40B2EB811F7FF496AEA26A520803F41B
